{
  "contractName": "BondToken",
  "abi": [
    {
      "inputs": [
        {
          "internalType": "string",
          "name": "name",
          "type": "string"
        },
        {
          "internalType": "string",
          "name": "symbol",
          "type": "string"
        },
        {
          "internalType": "string",
          "name": "uri",
          "type": "string"
        }
      ],
      "stateMutability": "nonpayable",
      "type": "constructor"
    },
    {
      "anonymous": false,
      "inputs": [
        {
          "indexed": true,
          "internalType": "address",
          "name": "owner",
          "type": "address"
        },
        {
          "indexed": true,
          "internalType": "address",
          "name": "approved",
          "type": "address"
        },
        {
          "indexed": true,
          "internalType": "uint256",
          "name": "tokenId",
          "type": "uint256"
        }
      ],
      "name": "Approval",
      "type": "event"
    },
    {
      "anonymous": false,
      "inputs": [
        {
          "indexed": true,
          "internalType": "address",
          "name": "owner",
          "type": "address"
        },
        {
          "indexed": true,
          "internalType": "address",
          "name": "operator",
          "type": "address"
        },
        {
          "indexed": false,
          "internalType": "bool",
          "name": "approved",
          "type": "bool"
        }
      ],
      "name": "ApprovalForAll",
      "type": "event"
    },
    {
      "anonymous": false,
      "inputs": [
        {
          "indexed": false,
          "internalType": "uint256",
          "name": "id",
          "type": "uint256"
        },
        {
          "indexed": false,
          "internalType": "address",
          "name": "beneficiary",
          "type": "address"
        }
      ],
      "name": "BeneficiaryChange",
      "type": "event"
    },
    {
      "anonymous": false,
      "inputs": [
        {
          "indexed": false,
          "internalType": "uint256",
          "name": "id",
          "type": "uint256"
        },
        {
          "indexed": false,
          "internalType": "enum CurrencyType",
          "name": "currencyType",
          "type": "uint8"
        },
        {
          "indexed": false,
          "internalType": "address",
          "name": "location",
          "type": "address"
        },
        {
          "indexed": false,
          "internalType": "uint256",
          "name": "ERC1155Id",
          "type": "uint256"
        }
      ],
      "name": "CurrencyAdded",
      "type": "event"
    },
    {
      "anonymous": false,
      "inputs": [
        {
          "indexed": true,
          "internalType": "address",
          "name": "from",
          "type": "address"
        },
        {
          "indexed": true,
          "internalType": "address",
          "name": "to",
          "type": "address"
        },
        {
          "indexed": true,
          "internalType": "uint256",
          "name": "tokenId",
          "type": "uint256"
        }
      ],
      "name": "Transfer",
      "type": "event"
    },
    {
      "inputs": [
        {
          "internalType": "address",
          "name": "location",
          "type": "address"
        }
      ],
      "name": "addERC1155NFTCurrency",
      "outputs": [],
      "stateMutability": "payable",
      "type": "function"
    },
    {
      "inputs": [
        {
          "internalType": "address",
          "name": "location",
          "type": "address"
        },
        {
          "internalType": "uint256",
          "name": "tokenId",
          "type": "uint256"
        }
      ],
      "name": "addERC1155TokenCurrency",
      "outputs": [],
      "stateMutability": "payable",
      "type": "function"
    },
    {
      "inputs": [
        {
          "internalType": "address",
          "name": "location",
          "type": "address"
        }
      ],
      "name": "addERC20Currency",
      "outputs": [],
      "stateMutability": "payable",
      "type": "function"
    },
    {
      "inputs": [
        {
          "internalType": "address",
          "name": "location",
          "type": "address"
        }
      ],
      "name": "addERC721Currency",
      "outputs": [],
      "stateMutability": "payable",
      "type": "function"
    },
    {
      "inputs": [
        {
          "internalType": "address",
          "name": "to",
          "type": "address"
        },
        {
          "internalType": "uint256",
          "name": "tokenId",
          "type": "uint256"
        }
      ],
      "name": "approve",
      "outputs": [],
      "stateMutability": "nonpayable",
      "type": "function"
    },
    {
      "inputs": [
        {
          "internalType": "address",
          "name": "owner",
          "type": "address"
        }
      ],
      "name": "balanceOf",
      "outputs": [
        {
          "internalType": "uint256",
          "name": "",
          "type": "uint256"
        }
      ],
      "stateMutability": "view",
      "type": "function"
    },
    {
      "inputs": [
        {
          "internalType": "address[]",
          "name": "owners",
          "type": "address[]"
        }
      ],
      "name": "balanceOfBatch",
      "outputs": [
        {
          "internalType": "uint256[]",
          "name": "",
          "type": "uint256[]"
        }
      ],
      "stateMutability": "view",
      "type": "function"
    },
    {
      "inputs": [
        {
          "internalType": "uint256",
          "name": "",
          "type": "uint256"
        }
      ],
      "name": "bonds",
      "outputs": [
        {
          "internalType": "bytes32",
          "name": "",
          "type": "bytes32"
        }
      ],
      "stateMutability": "view",
      "type": "function"
    },
    {
      "inputs": [
        {
          "internalType": "uint256",
          "name": "",
          "type": "uint256"
        }
      ],
      "name": "currencies",
      "outputs": [
        {
          "internalType": "enum CurrencyType",
          "name": "currencyType",
          "type": "uint8"
        },
        {
          "internalType": "uint88",
          "name": "ERC1155SmallId",
          "type": "uint88"
        },
        {
          "internalType": "address",
          "name": "location",
          "type": "address"
        },
        {
          "internalType": "uint256",
          "name": "ERC1155Id",
          "type": "uint256"
        }
      ],
      "stateMutability": "view",
      "type": "function"
    },
    {
      "inputs": [
        {
          "internalType": "uint256",
          "name": "tokenId",
          "type": "uint256"
        }
      ],
      "name": "getApproved",
      "outputs": [
        {
          "internalType": "address",
          "name": "",
          "type": "address"
        }
      ],
      "stateMutability": "view",
      "type": "function"
    },
    {
      "inputs": [
        {
          "internalType": "address",
          "name": "owner",
          "type": "address"
        },
        {
          "internalType": "address",
          "name": "operator",
          "type": "address"
        }
      ],
      "name": "isApprovedForAll",
      "outputs": [
        {
          "internalType": "bool",
          "name": "",
          "type": "bool"
        }
      ],
      "stateMutability": "view",
      "type": "function"
    },
    {
      "inputs": [],
      "name": "name",
      "outputs": [
        {
          "internalType": "string",
          "name": "",
          "type": "string"
        }
      ],
      "stateMutability": "view",
      "type": "function"
    },
    {
      "inputs": [
        {
          "internalType": "uint256",
          "name": "tokenId",
          "type": "uint256"
        }
      ],
      "name": "ownerOf",
      "outputs": [
        {
          "internalType": "address",
          "name": "",
          "type": "address"
        }
      ],
      "stateMutability": "view",
      "type": "function"
    },
    {
      "inputs": [
        {
          "internalType": "uint256[]",
          "name": "ids",
          "type": "uint256[]"
        }
      ],
      "name": "ownerOfBatch",
      "outputs": [
        {
          "internalType": "address[]",
          "name": "",
          "type": "address[]"
        }
      ],
      "stateMutability": "view",
      "type": "function"
    },
    {
      "inputs": [
        {
          "internalType": "address",
          "name": "from",
          "type": "address"
        },
        {
          "internalType": "address",
          "name": "to",
          "type": "address"
        },
        {
          "internalType": "uint256[]",
          "name": "ids",
          "type": "uint256[]"
        },
        {
          "internalType": "bytes",
          "name": "_data",
          "type": "bytes"
        }
      ],
      "name": "safeBatchTransferFrom",
      "outputs": [],
      "stateMutability": "nonpayable",
      "type": "function"
    },
    {
      "inputs": [
        {
          "internalType": "address",
          "name": "from",
          "type": "address"
        },
        {
          "internalType": "address",
          "name": "to",
          "type": "address"
        },
        {
          "internalType": "uint256",
          "name": "tokenId",
          "type": "uint256"
        }
      ],
      "name": "safeTransferFrom",
      "outputs": [],
      "stateMutability": "nonpayable",
      "type": "function"
    },
    {
      "inputs": [
        {
          "internalType": "address",
          "name": "from",
          "type": "address"
        },
        {
          "internalType": "address",
          "name": "to",
          "type": "address"
        },
        {
          "internalType": "uint256",
          "name": "tokenId",
          "type": "uint256"
        },
        {
          "internalType": "bytes",
          "name": "_data",
          "type": "bytes"
        }
      ],
      "name": "safeTransferFrom",
      "outputs": [],
      "stateMutability": "nonpayable",
      "type": "function"
    },
    {
      "inputs": [
        {
          "internalType": "address",
          "name": "operator",
          "type": "address"
        },
        {
          "internalType": "bool",
          "name": "approved",
          "type": "bool"
        }
      ],
      "name": "setApprovalForAll",
      "outputs": [],
      "stateMutability": "nonpayable",
      "type": "function"
    },
    {
      "inputs": [
        {
          "internalType": "address[]",
          "name": "operators",
          "type": "address[]"
        },
        {
          "internalType": "bool",
          "name": "approved",
          "type": "bool"
        }
      ],
      "name": "setBatchApprovalForAll",
      "outputs": [],
      "stateMutability": "nonpayable",
      "type": "function"
    },
    {
      "inputs": [
        {
          "internalType": "bytes4",
          "name": "interfaceId",
          "type": "bytes4"
        }
      ],
      "name": "supportsInterface",
      "outputs": [
        {
          "internalType": "bool",
          "name": "",
          "type": "bool"
        }
      ],
      "stateMutability": "view",
      "type": "function"
    },
    {
      "inputs": [],
      "name": "symbol",
      "outputs": [
        {
          "internalType": "string",
          "name": "",
          "type": "string"
        }
      ],
      "stateMutability": "view",
      "type": "function"
    },
    {
      "inputs": [
        {
          "internalType": "uint256",
          "name": "",
          "type": "uint256"
        }
      ],
      "name": "tokenURI",
      "outputs": [
        {
          "internalType": "string",
          "name": "",
          "type": "string"
        }
      ],
      "stateMutability": "view",
      "type": "function"
    },
    {
      "inputs": [
        {
          "internalType": "address",
          "name": "from",
          "type": "address"
        },
        {
          "internalType": "address",
          "name": "to",
          "type": "address"
        },
        {
          "internalType": "uint256",
          "name": "tokenId",
          "type": "uint256"
        }
      ],
      "name": "transferFrom",
      "outputs": [],
      "stateMutability": "nonpayable",
      "type": "function"
    },
    {
      "inputs": [
        {
          "internalType": "uint256",
          "name": "id",
          "type": "uint256"
        }
      ],
      "name": "getBond",
      "outputs": [
        {
          "components": [
            {
              "internalType": "bool",
              "name": "flag",
              "type": "bool"
            },
            {
              "internalType": "uint32",
              "name": "currencyRef",
              "type": "uint32"
            },
            {
              "internalType": "uint16",
              "name": "nPeriods",
              "type": "uint16"
            },
            {
              "internalType": "uint16",
              "name": "curPeriod",
              "type": "uint16"
            },
            {
              "internalType": "uint64",
              "name": "startTime",
              "type": "uint64"
            },
            {
              "internalType": "uint64",
              "name": "periodDuration",
              "type": "uint64"
            },
            {
              "internalType": "uint256",
              "name": "couponSize",
              "type": "uint256"
            },
            {
              "internalType": "uint256",
              "name": "faceValue",
              "type": "uint256"
            },
            {
              "internalType": "address",
              "name": "beneficiary",
              "type": "address"
            },
            {
              "internalType": "address",
              "name": "minter",
              "type": "address"
            }
          ],
          "internalType": "struct Bond",
          "name": "",
          "type": "tuple"
        }
      ],
      "stateMutability": "view",
      "type": "function"
    },
    {
      "inputs": [
        {
          "internalType": "bytes32",
          "name": "alp",
          "type": "bytes32"
        },
        {
          "internalType": "bytes32",
          "name": "bet",
          "type": "bytes32"
        }
      ],
      "name": "mintBond",
      "outputs": [],
      "stateMutability": "payable",
      "type": "function"
    },
    {
      "inputs": [
        {
          "internalType": "uint256",
          "name": "id",
          "type": "uint256"
        },
        {
          "internalType": "address",
          "name": "newBeneficiary",
          "type": "address"
        }
      ],
      "name": "updateBeneficiary",
      "outputs": [],
      "stateMutability": "nonpayable",
      "type": "function"
    }
  ],
  "bytecode": "0x60806040523480156200001157600080fd5b5060405162002b1938038062002b198339810160408190526200003491620002be565b82828282828282600090805190602001906200005292919062000161565b5081516200006890600190602085019062000161565b5080516200007e90600290602084019062000161565b505050505050506007604051806080016040528060006004811115620000a857620000a86200038c565b8152600060208083018290526040830182905260609092018190528354600181810186559482529190208251600290920201805492939092839160ff1990911690836004811115620000fe57620000fe6200038c565b02179055506020820151815460408401516001600160a01b03166c01000000000000000000000000026001600160601b036001600160581b03909316610100029290921660ff9091161717815560609091015160019091015550620003b8915050565b8280546200016f906200034f565b90600052602060002090601f016020900481019282620001935760008555620001de565b82601f10620001ae57805160ff1916838001178555620001de565b82800160010185558215620001de579182015b82811115620001de578251825591602001919060010190620001c1565b50620001ec929150620001f0565b5090565b5b80821115620001ec5760008155600101620001f1565b600082601f8301126200021957600080fd5b81516001600160401b0380821115620002365762000236620003a2565b604051601f8301601f19908116603f01168101908282118183101715620002615762000261620003a2565b816040528381526020925086838588010111156200027e57600080fd5b600091505b83821015620002a2578582018301518183018401529082019062000283565b83821115620002b45760008385830101525b9695505050505050565b600080600060608486031215620002d457600080fd5b83516001600160401b0380821115620002ec57600080fd5b620002fa8783880162000207565b945060208601519150808211156200031157600080fd5b6200031f8783880162000207565b935060408601519150808211156200033657600080fd5b50620003458682870162000207565b9150509250925092565b600181811c908216806200036457607f821691505b602082108114156200038657634e487b7160e01b600052602260045260246000fd5b50919050565b634e487b7160e01b600052602160045260246000fd5b634e487b7160e01b600052604160045260246000fd5b61275180620003c86000396000f3fe6080604052600436106101a15760003560e01c80636352211e116100e1578063bda801171161008a578063d8fe764211610064578063d8fe764214610496578063e985e9c5146104c3578063f6d1c2711461050c578063fe9accf91461053c57600080fd5b8063bda8011714610436578063c87b56dd14610463578063cd30e2cd1461048357600080fd5b806395d89b41116100bb57806395d89b41146103e1578063a22cb465146103f6578063b88d4fde1461041657600080fd5b80636352211e1461037857806368b0d5a8146103ae57806370a08231146103c157600080fd5b806323b872dd1161014e5780633e8eb5a4116101285780633e8eb5a4146102dd57806342842e0e146102fd578063458c738e1461031d5780635f1c17c01461034a57600080fd5b806323b872dd1461028a578063275da3b4146102aa57806328cfbd46146102bd57600080fd5b8063095ea7b31161017f578063095ea7b314610235578063187ddf87146102575780631f5e180e1461027757600080fd5b806301ffc9a7146101a657806306fdde03146101db578063081812fc146101fd575b600080fd5b3480156101b257600080fd5b506101c66101c13660046120f0565b61054f565b60405190151581526020015b60405180910390f35b3480156101e757600080fd5b506101f06105ec565b6040516101d29190612391565b34801561020957600080fd5b5061021d6102183660046121e4565b61067a565b6040516001600160a01b0390911681526020016101d2565b34801561024157600080fd5b50610255610250366004611fd0565b610725565b005b34801561026357600080fd5b50610255610272366004612039565b61082f565b610255610285366004611dfe565b61091f565b34801561029657600080fd5b506102556102a5366004611f01565b61095a565b6102556102b83660046120ce565b610a35565b3480156102c957600080fd5b506102556102d8366004611e78565b610b92565b3480156102e957600080fd5b506102556102f83660046121fd565b610ce8565b34801561030957600080fd5b50610255610318366004611f01565b610eeb565b34801561032957600080fd5b5061033d610338366004611ffc565b610f06565b6040516101d2919061231a565b34801561035657600080fd5b5061036a6103653660046121e4565b610fd1565b6040519081526020016101d2565b34801561038457600080fd5b5061021d6103933660046121e4565b6000908152600360205260409020546001600160a01b031690565b6102556103bc366004611fd0565b610ff2565b3480156103cd57600080fd5b5061036a6103dc366004611dfe565b611045565b3480156103ed57600080fd5b506101f06110df565b34801561040257600080fd5b50610255610411366004611fa2565b6110ec565b34801561042257600080fd5b50610255610431366004611f42565b611158565b34801561044257600080fd5b50610456610451366004612080565b611240565b6040516101d291906122cd565b34801561046f57600080fd5b506101f061047e3660046121e4565b611312565b610255610491366004611dfe565b6113a6565b3480156104a257600080fd5b506104b66104b13660046121e4565b6113bd565b6040516101d291906123a4565b3480156104cf57600080fd5b506101c66104de366004611e3f565b6001600160a01b03918216600090815260066020908152604080832093909416825291909152205460ff1690565b34801561051857600080fd5b5061052c6105273660046121e4565b6114fc565b6040516101d29493929190612352565b61025561054a366004611dfe565b61155a565b60006001600160e01b031982167f80ac58cd0000000000000000000000000000000000000000000000000000000014806105b257506001600160e01b031982167f5b5e139f00000000000000000000000000000000000000000000000000000000145b806105e657507f01ffc9a7000000000000000000000000000000000000000000000000000000006001600160e01b03198316145b92915050565b600080546105f990612561565b80601f016020809104026020016040519081016040528092919081815260200182805461062590612561565b80156106725780601f1061064757610100808354040283529160200191610672565b820191906000526020600020905b81548152906001019060200180831161065557829003601f168201915b505050505081565b6000818152600360205260408120546001600160a01b03166107095760405162461bcd60e51b815260206004820152602c60248201527f4552433732313a20617070726f76656420717565727920666f72206e6f6e657860448201527f697374656e7420746f6b656e000000000000000000000000000000000000000060648201526084015b60405180910390fd5b506000908152600560205260409020546001600160a01b031690565b60008181526003602052604090205481906001600160a01b0316331461078d5760405162461bcd60e51b815260206004820152601b60248201527f4552433732313a2063616c6c6564206973206e6f74206f776e657200000000006044820152606401610700565b6000828152600360205260409020546001600160a01b0390811690841681141561081f5760405162461bcd60e51b815260206004820152602160248201527f4552433732313a20617070726f76616c20746f2063757272656e74206f776e6560448201527f72000000000000000000000000000000000000000000000000000000000000006064820152608401610700565b6108298484611571565b50505050565b60005b825181101561091a57336000908152600660205260408120845184929086908590811061086157610861612610565b60200260200101516001600160a01b03166001600160a01b0316815260200190815260200160002060006101000a81548160ff0219169083151502179055508281815181106108b2576108b2612610565b60200260200101516001600160a01b0316336001600160a01b03167f17307eab39ab6107e8899845ad3d59bd9653f200f220920489ca2b5937696c3184604051610900911515815260200190565b60405180910390a380610912816125c9565b915050610832565b505050565b6040805160808101909152610957908060045b81526000602082018190526001600160a01b03851660408301526060909101526115e5565b50565b60008181526003602052604090205481906001600160a01b0316338114806109a557506001600160a01b038116600090815260066020908152604080832033845290915290205460ff165b806109c657506000828152600560205260409020546001600160a01b031633145b610a235760405162461bcd60e51b815260206004820152602860248201527f4552433732313a2063616c6c6572206973206e6f74206f776e6572206e6f7220604482015267185c1c1c9bdd995960c21b6064820152608401610700565b610a2e85858561173a565b5050505050565b6040517f511e6fbd0000000000000000000000000000000000000000000000000000000081526004810182905273__LBondManager__________________________9063511e6fbd9060240160206040518083038186803b158015610a9957600080fd5b505af4158015610aad573d6000803e3d6000fd5b505050506040513d601f19601f82011682018060405250810190610ad19190611e22565b6001600160a01b0316336001600160a01b031614610b315760405162461bcd60e51b815260206004820181905260248201527f426f6e64546f6b656e3a206d696e746572206d7573742062652063616c6c65726044820152606401610700565b600854600090610b4390600290612509565b600880546001818101835560008390527ff3f7a9fe364faab93b216da50a3214154f22a0a2b415b23a84c8169e8b636ee3918201879055825490810190925501839055905061091a3382611914565b60005b8251811015610a2e57336001600160a01b0386161480610bd857506001600160a01b038516600090815260066020908152604080832033845290915290205460ff165b80610c1b575060056000848381518110610bf457610bf4612610565b6020908102919091018101518252810191909152604001600020546001600160a01b031633145b610c8d5760405162461bcd60e51b815260206004820152602960248201527f53757065724552433732313a2063616c6c6572206973206e6f742076616c696460448201527f206f70657261746f7200000000000000000000000000000000000000000000006064820152608401610700565b610cb18585858481518110610ca457610ca4612610565b602002602001015161173a565b610cd68585858481518110610cc857610cc8612610565b602002602001015185611a7f565b80610ce0816125c9565b915050610b95565b60008281526003602052604090205482906001600160a01b031633811480610d3357506001600160a01b038116600090815260066020908152604080832033845290915290205460ff165b80610d5457506000828152600560205260409020546001600160a01b031633145b610db15760405162461bcd60e51b815260206004820152602860248201527f4552433732313a2063616c6c6572206973206e6f74206f776e6572206e6f7220604482015267185c1c1c9bdd995960c21b6064820152608401610700565b6000610dbe85600261252b565b905073__LBondManager__________________________6391fc35fd60088381548110610ded57610ded612610565b9060005260206000200154866040518363ffffffff1660e01b8152600401610e289291909182526001600160a01b0316602082015260400190565b60206040518083038186803b158015610e4057600080fd5b505af4158015610e54573d6000803e3d6000fd5b505050506040513d601f19601f82011682018060405250810190610e7891906120b5565b60088281548110610e8b57610e8b612610565b90600052602060002001819055507fbb18cf80bf9cf9e4b91e7ef34ae790edb68cfd0af883758c4cbffc183b84ab708585604051610edc9291909182526001600160a01b0316602082015260400190565b60405180910390a15050505050565b61091a83838360405180602001604052806000815250611158565b60606000825167ffffffffffffffff811115610f2457610f24612626565b604051908082528060200260200182016040528015610f4d578160200160208202803683370190505b50905060005b8351811015610fca5760046000858381518110610f7257610f72612610565b60200260200101516001600160a01b03166001600160a01b0316815260200190815260200160002054828281518110610fad57610fad612610565b602090810291909101015280610fc2816125c9565b915050610f53565b5092915050565b60088181548110610fe157600080fd5b600091825260209091200154905081565b60408051608081018252600381526affffffffffffffffffffff8316602082018190526001600160a01b038516928201929092526000606082015290821461103c57606081018290525b61091a816115e5565b60006001600160a01b0382166110c35760405162461bcd60e51b815260206004820152602a60248201527f4552433732313a2062616c616e636520717565727920666f7220746865207a6560448201527f726f2061646472657373000000000000000000000000000000000000000000006064820152608401610700565b506001600160a01b031660009081526004602052604090205490565b600180546105f990612561565b3360008181526006602090815260408083206001600160a01b03871680855290835292819020805460ff191686151590811790915590519081529192917f17307eab39ab6107e8899845ad3d59bd9653f200f220920489ca2b5937696c31910160405180910390a35050565b60008281526003602052604090205482906001600160a01b0316338114806111a357506001600160a01b038116600090815260066020908152604080832033845290915290205460ff165b806111c457506000828152600560205260409020546001600160a01b031633145b6112215760405162461bcd60e51b815260206004820152602860248201527f4552433732313a2063616c6c6572206973206e6f74206f776e6572206e6f7220604482015267185c1c1c9bdd995960c21b6064820152608401610700565b61122c86868661173a565b61123886868686611a7f565b505050505050565b60606000825167ffffffffffffffff81111561125e5761125e612626565b604051908082528060200260200182016040528015611287578160200160208202803683370190505b50905060005b8351811015610fca57600360008583815181106112ac576112ac612610565b6020026020010151815260200190815260200160002060009054906101000a90046001600160a01b03168282815181106112e8576112e8612610565b6001600160a01b03909216602092830291909101909101528061130a816125c9565b91505061128d565b60606002805461132190612561565b80601f016020809104026020016040519081016040528092919081815260200182805461134d90612561565b801561139a5780601f1061136f5761010080835404028352916020019161139a565b820191906000526020600020905b81548152906001019060200180831161137d57829003601f168201915b50505050509050919050565b604080516080810190915261095790806002610932565b6040805161014081018252600080825260208201819052918101829052606081018290526080810182905260a0810182905260c0810182905260e08101829052610100810182905261012081019190915273__LBondManager__________________________6388bc65c4600861143585600261252b565b8154811061144557611445612610565b9060005260206000200154600885600261145f919061252b565b61146a9060016124f1565b8154811061147a5761147a612610565b90600052602060002001546040518363ffffffff1660e01b81526004016114ab929190918252602082015260400190565b6101406040518083038186803b1580156114c457600080fd5b505af41580156114d8573d6000803e3d6000fd5b505050506040513d601f19601f820116820180604052508101906105e6919061212a565b6007818154811061150c57600080fd5b60009182526020909120600290910201805460019091015460ff8216925061010082046affffffffffffffffffffff16916c0100000000000000000000000090046001600160a01b03169084565b604080516080810190915261095790806001610932565b6000818152600560209081526040808320805473ffffffffffffffffffffffffffffffffffffffff19166001600160a01b038781169182179092556003909352818420549151859492909116917f8c5be1e5ebec7d5bd14f71427d1e84f3dd0314c0f7b2291e5b200ac8c7c3b92591a45050565b6007805460018181018355600092909252825160029091027fa66cc928b5edb82af9bd49922954155ab7b0942694bea4ce44661d9a8736c6880180548493919291839160ff19169083600481111561163f5761163f6125fa565b02179055506020820151815460408401516001600160a01b03166c01000000000000000000000000026bffffffffffffffffffffffff6affffffffffffffffffffff909316610100029290921660ff9091161717815560609091015160019091015560006003825160048111156116b8576116b86125fa565b14156116e55781602001516affffffffffffffffffffff16905081606001516000146116e5575060608101515b6007547f2de521bc3664deadab052ac566d3e29f17b816025957077cd43ae461ebe16707906117169060019061254a565b8351604080860151905161172e939291908690612474565b60405180910390a15050565b6000818152600360205260409020546001600160a01b038481169116146117c95760405162461bcd60e51b815260206004820152602960248201527f4552433732313a207472616e73666572206f6620746f6b656e2074686174206960448201527f73206e6f74206f776e00000000000000000000000000000000000000000000006064820152608401610700565b6001600160a01b0382166118445760405162461bcd60e51b8152602060048201526024808201527f4552433732313a207472616e7366657220746f20746865207a65726f2061646460448201527f72657373000000000000000000000000000000000000000000000000000000006064820152608401610700565b61184f600082611571565b6001600160a01b038316600090815260046020526040812080546001929061187890849061254a565b90915550506001600160a01b03821660009081526004602052604081208054600192906118a69084906124f1565b9091555050600081815260036020526040808220805473ffffffffffffffffffffffffffffffffffffffff19166001600160a01b0386811691821790925591518493918716917fddf252ad1be2c89b69c2b068fc378daa952ba7f163c4a11628f55a4df523b3ef91a4505050565b6001600160a01b03821661196a5760405162461bcd60e51b815260206004820181905260248201527f4552433732313a206d696e7420746f20746865207a65726f20616464726573736044820152606401610700565b6000818152600360205260409020546001600160a01b0316156119cf5760405162461bcd60e51b815260206004820152601c60248201527f4552433732313a20746f6b656e20616c7265616479206d696e746564000000006044820152606401610700565b6001600160a01b03821660009081526004602052604081208054600192906119f89084906124f1565b9091555050600081815260036020526040808220805473ffffffffffffffffffffffffffffffffffffffff19166001600160a01b03861690811790915590518392907fddf252ad1be2c89b69c2b068fc378daa952ba7f163c4a11628f55a4df523b3ef908290a4611a7b6000838360405180602001604052806000815250611a7f565b5050565b6001600160a01b0383163b1561082957604051630a85bd0160e11b81526001600160a01b0384169063150b7a0290611ac1903390889087908790600401612291565b602060405180830381600087803b158015611adb57600080fd5b505af1925050508015611b0b575060408051601f3d908101601f19168201909252611b089181019061210d565b60015b611bc157611b1761263c565b806308c379a01415611b515750611b2c612658565b80611b375750611b53565b8060405162461bcd60e51b81526004016107009190612391565b505b60405162461bcd60e51b815260206004820152603260248201527f4552433732313a207472616e7366657220746f206e6f6e20455243373231526560448201527f63656976657220696d706c656d656e74657200000000000000000000000000006064820152608401610700565b6001600160e01b03198116630a85bd0160e11b14610a2e5760405162461bcd60e51b815260206004820152602560248201527f4552433732313a2045524337323152656365697665722072656a65637465642060448201527f746f6b656e0000000000000000000000000000000000000000000000000000006064820152608401610700565b8051611c52816126e2565b919050565b600082601f830112611c6857600080fd5b81356020611c75826124cd565b604051611c82828261259c565b8381528281019150858301600585901b87018401881015611ca257600080fd5b60005b85811015611cca578135611cb8816126e2565b84529284019290840190600101611ca5565b5090979650505050505050565b600082601f830112611ce857600080fd5b81356020611cf5826124cd565b604051611d02828261259c565b8381528281019150858301600585901b87018401881015611d2257600080fd5b60005b85811015611cca57813584529284019290840190600101611d25565b8051611c52816126f7565b600082601f830112611d5d57600080fd5b813567ffffffffffffffff811115611d7757611d77612626565b604051611d8e601f8301601f19166020018261259c565b818152846020838601011115611da357600080fd5b816020850160208301376000918101602001919091529392505050565b805161ffff81168114611c5257600080fd5b805163ffffffff81168114611c5257600080fd5b805167ffffffffffffffff81168114611c5257600080fd5b600060208284031215611e1057600080fd5b8135611e1b816126e2565b9392505050565b600060208284031215611e3457600080fd5b8151611e1b816126e2565b60008060408385031215611e5257600080fd5b8235611e5d816126e2565b91506020830135611e6d816126e2565b809150509250929050565b60008060008060808587031215611e8e57600080fd5b8435611e99816126e2565b93506020850135611ea9816126e2565b9250604085013567ffffffffffffffff80821115611ec657600080fd5b611ed288838901611cd7565b93506060870135915080821115611ee857600080fd5b50611ef587828801611d4c565b91505092959194509250565b600080600060608486031215611f1657600080fd5b8335611f21816126e2565b92506020840135611f31816126e2565b929592945050506040919091013590565b60008060008060808587031215611f5857600080fd5b8435611f63816126e2565b93506020850135611f73816126e2565b925060408501359150606085013567ffffffffffffffff811115611f9657600080fd5b611ef587828801611d4c565b60008060408385031215611fb557600080fd5b8235611fc0816126e2565b91506020830135611e6d816126f7565b60008060408385031215611fe357600080fd5b8235611fee816126e2565b946020939093013593505050565b60006020828403121561200e57600080fd5b813567ffffffffffffffff81111561202557600080fd5b61203184828501611c57565b949350505050565b6000806040838503121561204c57600080fd5b823567ffffffffffffffff81111561206357600080fd5b61206f85828601611c57565b9250506020830135611e6d816126f7565b60006020828403121561209257600080fd5b813567ffffffffffffffff8111156120a957600080fd5b61203184828501611cd7565b6000602082840312156120c757600080fd5b5051919050565b600080604083850312156120e157600080fd5b50508035926020909101359150565b60006020828403121561210257600080fd5b8135611e1b81612705565b60006020828403121561211f57600080fd5b8151611e1b81612705565b6000610140828403121561213d57600080fd5b6121456124a3565b61214e83611d41565b815261215c60208401611dd2565b602082015261216d60408401611dc0565b604082015261217e60608401611dc0565b606082015261218f60808401611de6565b60808201526121a060a08401611de6565b60a082015260c083015160c082015260e083015160e08201526101006121c7818501611c47565b908201526101206121d9848201611c47565b908201529392505050565b6000602082840312156121f657600080fd5b5035919050565b6000806040838503121561221057600080fd5b823591506020830135611e6d816126e2565b6000815180845260005b818110156122485760208185018101518683018201520161222c565b8181111561225a576000602083870101525b50601f01601f19169290920160200192915050565b6005811061228d57634e487b7160e01b600052602160045260246000fd5b9052565b60006001600160a01b038087168352808616602084015250836040830152608060608301526122c36080830184612222565b9695505050505050565b6020808252825182820181905260009190848201906040850190845b8181101561230e5783516001600160a01b0316835292840192918401916001016122e9565b50909695505050505050565b6020808252825182820181905260009190848201906040850190845b8181101561230e57835183529284019291840191600101612336565b60808101612360828761226f565b6affffffffffffffffffffff851660208301526001600160a01b038416604083015282606083015295945050505050565b602081526000611e1b6020830184612222565b815115158152610140810160208301516123c6602084018263ffffffff169052565b5060408301516123dc604084018261ffff169052565b5060608301516123f2606084018261ffff169052565b50608083015161240e608084018267ffffffffffffffff169052565b5060a083015161242a60a084018267ffffffffffffffff169052565b5060c083015160c083015260e083015160e08301526101008084015161245a828501826001600160a01b03169052565b5050610120928301516001600160a01b0316919092015290565b84815260808101612488602083018661226f565b6001600160a01b039390931660408201526060015292915050565b604051610140810167ffffffffffffffff811182821017156124c7576124c7612626565b60405290565b600067ffffffffffffffff8211156124e7576124e7612626565b5060051b60200190565b60008219821115612504576125046125e4565b500190565b60008261252657634e487b7160e01b600052601260045260246000fd5b500490565b6000816000190483118215151615612545576125456125e4565b500290565b60008282101561255c5761255c6125e4565b500390565b600181811c9082168061257557607f821691505b6020821081141561259657634e487b7160e01b600052602260045260246000fd5b50919050565b601f8201601f1916810167ffffffffffffffff811182821017156125c2576125c2612626565b6040525050565b60006000198214156125dd576125dd6125e4565b5060010190565b634e487b7160e01b600052601160045260246000fd5b634e487b7160e01b600052602160045260246000fd5b634e487b7160e01b600052603260045260246000fd5b634e487b7160e01b600052604160045260246000fd5b600060033d11156126555760046000803e5060005160e01c5b90565b600060443d10156126665790565b6040516003193d81016004833e81513d67ffffffffffffffff816024840111818411171561269657505050505090565b82850191508151818111156126ae5750505050505090565b843d87010160208285010111156126c85750505050505090565b6126d76020828601018761259c565b509095945050505050565b6001600160a01b038116811461095757600080fd5b801515811461095757600080fd5b6001600160e01b03198116811461095757600080fdfea26469706673582212200931702669a9170e8239dfadb8b1e12f28692f0d78fbf35bf0b4d23a5e2c010864736f6c63430008060033",
  "immutableReferences": {},
  "source": "// SPDX-License-Identifier: UNLICENSED\npragma solidity ^0.8.0;\n\nimport \"./LBondManager.sol\";\nimport \"./CurrencyManager.sol\";\nimport \"./tokens/SuperERC721.sol\";\n\n/**\n * @dev BondToken contract holds a basic interface on top of ERC721\n * to manage the creation and reading of bonds. It's dependent on\n * the LBondManager library to interpret the condensed 64 byte\n * representation.\n */\ncontract BondToken is SuperERC721, CurrencyManager {\n    using LBondManager for bytes32;\n\n    /**\n     * @notice Bond data array -- holds alpha and beta slots for\n     * bond, to be interpreted by LBondManager.\n     * @dev Each bond takes two slots, so bond of id i starts at\n     * position 2i.\n     */\n    bytes32[] public bonds;\n\n    /// @notice recipient of bond payments has been updated\n    event BeneficiaryChange(uint256 id, address beneficiary);\n\n    constructor(\n        string memory name,\n        string memory symbol,\n        string memory uri\n    )\n        SuperERC721(name, symbol, uri) // solhint-disable-next-line no-empty-blocks\n    {}\n\n    /**\n     * @notice Interpret bond with given id into readable version\n     * @param id Bond id\n     * @return Bond As the expanded bond datastructure at given id\n     */\n    function getBond(uint256 id) public view returns (Bond memory) {\n        return LBondManager.readBond(bonds[id * 2], bonds[id * 2 + 1]);\n    }\n\n    /**\n     * @notice Append a new bond with given data\n     * @dev Minter field must correspond to message sender!\n     * @param alp Alpha bytes to append, as generated by library\n     * @param bet Beta bytes to append, as generated by library\n     */\n    function mintBond(bytes32 alp, bytes32 bet) public payable virtual {\n        require(\n            msg.sender == LBondManager.readMinter(bet),\n            \"BondToken: minter must be caller\"\n        );\n        uint256 id = bonds.length / 2;\n        bonds.push(alp);\n        bonds.push(bet);\n        _mint(msg.sender, id);\n    }\n\n    /**\n     * @notice Update the beneficiary associated with a bond\n     * @param id Bond id\n     * @param newBeneficiary Address of new beneficiary account\n     */\n    function updateBeneficiary(uint256 id, address newBeneficiary)\n        public\n        onlyValidOperator(id)\n    {\n        uint256 i = id * 2;\n        bonds[i] = LBondManager.writeBeneficiary(bonds[i], newBeneficiary);\n        emit BeneficiaryChange(id, newBeneficiary);\n    }\n}\n",
  "sourcePath": "/home/runner/work/karmaToken/karmaToken/contracts/BondToken.sol",
  "compiler": {
    "name": "solc",
    "version": "0.8.6+commit.11564f7e.Linux.g++"
  },
  "schemaVersion": "3.4.7",
  "updatedAt": "2022-07-20T22:20:24.784Z",
  "devdoc": {
    "details": "BondToken contract holds a basic interface on top of ERC721 to manage the creation and reading of bonds. It's dependent on the LBondManager library to interpret the condensed 64 byte representation.",
    "kind": "dev",
    "methods": {
      "addERC1155NFTCurrency(address)": {
        "details": "Note that no tokenId is required -- since we know the count to be 1, the structures that reference this currency can use their field to specify the tokenId.",
        "params": {
          "location": "address of ERC1155 contract being added"
        }
      },
      "addERC1155TokenCurrency(address,uint256)": {
        "details": "TokenId is required because structures that reference this currency are only able to specify one field -- the amount, and so the tokenId must be constant and specified here",
        "params": {
          "location": "address of the ERC1155 contract being added",
          "tokenId": "specific tokenId to associate with this ERC1155 currency listing."
        }
      },
      "addERC20Currency(address)": {
        "params": {
          "location": "address of the ERC20 contract being added"
        }
      },
      "addERC721Currency(address)": {
        "details": "Add a new currency of type ERC721",
        "params": {
          "location": "address of the ERC721 contract being added"
        }
      },
      "approve(address,uint256)": {
        "details": "See {IERC721-approve}."
      },
      "balanceOf(address)": {
        "details": "See {IERC721-balanceOf}."
      },
      "getApproved(uint256)": {
        "details": "See {IERC721-getApproved}."
      },
      "getBond(uint256)": {
        "params": {
          "id": "Bond id"
        },
        "returns": {
          "_0": "Bond As the expanded bond datastructure at given id"
        }
      },
      "isApprovedForAll(address,address)": {
        "details": "See {IERC721-isApprovedForAll}."
      },
      "mintBond(bytes32,bytes32)": {
        "details": "Minter field must correspond to message sender!",
        "params": {
          "alp": "Alpha bytes to append, as generated by library",
          "bet": "Beta bytes to append, as generated by library"
        }
      },
      "ownerOf(uint256)": {
        "details": "See {IERC721-ownerOf}."
      },
      "safeTransferFrom(address,address,uint256)": {
        "details": "See {IERC721-safeTransferFrom}."
      },
      "safeTransferFrom(address,address,uint256,bytes)": {
        "details": "Safely transfers `tokenId` token from `from` to `to`, checking first that contract recipients are aware of the ERC721 protocol to prevent tokens from being forever locked. `_data` is additional data, it has no specified format and it is sent in call to `to`. This internal function is equivalent to {safeTransferFrom}, and can be used to e.g. implement alternative mechanisms to perform token transfer, such as signature-based. Requirements: - `from` cannot be the zero address. - `to` cannot be the zero address. - `tokenId` token must exist and be owned by `from`. - If `to` refers to a smart contract, it must implement {IERC721Receiver-onERC721Received}, which is called upon a safe transfer. Emits a {Transfer} event."
      },
      "setApprovalForAll(address,bool)": {
        "details": "Approve `operator` to operate on all of `owner` tokens Emits a {ApprovalForAll} event."
      },
      "supportsInterface(bytes4)": {
        "details": "See {IERC165-supportsInterface}."
      },
      "tokenURI(uint256)": {
        "details": "See {IERC721Metadata-tokenURI}."
      },
      "transferFrom(address,address,uint256)": {
        "details": "See {IERC721-transferFrom}."
      },
      "updateBeneficiary(uint256,address)": {
        "params": {
          "id": "Bond id",
          "newBeneficiary": "Address of new beneficiary account"
        }
      }
    },
    "stateVariables": {
      "bonds": {
        "details": "Each bond takes two slots, so bond of id i starts at position 2i."
      }
    },
    "version": 1
  },
  "userdoc": {
    "events": {
      "BeneficiaryChange(uint256,address)": {
        "notice": "recipient of bond payments has been updated"
      },
      "CurrencyAdded(uint256,uint8,address,uint256)": {
        "notice": "New currency has been added to internal listing"
      }
    },
    "kind": "user",
    "methods": {
      "addERC1155NFTCurrency(address)": {
        "notice": "Add a new currency of type ERC1155 NFT."
      },
      "addERC1155TokenCurrency(address,uint256)": {
        "notice": "Add a new currency of type ERC1155 Token"
      },
      "addERC20Currency(address)": {
        "notice": "Add a new currency of type ERC20"
      },
      "bonds(uint256)": {
        "notice": "Bond data array -- holds alpha and beta slots for bond, to be interpreted by LBondManager."
      },
      "currencies(uint256)": {
        "notice": "Array holding currency listing."
      },
      "getBond(uint256)": {
        "notice": "Interpret bond with given id into readable version"
      },
      "mintBond(bytes32,bytes32)": {
        "notice": "Append a new bond with given data"
      },
      "updateBeneficiary(uint256,address)": {
        "notice": "Update the beneficiary associated with a bond"
      }
    },
    "version": 1
  }
}