{
  "contractName": "CollateralManager",
  "abi": [
    {
      "inputs": [
        {
          "internalType": "string",
          "name": "name",
          "type": "string"
        },
        {
          "internalType": "string",
          "name": "symbol",
          "type": "string"
        },
        {
          "internalType": "string",
          "name": "uri",
          "type": "string"
        }
      ],
      "stateMutability": "nonpayable",
      "type": "constructor"
    },
    {
      "anonymous": false,
      "inputs": [
        {
          "indexed": true,
          "internalType": "address",
          "name": "owner",
          "type": "address"
        },
        {
          "indexed": true,
          "internalType": "address",
          "name": "approved",
          "type": "address"
        },
        {
          "indexed": true,
          "internalType": "uint256",
          "name": "tokenId",
          "type": "uint256"
        }
      ],
      "name": "Approval",
      "type": "event"
    },
    {
      "anonymous": false,
      "inputs": [
        {
          "indexed": true,
          "internalType": "address",
          "name": "owner",
          "type": "address"
        },
        {
          "indexed": true,
          "internalType": "address",
          "name": "operator",
          "type": "address"
        },
        {
          "indexed": false,
          "internalType": "bool",
          "name": "approved",
          "type": "bool"
        }
      ],
      "name": "ApprovalForAll",
      "type": "event"
    },
    {
      "anonymous": false,
      "inputs": [
        {
          "indexed": false,
          "internalType": "uint256",
          "name": "id",
          "type": "uint256"
        },
        {
          "indexed": false,
          "internalType": "address",
          "name": "beneficiary",
          "type": "address"
        }
      ],
      "name": "BeneficiaryChange",
      "type": "event"
    },
    {
      "anonymous": false,
      "inputs": [
        {
          "indexed": false,
          "internalType": "uint256",
          "name": "id",
          "type": "uint256"
        }
      ],
      "name": "BondCompleted",
      "type": "event"
    },
    {
      "anonymous": false,
      "inputs": [
        {
          "indexed": false,
          "internalType": "uint256",
          "name": "id",
          "type": "uint256"
        }
      ],
      "name": "BondDefaulted",
      "type": "event"
    },
    {
      "anonymous": false,
      "inputs": [
        {
          "indexed": false,
          "internalType": "uint256",
          "name": "id",
          "type": "uint256"
        },
        {
          "indexed": false,
          "internalType": "address",
          "name": "operator",
          "type": "address"
        },
        {
          "indexed": false,
          "internalType": "uint64",
          "name": "toPeriod",
          "type": "uint64"
        }
      ],
      "name": "BondServiced",
      "type": "event"
    },
    {
      "anonymous": false,
      "inputs": [
        {
          "indexed": false,
          "internalType": "uint256",
          "name": "bondId",
          "type": "uint256"
        },
        {
          "indexed": false,
          "internalType": "uint256",
          "name": "collateralId",
          "type": "uint256"
        },
        {
          "indexed": false,
          "internalType": "enum CurrencyType",
          "name": "collateralType",
          "type": "uint8"
        }
      ],
      "name": "CollateralAdded",
      "type": "event"
    },
    {
      "anonymous": false,
      "inputs": [
        {
          "indexed": false,
          "internalType": "uint256",
          "name": "bondId",
          "type": "uint256"
        },
        {
          "indexed": false,
          "internalType": "uint256",
          "name": "collateralId",
          "type": "uint256"
        },
        {
          "indexed": false,
          "internalType": "address",
          "name": "to",
          "type": "address"
        }
      ],
      "name": "CollateralReleased",
      "type": "event"
    },
    {
      "anonymous": false,
      "inputs": [
        {
          "indexed": false,
          "internalType": "uint256",
          "name": "id",
          "type": "uint256"
        },
        {
          "indexed": false,
          "internalType": "enum CurrencyType",
          "name": "currencyType",
          "type": "uint8"
        },
        {
          "indexed": false,
          "internalType": "address",
          "name": "location",
          "type": "address"
        },
        {
          "indexed": false,
          "internalType": "uint256",
          "name": "ERC1155Id",
          "type": "uint256"
        }
      ],
      "name": "CurrencyAdded",
      "type": "event"
    },
    {
      "anonymous": false,
      "inputs": [
        {
          "indexed": true,
          "internalType": "address",
          "name": "from",
          "type": "address"
        },
        {
          "indexed": true,
          "internalType": "address",
          "name": "to",
          "type": "address"
        },
        {
          "indexed": true,
          "internalType": "uint256",
          "name": "tokenId",
          "type": "uint256"
        }
      ],
      "name": "Transfer",
      "type": "event"
    },
    {
      "inputs": [
        {
          "internalType": "address",
          "name": "location",
          "type": "address"
        }
      ],
      "name": "addERC1155NFTCurrency",
      "outputs": [],
      "stateMutability": "payable",
      "type": "function"
    },
    {
      "inputs": [
        {
          "internalType": "address",
          "name": "location",
          "type": "address"
        },
        {
          "internalType": "uint256",
          "name": "tokenId",
          "type": "uint256"
        }
      ],
      "name": "addERC1155TokenCurrency",
      "outputs": [],
      "stateMutability": "payable",
      "type": "function"
    },
    {
      "inputs": [
        {
          "internalType": "address",
          "name": "location",
          "type": "address"
        }
      ],
      "name": "addERC20Currency",
      "outputs": [],
      "stateMutability": "payable",
      "type": "function"
    },
    {
      "inputs": [
        {
          "internalType": "address",
          "name": "location",
          "type": "address"
        }
      ],
      "name": "addERC721Currency",
      "outputs": [],
      "stateMutability": "payable",
      "type": "function"
    },
    {
      "inputs": [
        {
          "internalType": "address",
          "name": "to",
          "type": "address"
        },
        {
          "internalType": "uint256",
          "name": "tokenId",
          "type": "uint256"
        }
      ],
      "name": "approve",
      "outputs": [],
      "stateMutability": "nonpayable",
      "type": "function"
    },
    {
      "inputs": [
        {
          "internalType": "address",
          "name": "owner",
          "type": "address"
        }
      ],
      "name": "balanceOf",
      "outputs": [
        {
          "internalType": "uint256",
          "name": "",
          "type": "uint256"
        }
      ],
      "stateMutability": "view",
      "type": "function"
    },
    {
      "inputs": [
        {
          "internalType": "address[]",
          "name": "owners",
          "type": "address[]"
        }
      ],
      "name": "balanceOfBatch",
      "outputs": [
        {
          "internalType": "uint256[]",
          "name": "",
          "type": "uint256[]"
        }
      ],
      "stateMutability": "view",
      "type": "function"
    },
    {
      "inputs": [
        {
          "internalType": "uint256",
          "name": "",
          "type": "uint256"
        }
      ],
      "name": "bonds",
      "outputs": [
        {
          "internalType": "bytes32",
          "name": "",
          "type": "bytes32"
        }
      ],
      "stateMutability": "view",
      "type": "function"
    },
    {
      "inputs": [
        {
          "internalType": "uint256",
          "name": "id",
          "type": "uint256"
        }
      ],
      "name": "callBond",
      "outputs": [],
      "stateMutability": "nonpayable",
      "type": "function"
    },
    {
      "inputs": [
        {
          "internalType": "uint256",
          "name": "",
          "type": "uint256"
        },
        {
          "internalType": "uint256",
          "name": "",
          "type": "uint256"
        }
      ],
      "name": "collateral",
      "outputs": [
        {
          "internalType": "uint256",
          "name": "amountOrId",
          "type": "uint256"
        },
        {
          "internalType": "uint256",
          "name": "currencyRef",
          "type": "uint256"
        }
      ],
      "stateMutability": "view",
      "type": "function"
    },
    {
      "inputs": [
        {
          "internalType": "uint256",
          "name": "",
          "type": "uint256"
        }
      ],
      "name": "currencies",
      "outputs": [
        {
          "internalType": "enum CurrencyType",
          "name": "currencyType",
          "type": "uint8"
        },
        {
          "internalType": "uint88",
          "name": "ERC1155SmallId",
          "type": "uint88"
        },
        {
          "internalType": "address",
          "name": "location",
          "type": "address"
        },
        {
          "internalType": "uint256",
          "name": "ERC1155Id",
          "type": "uint256"
        }
      ],
      "stateMutability": "view",
      "type": "function"
    },
    {
      "inputs": [
        {
          "internalType": "uint256",
          "name": "id",
          "type": "uint256"
        }
      ],
      "name": "forgiveBond",
      "outputs": [],
      "stateMutability": "nonpayable",
      "type": "function"
    },
    {
      "inputs": [
        {
          "internalType": "uint256",
          "name": "tokenId",
          "type": "uint256"
        }
      ],
      "name": "getApproved",
      "outputs": [
        {
          "internalType": "address",
          "name": "",
          "type": "address"
        }
      ],
      "stateMutability": "view",
      "type": "function"
    },
    {
      "inputs": [
        {
          "internalType": "uint256",
          "name": "id",
          "type": "uint256"
        }
      ],
      "name": "getBond",
      "outputs": [
        {
          "components": [
            {
              "internalType": "bool",
              "name": "flag",
              "type": "bool"
            },
            {
              "internalType": "uint32",
              "name": "currencyRef",
              "type": "uint32"
            },
            {
              "internalType": "uint16",
              "name": "nPeriods",
              "type": "uint16"
            },
            {
              "internalType": "uint16",
              "name": "curPeriod",
              "type": "uint16"
            },
            {
              "internalType": "uint64",
              "name": "startTime",
              "type": "uint64"
            },
            {
              "internalType": "uint64",
              "name": "periodDuration",
              "type": "uint64"
            },
            {
              "internalType": "uint256",
              "name": "couponSize",
              "type": "uint256"
            },
            {
              "internalType": "uint256",
              "name": "faceValue",
              "type": "uint256"
            },
            {
              "internalType": "address",
              "name": "beneficiary",
              "type": "address"
            },
            {
              "internalType": "address",
              "name": "minter",
              "type": "address"
            }
          ],
          "internalType": "struct Bond",
          "name": "",
          "type": "tuple"
        }
      ],
      "stateMutability": "view",
      "type": "function"
    },
    {
      "inputs": [
        {
          "internalType": "address",
          "name": "owner",
          "type": "address"
        },
        {
          "internalType": "address",
          "name": "operator",
          "type": "address"
        }
      ],
      "name": "isApprovedForAll",
      "outputs": [
        {
          "internalType": "bool",
          "name": "",
          "type": "bool"
        }
      ],
      "stateMutability": "view",
      "type": "function"
    },
    {
      "inputs": [
        {
          "internalType": "bytes32",
          "name": "alp",
          "type": "bytes32"
        },
        {
          "internalType": "bytes32",
          "name": "bet",
          "type": "bytes32"
        }
      ],
      "name": "mintBond",
      "outputs": [],
      "stateMutability": "payable",
      "type": "function"
    },
    {
      "inputs": [],
      "name": "name",
      "outputs": [
        {
          "internalType": "string",
          "name": "",
          "type": "string"
        }
      ],
      "stateMutability": "view",
      "type": "function"
    },
    {
      "inputs": [
        {
          "internalType": "address",
          "name": "operator",
          "type": "address"
        },
        {
          "internalType": "address",
          "name": "",
          "type": "address"
        },
        {
          "internalType": "uint256",
          "name": "",
          "type": "uint256"
        },
        {
          "internalType": "uint256",
          "name": "",
          "type": "uint256"
        },
        {
          "internalType": "bytes",
          "name": "",
          "type": "bytes"
        }
      ],
      "name": "onERC1155Received",
      "outputs": [
        {
          "internalType": "bytes4",
          "name": "",
          "type": "bytes4"
        }
      ],
      "stateMutability": "view",
      "type": "function"
    },
    {
      "inputs": [
        {
          "internalType": "address",
          "name": "operator",
          "type": "address"
        },
        {
          "internalType": "address",
          "name": "",
          "type": "address"
        },
        {
          "internalType": "uint256",
          "name": "",
          "type": "uint256"
        },
        {
          "internalType": "bytes",
          "name": "",
          "type": "bytes"
        }
      ],
      "name": "onERC721Received",
      "outputs": [
        {
          "internalType": "bytes4",
          "name": "",
          "type": "bytes4"
        }
      ],
      "stateMutability": "view",
      "type": "function"
    },
    {
      "inputs": [
        {
          "internalType": "uint256",
          "name": "tokenId",
          "type": "uint256"
        }
      ],
      "name": "ownerOf",
      "outputs": [
        {
          "internalType": "address",
          "name": "",
          "type": "address"
        }
      ],
      "stateMutability": "view",
      "type": "function"
    },
    {
      "inputs": [
        {
          "internalType": "uint256[]",
          "name": "ids",
          "type": "uint256[]"
        }
      ],
      "name": "ownerOfBatch",
      "outputs": [
        {
          "internalType": "address[]",
          "name": "",
          "type": "address[]"
        }
      ],
      "stateMutability": "view",
      "type": "function"
    },
    {
      "inputs": [
        {
          "internalType": "address",
          "name": "from",
          "type": "address"
        },
        {
          "internalType": "address",
          "name": "to",
          "type": "address"
        },
        {
          "internalType": "uint256[]",
          "name": "ids",
          "type": "uint256[]"
        },
        {
          "internalType": "bytes",
          "name": "_data",
          "type": "bytes"
        }
      ],
      "name": "safeBatchTransferFrom",
      "outputs": [],
      "stateMutability": "nonpayable",
      "type": "function"
    },
    {
      "inputs": [
        {
          "internalType": "address",
          "name": "from",
          "type": "address"
        },
        {
          "internalType": "address",
          "name": "to",
          "type": "address"
        },
        {
          "internalType": "uint256",
          "name": "tokenId",
          "type": "uint256"
        }
      ],
      "name": "safeTransferFrom",
      "outputs": [],
      "stateMutability": "nonpayable",
      "type": "function"
    },
    {
      "inputs": [
        {
          "internalType": "address",
          "name": "from",
          "type": "address"
        },
        {
          "internalType": "address",
          "name": "to",
          "type": "address"
        },
        {
          "internalType": "uint256",
          "name": "tokenId",
          "type": "uint256"
        },
        {
          "internalType": "bytes",
          "name": "_data",
          "type": "bytes"
        }
      ],
      "name": "safeTransferFrom",
      "outputs": [],
      "stateMutability": "nonpayable",
      "type": "function"
    },
    {
      "inputs": [
        {
          "internalType": "uint256",
          "name": "id",
          "type": "uint256"
        },
        {
          "internalType": "address",
          "name": "from",
          "type": "address"
        },
        {
          "internalType": "uint256",
          "name": "value",
          "type": "uint256"
        },
        {
          "internalType": "bytes",
          "name": "data",
          "type": "bytes"
        }
      ],
      "name": "serviceBond",
      "outputs": [],
      "stateMutability": "payable",
      "type": "function"
    },
    {
      "inputs": [
        {
          "internalType": "address",
          "name": "operator",
          "type": "address"
        },
        {
          "internalType": "bool",
          "name": "approved",
          "type": "bool"
        }
      ],
      "name": "setApprovalForAll",
      "outputs": [],
      "stateMutability": "nonpayable",
      "type": "function"
    },
    {
      "inputs": [
        {
          "internalType": "address[]",
          "name": "operators",
          "type": "address[]"
        },
        {
          "internalType": "bool",
          "name": "approved",
          "type": "bool"
        }
      ],
      "name": "setBatchApprovalForAll",
      "outputs": [],
      "stateMutability": "nonpayable",
      "type": "function"
    },
    {
      "inputs": [
        {
          "internalType": "bytes4",
          "name": "interfaceId",
          "type": "bytes4"
        }
      ],
      "name": "supportsInterface",
      "outputs": [
        {
          "internalType": "bool",
          "name": "",
          "type": "bool"
        }
      ],
      "stateMutability": "view",
      "type": "function"
    },
    {
      "inputs": [],
      "name": "symbol",
      "outputs": [
        {
          "internalType": "string",
          "name": "",
          "type": "string"
        }
      ],
      "stateMutability": "view",
      "type": "function"
    },
    {
      "inputs": [
        {
          "internalType": "uint256",
          "name": "",
          "type": "uint256"
        }
      ],
      "name": "tokenURI",
      "outputs": [
        {
          "internalType": "string",
          "name": "",
          "type": "string"
        }
      ],
      "stateMutability": "view",
      "type": "function"
    },
    {
      "inputs": [
        {
          "internalType": "address",
          "name": "from",
          "type": "address"
        },
        {
          "internalType": "address",
          "name": "to",
          "type": "address"
        },
        {
          "internalType": "uint256",
          "name": "tokenId",
          "type": "uint256"
        }
      ],
      "name": "transferFrom",
      "outputs": [],
      "stateMutability": "nonpayable",
      "type": "function"
    },
    {
      "inputs": [
        {
          "internalType": "uint256",
          "name": "id",
          "type": "uint256"
        },
        {
          "internalType": "address",
          "name": "newBeneficiary",
          "type": "address"
        }
      ],
      "name": "updateBeneficiary",
      "outputs": [],
      "stateMutability": "nonpayable",
      "type": "function"
    },
    {
      "inputs": [
        {
          "internalType": "uint256",
          "name": "id",
          "type": "uint256"
        },
        {
          "internalType": "address",
          "name": "from",
          "type": "address"
        },
        {
          "internalType": "uint256",
          "name": "currencyRef",
          "type": "uint256"
        },
        {
          "internalType": "uint256",
          "name": "valueOrId",
          "type": "uint256"
        }
      ],
      "name": "addCollateral",
      "outputs": [],
      "stateMutability": "payable",
      "type": "function"
    },
    {
      "inputs": [
        {
          "internalType": "uint256[]",
          "name": "bondIds",
          "type": "uint256[]"
        },
        {
          "internalType": "address",
          "name": "to",
          "type": "address"
        },
        {
          "internalType": "bytes",
          "name": "data",
          "type": "bytes"
        }
      ],
      "name": "safeBatchReleaseCollaterals",
      "outputs": [],
      "stateMutability": "nonpayable",
      "type": "function"
    },
    {
      "inputs": [
        {
          "internalType": "uint256",
          "name": "id",
          "type": "uint256"
        }
      ],
      "name": "destroyBond",
      "outputs": [],
      "stateMutability": "nonpayable",
      "type": "function"
    }
  ],
  "bytecode": "0x60806040523480156200001157600080fd5b5060405162004cb738038062004cb78339810160408190526200003491620002ca565b8282828282828282828282828260009080519060200190620000589291906200016d565b5081516200006e9060019060208501906200016d565b508051620000849060029060208401906200016d565b505050505050506007604051806080016040528060006004811115620000ae57620000ae62000398565b8152600060208083018290526040830182905260609092018190528354600181810186559482529190208251600290920201805492939092839160ff199091169083600481111562000104576200010462000398565b02179055506020820151815460408401516001600160a01b03166c01000000000000000000000000026001600160601b036001600160581b03909316610100029290921660ff9091161717815560609091015160019091015550620003c4975050505050505050565b8280546200017b906200035b565b90600052602060002090601f0160209004810192826200019f5760008555620001ea565b82601f10620001ba57805160ff1916838001178555620001ea565b82800160010185558215620001ea579182015b82811115620001ea578251825591602001919060010190620001cd565b50620001f8929150620001fc565b5090565b5b80821115620001f85760008155600101620001fd565b600082601f8301126200022557600080fd5b81516001600160401b0380821115620002425762000242620003ae565b604051601f8301601f19908116603f011681019082821181831017156200026d576200026d620003ae565b816040528381526020925086838588010111156200028a57600080fd5b600091505b83821015620002ae57858201830151818301840152908201906200028f565b83821115620002c05760008385830101525b9695505050505050565b600080600060608486031215620002e057600080fd5b83516001600160401b0380821115620002f857600080fd5b620003068783880162000213565b945060208601519150808211156200031d57600080fd5b6200032b8783880162000213565b935060408601519150808211156200034257600080fd5b50620003518682870162000213565b9150509250925092565b600181811c908216806200037057607f821691505b602082108114156200039257634e487b7160e01b600052602260045260246000fd5b50919050565b634e487b7160e01b600052602160045260246000fd5b634e487b7160e01b600052604160045260246000fd5b6148e380620003d46000396000f3fe6080604052600436106102345760003560e01c80636352211e11610138578063bda80117116100b0578063e985e9c51161007f578063f6d1c27111610064578063f6d1c2711461069e578063fe9accf9146106ce578063ffb55501146106e157600080fd5b8063e985e9c514610635578063f23a6e611461067e57600080fd5b8063bda80117146105a8578063c87b56dd146105d5578063cd30e2cd146105f5578063d8fe76421461060857600080fd5b806395d89b4111610107578063a22cb465116100ec578063a22cb46514610555578063b24673ba14610575578063b88d4fde1461058857600080fd5b806395d89b41146105205780639f949d9d1461053557600080fd5b80636352211e1461049757806368b0d5a8146104cd57806370a08231146104e057806378cb91751461050057600080fd5b806323b872dd116101cb5780633f37b00c1161019a578063458c738e1161017f578063458c738e1461041c5780635f1c17c01461044957806362311f551461047757600080fd5b80633f37b00c146103dc57806342842e0e146103fc57600080fd5b806323b872dd14610369578063275da3b41461038957806328cfbd461461039c5780633e8eb5a4146103bc57600080fd5b80630f68e5fc116102075780630f68e5fc146102ea578063150b7a02146102fd578063187ddf87146103365780631f5e180e1461035657600080fd5b806301ffc9a71461023957806306fdde031461026e578063081812fc14610290578063095ea7b3146102c8575b600080fd5b34801561024557600080fd5b506102596102543660046140be565b610716565b60405190151581526020015b60405180910390f35b34801561027a57600080fd5b506102836107b3565b6040516102659190614524565b34801561029c57600080fd5b506102b06102ab3660046141e5565b610841565b6040516001600160a01b039091168152602001610265565b3480156102d457600080fd5b506102e86102e3366004613f06565b6108ec565b005b6102e86102f8366004614223565b6109f6565b34801561030957600080fd5b5061031d610318366004613d89565b610e62565b6040516001600160e01b03199091168152602001610265565b34801561034257600080fd5b506102e8610351366004613f6f565b610e90565b6102e8610364366004613c4c565b610f80565b34801561037557600080fd5b506102e8610384366004613d48565b610fbb565b6102e861039736600461409c565b611096565b3480156103a857600080fd5b506102e86103b7366004613cbf565b6111f3565b3480156103c857600080fd5b506102e86103d73660046141fe565b611349565b3480156103e857600080fd5b506102e86103f7366004613feb565b61154c565b34801561040857600080fd5b506102e8610417366004613d48565b611846565b34801561042857600080fd5b5061043c610437366004613f32565b611861565b6040516102659190614498565b34801561045557600080fd5b506104696104643660046141e5565b61192c565b604051908152602001610265565b34801561048357600080fd5b506102e86104923660046141e5565b61194d565b3480156104a357600080fd5b506102b06104b23660046141e5565b6000908152600360205260409020546001600160a01b031690565b6102e86104db366004613f06565b611a52565b3480156104ec57600080fd5b506104696104fb366004613c4c565b611aa5565b34801561050c57600080fd5b506102e861051b3660046141e5565b611b3f565b34801561052c57600080fd5b50610283611f40565b34801561054157600080fd5b506102e86105503660046141e5565b611f4d565b34801561056157600080fd5b506102e8610570366004613ed8565b6121db565b6102e861058336600461424d565b612247565b34801561059457600080fd5b506102e86105a3366004613dfc565b6123f2565b3480156105b457600080fd5b506105c86105c3366004613fb6565b6124da565b604051610265919061444b565b3480156105e157600080fd5b506102836105f03660046141e5565b6125ac565b6102e8610603366004613c4c565b612640565b34801561061457600080fd5b506106286106233660046141e5565b612657565b6040516102659190614537565b34801561064157600080fd5b50610259610650366004613c86565b6001600160a01b03918216600090815260066020908152604080832093909416825291909152205460ff1690565b34801561068a57600080fd5b5061031d610699366004613e5c565b612796565b3480156106aa57600080fd5b506106be6106b93660046141e5565b6127de565b60405161026594939291906144e5565b6102e86106dc366004613c4c565b612833565b3480156106ed57600080fd5b506107016106fc36600461409c565b61284a565b60408051928352602083019190915201610265565b60006001600160e01b031982167f80ac58cd00000000000000000000000000000000000000000000000000000000148061077957506001600160e01b031982167f5b5e139f00000000000000000000000000000000000000000000000000000000145b806107ad57507f01ffc9a7000000000000000000000000000000000000000000000000000000006001600160e01b03198316145b92915050565b600080546107c0906146c7565b80601f01602080910402602001604051908101604052809291908181526020018280546107ec906146c7565b80156108395780601f1061080e57610100808354040283529160200191610839565b820191906000526020600020905b81548152906001019060200180831161081c57829003601f168201915b505050505081565b6000818152600360205260408120546001600160a01b03166108d05760405162461bcd60e51b815260206004820152602c60248201527f4552433732313a20617070726f76656420717565727920666f72206e6f6e657860448201527f697374656e7420746f6b656e000000000000000000000000000000000000000060648201526084015b60405180910390fd5b506000908152600560205260409020546001600160a01b031690565b60008181526003602052604090205481906001600160a01b031633146109545760405162461bcd60e51b815260206004820152601b60248201527f4552433732313a2063616c6c6564206973206e6f74206f776e6572000000000060448201526064016108c7565b6000828152600360205260409020546001600160a01b039081169084168114156109e65760405162461bcd60e51b815260206004820152602160248201527f4552433732313a20617070726f76616c20746f2063757272656e74206f776e6560448201527f720000000000000000000000000000000000000000000000000000000000000060648201526084016108c7565b6109f08484612886565b50505050565b83336001600160a01b0382161480610a3157506001600160a01b038116600090815260066020908152604080832033845290915290205460ff165b610a8e5760405162461bcd60e51b815260206004820152602860248201527f4c6966656379636c654d616e616765723a2063616c6c6572206973206e6f7420604482015267185c1c1c9bdd995960c21b60648201526084016108c7565b6040805161014081018252600080825260208201819052918101829052606081018290526080810182905260a0810182905260c0810182905260e0810182905261010081018290526101208101829052906008610aec89600261463e565b81548110610afc57610afc6147a2565b60009182526020909120015460405163836c4e3360e01b815290915073__LBondManager__________________________9063836c4e3390610b4490849086906004016144d0565b6101406040518083038186803b158015610b5d57600080fd5b505af4158015610b71573d6000803e3d6000fd5b505050506040513d601f19601f82011682018060405250810190610b9591906140f8565b805190925015610c0d5760405162461bcd60e51b815260206004820152602f60248201527f4c6966656379636c654d616e616765723a2063616e6e6f74207365727669636560448201527f2064656661756c74656420626f6e64000000000000000000000000000000000060648201526084016108c7565b602082015163ffffffff16610d315785341015610c2c57610c2c61474a565b336001600160a01b03881614610c4457610c4461474a565b610c5082828a896128fa565b60008261010001516001600160a01b0316878787604051610c729291906143c6565b60006040518083038185875af1925050503d8060008114610caf576040519150601f19603f3d011682016040523d82523d6000602084013e610cb4565b606091505b5050905080610d2b5760405162461bcd60e51b815260206004820152602a60248201527f4c6966656379636c654d616e616765723a206574686572207472616e7361637460448201527f696f6e206661696c65640000000000000000000000000000000000000000000060648201526084016108c7565b50610e07565b60006007836020015163ffffffff1681548110610d5057610d506147a2565b60009182526020909120600291820201805490925060ff1690816004811115610d7b57610d7b614776565b1480610d9857506004816004811115610d9657610d96614776565b145b15610daf57610daa84848c60016128fa565b610dbb565b610dbb84848c8b6128fa565b610e03828a8661010001518b8b8b8080601f016020809104026020016040519081016040528093929190818152602001838380828437600092019190915250612bf392505050565b5050505b606080830151604080518b81526001600160a01b038b16602082015261ffff909216908201527fda82ac16b4aa1e491f2ec1eb4b24b3d9a42ae226c5079255d032ce34f43d55f6910160405180910390a15050505050505050565b60006001600160a01b038616301415610e835750630a85bd0160e11b610e87565b5060005b95945050505050565b60005b8251811015610f7b573360009081526006602052604081208451849290869085908110610ec257610ec26147a2565b60200260200101516001600160a01b03166001600160a01b0316815260200190815260200160002060006101000a81548160ff021916908315150217905550828181518110610f1357610f136147a2565b60200260200101516001600160a01b0316336001600160a01b03167f17307eab39ab6107e8899845ad3d59bd9653f200f220920489ca2b5937696c3184604051610f61911515815260200190565b60405180910390a380610f738161472f565b915050610e93565b505050565b6040805160808101909152610fb8908060045b81526000602082018190526001600160a01b0385166040830152606090910152612f0f565b50565b60008181526003602052604090205481906001600160a01b03163381148061100657506001600160a01b038116600090815260066020908152604080832033845290915290205460ff165b8061102757506000828152600560205260409020546001600160a01b031633145b6110845760405162461bcd60e51b815260206004820152602860248201527f4552433732313a2063616c6c6572206973206e6f74206f776e6572206e6f7220604482015267185c1c1c9bdd995960c21b60648201526084016108c7565b61108f85858561305b565b5050505050565b6040517f511e6fbd0000000000000000000000000000000000000000000000000000000081526004810182905273__LBondManager__________________________9063511e6fbd9060240160206040518083038186803b1580156110fa57600080fd5b505af415801561110e573d6000803e3d6000fd5b505050506040513d601f19601f820116820180604052508101906111329190613c69565b6001600160a01b0316336001600160a01b0316146111925760405162461bcd60e51b815260206004820181905260248201527f426f6e64546f6b656e3a206d696e746572206d7573742062652063616c6c657260448201526064016108c7565b6008546000906111a49060029061461c565b600880546001818101835560008390527ff3f7a9fe364faab93b216da50a3214154f22a0a2b415b23a84c8169e8b636ee39182018790558254908101909255018390559050610f7b3382613235565b60005b825181101561108f57336001600160a01b038616148061123957506001600160a01b038516600090815260066020908152604080832033845290915290205460ff165b8061127c575060056000848381518110611255576112556147a2565b6020908102919091018101518252810191909152604001600020546001600160a01b031633145b6112ee5760405162461bcd60e51b815260206004820152602960248201527f53757065724552433732313a2063616c6c6572206973206e6f742076616c696460448201527f206f70657261746f72000000000000000000000000000000000000000000000060648201526084016108c7565b6113128585858481518110611305576113056147a2565b602002602001015161305b565b6113378585858481518110611329576113296147a2565b6020026020010151856133a0565b806113418161472f565b9150506111f6565b60008281526003602052604090205482906001600160a01b03163381148061139457506001600160a01b038116600090815260066020908152604080832033845290915290205460ff165b806113b557506000828152600560205260409020546001600160a01b031633145b6114125760405162461bcd60e51b815260206004820152602860248201527f4552433732313a2063616c6c6572206973206e6f74206f776e6572206e6f7220604482015267185c1c1c9bdd995960c21b60648201526084016108c7565b600061141f85600261463e565b905073__LBondManager__________________________6391fc35fd6008838154811061144e5761144e6147a2565b9060005260206000200154866040518363ffffffff1660e01b81526004016114899291909182526001600160a01b0316602082015260400190565b60206040518083038186803b1580156114a157600080fd5b505af41580156114b5573d6000803e3d6000fd5b505050506040513d601f19601f820116820180604052508101906114d99190614083565b600882815481106114ec576114ec6147a2565b90600052602060002001819055507fbb18cf80bf9cf9e4b91e7ef34ae790edb68cfd0af883758c4cbffc183b84ab70858560405161153d9291909182526001600160a01b0316602082015260400190565b60405180910390a15050505050565b60078054600019918291600091908290611568576115686147a2565b9060005260206000209060020201905060005b875181101561183c576000888281518110611598576115986147a2565b6020026020010151905080851415806115b2575084600019145b15611637576115c18133613568565b6116335760405162461bcd60e51b815260206004820152603560248201527f436f6c6c61746572616c4d616e616765723a20756e617574686f72697a65642060448201527f746f2072656c6561736520636f6c6c61746572616c000000000000000000000060648201526084016108c7565b8094505b600081815260096020526040812054611652906001906146b0565b60008381526009602052604081208054929350909183908110611677576116776147a2565b6000918252602080832060408051808201825260029094029091018054845260010154838301528684526009909152909120805491925090806116bc576116bc61478c565b600082815260208120600260001990930192830201818155600101559055805161174e5760405162461bcd60e51b815260206004820152603c60248201527f436f6c6c61746572616c4d616e616765723a207468697320636f6c6c6174657260448201527f616c2068617320616c7265616479206265656e2072656c65617365640000000060648201526084016108c7565b806020015186141580611762575085600019145b1561179657600781602001518154811061177e5761177e6147a2565b90600052602060002090600202019450806020015195505b6117dd85308c84600001518d8d8080601f016020809104026020016040519081016040528093929190818152602001838380828437600092019190915250612bf392505050565b5060408051848152602081018490526001600160a01b038c168183015290517f054ec7ece823327cac62b619c1ad0d5ec021821029747486a9635b77a351be609181900360600190a150505080806118349061472f565b91505061157b565b5050505050505050565b610f7b838383604051806020016040528060008152506123f2565b60606000825167ffffffffffffffff81111561187f5761187f6147b8565b6040519080825280602002602001820160405280156118a8578160200160208202803683370190505b50905060005b835181101561192557600460008583815181106118cd576118cd6147a2565b60200260200101516001600160a01b03166001600160a01b0316815260200190815260200160002054828281518110611908576119086147a2565b60209081029190910101528061191d8161472f565b9150506118ae565b5092915050565b6008818154811061193c57600080fd5b600091825260209091200154905081565b60008181526003602052604090205481906001600160a01b03163381148061199857506001600160a01b038116600090815260066020908152604080832033845290915290205460ff165b806119b957506000828152600560205260409020546001600160a01b031633145b611a165760405162461bcd60e51b815260206004820152602860248201527f4552433732313a2063616c6c6572206973206e6f74206f776e6572206e6f7220604482015267185c1c1c9bdd995960c21b60648201526084016108c7565b60008381526009602052604090205415611a3257611a3261474a565b6000838152600960205260408120611a4991613a11565b610f7b836137be565b60408051608081018252600381526affffffffffffffffffffff8316602082018190526001600160a01b0385169282019290925260006060820152908214611a9c57606081018290525b610f7b81612f0f565b60006001600160a01b038216611b235760405162461bcd60e51b815260206004820152602a60248201527f4552433732313a2062616c616e636520717565727920666f7220746865207a6560448201527f726f20616464726573730000000000000000000000000000000000000000000060648201526084016108c7565b506001600160a01b031660009081526004602052604090205490565b60008181526003602052604090205481906001600160a01b031633811480611b8a57506001600160a01b038116600090815260066020908152604080832033845290915290205460ff165b80611bab57506000828152600560205260409020546001600160a01b031633145b611c085760405162461bcd60e51b815260206004820152602860248201527f4552433732313a2063616c6c6572206973206e6f74206f776e6572206e6f7220604482015267185c1c1c9bdd995960c21b60648201526084016108c7565b60006008611c1785600261463e565b81548110611c2757611c276147a2565b60009182526020808320909101546040805161014081018252848152928301849052828101849052606083018490526080830184905260a0830184905260c0830184905260e08301849052610100830184905261012083018490525163836c4e3360e01b815290935073__LBondManager__________________________9163836c4e3391611cba9186916004016144d0565b6101406040518083038186803b158015611cd357600080fd5b505af4158015611ce7573d6000803e3d6000fd5b505050506040513d601f19601f82011682018060405250810190611d0b91906140f8565b9050806040015161ffff16816060015161ffff161115611d935760405162461bcd60e51b815260206004820152602c60248201527f4c6966656379636c654d616e616765723a2063616e6e6f742063616c6c20636f60448201527f6d706c6574656420626f6e64000000000000000000000000000000000000000060648201526084016108c7565b6080810151611dac9067ffffffffffffffff16426146b0565b8160a00151826060015161ffff16611dc4919061465d565b67ffffffffffffffff1610611e415760405162461bcd60e51b815260206004820152602260248201527f4c6966656379636c654d616e616765723a20626f6e64206e6f74206f7665726460448201527f756500000000000000000000000000000000000000000000000000000000000060648201526084016108c7565b6040517f83244ba4000000000000000000000000000000000000000000000000000000008152600481018390526001602482015273__LBondManager__________________________906383244ba49060440160206040518083038186803b158015611eac57600080fd5b505af4158015611ec0573d6000803e3d6000fd5b505050506040513d601f19601f82011682018060405250810190611ee49190614083565b6008611ef187600261463e565b81548110611f0157611f016147a2565b90600052602060002001819055507f9d88e5720db4604a83f973ccb5ac75609d3fcb60e6c2c1118ac2e7b029ce1d9b8560405161153d91815260200190565b600180546107c0906146c7565b60008181526003602052604090205481906001600160a01b031633811480611f9857506001600160a01b038116600090815260066020908152604080832033845290915290205460ff165b80611fb957506000828152600560205260409020546001600160a01b031633145b6120165760405162461bcd60e51b815260206004820152602860248201527f4552433732313a2063616c6c6572206973206e6f74206f776e6572206e6f7220604482015267185c1c1c9bdd995960c21b60648201526084016108c7565b6000600861202585600261463e565b81548110612035576120356147a2565b60009182526020822001546040517f36d7bc700000000000000000000000000000000000000000000000000000000081526004810182905290925073__LBondManager__________________________906336d7bc7090602401604080518083038186803b1580156120a657600080fd5b505af41580156120ba573d6000803e3d6000fd5b505050506040513d601f19601f820116820180604052508101906120de91906141b2565b50905073__LBondManager__________________________63d07f8328836121078460016145de565b6040516001600160e01b031960e085901b168152600481019290925261ffff16602482015260440160206040518083038186803b15801561214757600080fd5b505af415801561215b573d6000803e3d6000fd5b505050506040513d601f19601f8201168201806040525081019061217f9190614083565b600861218c87600261463e565b8154811061219c5761219c6147a2565b90600052602060002001819055507f5ee8a220dbeeb0d453e678b58d1504bafdb5d1a5b55029fcc873b4813066a8318560405161153d91815260200190565b3360008181526006602090815260408083206001600160a01b03871680855290835292819020805460ff191686151590811790915590519081529192917f17307eab39ab6107e8899845ad3d59bd9653f200f220920489ca2b5937696c31910160405180910390a35050565b82336001600160a01b038216148061228257506001600160a01b038116600090815260066020908152604080832033845290915290205460ff165b6122df5760405162461bcd60e51b815260206004820152602860248201527f4c6966656379636c654d616e616765723a2063616c6c6572206973206e6f7420604482015267185c1c1c9bdd995960c21b60648201526084016108c7565b600085815260096020908152604080832081518083019092528582528183018781528154600181810184559286529385209251600290940290920192835590519101558361233b578234146123365761233661474a565b612393565b600060078581548110612350576123506147a2565b906000526020600020906002020190508060000160009054906101000a900460ff1691506123908187308760405180602001604052806000815250612bf3565b50505b6000868152600960205260409020547f49b6f5ac374c4be8466fd8c3b0f9871cb2c0dfc84323369c5cff54e96a17234e9087906123d2906001906146b0565b836040516123e293929190614575565b60405180910390a1505050505050565b60008281526003602052604090205482906001600160a01b03163381148061243d57506001600160a01b038116600090815260066020908152604080832033845290915290205460ff165b8061245e57506000828152600560205260409020546001600160a01b031633145b6124bb5760405162461bcd60e51b815260206004820152602860248201527f4552433732313a2063616c6c6572206973206e6f74206f776e6572206e6f7220604482015267185c1c1c9bdd995960c21b60648201526084016108c7565b6124c686868661305b565b6124d2868686866133a0565b505050505050565b60606000825167ffffffffffffffff8111156124f8576124f86147b8565b604051908082528060200260200182016040528015612521578160200160208202803683370190505b50905060005b83518110156119255760036000858381518110612546576125466147a2565b6020026020010151815260200190815260200160002060009054906101000a90046001600160a01b0316828281518110612582576125826147a2565b6001600160a01b0390921660209283029190910190910152806125a48161472f565b915050612527565b6060600280546125bb906146c7565b80601f01602080910402602001604051908101604052809291908181526020018280546125e7906146c7565b80156126345780601f1061260957610100808354040283529160200191612634565b820191906000526020600020905b81548152906001019060200180831161261757829003601f168201915b50505050509050919050565b6040805160808101909152610fb890806002610f93565b6040805161014081018252600080825260208201819052918101829052606081018290526080810182905260a0810182905260c0810182905260e08101829052610100810182905261012081019190915273__LBondManager__________________________6388bc65c460086126cf85600261463e565b815481106126df576126df6147a2565b906000526020600020015460088560026126f9919061463e565b612704906001614604565b81548110612714576127146147a2565b90600052602060002001546040518363ffffffff1660e01b8152600401612745929190918252602082015260400190565b6101406040518083038186803b15801561275e57600080fd5b505af4158015612772573d6000803e3d6000fd5b505050506040513d601f19601f820116820180604052508101906107ad91906140f8565b60006001600160a01b0387163014156127d057507ff23a6e61000000000000000000000000000000000000000000000000000000006127d4565b5060005b9695505050505050565b600781815481106127ee57600080fd5b60009182526020909120600290910201805460019091015460ff8216925061010082046affffffffffffffffffffff1691600160601b90046001600160a01b03169084565b6040805160808101909152610fb890806001610f93565b6009602052816000526040600020818154811061286657600080fd5b600091825260209091206002909102018054600190910154909250905082565b6000818152600560209081526040808320805473ffffffffffffffffffffffffffffffffffffffff19166001600160a01b038781169182179092556003909352818420549151859492909116917f8c5be1e5ebec7d5bd14f71427d1e84f3dd0314c0f7b2291e5b200ac8c7c3b92591a45050565b60008460c001518261290c919061461c565b905060008161ffff16116129885760405162461bcd60e51b815260206004820152602e60248201527f4c6966656379636c654d616e616765723a2073657276696365207061796d656e60448201527f7420696e73756666696369656e7400000000000000000000000000000000000060648201526084016108c7565b808560600181815161299a91906145de565b61ffff90811690915260408701516060880151908216911611159050612b175760086129c784600261463e565b6129d2906001614604565b815481106129e2576129e26147a2565b6000918252602090912001546040517f746386ef000000000000000000000000000000000000000000000000000000008152600481019190915273__LBondManager__________________________9063746386ef9060240160206040518083038186803b158015612a5357600080fd5b505af4158015612a67573d6000803e3d6000fd5b505050506040513d601f19601f82011682018060405250810190612a8b9190614083565b8560c0015186604001518760600151612aa4919061468d565b61ffff16612ab2919061463e565b10612b08576040850151612ac79060016145de565b61ffff1660608601526040518381527f5ee8a220dbeeb0d453e678b58d1504bafdb5d1a5b55029fcc873b4813066a8319060200160405180910390a1612b17565b604085015161ffff1660608601525b60608501516040517fd07f83280000000000000000000000000000000000000000000000000000000081526004810186905261ffff909116602482015273__LBondManager__________________________9063d07f83289060440160206040518083038186803b158015612b8b57600080fd5b505af4158015612b9f573d6000803e3d6000fd5b505050506040513d601f19601f82011682018060405250810190612bc39190614083565b6008612bd085600261463e565b81548110612be057612be06147a2565b6000918252602090912001555050505050565b60006001865460ff166004811115612c0d57612c0d614776565b1415612d33576001600160a01b038516301415612cd25785546040517fa9059cbb0000000000000000000000000000000000000000000000000000000081526001600160a01b03868116600483015260248201869052600160601b9092049091169063a9059cbb906044015b602060405180830381600087803b158015612c9357600080fd5b505af1158015612ca7573d6000803e3d6000fd5b505050506040513d601f19601f82011682018060405250810190612ccb9190614066565b9050610e87565b85546040517f23b872dd0000000000000000000000000000000000000000000000000000000081526001600160a01b038781166004830152868116602483015260448201869052600160601b909204909116906323b872dd90606401612c79565b6002865460ff166004811115612d4b57612d4b614776565b1415612df35785546040517fb88d4fde0000000000000000000000000000000000000000000000000000000081526001600160a01b0387811660048301528681166024830152604482018690526080606483015260006084830152600160601b9092049091169063b88d4fde9060a4015b600060405180830381600087803b158015612dd657600080fd5b505af1158015612dea573d6000803e3d6000fd5b50505050612f03565b6003865460ff166004811115612e0b57612e0b614776565b1415612e74576001860154612e3457855461010090046affffffffffffffffffffff1660018701555b85546001870154604051637921219560e11b8152600160601b9092046001600160a01b03169163f242432a91612dbc918991899189908990600401614408565b6004865460ff166004811115612e8c57612e8c614776565b1415612f03578554604051637921219560e11b8152600160601b9091046001600160a01b03169063f242432a90612ed0908890889088906001908990600401614408565b600060405180830381600087803b158015612eea57600080fd5b505af1158015612efe573d6000803e3d6000fd5b505050505b50600195945050505050565b6007805460018181018355600092909252825160029091027fa66cc928b5edb82af9bd49922954155ab7b0942694bea4ce44661d9a8736c6880180548493919291839160ff191690836004811115612f6957612f69614776565b02179055506020820151815460408401516001600160a01b0316600160601b026bffffffffffffffffffffffff6affffffffffffffffffffff909316610100029290921660ff909116171781556060909101516001909101556000600382516004811115612fd957612fd9614776565b14156130065781602001516affffffffffffffffffffff1690508160600151600014613006575060608101515b6007547f2de521bc3664deadab052ac566d3e29f17b816025957077cd43ae461ebe1670790613037906001906146b0565b8351604080860151905161304f939291908690614546565b60405180910390a15050565b6000818152600360205260409020546001600160a01b038481169116146130ea5760405162461bcd60e51b815260206004820152602960248201527f4552433732313a207472616e73666572206f6620746f6b656e2074686174206960448201527f73206e6f74206f776e000000000000000000000000000000000000000000000060648201526084016108c7565b6001600160a01b0382166131655760405162461bcd60e51b8152602060048201526024808201527f4552433732313a207472616e7366657220746f20746865207a65726f2061646460448201527f726573730000000000000000000000000000000000000000000000000000000060648201526084016108c7565b613170600082612886565b6001600160a01b03831660009081526004602052604081208054600192906131999084906146b0565b90915550506001600160a01b03821660009081526004602052604081208054600192906131c7908490614604565b9091555050600081815260036020526040808220805473ffffffffffffffffffffffffffffffffffffffff19166001600160a01b0386811691821790925591518493918716917fddf252ad1be2c89b69c2b068fc378daa952ba7f163c4a11628f55a4df523b3ef91a4505050565b6001600160a01b03821661328b5760405162461bcd60e51b815260206004820181905260248201527f4552433732313a206d696e7420746f20746865207a65726f206164647265737360448201526064016108c7565b6000818152600360205260409020546001600160a01b0316156132f05760405162461bcd60e51b815260206004820152601c60248201527f4552433732313a20746f6b656e20616c7265616479206d696e7465640000000060448201526064016108c7565b6001600160a01b0382166000908152600460205260408120805460019290613319908490614604565b9091555050600081815260036020526040808220805473ffffffffffffffffffffffffffffffffffffffff19166001600160a01b03861690811790915590518392907fddf252ad1be2c89b69c2b068fc378daa952ba7f163c4a11628f55a4df523b3ef908290a461339c60008383604051806020016040528060008152506133a0565b5050565b6001600160a01b0383163b156109f057604051630a85bd0160e11b81526001600160a01b0384169063150b7a02906133e29033908890879087906004016143d6565b602060405180830381600087803b1580156133fc57600080fd5b505af192505050801561342c575060408051601f3d908101601f19168201909252613429918101906140db565b60015b6134e2576134386147ce565b806308c379a01415613472575061344d6147ea565b806134585750613474565b8060405162461bcd60e51b81526004016108c79190614524565b505b60405162461bcd60e51b815260206004820152603260248201527f4552433732313a207472616e7366657220746f206e6f6e20455243373231526560448201527f63656976657220696d706c656d656e746572000000000000000000000000000060648201526084016108c7565b6001600160e01b03198116630a85bd0160e11b1461108f5760405162461bcd60e51b815260206004820152602560248201527f4552433732313a2045524337323152656365697665722072656a65637465642060448201527f746f6b656e00000000000000000000000000000000000000000000000000000060648201526084016108c7565b6040805161014081018252600080825260208201819052918101829052606081018290526080810182905260a0810182905260c0810182905260e081018290526101008101829052610120810182905260086135c585600261463e565b815481106135d5576135d56147a2565b60009182526020909120015460405163836c4e3360e01b815273__LBondManager__________________________9163836c4e3391613619919085906004016144d0565b6101406040518083038186803b15801561363257600080fd5b505af4158015613646573d6000803e3d6000fd5b505050506040513d601f19601f8201168201806040525081019061366a91906140f8565b600085815260036020526040812054919250906136929086906001600160a01b031686613950565b825190915080156136a05750805b156136b0576001925050506107ad565b60086136bd86600261463e565b6136c8906001614604565b815481106136d8576136d86147a2565b6000918252602090912001546040517fb437f29400000000000000000000000000000000000000000000000000000000815273__LBondManager__________________________9163b437f29491613735919086906004016144d0565b6101406040518083038186803b15801561374e57600080fd5b505af4158015613762573d6000803e3d6000fd5b505050506040513d601f19601f8201168201806040525081019061378691906140f8565b91506000613799836101200151866139c5565b9050826040015161ffff16836060015161ffff161180156127d4575095945050505050565b60008181526003602052604090205481906001600160a01b03163381148061380957506001600160a01b038116600090815260066020908152604080832033845290915290205460ff165b8061382a57506000828152600560205260409020546001600160a01b031633145b6138875760405162461bcd60e51b815260206004820152602860248201527f4552433732313a2063616c6c6572206973206e6f74206f776e6572206e6f7220604482015267185c1c1c9bdd995960c21b60648201526084016108c7565b600861389484600261463e565b815481106138a4576138a46147a2565b600091825260208220015560086138bc84600261463e565b6138c7906001614604565b815481106138d7576138d76147a2565b60009182526020808320909101829055848252600381526040808320805473ffffffffffffffffffffffffffffffffffffffff198082169092556005845282852080549092169091556001600160a01b031680845260049092528220805491926001926139459084906146b0565b909155505050505050565b6000826001600160a01b0316826001600160a01b0316148061399757506001600160a01b0380841660009081526006602090815260408083209386168352929052205460ff165b806139bb57506000848152600560205260409020546001600160a01b038381169116145b90505b9392505050565b6000826001600160a01b0316826001600160a01b031614806139be5750506001600160a01b03918216600090815260066020908152604080832093909416825291909152205460ff1690565b5080546000825560020290600052602060002090810190610fb891905b80821115613a485760008082556001820155600201613a2e565b5090565b8051613a5781614874565b919050565b600082601f830112613a6d57600080fd5b81356020613a7a826145ba565b604051613a878282614702565b8381528281019150858301600585901b87018401881015613aa757600080fd5b60005b85811015613acf578135613abd81614874565b84529284019290840190600101613aaa565b5090979650505050505050565b600082601f830112613aed57600080fd5b81356020613afa826145ba565b604051613b078282614702565b8381528281019150858301600585901b87018401881015613b2757600080fd5b60005b85811015613acf57813584529284019290840190600101613b2a565b8051613a5781614889565b60008083601f840112613b6357600080fd5b50813567ffffffffffffffff811115613b7b57600080fd5b602083019150836020828501011115613b9357600080fd5b9250929050565b600082601f830112613bab57600080fd5b813567ffffffffffffffff811115613bc557613bc56147b8565b604051613bdc601f8301601f191660200182614702565b818152846020838601011115613bf157600080fd5b816020850160208301376000918101602001919091529392505050565b805161ffff81168114613a5757600080fd5b805163ffffffff81168114613a5757600080fd5b805167ffffffffffffffff81168114613a5757600080fd5b600060208284031215613c5e57600080fd5b81356139be81614874565b600060208284031215613c7b57600080fd5b81516139be81614874565b60008060408385031215613c9957600080fd5b8235613ca481614874565b91506020830135613cb481614874565b809150509250929050565b60008060008060808587031215613cd557600080fd5b8435613ce081614874565b93506020850135613cf081614874565b9250604085013567ffffffffffffffff80821115613d0d57600080fd5b613d1988838901613adc565b93506060870135915080821115613d2f57600080fd5b50613d3c87828801613b9a565b91505092959194509250565b600080600060608486031215613d5d57600080fd5b8335613d6881614874565b92506020840135613d7881614874565b929592945050506040919091013590565b600080600080600060808688031215613da157600080fd5b8535613dac81614874565b94506020860135613dbc81614874565b935060408601359250606086013567ffffffffffffffff811115613ddf57600080fd5b613deb88828901613b51565b969995985093965092949392505050565b60008060008060808587031215613e1257600080fd5b8435613e1d81614874565b93506020850135613e2d81614874565b925060408501359150606085013567ffffffffffffffff811115613e5057600080fd5b613d3c87828801613b9a565b60008060008060008060a08789031215613e7557600080fd5b8635613e8081614874565b95506020870135613e9081614874565b94506040870135935060608701359250608087013567ffffffffffffffff811115613eba57600080fd5b613ec689828a01613b51565b979a9699509497509295939492505050565b60008060408385031215613eeb57600080fd5b8235613ef681614874565b91506020830135613cb481614889565b60008060408385031215613f1957600080fd5b8235613f2481614874565b946020939093013593505050565b600060208284031215613f4457600080fd5b813567ffffffffffffffff811115613f5b57600080fd5b613f6784828501613a5c565b949350505050565b60008060408385031215613f8257600080fd5b823567ffffffffffffffff811115613f9957600080fd5b613fa585828601613a5c565b9250506020830135613cb481614889565b600060208284031215613fc857600080fd5b813567ffffffffffffffff811115613fdf57600080fd5b613f6784828501613adc565b6000806000806060858703121561400157600080fd5b843567ffffffffffffffff8082111561401957600080fd5b61402588838901613adc565b95506020870135915061403782614874565b9093506040860135908082111561404d57600080fd5b5061405a87828801613b51565b95989497509550505050565b60006020828403121561407857600080fd5b81516139be81614889565b60006020828403121561409557600080fd5b5051919050565b600080604083850312156140af57600080fd5b50508035926020909101359150565b6000602082840312156140d057600080fd5b81356139be81614897565b6000602082840312156140ed57600080fd5b81516139be81614897565b6000610140828403121561410b57600080fd5b614113614590565b61411c83613b46565b815261412a60208401613c20565b602082015261413b60408401613c0e565b604082015261414c60608401613c0e565b606082015261415d60808401613c34565b608082015261416e60a08401613c34565b60a082015260c083015160c082015260e083015160e0820152610100614195818501613a4c565b908201526101206141a7848201613a4c565b908201529392505050565b600080604083850312156141c557600080fd5b6141ce83613c0e565b91506141dc60208401613c0e565b90509250929050565b6000602082840312156141f757600080fd5b5035919050565b6000806040838503121561421157600080fd5b823591506020830135613cb481614874565b60008060008060006080868803121561423b57600080fd5b853594506020860135613dbc81614874565b6000806000806080858703121561426357600080fd5b84359350602085013561427581614874565b93969395505050506040820135916060013590565b6000815180845260005b818110156142b057602081850181015186830182015201614294565b818111156142c2576000602083870101525b50601f01601f19169290920160200192915050565b600581106142f557634e487b7160e01b600052602160045260246000fd5b9052565b8051151582526020810151614316602084018263ffffffff169052565b50604081015161432c604084018261ffff169052565b506060810151614342606084018261ffff169052565b50608081015161435e608084018267ffffffffffffffff169052565b5060a081015161437a60a084018267ffffffffffffffff169052565b5060c081015160c083015260e081015160e0830152610100808201516143aa828501826001600160a01b03169052565b5050610120818101516001600160a01b038116848301526109f0565b8183823760009101908152919050565b60006001600160a01b038087168352808616602084015250836040830152608060608301526127d4608083018461428a565b60006001600160a01b03808816835280871660208401525084604083015283606083015260a0608083015261444060a083018461428a565b979650505050505050565b6020808252825182820181905260009190848201906040850190845b8181101561448c5783516001600160a01b031683529284019291840191600101614467565b50909695505050505050565b6020808252825182820181905260009190848201906040850190845b8181101561448c578351835292840192918401916001016144b4565b82815261016081016139be60208301846142f9565b608081016144f382876142d7565b6affffffffffffffffffffff851660208301526001600160a01b038416604083015282606083015295945050505050565b6020815260006139be602083018461428a565b61014081016107ad82846142f9565b8481526080810161455a60208301866142d7565b6001600160a01b039390931660408201526060015292915050565b8381526020810183905260608101613f6760408301846142d7565b604051610140810167ffffffffffffffff811182821017156145b4576145b46147b8565b60405290565b600067ffffffffffffffff8211156145d4576145d46147b8565b5060051b60200190565b600061ffff8083168185168083038211156145fb576145fb614760565b01949350505050565b6000821982111561461757614617614760565b500190565b60008261463957634e487b7160e01b600052601260045260246000fd5b500490565b600081600019048311821515161561465857614658614760565b500290565b600067ffffffffffffffff8083168185168183048111821515161561468457614684614760565b02949350505050565b600061ffff838116908316818110156146a8576146a8614760565b039392505050565b6000828210156146c2576146c2614760565b500390565b600181811c908216806146db57607f821691505b602082108114156146fc57634e487b7160e01b600052602260045260246000fd5b50919050565b601f8201601f1916810167ffffffffffffffff81118282101715614728576147286147b8565b6040525050565b600060001982141561474357614743614760565b5060010190565b634e487b7160e01b600052600160045260246000fd5b634e487b7160e01b600052601160045260246000fd5b634e487b7160e01b600052602160045260246000fd5b634e487b7160e01b600052603160045260246000fd5b634e487b7160e01b600052603260045260246000fd5b634e487b7160e01b600052604160045260246000fd5b600060033d11156147e75760046000803e5060005160e01c5b90565b600060443d10156147f85790565b6040516003193d81016004833e81513d67ffffffffffffffff816024840111818411171561482857505050505090565b82850191508151818111156148405750505050505090565b843d870101602082850101111561485a5750505050505090565b61486960208286010187614702565b509095945050505050565b6001600160a01b0381168114610fb857600080fd5b8015158114610fb857600080fd5b6001600160e01b031981168114610fb857600080fdfea2646970667358221220634f3c51f81accf8ae3d53518cad7b6c59129ce3d9911a08e4dd74c7e571c41364736f6c63430008060033",
  "immutableReferences": {},
  "source": "// SPDX-License-Identifier: UNLICENSED\npragma solidity ^0.8.0;\n\nimport \"./LifecycleManager.sol\";\nimport \"./CurrencyManager.sol\";\nimport \"./LBondManager.sol\";\n\nstruct Collateral {\n    uint256 amountOrId;\n    uint256 currencyRef;\n}\n\n/**\n * @title  CollateralManager contract for handling bond\n * collateral.\n */\ncontract CollateralManager is LifecycleManager {\n    using LBondManager for bytes32;\n\n    /**\n     * @notice Mapping holding collaterals associated with\n     * each bond id\n     */\n    mapping(uint256 => Collateral[]) public collateral;\n\n    // TODO: add field for amount or nft id?\n    /// @notice New collateral has been attached to bond\n    event CollateralAdded(\n        uint256 bondId,\n        uint256 collateralId,\n        CurrencyType collateralType\n    );\n    /// @notice Collateral has been released from bond\n    event CollateralReleased(uint256 bondId, uint256 collateralId, address to);\n\n    constructor(\n        string memory name,\n        string memory symbol,\n        string memory uri\n    )\n        LifecycleManager(name, symbol, uri) // solhint-disable-next-line no-empty-blocks\n    {}\n\n    /**\n     * @notice Add a generic currency collateral to a bond\n     * @param id Id of bond to attach collateral to\n     * @param from Account to pull collateral from\n     * @param currencyRef Id of currency collateral is\n     * denominated in\n     * @param valueOrId Either the amount of tokens to attach,\n     * or the NFT id being attached (depending on currency)\n     */\n    function addCollateral(\n        uint256 id,\n        address from,\n        uint256 currencyRef,\n        uint256 valueOrId\n    ) external payable onlyOperatorFor(from) {\n        collateral[id].push(Collateral(valueOrId, currencyRef));\n        CurrencyType typ = CurrencyType.Ether;\n        if (currencyRef == 0) {\n            // ether special case\n            assert(msg.value == valueOrId);\n        } else {\n            Currency storage c = currencies[currencyRef];\n            typ = c.currencyType;\n            _transferGenericCurrency(\n                c,\n                from,\n                address(this),\n                valueOrId,\n                \"\"\n            );\n        }\n        emit CollateralAdded(id, collateral[id].length - 1, typ);\n    }\n\n    /**\n     * @dev Internal method to check if user is allowed\n     * to release collateral from a bond\n     * @param bondId Id of bond to check for\n     * @param operator Account address to authorize\n     */\n    function _isAuthorizedToReleaseCollateral(uint256 bondId, address operator)\n        internal\n        view\n        returns (bool)\n    {\n        Bond memory b;\n        // Check for default + bond ownership\n        b = bonds[bondId * 2].fillBondFromAlpha(b);\n        bool isOwner = _ownerOrOperatorOf(bondId, _owners[bondId], operator);\n        if (b.flag && isOwner) return true;\n        // Check for completed + bond minter\n        b = bonds[bondId * 2 + 1].fillBondFromBeta(b);\n        bool isMinter = _minterOrOperatorOf(b.minter, operator);\n        return (b.curPeriod > b.nPeriods && isMinter);\n    }\n\n    /**\n     * @notice Release last collateral attached to specified bonds ids\n     * @dev Method is optimized to memoize the 'previous' bond and\n     * currency used. If possible, sort incoming lists by bondIds and\n     * by related currencyIds.\n     * @param bondIds Integer array of bondIds to release collateral for\n     * @param to address to direct all collaterals to\n     * @param data bytes to forward with each transfer\n     */\n    function safeBatchReleaseCollaterals(\n        uint256[] memory bondIds,\n        address to,\n        bytes calldata data\n    ) public {\n        uint256 lastAuthorizedBond = 2**256 - 1;\n        uint256 lastCurrencyRef = 2**256 - 1;\n        Currency storage currency = currencies[0]; // TODO: figure out storage pointer\n        for (uint256 i = 0; i < bondIds.length; i++) {\n            uint256 bondId = bondIds[i];\n            // Check if this is an un-cached bond?\n            if (\n                lastAuthorizedBond != bondId || lastAuthorizedBond == 2**256 - 1\n            ) {\n                // It is! Authorize new release\n                require(\n                    _isAuthorizedToReleaseCollateral(bondId, msg.sender),\n                    \"CollateralManager: unauthorized to release collateral\"\n                );\n                lastAuthorizedBond = bondId;\n            }\n            // Get bond collateral (last in array), remove from storage\n            uint256 collateralId = collateral[bondId].length - 1;\n            Collateral memory c = collateral[bondId][collateralId];\n            collateral[bondId].pop();\n            require(\n                c.amountOrId > 0,\n                \"CollateralManager: this collateral has already been released\"\n            );\n            // Check if Collateral refers to a un-cached currency\n            if (\n                lastCurrencyRef != c.currencyRef ||\n                lastCurrencyRef == 2**256 - 1\n            ) {\n                // It does! Re-load cached currency\n                currency = currencies[c.currencyRef];\n                lastCurrencyRef = c.currencyRef;\n            }\n            // Transfer collateral\n            _transferGenericCurrency(\n                currency,\n                address(this),\n                to,\n                c.amountOrId,\n                data\n            );\n            emit CollateralReleased(bondId, collateralId, to);\n        }\n    }\n\n    /**\n     * @inheritdoc LifecycleManager\n     * @notice Collateral must be entirely released to allow bond destruction\n     */\n    function destroyBond(uint256 id) public override onlyValidOperator(id) {\n        assert(collateral[id].length == 0);\n        delete collateral[id];\n        super.destroyBond(id);\n    }\n}\n",
  "sourcePath": "/home/runner/work/karmaToken/karmaToken/contracts/CollateralManager.sol",
  "compiler": {
    "name": "solc",
    "version": "0.8.6+commit.11564f7e.Linux.g++"
  },
  "schemaVersion": "3.4.7",
  "updatedAt": "2022-07-22T16:48:15.630Z",
  "devdoc": {
    "kind": "dev",
    "methods": {
      "addCollateral(uint256,address,uint256,uint256)": {
        "params": {
          "currencyRef": "Id of currency collateral is denominated in",
          "from": "Account to pull collateral from",
          "id": "Id of bond to attach collateral to",
          "valueOrId": "Either the amount of tokens to attach, or the NFT id being attached (depending on currency)"
        }
      },
      "addERC1155NFTCurrency(address)": {
        "details": "Note that no tokenId is required -- since we know the count to be 1, the structures that reference this currency can use their field to specify the tokenId.",
        "params": {
          "location": "address of ERC1155 contract being added"
        }
      },
      "addERC1155TokenCurrency(address,uint256)": {
        "details": "TokenId is required because structures that reference this currency are only able to specify one field -- the amount, and so the tokenId must be constant and specified here",
        "params": {
          "location": "address of the ERC1155 contract being added",
          "tokenId": "specific tokenId to associate with this ERC1155 currency listing."
        }
      },
      "addERC20Currency(address)": {
        "params": {
          "location": "address of the ERC20 contract being added"
        }
      },
      "addERC721Currency(address)": {
        "details": "Add a new currency of type ERC721",
        "params": {
          "location": "address of the ERC721 contract being added"
        }
      },
      "approve(address,uint256)": {
        "details": "See {IERC721-approve}."
      },
      "balanceOf(address)": {
        "details": "See {IERC721-balanceOf}."
      },
      "callBond(uint256)": {
        "details": "Can only be performed by token owner or authorized operator.",
        "params": {
          "id": "Id of bond to check for default"
        }
      },
      "destroyBond(uint256)": {
        "details": "Can only be performed by token owner or authorized operator.",
        "params": {
          "id": "Bond id"
        }
      },
      "forgiveBond(uint256)": {
        "details": "Can only be performed by token owner or authorized operator.",
        "params": {
          "id": "Bond id"
        }
      },
      "getApproved(uint256)": {
        "details": "See {IERC721-getApproved}."
      },
      "getBond(uint256)": {
        "params": {
          "id": "Bond id"
        },
        "returns": {
          "_0": "Bond As the expanded bond datastructure at given id"
        }
      },
      "isApprovedForAll(address,address)": {
        "details": "See {IERC721-isApprovedForAll}."
      },
      "mintBond(bytes32,bytes32)": {
        "details": "Minter field must correspond to message sender!",
        "params": {
          "alp": "Alpha bytes to append, as generated by library",
          "bet": "Beta bytes to append, as generated by library"
        }
      },
      "onERC1155Received(address,address,uint256,uint256,bytes)": {
        "details": "Handler function that get's called on any ERC1155 transfer to this function -- accepts only transfers initiated by itself."
      },
      "onERC721Received(address,address,uint256,bytes)": {
        "details": "Handler function that get's called on any ERC721 transfer to this function -- accepts only transfers initiated by itself."
      },
      "ownerOf(uint256)": {
        "details": "See {IERC721-ownerOf}."
      },
      "safeBatchReleaseCollaterals(uint256[],address,bytes)": {
        "details": "Method is optimized to memoize the 'previous' bond and currency used. If possible, sort incoming lists by bondIds and by related currencyIds.",
        "params": {
          "bondIds": "Integer array of bondIds to release collateral for",
          "data": "bytes to forward with each transfer",
          "to": "address to direct all collaterals to"
        }
      },
      "safeTransferFrom(address,address,uint256)": {
        "details": "See {IERC721-safeTransferFrom}."
      },
      "safeTransferFrom(address,address,uint256,bytes)": {
        "details": "Safely transfers `tokenId` token from `from` to `to`, checking first that contract recipients are aware of the ERC721 protocol to prevent tokens from being forever locked. `_data` is additional data, it has no specified format and it is sent in call to `to`. This internal function is equivalent to {safeTransferFrom}, and can be used to e.g. implement alternative mechanisms to perform token transfer, such as signature-based. Requirements: - `from` cannot be the zero address. - `to` cannot be the zero address. - `tokenId` token must exist and be owned by `from`. - If `to` refers to a smart contract, it must implement {IERC721Receiver-onERC721Received}, which is called upon a safe transfer. Emits a {Transfer} event."
      },
      "serviceBond(uint256,address,uint256,bytes)": {
        "details": "For ether transactions, from and value still have to match or exceed the ether sent and the message sender. Note that call data will only get forwarded for supporting currencies",
        "params": {
          "data": "Additonal bytes to send with the transaction",
          "from": "Account address to take value from",
          "id": "Id of bond to service",
          "value": "Either the amount to apply to the bond, or the NFT id to transfer as service payment"
        }
      },
      "setApprovalForAll(address,bool)": {
        "details": "Approve `operator` to operate on all of `owner` tokens Emits a {ApprovalForAll} event."
      },
      "supportsInterface(bytes4)": {
        "details": "See {IERC165-supportsInterface}."
      },
      "tokenURI(uint256)": {
        "details": "See {IERC721Metadata-tokenURI}."
      },
      "transferFrom(address,address,uint256)": {
        "details": "See {IERC721-transferFrom}."
      },
      "updateBeneficiary(uint256,address)": {
        "params": {
          "id": "Bond id",
          "newBeneficiary": "Address of new beneficiary account"
        }
      }
    },
    "title": " CollateralManager contract for handling bond collateral.",
    "version": 1
  },
  "userdoc": {
    "events": {
      "BeneficiaryChange(uint256,address)": {
        "notice": "recipient of bond payments has been updated"
      },
      "BondCompleted(uint256)": {
        "notice": "bond has been entirely repayed"
      },
      "BondDefaulted(uint256)": {
        "notice": "bond payments have been failed"
      },
      "BondServiced(uint256,address,uint64)": {
        "notice": "new bond payment has been posted"
      },
      "CollateralAdded(uint256,uint256,uint8)": {
        "notice": "New collateral has been attached to bond"
      },
      "CollateralReleased(uint256,uint256,address)": {
        "notice": "Collateral has been released from bond"
      },
      "CurrencyAdded(uint256,uint8,address,uint256)": {
        "notice": "New currency has been added to internal listing"
      }
    },
    "kind": "user",
    "methods": {
      "addCollateral(uint256,address,uint256,uint256)": {
        "notice": "Add a generic currency collateral to a bond"
      },
      "addERC1155NFTCurrency(address)": {
        "notice": "Add a new currency of type ERC1155 NFT."
      },
      "addERC1155TokenCurrency(address,uint256)": {
        "notice": "Add a new currency of type ERC1155 Token"
      },
      "addERC20Currency(address)": {
        "notice": "Add a new currency of type ERC20"
      },
      "bonds(uint256)": {
        "notice": "Bond data array -- holds alpha and beta slots for bond, to be interpreted by LBondManager."
      },
      "callBond(uint256)": {
        "notice": "Call bond to mark it as 'in default'."
      },
      "collateral(uint256,uint256)": {
        "notice": "Mapping holding collaterals associated with each bond id"
      },
      "currencies(uint256)": {
        "notice": "Array holding currency listing."
      },
      "destroyBond(uint256)": {
        "notice": "Collateral must be entirely released to allow bond destruction"
      },
      "forgiveBond(uint256)": {
        "notice": "Set bond as complete and forfeight future payments"
      },
      "getBond(uint256)": {
        "notice": "Interpret bond with given id into readable version"
      },
      "mintBond(bytes32,bytes32)": {
        "notice": "Append a new bond with given data"
      },
      "onERC1155Received(address,address,uint256,uint256,bytes)": {
        "notice": "SHOULD NOT be generally called by a direct user"
      },
      "onERC721Received(address,address,uint256,bytes)": {
        "notice": "SHOULD NOT be generally called by a direct user"
      },
      "safeBatchReleaseCollaterals(uint256[],address,bytes)": {
        "notice": "Release last collateral attached to specified bonds ids"
      },
      "serviceBond(uint256,address,uint256,bytes)": {
        "notice": "Service a specific bond with generic currency"
      },
      "updateBeneficiary(uint256,address)": {
        "notice": "Update the beneficiary associated with a bond"
      }
    },
    "version": 1
  }
}