{
  "contractName": "CollateralManager",
  "abi": [
    {
      "inputs": [
        {
          "internalType": "string",
          "name": "name",
          "type": "string"
        },
        {
          "internalType": "string",
          "name": "symbol",
          "type": "string"
        },
        {
          "internalType": "string",
          "name": "uri",
          "type": "string"
        }
      ],
      "stateMutability": "nonpayable",
      "type": "constructor"
    },
    {
      "anonymous": false,
      "inputs": [
        {
          "indexed": true,
          "internalType": "address",
          "name": "owner",
          "type": "address"
        },
        {
          "indexed": true,
          "internalType": "address",
          "name": "approved",
          "type": "address"
        },
        {
          "indexed": true,
          "internalType": "uint256",
          "name": "tokenId",
          "type": "uint256"
        }
      ],
      "name": "Approval",
      "type": "event"
    },
    {
      "anonymous": false,
      "inputs": [
        {
          "indexed": true,
          "internalType": "address",
          "name": "owner",
          "type": "address"
        },
        {
          "indexed": true,
          "internalType": "address",
          "name": "operator",
          "type": "address"
        },
        {
          "indexed": false,
          "internalType": "bool",
          "name": "approved",
          "type": "bool"
        }
      ],
      "name": "ApprovalForAll",
      "type": "event"
    },
    {
      "anonymous": false,
      "inputs": [
        {
          "indexed": false,
          "internalType": "uint256",
          "name": "id",
          "type": "uint256"
        },
        {
          "indexed": false,
          "internalType": "address",
          "name": "beneficiary",
          "type": "address"
        }
      ],
      "name": "BeneficiaryChange",
      "type": "event"
    },
    {
      "anonymous": false,
      "inputs": [
        {
          "indexed": false,
          "internalType": "uint256",
          "name": "id",
          "type": "uint256"
        }
      ],
      "name": "BondCompleted",
      "type": "event"
    },
    {
      "anonymous": false,
      "inputs": [
        {
          "indexed": false,
          "internalType": "uint256",
          "name": "id",
          "type": "uint256"
        }
      ],
      "name": "BondDefaulted",
      "type": "event"
    },
    {
      "anonymous": false,
      "inputs": [
        {
          "indexed": false,
          "internalType": "uint256",
          "name": "id",
          "type": "uint256"
        },
        {
          "indexed": false,
          "internalType": "address",
          "name": "operator",
          "type": "address"
        },
        {
          "indexed": false,
          "internalType": "uint64",
          "name": "toPeriod",
          "type": "uint64"
        }
      ],
      "name": "BondServiced",
      "type": "event"
    },
    {
      "anonymous": false,
      "inputs": [
        {
          "indexed": false,
          "internalType": "uint256",
          "name": "bondId",
          "type": "uint256"
        },
        {
          "indexed": false,
          "internalType": "uint256",
          "name": "collateralId",
          "type": "uint256"
        },
        {
          "indexed": false,
          "internalType": "enum CurrencyType",
          "name": "collateralType",
          "type": "uint8"
        }
      ],
      "name": "CollateralAdded",
      "type": "event"
    },
    {
      "anonymous": false,
      "inputs": [
        {
          "indexed": false,
          "internalType": "uint256",
          "name": "bondId",
          "type": "uint256"
        },
        {
          "indexed": false,
          "internalType": "uint256",
          "name": "collateralId",
          "type": "uint256"
        },
        {
          "indexed": false,
          "internalType": "address",
          "name": "to",
          "type": "address"
        }
      ],
      "name": "CollateralReleased",
      "type": "event"
    },
    {
      "anonymous": false,
      "inputs": [
        {
          "indexed": false,
          "internalType": "uint256",
          "name": "id",
          "type": "uint256"
        },
        {
          "indexed": false,
          "internalType": "enum CurrencyType",
          "name": "currencyType",
          "type": "uint8"
        },
        {
          "indexed": false,
          "internalType": "address",
          "name": "location",
          "type": "address"
        },
        {
          "indexed": false,
          "internalType": "uint256",
          "name": "ERC1155Id",
          "type": "uint256"
        }
      ],
      "name": "CurrencyAdded",
      "type": "event"
    },
    {
      "anonymous": false,
      "inputs": [
        {
          "indexed": true,
          "internalType": "address",
          "name": "from",
          "type": "address"
        },
        {
          "indexed": true,
          "internalType": "address",
          "name": "to",
          "type": "address"
        },
        {
          "indexed": true,
          "internalType": "uint256",
          "name": "tokenId",
          "type": "uint256"
        }
      ],
      "name": "Transfer",
      "type": "event"
    },
    {
      "inputs": [
        {
          "internalType": "address",
          "name": "location",
          "type": "address"
        }
      ],
      "name": "addERC1155NFTCurrency",
      "outputs": [],
      "stateMutability": "payable",
      "type": "function"
    },
    {
      "inputs": [
        {
          "internalType": "address",
          "name": "location",
          "type": "address"
        },
        {
          "internalType": "uint256",
          "name": "tokenId",
          "type": "uint256"
        }
      ],
      "name": "addERC1155TokenCurrency",
      "outputs": [],
      "stateMutability": "payable",
      "type": "function"
    },
    {
      "inputs": [
        {
          "internalType": "address",
          "name": "location",
          "type": "address"
        }
      ],
      "name": "addERC20Currency",
      "outputs": [],
      "stateMutability": "payable",
      "type": "function"
    },
    {
      "inputs": [
        {
          "internalType": "address",
          "name": "location",
          "type": "address"
        }
      ],
      "name": "addERC721Currency",
      "outputs": [],
      "stateMutability": "payable",
      "type": "function"
    },
    {
      "inputs": [
        {
          "internalType": "address",
          "name": "to",
          "type": "address"
        },
        {
          "internalType": "uint256",
          "name": "tokenId",
          "type": "uint256"
        }
      ],
      "name": "approve",
      "outputs": [],
      "stateMutability": "nonpayable",
      "type": "function"
    },
    {
      "inputs": [
        {
          "internalType": "address",
          "name": "owner",
          "type": "address"
        }
      ],
      "name": "balanceOf",
      "outputs": [
        {
          "internalType": "uint256",
          "name": "",
          "type": "uint256"
        }
      ],
      "stateMutability": "view",
      "type": "function"
    },
    {
      "inputs": [
        {
          "internalType": "address[]",
          "name": "owners",
          "type": "address[]"
        }
      ],
      "name": "balanceOfBatch",
      "outputs": [
        {
          "internalType": "uint256[]",
          "name": "",
          "type": "uint256[]"
        }
      ],
      "stateMutability": "view",
      "type": "function"
    },
    {
      "inputs": [
        {
          "internalType": "uint256",
          "name": "",
          "type": "uint256"
        }
      ],
      "name": "bonds",
      "outputs": [
        {
          "internalType": "bytes32",
          "name": "",
          "type": "bytes32"
        }
      ],
      "stateMutability": "view",
      "type": "function"
    },
    {
      "inputs": [
        {
          "internalType": "uint256",
          "name": "id",
          "type": "uint256"
        }
      ],
      "name": "callBond",
      "outputs": [],
      "stateMutability": "nonpayable",
      "type": "function"
    },
    {
      "inputs": [
        {
          "internalType": "uint256",
          "name": "",
          "type": "uint256"
        },
        {
          "internalType": "uint256",
          "name": "",
          "type": "uint256"
        }
      ],
      "name": "collateral",
      "outputs": [
        {
          "internalType": "uint256",
          "name": "amountOrId",
          "type": "uint256"
        },
        {
          "internalType": "uint256",
          "name": "currencyRef",
          "type": "uint256"
        }
      ],
      "stateMutability": "view",
      "type": "function"
    },
    {
      "inputs": [
        {
          "internalType": "uint256",
          "name": "",
          "type": "uint256"
        }
      ],
      "name": "currencies",
      "outputs": [
        {
          "internalType": "enum CurrencyType",
          "name": "currencyType",
          "type": "uint8"
        },
        {
          "internalType": "uint88",
          "name": "ERC1155SmallId",
          "type": "uint88"
        },
        {
          "internalType": "address",
          "name": "location",
          "type": "address"
        },
        {
          "internalType": "uint256",
          "name": "ERC1155Id",
          "type": "uint256"
        }
      ],
      "stateMutability": "view",
      "type": "function"
    },
    {
      "inputs": [
        {
          "internalType": "uint256",
          "name": "id",
          "type": "uint256"
        }
      ],
      "name": "forgiveBond",
      "outputs": [],
      "stateMutability": "nonpayable",
      "type": "function"
    },
    {
      "inputs": [
        {
          "internalType": "uint256",
          "name": "tokenId",
          "type": "uint256"
        }
      ],
      "name": "getApproved",
      "outputs": [
        {
          "internalType": "address",
          "name": "",
          "type": "address"
        }
      ],
      "stateMutability": "view",
      "type": "function"
    },
    {
      "inputs": [
        {
          "internalType": "uint256",
          "name": "id",
          "type": "uint256"
        }
      ],
      "name": "getBond",
      "outputs": [
        {
          "components": [
            {
              "internalType": "bool",
              "name": "flag",
              "type": "bool"
            },
            {
              "internalType": "uint32",
              "name": "currencyRef",
              "type": "uint32"
            },
            {
              "internalType": "uint16",
              "name": "nPeriods",
              "type": "uint16"
            },
            {
              "internalType": "uint16",
              "name": "curPeriod",
              "type": "uint16"
            },
            {
              "internalType": "uint64",
              "name": "startTime",
              "type": "uint64"
            },
            {
              "internalType": "uint64",
              "name": "periodDuration",
              "type": "uint64"
            },
            {
              "internalType": "uint256",
              "name": "couponSize",
              "type": "uint256"
            },
            {
              "internalType": "uint256",
              "name": "faceValue",
              "type": "uint256"
            },
            {
              "internalType": "address",
              "name": "beneficiary",
              "type": "address"
            },
            {
              "internalType": "address",
              "name": "minter",
              "type": "address"
            }
          ],
          "internalType": "struct Bond",
          "name": "",
          "type": "tuple"
        }
      ],
      "stateMutability": "view",
      "type": "function"
    },
    {
      "inputs": [
        {
          "internalType": "address",
          "name": "owner",
          "type": "address"
        },
        {
          "internalType": "address",
          "name": "operator",
          "type": "address"
        }
      ],
      "name": "isApprovedForAll",
      "outputs": [
        {
          "internalType": "bool",
          "name": "",
          "type": "bool"
        }
      ],
      "stateMutability": "view",
      "type": "function"
    },
    {
      "inputs": [
        {
          "internalType": "bytes32",
          "name": "alp",
          "type": "bytes32"
        },
        {
          "internalType": "bytes32",
          "name": "bet",
          "type": "bytes32"
        }
      ],
      "name": "mintBond",
      "outputs": [],
      "stateMutability": "payable",
      "type": "function"
    },
    {
      "inputs": [],
      "name": "name",
      "outputs": [
        {
          "internalType": "string",
          "name": "",
          "type": "string"
        }
      ],
      "stateMutability": "view",
      "type": "function"
    },
    {
      "inputs": [
        {
          "internalType": "address",
          "name": "operator",
          "type": "address"
        },
        {
          "internalType": "address",
          "name": "",
          "type": "address"
        },
        {
          "internalType": "uint256",
          "name": "",
          "type": "uint256"
        },
        {
          "internalType": "uint256",
          "name": "",
          "type": "uint256"
        },
        {
          "internalType": "bytes",
          "name": "",
          "type": "bytes"
        }
      ],
      "name": "onERC1155Received",
      "outputs": [
        {
          "internalType": "bytes4",
          "name": "",
          "type": "bytes4"
        }
      ],
      "stateMutability": "view",
      "type": "function"
    },
    {
      "inputs": [
        {
          "internalType": "address",
          "name": "operator",
          "type": "address"
        },
        {
          "internalType": "address",
          "name": "",
          "type": "address"
        },
        {
          "internalType": "uint256",
          "name": "",
          "type": "uint256"
        },
        {
          "internalType": "bytes",
          "name": "",
          "type": "bytes"
        }
      ],
      "name": "onERC721Received",
      "outputs": [
        {
          "internalType": "bytes4",
          "name": "",
          "type": "bytes4"
        }
      ],
      "stateMutability": "view",
      "type": "function"
    },
    {
      "inputs": [
        {
          "internalType": "uint256",
          "name": "tokenId",
          "type": "uint256"
        }
      ],
      "name": "ownerOf",
      "outputs": [
        {
          "internalType": "address",
          "name": "",
          "type": "address"
        }
      ],
      "stateMutability": "view",
      "type": "function"
    },
    {
      "inputs": [
        {
          "internalType": "uint256[]",
          "name": "ids",
          "type": "uint256[]"
        }
      ],
      "name": "ownerOfBatch",
      "outputs": [
        {
          "internalType": "address[]",
          "name": "",
          "type": "address[]"
        }
      ],
      "stateMutability": "view",
      "type": "function"
    },
    {
      "inputs": [
        {
          "internalType": "address",
          "name": "from",
          "type": "address"
        },
        {
          "internalType": "address",
          "name": "to",
          "type": "address"
        },
        {
          "internalType": "uint256[]",
          "name": "ids",
          "type": "uint256[]"
        },
        {
          "internalType": "bytes",
          "name": "_data",
          "type": "bytes"
        }
      ],
      "name": "safeBatchTransferFrom",
      "outputs": [],
      "stateMutability": "nonpayable",
      "type": "function"
    },
    {
      "inputs": [
        {
          "internalType": "address",
          "name": "from",
          "type": "address"
        },
        {
          "internalType": "address",
          "name": "to",
          "type": "address"
        },
        {
          "internalType": "uint256",
          "name": "tokenId",
          "type": "uint256"
        }
      ],
      "name": "safeTransferFrom",
      "outputs": [],
      "stateMutability": "nonpayable",
      "type": "function"
    },
    {
      "inputs": [
        {
          "internalType": "address",
          "name": "from",
          "type": "address"
        },
        {
          "internalType": "address",
          "name": "to",
          "type": "address"
        },
        {
          "internalType": "uint256",
          "name": "tokenId",
          "type": "uint256"
        },
        {
          "internalType": "bytes",
          "name": "_data",
          "type": "bytes"
        }
      ],
      "name": "safeTransferFrom",
      "outputs": [],
      "stateMutability": "nonpayable",
      "type": "function"
    },
    {
      "inputs": [
        {
          "internalType": "uint256",
          "name": "id",
          "type": "uint256"
        },
        {
          "internalType": "address",
          "name": "from",
          "type": "address"
        },
        {
          "internalType": "uint256",
          "name": "value",
          "type": "uint256"
        },
        {
          "internalType": "bytes",
          "name": "data",
          "type": "bytes"
        }
      ],
      "name": "serviceBond",
      "outputs": [],
      "stateMutability": "payable",
      "type": "function"
    },
    {
      "inputs": [
        {
          "internalType": "address",
          "name": "operator",
          "type": "address"
        },
        {
          "internalType": "bool",
          "name": "approved",
          "type": "bool"
        }
      ],
      "name": "setApprovalForAll",
      "outputs": [],
      "stateMutability": "nonpayable",
      "type": "function"
    },
    {
      "inputs": [
        {
          "internalType": "address[]",
          "name": "operators",
          "type": "address[]"
        },
        {
          "internalType": "bool",
          "name": "approved",
          "type": "bool"
        }
      ],
      "name": "setBatchApprovalForAll",
      "outputs": [],
      "stateMutability": "nonpayable",
      "type": "function"
    },
    {
      "inputs": [
        {
          "internalType": "bytes4",
          "name": "interfaceId",
          "type": "bytes4"
        }
      ],
      "name": "supportsInterface",
      "outputs": [
        {
          "internalType": "bool",
          "name": "",
          "type": "bool"
        }
      ],
      "stateMutability": "view",
      "type": "function"
    },
    {
      "inputs": [],
      "name": "symbol",
      "outputs": [
        {
          "internalType": "string",
          "name": "",
          "type": "string"
        }
      ],
      "stateMutability": "view",
      "type": "function"
    },
    {
      "inputs": [
        {
          "internalType": "uint256",
          "name": "",
          "type": "uint256"
        }
      ],
      "name": "tokenURI",
      "outputs": [
        {
          "internalType": "string",
          "name": "",
          "type": "string"
        }
      ],
      "stateMutability": "view",
      "type": "function"
    },
    {
      "inputs": [
        {
          "internalType": "address",
          "name": "from",
          "type": "address"
        },
        {
          "internalType": "address",
          "name": "to",
          "type": "address"
        },
        {
          "internalType": "uint256",
          "name": "tokenId",
          "type": "uint256"
        }
      ],
      "name": "transferFrom",
      "outputs": [],
      "stateMutability": "nonpayable",
      "type": "function"
    },
    {
      "inputs": [
        {
          "internalType": "uint256",
          "name": "id",
          "type": "uint256"
        },
        {
          "internalType": "address",
          "name": "newBeneficiary",
          "type": "address"
        }
      ],
      "name": "updateBeneficiary",
      "outputs": [],
      "stateMutability": "nonpayable",
      "type": "function"
    },
    {
      "inputs": [
        {
          "internalType": "uint256",
          "name": "id",
          "type": "uint256"
        },
        {
          "internalType": "uint256",
          "name": "currencyRef",
          "type": "uint256"
        },
        {
          "internalType": "uint256",
          "name": "valueOrId",
          "type": "uint256"
        }
      ],
      "name": "addCollateral",
      "outputs": [],
      "stateMutability": "payable",
      "type": "function"
    },
    {
      "inputs": [
        {
          "internalType": "uint256[]",
          "name": "bondIds",
          "type": "uint256[]"
        },
        {
          "internalType": "address",
          "name": "to",
          "type": "address"
        },
        {
          "internalType": "bytes",
          "name": "data",
          "type": "bytes"
        }
      ],
      "name": "safeBatchReleaseCollaterals",
      "outputs": [],
      "stateMutability": "nonpayable",
      "type": "function"
    },
    {
      "inputs": [
        {
          "internalType": "uint256",
          "name": "id",
          "type": "uint256"
        }
      ],
      "name": "destroyBond",
      "outputs": [],
      "stateMutability": "nonpayable",
      "type": "function"
    }
  ],
  "bytecode": "0x60806040523480156200001157600080fd5b5060405162004b7338038062004b738339810160408190526200003491620002ca565b8282828282828282828282828260009080519060200190620000589291906200016d565b5081516200006e9060019060208501906200016d565b508051620000849060029060208401906200016d565b505050505050506007604051806080016040528060006004811115620000ae57620000ae62000398565b8152600060208083018290526040830182905260609092018190528354600181810186559482529190208251600290920201805492939092839160ff199091169083600481111562000104576200010462000398565b02179055506020820151815460408401516001600160a01b03166c01000000000000000000000000026001600160601b036001600160581b03909316610100029290921660ff9091161717815560609091015160019091015550620003c4975050505050505050565b8280546200017b906200035b565b90600052602060002090601f0160209004810192826200019f5760008555620001ea565b82601f10620001ba57805160ff1916838001178555620001ea565b82800160010185558215620001ea579182015b82811115620001ea578251825591602001919060010190620001cd565b50620001f8929150620001fc565b5090565b5b80821115620001f85760008155600101620001fd565b600082601f8301126200022557600080fd5b81516001600160401b0380821115620002425762000242620003ae565b604051601f8301601f19908116603f011681019082821181831017156200026d576200026d620003ae565b816040528381526020925086838588010111156200028a57600080fd5b600091505b83821015620002ae57858201830151818301840152908201906200028f565b83821115620002c05760008385830101525b9695505050505050565b600080600060608486031215620002e057600080fd5b83516001600160401b0380821115620002f857600080fd5b620003068783880162000213565b945060208601519150808211156200031d57600080fd5b6200032b8783880162000213565b935060408601519150808211156200034257600080fd5b50620003518682870162000213565b9150509250925092565b600181811c908216806200037057607f821691505b602082108114156200039257634e487b7160e01b600052602260045260246000fd5b50919050565b634e487b7160e01b600052602160045260246000fd5b634e487b7160e01b600052604160045260246000fd5b61479f80620003d46000396000f3fe6080604052600436106102345760003560e01c80636352211e11610138578063c861c6e6116100b0578063e985e9c51161007f578063f6d1c27111610064578063f6d1c2711461069e578063fe9accf9146106ce578063ffb55501146106e157600080fd5b8063e985e9c514610635578063f23a6e611461067e57600080fd5b8063c861c6e6146105c2578063c87b56dd146105d5578063cd30e2cd146105f5578063d8fe76421461060857600080fd5b806395d89b4111610107578063a22cb465116100ec578063a22cb46514610555578063b88d4fde14610575578063bda801171461059557600080fd5b806395d89b41146105205780639f949d9d1461053557600080fd5b80636352211e1461049757806368b0d5a8146104cd57806370a08231146104e057806378cb91751461050057600080fd5b806323b872dd116101cb5780633f37b00c1161019a578063458c738e1161017f578063458c738e1461041c5780635f1c17c01461044957806362311f551461047757600080fd5b80633f37b00c146103dc57806342842e0e146103fc57600080fd5b806323b872dd14610369578063275da3b41461038957806328cfbd461461039c5780633e8eb5a4146103bc57600080fd5b80630f68e5fc116102075780630f68e5fc146102ea578063150b7a02146102fd578063187ddf87146103365780631f5e180e1461035657600080fd5b806301ffc9a71461023957806306fdde031461026e578063081812fc14610290578063095ea7b3146102c8575b600080fd5b34801561024557600080fd5b50610259610254366004613f8b565b610716565b60405190151581526020015b60405180910390f35b34801561027a57600080fd5b506102836107b3565b60405161026591906143e0565b34801561029c57600080fd5b506102b06102ab3660046140b2565b610841565b6040516001600160a01b039091168152602001610265565b3480156102d457600080fd5b506102e86102e3366004613dd3565b6108ec565b005b6102e86102f83660046140f0565b6109f6565b34801561030957600080fd5b5061031d610318366004613c56565b610dc9565b6040516001600160e01b03199091168152602001610265565b34801561034257600080fd5b506102e8610351366004613e3c565b610df7565b6102e8610364366004613b19565b610ee7565b34801561037557600080fd5b506102e8610384366004613c15565b610f22565b6102e8610397366004613f69565b610ffd565b3480156103a857600080fd5b506102e86103b7366004613b8c565b61115a565b3480156103c857600080fd5b506102e86103d73660046140cb565b6112b0565b3480156103e857600080fd5b506102e86103f7366004613eb8565b6114b3565b34801561040857600080fd5b506102e8610417366004613c15565b6117ad565b34801561042857600080fd5b5061043c610437366004613dff565b6117c8565b6040516102659190614354565b34801561045557600080fd5b506104696104643660046140b2565b611893565b604051908152602001610265565b34801561048357600080fd5b506102e86104923660046140b2565b6118b4565b3480156104a357600080fd5b506102b06104b23660046140b2565b6000908152600360205260409020546001600160a01b031690565b6102e86104db366004613dd3565b6119b9565b3480156104ec57600080fd5b506104696104fb366004613b19565b611a0c565b34801561050c57600080fd5b506102e861051b3660046140b2565b611aa6565b34801561052c57600080fd5b50610283611ea7565b34801561054157600080fd5b506102e86105503660046140b2565b611eb4565b34801561056157600080fd5b506102e8610570366004613da5565b612142565b34801561058157600080fd5b506102e8610590366004613cc9565b6121ae565b3480156105a157600080fd5b506105b56105b0366004613e83565b612296565b6040516102659190614307565b6102e86105d036600461411a565b612368565b3480156105e157600080fd5b506102836105f03660046140b2565b612479565b6102e8610603366004613b19565b61250d565b34801561061457600080fd5b506106286106233660046140b2565b612524565b60405161026591906143f3565b34801561064157600080fd5b50610259610650366004613b53565b6001600160a01b03918216600090815260066020908152604080832093909416825291909152205460ff1690565b34801561068a57600080fd5b5061031d610699366004613d29565b612663565b3480156106aa57600080fd5b506106be6106b93660046140b2565b6126ab565b60405161026594939291906143a1565b6102e86106dc366004613b19565b612700565b3480156106ed57600080fd5b506107016106fc366004613f69565b612717565b60408051928352602083019190915201610265565b60006001600160e01b031982167f80ac58cd00000000000000000000000000000000000000000000000000000000148061077957506001600160e01b031982167f5b5e139f00000000000000000000000000000000000000000000000000000000145b806107ad57507f01ffc9a7000000000000000000000000000000000000000000000000000000006001600160e01b03198316145b92915050565b600080546107c090614583565b80601f01602080910402602001604051908101604052809291908181526020018280546107ec90614583565b80156108395780601f1061080e57610100808354040283529160200191610839565b820191906000526020600020905b81548152906001019060200180831161081c57829003601f168201915b505050505081565b6000818152600360205260408120546001600160a01b03166108d05760405162461bcd60e51b815260206004820152602c60248201527f4552433732313a20617070726f76656420717565727920666f72206e6f6e657860448201527f697374656e7420746f6b656e000000000000000000000000000000000000000060648201526084015b60405180910390fd5b506000908152600560205260409020546001600160a01b031690565b60008181526003602052604090205481906001600160a01b031633146109545760405162461bcd60e51b815260206004820152601b60248201527f4552433732313a2063616c6c6564206973206e6f74206f776e6572000000000060448201526064016108c7565b6000828152600360205260409020546001600160a01b039081169084168114156109e65760405162461bcd60e51b815260206004820152602160248201527f4552433732313a20617070726f76616c20746f2063757272656e74206f776e6560448201527f720000000000000000000000000000000000000000000000000000000000000060648201526084016108c7565b6109f08484612753565b50505050565b6040805161014081018252600080825260208201819052918101829052606081018290526080810182905260a0810182905260c0810182905260e0810182905261010081018290526101208101829052906008610a548860026144fa565b81548110610a6457610a6461465e565b60009182526020909120015460405163836c4e3360e01b815290915073__LBondManager__________________________9063836c4e3390610aac908490869060040161438c565b6101406040518083038186803b158015610ac557600080fd5b505af4158015610ad9573d6000803e3d6000fd5b505050506040513d601f19601f82011682018060405250810190610afd9190613fc5565b805190925015610b755760405162461bcd60e51b815260206004820152602f60248201527f4c6966656379636c654d616e616765723a2063616e6e6f74207365727669636560448201527f2064656661756c74656420626f6e64000000000000000000000000000000000060648201526084016108c7565b602082015163ffffffff16610c995784341015610b9457610b94614606565b336001600160a01b03871614610bac57610bac614606565b610bb8828289886127c7565b60008261010001516001600160a01b0316868686604051610bda929190614282565b60006040518083038185875af1925050503d8060008114610c17576040519150601f19603f3d011682016040523d82523d6000602084013e610c1c565b606091505b5050905080610c935760405162461bcd60e51b815260206004820152602a60248201527f4c6966656379636c654d616e616765723a206574686572207472616e7361637460448201527f696f6e206661696c65640000000000000000000000000000000000000000000060648201526084016108c7565b50610d6f565b60006007836020015163ffffffff1681548110610cb857610cb861465e565b60009182526020909120600291820201805490925060ff1690816004811115610ce357610ce3614632565b1480610d0057506004816004811115610cfe57610cfe614632565b145b15610d1757610d1284848b60016127c7565b610d23565b610d2384848b8a6127c7565b610d6b82898661010001518a8a8a8080601f016020809104026020016040519081016040528093929190818152602001838380828437600092019190915250612ac092505050565b5050505b606080830151604080518a81526001600160a01b038a16602082015261ffff909216908201527fda82ac16b4aa1e491f2ec1eb4b24b3d9a42ae226c5079255d032ce34f43d55f6910160405180910390a150505050505050565b60006001600160a01b038616301415610dea5750630a85bd0160e11b610dee565b5060005b95945050505050565b60005b8251811015610ee2573360009081526006602052604081208451849290869085908110610e2957610e2961465e565b60200260200101516001600160a01b03166001600160a01b0316815260200190815260200160002060006101000a81548160ff021916908315150217905550828181518110610e7a57610e7a61465e565b60200260200101516001600160a01b0316336001600160a01b03167f17307eab39ab6107e8899845ad3d59bd9653f200f220920489ca2b5937696c3184604051610ec8911515815260200190565b60405180910390a380610eda816145eb565b915050610dfa565b505050565b6040805160808101909152610f1f908060045b81526000602082018190526001600160a01b0385166040830152606090910152612ddc565b50565b60008181526003602052604090205481906001600160a01b031633811480610f6d57506001600160a01b038116600090815260066020908152604080832033845290915290205460ff165b80610f8e57506000828152600560205260409020546001600160a01b031633145b610feb5760405162461bcd60e51b815260206004820152602860248201527f4552433732313a2063616c6c6572206973206e6f74206f776e6572206e6f7220604482015267185c1c1c9bdd995960c21b60648201526084016108c7565b610ff6858585612f28565b5050505050565b6040517f511e6fbd0000000000000000000000000000000000000000000000000000000081526004810182905273__LBondManager__________________________9063511e6fbd9060240160206040518083038186803b15801561106157600080fd5b505af4158015611075573d6000803e3d6000fd5b505050506040513d601f19601f820116820180604052508101906110999190613b36565b6001600160a01b0316336001600160a01b0316146110f95760405162461bcd60e51b815260206004820181905260248201527f426f6e64546f6b656e3a206d696e746572206d7573742062652063616c6c657260448201526064016108c7565b60085460009061110b906002906144d8565b600880546001818101835560008390527ff3f7a9fe364faab93b216da50a3214154f22a0a2b415b23a84c8169e8b636ee39182018790558254908101909255018390559050610ee23382613102565b60005b8251811015610ff657336001600160a01b03861614806111a057506001600160a01b038516600090815260066020908152604080832033845290915290205460ff165b806111e35750600560008483815181106111bc576111bc61465e565b6020908102919091018101518252810191909152604001600020546001600160a01b031633145b6112555760405162461bcd60e51b815260206004820152602960248201527f53757065724552433732313a2063616c6c6572206973206e6f742076616c696460448201527f206f70657261746f72000000000000000000000000000000000000000000000060648201526084016108c7565b611279858585848151811061126c5761126c61465e565b6020026020010151612f28565b61129e85858584815181106112905761129061465e565b60200260200101518561326d565b806112a8816145eb565b91505061115d565b60008281526003602052604090205482906001600160a01b0316338114806112fb57506001600160a01b038116600090815260066020908152604080832033845290915290205460ff165b8061131c57506000828152600560205260409020546001600160a01b031633145b6113795760405162461bcd60e51b815260206004820152602860248201527f4552433732313a2063616c6c6572206973206e6f74206f776e6572206e6f7220604482015267185c1c1c9bdd995960c21b60648201526084016108c7565b60006113868560026144fa565b905073__LBondManager__________________________6391fc35fd600883815481106113b5576113b561465e565b9060005260206000200154866040518363ffffffff1660e01b81526004016113f09291909182526001600160a01b0316602082015260400190565b60206040518083038186803b15801561140857600080fd5b505af415801561141c573d6000803e3d6000fd5b505050506040513d601f19601f820116820180604052508101906114409190613f50565b600882815481106114535761145361465e565b90600052602060002001819055507fbb18cf80bf9cf9e4b91e7ef34ae790edb68cfd0af883758c4cbffc183b84ab7085856040516114a49291909182526001600160a01b0316602082015260400190565b60405180910390a15050505050565b600780546000199182916000919082906114cf576114cf61465e565b9060005260206000209060020201905060005b87518110156117a35760008882815181106114ff576114ff61465e565b602002602001015190508085141580611519575084600019145b1561159e576115288133613435565b61159a5760405162461bcd60e51b815260206004820152603560248201527f436f6c6c61746572616c4d616e616765723a20756e617574686f72697a65642060448201527f746f2072656c6561736520636f6c6c61746572616c000000000000000000000060648201526084016108c7565b8094505b6000818152600960205260408120546115b99060019061456c565b600083815260096020526040812080549293509091839081106115de576115de61465e565b60009182526020808320604080518082018252600290940290910180548452600101548383015286845260099091529091208054919250908061162357611623614648565b60008281526020812060026000199093019283020181815560010155905580516116b55760405162461bcd60e51b815260206004820152603c60248201527f436f6c6c61746572616c4d616e616765723a207468697320636f6c6c6174657260448201527f616c2068617320616c7265616479206265656e2072656c65617365640000000060648201526084016108c7565b8060200151861415806116c9575085600019145b156116fd5760078160200151815481106116e5576116e561465e565b90600052602060002090600202019450806020015195505b61174485308c84600001518d8d8080601f016020809104026020016040519081016040528093929190818152602001838380828437600092019190915250612ac092505050565b5060408051848152602081018490526001600160a01b038c168183015290517f054ec7ece823327cac62b619c1ad0d5ec021821029747486a9635b77a351be609181900360600190a1505050808061179b906145eb565b9150506114e2565b5050505050505050565b610ee2838383604051806020016040528060008152506121ae565b60606000825167ffffffffffffffff8111156117e6576117e6614674565b60405190808252806020026020018201604052801561180f578160200160208202803683370190505b50905060005b835181101561188c57600460008583815181106118345761183461465e565b60200260200101516001600160a01b03166001600160a01b031681526020019081526020016000205482828151811061186f5761186f61465e565b602090810291909101015280611884816145eb565b915050611815565b5092915050565b600881815481106118a357600080fd5b600091825260209091200154905081565b60008181526003602052604090205481906001600160a01b0316338114806118ff57506001600160a01b038116600090815260066020908152604080832033845290915290205460ff165b8061192057506000828152600560205260409020546001600160a01b031633145b61197d5760405162461bcd60e51b815260206004820152602860248201527f4552433732313a2063616c6c6572206973206e6f74206f776e6572206e6f7220604482015267185c1c1c9bdd995960c21b60648201526084016108c7565b6000838152600960205260409020541561199957611999614606565b60008381526009602052604081206119b0916138de565b610ee28361368b565b60408051608081018252600381526affffffffffffffffffffff8316602082018190526001600160a01b0385169282019290925260006060820152908214611a0357606081018290525b610ee281612ddc565b60006001600160a01b038216611a8a5760405162461bcd60e51b815260206004820152602a60248201527f4552433732313a2062616c616e636520717565727920666f7220746865207a6560448201527f726f20616464726573730000000000000000000000000000000000000000000060648201526084016108c7565b506001600160a01b031660009081526004602052604090205490565b60008181526003602052604090205481906001600160a01b031633811480611af157506001600160a01b038116600090815260066020908152604080832033845290915290205460ff165b80611b1257506000828152600560205260409020546001600160a01b031633145b611b6f5760405162461bcd60e51b815260206004820152602860248201527f4552433732313a2063616c6c6572206973206e6f74206f776e6572206e6f7220604482015267185c1c1c9bdd995960c21b60648201526084016108c7565b60006008611b7e8560026144fa565b81548110611b8e57611b8e61465e565b60009182526020808320909101546040805161014081018252848152928301849052828101849052606083018490526080830184905260a0830184905260c0830184905260e08301849052610100830184905261012083018490525163836c4e3360e01b815290935073__LBondManager__________________________9163836c4e3391611c2191869160040161438c565b6101406040518083038186803b158015611c3a57600080fd5b505af4158015611c4e573d6000803e3d6000fd5b505050506040513d601f19601f82011682018060405250810190611c729190613fc5565b9050806040015161ffff16816060015161ffff161115611cfa5760405162461bcd60e51b815260206004820152602c60248201527f4c6966656379636c654d616e616765723a2063616e6e6f742063616c6c20636f60448201527f6d706c6574656420626f6e64000000000000000000000000000000000000000060648201526084016108c7565b6080810151611d139067ffffffffffffffff164261456c565b8160a00151826060015161ffff16611d2b9190614519565b67ffffffffffffffff1610611da85760405162461bcd60e51b815260206004820152602260248201527f4c6966656379636c654d616e616765723a20626f6e64206e6f74206f7665726460448201527f756500000000000000000000000000000000000000000000000000000000000060648201526084016108c7565b6040517f83244ba4000000000000000000000000000000000000000000000000000000008152600481018390526001602482015273__LBondManager__________________________906383244ba49060440160206040518083038186803b158015611e1357600080fd5b505af4158015611e27573d6000803e3d6000fd5b505050506040513d601f19601f82011682018060405250810190611e4b9190613f50565b6008611e588760026144fa565b81548110611e6857611e6861465e565b90600052602060002001819055507f9d88e5720db4604a83f973ccb5ac75609d3fcb60e6c2c1118ac2e7b029ce1d9b856040516114a491815260200190565b600180546107c090614583565b60008181526003602052604090205481906001600160a01b031633811480611eff57506001600160a01b038116600090815260066020908152604080832033845290915290205460ff165b80611f2057506000828152600560205260409020546001600160a01b031633145b611f7d5760405162461bcd60e51b815260206004820152602860248201527f4552433732313a2063616c6c6572206973206e6f74206f776e6572206e6f7220604482015267185c1c1c9bdd995960c21b60648201526084016108c7565b60006008611f8c8560026144fa565b81548110611f9c57611f9c61465e565b60009182526020822001546040517f36d7bc700000000000000000000000000000000000000000000000000000000081526004810182905290925073__LBondManager__________________________906336d7bc7090602401604080518083038186803b15801561200d57600080fd5b505af4158015612021573d6000803e3d6000fd5b505050506040513d601f19601f82011682018060405250810190612045919061407f565b50905073__LBondManager__________________________63d07f83288361206e84600161449a565b6040516001600160e01b031960e085901b168152600481019290925261ffff16602482015260440160206040518083038186803b1580156120ae57600080fd5b505af41580156120c2573d6000803e3d6000fd5b505050506040513d601f19601f820116820180604052508101906120e69190613f50565b60086120f38760026144fa565b815481106121035761210361465e565b90600052602060002001819055507f5ee8a220dbeeb0d453e678b58d1504bafdb5d1a5b55029fcc873b4813066a831856040516114a491815260200190565b3360008181526006602090815260408083206001600160a01b03871680855290835292819020805460ff191686151590811790915590519081529192917f17307eab39ab6107e8899845ad3d59bd9653f200f220920489ca2b5937696c31910160405180910390a35050565b60008281526003602052604090205482906001600160a01b0316338114806121f957506001600160a01b038116600090815260066020908152604080832033845290915290205460ff165b8061221a57506000828152600560205260409020546001600160a01b031633145b6122775760405162461bcd60e51b815260206004820152602860248201527f4552433732313a2063616c6c6572206973206e6f74206f776e6572206e6f7220604482015267185c1c1c9bdd995960c21b60648201526084016108c7565b612282868686612f28565b61228e8686868661326d565b505050505050565b60606000825167ffffffffffffffff8111156122b4576122b4614674565b6040519080825280602002602001820160405280156122dd578160200160208202803683370190505b50905060005b835181101561188c57600360008583815181106123025761230261465e565b6020026020010151815260200190815260200160002060009054906101000a90046001600160a01b031682828151811061233e5761233e61465e565b6001600160a01b039092166020928302919091019091015280612360816145eb565b9150506122e3565b60008381526009602090815260408083208151808301909252848252818301868152815460018181018455928652938520925160029094029092019283559051910155826123c4578134146123bf576123bf614606565b61241c565b6000600784815481106123d9576123d961465e565b906000526020600020906002020190508060000160009054906101000a900460ff1691506124198133308660405180602001604052806000815250612ac0565b50505b6000848152600960205260409020547f49b6f5ac374c4be8466fd8c3b0f9871cb2c0dfc84323369c5cff54e96a17234e90859061245b9060019061456c565b8360405161246b93929190614431565b60405180910390a150505050565b60606002805461248890614583565b80601f01602080910402602001604051908101604052809291908181526020018280546124b490614583565b80156125015780601f106124d657610100808354040283529160200191612501565b820191906000526020600020905b8154815290600101906020018083116124e457829003601f168201915b50505050509050919050565b6040805160808101909152610f1f90806002610efa565b6040805161014081018252600080825260208201819052918101829052606081018290526080810182905260a0810182905260c0810182905260e08101829052610100810182905261012081019190915273__LBondManager__________________________6388bc65c4600861259c8560026144fa565b815481106125ac576125ac61465e565b906000526020600020015460088560026125c691906144fa565b6125d19060016144c0565b815481106125e1576125e161465e565b90600052602060002001546040518363ffffffff1660e01b8152600401612612929190918252602082015260400190565b6101406040518083038186803b15801561262b57600080fd5b505af415801561263f573d6000803e3d6000fd5b505050506040513d601f19601f820116820180604052508101906107ad9190613fc5565b60006001600160a01b03871630141561269d57507ff23a6e61000000000000000000000000000000000000000000000000000000006126a1565b5060005b9695505050505050565b600781815481106126bb57600080fd5b60009182526020909120600290910201805460019091015460ff8216925061010082046affffffffffffffffffffff1691600160601b90046001600160a01b03169084565b6040805160808101909152610f1f90806001610efa565b6009602052816000526040600020818154811061273357600080fd5b600091825260209091206002909102018054600190910154909250905082565b6000818152600560209081526040808320805473ffffffffffffffffffffffffffffffffffffffff19166001600160a01b038781169182179092556003909352818420549151859492909116917f8c5be1e5ebec7d5bd14f71427d1e84f3dd0314c0f7b2291e5b200ac8c7c3b92591a45050565b60008460c00151826127d991906144d8565b905060008161ffff16116128555760405162461bcd60e51b815260206004820152602e60248201527f4c6966656379636c654d616e616765723a2073657276696365207061796d656e60448201527f7420696e73756666696369656e7400000000000000000000000000000000000060648201526084016108c7565b8085606001818151612867919061449a565b61ffff908116909152604087015160608801519082169116111590506129e45760086128948460026144fa565b61289f9060016144c0565b815481106128af576128af61465e565b6000918252602090912001546040517f746386ef000000000000000000000000000000000000000000000000000000008152600481019190915273__LBondManager__________________________9063746386ef9060240160206040518083038186803b15801561292057600080fd5b505af4158015612934573d6000803e3d6000fd5b505050506040513d601f19601f820116820180604052508101906129589190613f50565b8560c00151866040015187606001516129719190614549565b61ffff1661297f91906144fa565b106129d557604085015161299490600161449a565b61ffff1660608601526040518381527f5ee8a220dbeeb0d453e678b58d1504bafdb5d1a5b55029fcc873b4813066a8319060200160405180910390a16129e4565b604085015161ffff1660608601525b60608501516040517fd07f83280000000000000000000000000000000000000000000000000000000081526004810186905261ffff909116602482015273__LBondManager__________________________9063d07f83289060440160206040518083038186803b158015612a5857600080fd5b505af4158015612a6c573d6000803e3d6000fd5b505050506040513d601f19601f82011682018060405250810190612a909190613f50565b6008612a9d8560026144fa565b81548110612aad57612aad61465e565b6000918252602090912001555050505050565b60006001865460ff166004811115612ada57612ada614632565b1415612c00576001600160a01b038516301415612b9f5785546040517fa9059cbb0000000000000000000000000000000000000000000000000000000081526001600160a01b03868116600483015260248201869052600160601b9092049091169063a9059cbb906044015b602060405180830381600087803b158015612b6057600080fd5b505af1158015612b74573d6000803e3d6000fd5b505050506040513d601f19601f82011682018060405250810190612b989190613f33565b9050610dee565b85546040517f23b872dd0000000000000000000000000000000000000000000000000000000081526001600160a01b038781166004830152868116602483015260448201869052600160601b909204909116906323b872dd90606401612b46565b6002865460ff166004811115612c1857612c18614632565b1415612cc05785546040517fb88d4fde0000000000000000000000000000000000000000000000000000000081526001600160a01b0387811660048301528681166024830152604482018690526080606483015260006084830152600160601b9092049091169063b88d4fde9060a4015b600060405180830381600087803b158015612ca357600080fd5b505af1158015612cb7573d6000803e3d6000fd5b50505050612dd0565b6003865460ff166004811115612cd857612cd8614632565b1415612d41576001860154612d0157855461010090046affffffffffffffffffffff1660018701555b85546001870154604051637921219560e11b8152600160601b9092046001600160a01b03169163f242432a91612c899189918991899089906004016142c4565b6004865460ff166004811115612d5957612d59614632565b1415612dd0578554604051637921219560e11b8152600160601b9091046001600160a01b03169063f242432a90612d9d9088908890889060019089906004016142c4565b600060405180830381600087803b158015612db757600080fd5b505af1158015612dcb573d6000803e3d6000fd5b505050505b50600195945050505050565b6007805460018181018355600092909252825160029091027fa66cc928b5edb82af9bd49922954155ab7b0942694bea4ce44661d9a8736c6880180548493919291839160ff191690836004811115612e3657612e36614632565b02179055506020820151815460408401516001600160a01b0316600160601b026bffffffffffffffffffffffff6affffffffffffffffffffff909316610100029290921660ff909116171781556060909101516001909101556000600382516004811115612ea657612ea6614632565b1415612ed35781602001516affffffffffffffffffffff1690508160600151600014612ed3575060608101515b6007547f2de521bc3664deadab052ac566d3e29f17b816025957077cd43ae461ebe1670790612f049060019061456c565b83516040808601519051612f1c939291908690614402565b60405180910390a15050565b6000818152600360205260409020546001600160a01b03848116911614612fb75760405162461bcd60e51b815260206004820152602960248201527f4552433732313a207472616e73666572206f6620746f6b656e2074686174206960448201527f73206e6f74206f776e000000000000000000000000000000000000000000000060648201526084016108c7565b6001600160a01b0382166130325760405162461bcd60e51b8152602060048201526024808201527f4552433732313a207472616e7366657220746f20746865207a65726f2061646460448201527f726573730000000000000000000000000000000000000000000000000000000060648201526084016108c7565b61303d600082612753565b6001600160a01b038316600090815260046020526040812080546001929061306690849061456c565b90915550506001600160a01b03821660009081526004602052604081208054600192906130949084906144c0565b9091555050600081815260036020526040808220805473ffffffffffffffffffffffffffffffffffffffff19166001600160a01b0386811691821790925591518493918716917fddf252ad1be2c89b69c2b068fc378daa952ba7f163c4a11628f55a4df523b3ef91a4505050565b6001600160a01b0382166131585760405162461bcd60e51b815260206004820181905260248201527f4552433732313a206d696e7420746f20746865207a65726f206164647265737360448201526064016108c7565b6000818152600360205260409020546001600160a01b0316156131bd5760405162461bcd60e51b815260206004820152601c60248201527f4552433732313a20746f6b656e20616c7265616479206d696e7465640000000060448201526064016108c7565b6001600160a01b03821660009081526004602052604081208054600192906131e69084906144c0565b9091555050600081815260036020526040808220805473ffffffffffffffffffffffffffffffffffffffff19166001600160a01b03861690811790915590518392907fddf252ad1be2c89b69c2b068fc378daa952ba7f163c4a11628f55a4df523b3ef908290a4613269600083836040518060200160405280600081525061326d565b5050565b6001600160a01b0383163b156109f057604051630a85bd0160e11b81526001600160a01b0384169063150b7a02906132af903390889087908790600401614292565b602060405180830381600087803b1580156132c957600080fd5b505af19250505080156132f9575060408051601f3d908101601f191682019092526132f691810190613fa8565b60015b6133af5761330561468a565b806308c379a0141561333f575061331a6146a6565b806133255750613341565b8060405162461bcd60e51b81526004016108c791906143e0565b505b60405162461bcd60e51b815260206004820152603260248201527f4552433732313a207472616e7366657220746f206e6f6e20455243373231526560448201527f63656976657220696d706c656d656e746572000000000000000000000000000060648201526084016108c7565b6001600160e01b03198116630a85bd0160e11b14610ff65760405162461bcd60e51b815260206004820152602560248201527f4552433732313a2045524337323152656365697665722072656a65637465642060448201527f746f6b656e00000000000000000000000000000000000000000000000000000060648201526084016108c7565b6040805161014081018252600080825260208201819052918101829052606081018290526080810182905260a0810182905260c0810182905260e081018290526101008101829052610120810182905260086134928560026144fa565b815481106134a2576134a261465e565b60009182526020909120015460405163836c4e3360e01b815273__LBondManager__________________________9163836c4e33916134e69190859060040161438c565b6101406040518083038186803b1580156134ff57600080fd5b505af4158015613513573d6000803e3d6000fd5b505050506040513d601f19601f820116820180604052508101906135379190613fc5565b6000858152600360205260408120549192509061355f9086906001600160a01b03168661381d565b8251909150801561356d5750805b1561357d576001925050506107ad565b600861358a8660026144fa565b6135959060016144c0565b815481106135a5576135a561465e565b6000918252602090912001546040517fb437f29400000000000000000000000000000000000000000000000000000000815273__LBondManager__________________________9163b437f294916136029190869060040161438c565b6101406040518083038186803b15801561361b57600080fd5b505af415801561362f573d6000803e3d6000fd5b505050506040513d601f19601f820116820180604052508101906136539190613fc5565b9150600061366683610120015186613892565b9050826040015161ffff16836060015161ffff161180156126a1575095945050505050565b60008181526003602052604090205481906001600160a01b0316338114806136d657506001600160a01b038116600090815260066020908152604080832033845290915290205460ff165b806136f757506000828152600560205260409020546001600160a01b031633145b6137545760405162461bcd60e51b815260206004820152602860248201527f4552433732313a2063616c6c6572206973206e6f74206f776e6572206e6f7220604482015267185c1c1c9bdd995960c21b60648201526084016108c7565b60086137618460026144fa565b815481106137715761377161465e565b600091825260208220015560086137898460026144fa565b6137949060016144c0565b815481106137a4576137a461465e565b60009182526020808320909101829055848252600381526040808320805473ffffffffffffffffffffffffffffffffffffffff198082169092556005845282852080549092169091556001600160a01b0316808452600490925282208054919260019261381290849061456c565b909155505050505050565b6000826001600160a01b0316826001600160a01b0316148061386457506001600160a01b0380841660009081526006602090815260408083209386168352929052205460ff165b8061388857506000848152600560205260409020546001600160a01b038381169116145b90505b9392505050565b6000826001600160a01b0316826001600160a01b0316148061388b5750506001600160a01b03918216600090815260066020908152604080832093909416825291909152205460ff1690565b5080546000825560020290600052602060002090810190610f1f91905b8082111561391557600080825560018201556002016138fb565b5090565b805161392481614730565b919050565b600082601f83011261393a57600080fd5b8135602061394782614476565b60405161395482826145be565b8381528281019150858301600585901b8701840188101561397457600080fd5b60005b8581101561399c57813561398a81614730565b84529284019290840190600101613977565b5090979650505050505050565b600082601f8301126139ba57600080fd5b813560206139c782614476565b6040516139d482826145be565b8381528281019150858301600585901b870184018810156139f457600080fd5b60005b8581101561399c578135845292840192908401906001016139f7565b805161392481614745565b60008083601f840112613a3057600080fd5b50813567ffffffffffffffff811115613a4857600080fd5b602083019150836020828501011115613a6057600080fd5b9250929050565b600082601f830112613a7857600080fd5b813567ffffffffffffffff811115613a9257613a92614674565b604051613aa9601f8301601f1916602001826145be565b818152846020838601011115613abe57600080fd5b816020850160208301376000918101602001919091529392505050565b805161ffff8116811461392457600080fd5b805163ffffffff8116811461392457600080fd5b805167ffffffffffffffff8116811461392457600080fd5b600060208284031215613b2b57600080fd5b813561388b81614730565b600060208284031215613b4857600080fd5b815161388b81614730565b60008060408385031215613b6657600080fd5b8235613b7181614730565b91506020830135613b8181614730565b809150509250929050565b60008060008060808587031215613ba257600080fd5b8435613bad81614730565b93506020850135613bbd81614730565b9250604085013567ffffffffffffffff80821115613bda57600080fd5b613be6888389016139a9565b93506060870135915080821115613bfc57600080fd5b50613c0987828801613a67565b91505092959194509250565b600080600060608486031215613c2a57600080fd5b8335613c3581614730565b92506020840135613c4581614730565b929592945050506040919091013590565b600080600080600060808688031215613c6e57600080fd5b8535613c7981614730565b94506020860135613c8981614730565b935060408601359250606086013567ffffffffffffffff811115613cac57600080fd5b613cb888828901613a1e565b969995985093965092949392505050565b60008060008060808587031215613cdf57600080fd5b8435613cea81614730565b93506020850135613cfa81614730565b925060408501359150606085013567ffffffffffffffff811115613d1d57600080fd5b613c0987828801613a67565b60008060008060008060a08789031215613d4257600080fd5b8635613d4d81614730565b95506020870135613d5d81614730565b94506040870135935060608701359250608087013567ffffffffffffffff811115613d8757600080fd5b613d9389828a01613a1e565b979a9699509497509295939492505050565b60008060408385031215613db857600080fd5b8235613dc381614730565b91506020830135613b8181614745565b60008060408385031215613de657600080fd5b8235613df181614730565b946020939093013593505050565b600060208284031215613e1157600080fd5b813567ffffffffffffffff811115613e2857600080fd5b613e3484828501613929565b949350505050565b60008060408385031215613e4f57600080fd5b823567ffffffffffffffff811115613e6657600080fd5b613e7285828601613929565b9250506020830135613b8181614745565b600060208284031215613e9557600080fd5b813567ffffffffffffffff811115613eac57600080fd5b613e34848285016139a9565b60008060008060608587031215613ece57600080fd5b843567ffffffffffffffff80821115613ee657600080fd5b613ef2888389016139a9565b955060208701359150613f0482614730565b90935060408601359080821115613f1a57600080fd5b50613f2787828801613a1e565b95989497509550505050565b600060208284031215613f4557600080fd5b815161388b81614745565b600060208284031215613f6257600080fd5b5051919050565b60008060408385031215613f7c57600080fd5b50508035926020909101359150565b600060208284031215613f9d57600080fd5b813561388b81614753565b600060208284031215613fba57600080fd5b815161388b81614753565b60006101408284031215613fd857600080fd5b613fe061444c565b613fe983613a13565b8152613ff760208401613aed565b602082015261400860408401613adb565b604082015261401960608401613adb565b606082015261402a60808401613b01565b608082015261403b60a08401613b01565b60a082015260c083015160c082015260e083015160e0820152610100614062818501613919565b90820152610120614074848201613919565b908201529392505050565b6000806040838503121561409257600080fd5b61409b83613adb565b91506140a960208401613adb565b90509250929050565b6000602082840312156140c457600080fd5b5035919050565b600080604083850312156140de57600080fd5b823591506020830135613b8181614730565b60008060008060006080868803121561410857600080fd5b853594506020860135613c8981614730565b60008060006060848603121561412f57600080fd5b505081359360208301359350604090920135919050565b6000815180845260005b8181101561416c57602081850181015186830182015201614150565b8181111561417e576000602083870101525b50601f01601f19169290920160200192915050565b600581106141b157634e487b7160e01b600052602160045260246000fd5b9052565b80511515825260208101516141d2602084018263ffffffff169052565b5060408101516141e8604084018261ffff169052565b5060608101516141fe606084018261ffff169052565b50608081015161421a608084018267ffffffffffffffff169052565b5060a081015161423660a084018267ffffffffffffffff169052565b5060c081015160c083015260e081015160e083015261010080820151614266828501826001600160a01b03169052565b5050610120818101516001600160a01b038116848301526109f0565b8183823760009101908152919050565b60006001600160a01b038087168352808616602084015250836040830152608060608301526126a16080830184614146565b60006001600160a01b03808816835280871660208401525084604083015283606083015260a060808301526142fc60a0830184614146565b979650505050505050565b6020808252825182820181905260009190848201906040850190845b818110156143485783516001600160a01b031683529284019291840191600101614323565b50909695505050505050565b6020808252825182820181905260009190848201906040850190845b8181101561434857835183529284019291840191600101614370565b828152610160810161388b60208301846141b5565b608081016143af8287614193565b6affffffffffffffffffffff851660208301526001600160a01b038416604083015282606083015295945050505050565b60208152600061388b6020830184614146565b61014081016107ad82846141b5565b848152608081016144166020830186614193565b6001600160a01b039390931660408201526060015292915050565b8381526020810183905260608101613e346040830184614193565b604051610140810167ffffffffffffffff8111828210171561447057614470614674565b60405290565b600067ffffffffffffffff82111561449057614490614674565b5060051b60200190565b600061ffff8083168185168083038211156144b7576144b761461c565b01949350505050565b600082198211156144d3576144d361461c565b500190565b6000826144f557634e487b7160e01b600052601260045260246000fd5b500490565b60008160001904831182151516156145145761451461461c565b500290565b600067ffffffffffffffff808316818516818304811182151516156145405761454061461c565b02949350505050565b600061ffff838116908316818110156145645761456461461c565b039392505050565b60008282101561457e5761457e61461c565b500390565b600181811c9082168061459757607f821691505b602082108114156145b857634e487b7160e01b600052602260045260246000fd5b50919050565b601f8201601f1916810167ffffffffffffffff811182821017156145e4576145e4614674565b6040525050565b60006000198214156145ff576145ff61461c565b5060010190565b634e487b7160e01b600052600160045260246000fd5b634e487b7160e01b600052601160045260246000fd5b634e487b7160e01b600052602160045260246000fd5b634e487b7160e01b600052603160045260246000fd5b634e487b7160e01b600052603260045260246000fd5b634e487b7160e01b600052604160045260246000fd5b600060033d11156146a35760046000803e5060005160e01c5b90565b600060443d10156146b45790565b6040516003193d81016004833e81513d67ffffffffffffffff81602484011181841117156146e457505050505090565b82850191508151818111156146fc5750505050505090565b843d87010160208285010111156147165750505050505090565b614725602082860101876145be565b509095945050505050565b6001600160a01b0381168114610f1f57600080fd5b8015158114610f1f57600080fd5b6001600160e01b031981168114610f1f57600080fdfea2646970667358221220a6e38572d108d755e6a1888251750b2e917082a08473027e5a9eed2658f473f164736f6c63430008060033",
  "immutableReferences": {},
  "source": "// SPDX-License-Identifier: UNLICENSED\npragma solidity ^0.8.0;\n\nimport \"./LifecycleManager.sol\";\nimport \"./CurrencyManager.sol\";\nimport \"./LBondManager.sol\";\n\nstruct Collateral {\n    uint256 amountOrId;\n    uint256 currencyRef;\n}\n\n/**\n * @title  CollateralManager contract for handling bond\n * collateral.\n */\ncontract CollateralManager is LifecycleManager {\n    using LBondManager for bytes32;\n\n    /**\n     * @notice Mapping holding collaterals associated with\n     * each bond id\n     */\n    mapping(uint256 => Collateral[]) public collateral;\n\n    // TODO: add field for amount or nft id?\n    /// @notice New collateral has been attached to bond\n    event CollateralAdded(\n        uint256 bondId,\n        uint256 collateralId,\n        CurrencyType collateralType\n    );\n    /// @notice Collateral has been released from bond\n    event CollateralReleased(uint256 bondId, uint256 collateralId, address to);\n\n    constructor(\n        string memory name,\n        string memory symbol,\n        string memory uri\n    )\n        LifecycleManager(name, symbol, uri) // solhint-disable-next-line no-empty-blocks\n    {}\n\n    /**\n     * @notice Add a generic currency collateral to a bond\n     * @param id Id of bond to attach collateral to\n     * @param currencyRef Id of currency collateral is\n     * denominated in\n     * @param valueOrId Either the amount of tokens to attach,\n     * or the NFT id being attached (depending on currency)\n     */\n    function addCollateral(\n        uint256 id,\n        uint256 currencyRef,\n        uint256 valueOrId\n    ) external payable {\n        // TODO: add from paramenter?\n        collateral[id].push(Collateral(valueOrId, currencyRef));\n        CurrencyType typ = CurrencyType.Ether;\n        if (currencyRef == 0) {\n            // ether special case\n            assert(msg.value == valueOrId);\n        } else {\n            Currency storage c = currencies[currencyRef];\n            typ = c.currencyType;\n            _transferGenericCurrency(\n                c,\n                msg.sender,\n                address(this),\n                valueOrId,\n                \"\"\n            );\n        }\n        emit CollateralAdded(id, collateral[id].length - 1, typ);\n    }\n\n    /**\n     * @dev Internal method to check if user is allowed\n     * to release collateral from a bond\n     * @param bondId Id of bond to check for\n     * @param operator Account address to authorize\n     */\n    function _isAuthorizedToReleaseCollateral(uint256 bondId, address operator)\n        internal\n        view\n        returns (bool)\n    {\n        Bond memory b;\n        // Check for default + bond ownership\n        b = bonds[bondId * 2].fillBondFromAlpha(b);\n        bool isOwner = _ownerOrOperatorOf(bondId, _owners[bondId], operator);\n        if (b.flag && isOwner) return true;\n        // Check for completed + bond minter\n        b = bonds[bondId * 2 + 1].fillBondFromBeta(b);\n        bool isMinter = _minterOrOperatorOf(b.minter, operator);\n        return (b.curPeriod > b.nPeriods && isMinter);\n    }\n\n    /**\n     * @notice Release last collateral attached to specified bonds ids\n     * @dev Method is optimized to memoize the 'previous' bond and\n     * currency used. If possible, sort incoming lists by bondIds and\n     * by related currencyIds.\n     * @param bondIds Integer array of bondIds to release collateral for\n     * @param to address to direct all collaterals to\n     * @param data bytes to forward with each transfer\n     */\n    function safeBatchReleaseCollaterals(\n        uint256[] memory bondIds,\n        address to,\n        bytes calldata data\n    ) public {\n        uint256 lastAuthorizedBond = 2**256 - 1;\n        uint256 lastCurrencyRef = 2**256 - 1;\n        Currency storage currency = currencies[0]; // TODO: figure out storage pointer\n        for (uint256 i = 0; i < bondIds.length; i++) {\n            uint256 bondId = bondIds[i];\n            // Check if this is an un-cached bond?\n            if (\n                lastAuthorizedBond != bondId || lastAuthorizedBond == 2**256 - 1\n            ) {\n                // It is! Authorize new release\n                require(\n                    _isAuthorizedToReleaseCollateral(bondId, msg.sender),\n                    \"CollateralManager: unauthorized to release collateral\"\n                );\n                lastAuthorizedBond = bondId;\n            }\n            // Get bond collateral (last in array), remove from storage\n            uint256 collateralId = collateral[bondId].length - 1;\n            Collateral memory c = collateral[bondId][collateralId];\n            collateral[bondId].pop();\n            require(\n                c.amountOrId > 0,\n                \"CollateralManager: this collateral has already been released\"\n            );\n            // Check if Collateral refers to a un-cached currency\n            if (\n                lastCurrencyRef != c.currencyRef ||\n                lastCurrencyRef == 2**256 - 1\n            ) {\n                // It does! Re-load cached currency\n                currency = currencies[c.currencyRef];\n                lastCurrencyRef = c.currencyRef;\n            }\n            // Transfer collateral\n            _transferGenericCurrency(\n                currency,\n                address(this),\n                to,\n                c.amountOrId,\n                data\n            );\n            emit CollateralReleased(bondId, collateralId, to);\n        }\n    }\n\n    /**\n     * @inheritdoc LifecycleManager\n     * @notice Collateral must be entirely released to allow bond destruction\n     */\n    function destroyBond(uint256 id) public override onlyValidOperator(id) {\n        assert(collateral[id].length == 0);\n        delete collateral[id];\n        super.destroyBond(id);\n    }\n}\n",
  "sourcePath": "/home/runner/work/karmaToken/karmaToken/contracts/CollateralManager.sol",
  "compiler": {
    "name": "solc",
    "version": "0.8.6+commit.11564f7e.Linux.g++"
  },
  "schemaVersion": "3.4.7",
  "updatedAt": "2022-07-15T13:44:05.539Z",
  "devdoc": {
    "kind": "dev",
    "methods": {
      "addCollateral(uint256,uint256,uint256)": {
        "params": {
          "currencyRef": "Id of currency collateral is denominated in",
          "id": "Id of bond to attach collateral to",
          "valueOrId": "Either the amount of tokens to attach, or the NFT id being attached (depending on currency)"
        }
      },
      "addERC1155NFTCurrency(address)": {
        "details": "Note that no tokenId is required -- since we know the count to be 1, the structures that reference this currency can use their field to specify the tokenId.",
        "params": {
          "location": "address of ERC1155 contract being added"
        }
      },
      "addERC1155TokenCurrency(address,uint256)": {
        "details": "TokenId is required because structures that reference this currency are only able to specify one field -- the amount, and so the tokenId must be constant and specified here",
        "params": {
          "location": "address of the ERC1155 contract being added",
          "tokenId": "specific tokenId to associate with this ERC1155 currency listing."
        }
      },
      "addERC20Currency(address)": {
        "params": {
          "location": "address of the ERC20 contract being added"
        }
      },
      "addERC721Currency(address)": {
        "details": "Add a new currency of type ERC721",
        "params": {
          "location": "address of the ERC721 contract being added"
        }
      },
      "approve(address,uint256)": {
        "details": "See {IERC721-approve}."
      },
      "balanceOf(address)": {
        "details": "See {IERC721-balanceOf}."
      },
      "callBond(uint256)": {
        "details": "Can only be performed by token owner or authorized operator.",
        "params": {
          "id": "Id of bond to check for default"
        }
      },
      "destroyBond(uint256)": {
        "details": "Can only be performed by token owner or authorized operator.",
        "params": {
          "id": "Bond id"
        }
      },
      "forgiveBond(uint256)": {
        "details": "Can only be performed by token owner or authorized operator.",
        "params": {
          "id": "Bond id"
        }
      },
      "getApproved(uint256)": {
        "details": "See {IERC721-getApproved}."
      },
      "getBond(uint256)": {
        "params": {
          "id": "Bond id"
        },
        "returns": {
          "_0": "Bond As the expanded bond datastructure at given id"
        }
      },
      "isApprovedForAll(address,address)": {
        "details": "See {IERC721-isApprovedForAll}."
      },
      "mintBond(bytes32,bytes32)": {
        "details": "Minter field must correspond to message sender!",
        "params": {
          "alp": "Alpha bytes to append, as generated by library",
          "bet": "Beta bytes to append, as generated by library"
        }
      },
      "onERC1155Received(address,address,uint256,uint256,bytes)": {
        "details": "Handler function that get's called on any ERC1155 transfer to this function -- accepts only transfers initiated by itself."
      },
      "onERC721Received(address,address,uint256,bytes)": {
        "details": "Handler function that get's called on any ERC721 transfer to this function -- accepts only transfers initiated by itself."
      },
      "ownerOf(uint256)": {
        "details": "See {IERC721-ownerOf}."
      },
      "safeBatchReleaseCollaterals(uint256[],address,bytes)": {
        "details": "Method is optimized to memoize the 'previous' bond and currency used. If possible, sort incoming lists by bondIds and by related currencyIds.",
        "params": {
          "bondIds": "Integer array of bondIds to release collateral for",
          "data": "bytes to forward with each transfer",
          "to": "address to direct all collaterals to"
        }
      },
      "safeTransferFrom(address,address,uint256)": {
        "details": "See {IERC721-safeTransferFrom}."
      },
      "safeTransferFrom(address,address,uint256,bytes)": {
        "details": "Safely transfers `tokenId` token from `from` to `to`, checking first that contract recipients are aware of the ERC721 protocol to prevent tokens from being forever locked. `_data` is additional data, it has no specified format and it is sent in call to `to`. This internal function is equivalent to {safeTransferFrom}, and can be used to e.g. implement alternative mechanisms to perform token transfer, such as signature-based. Requirements: - `from` cannot be the zero address. - `to` cannot be the zero address. - `tokenId` token must exist and be owned by `from`. - If `to` refers to a smart contract, it must implement {IERC721Receiver-onERC721Received}, which is called upon a safe transfer. Emits a {Transfer} event."
      },
      "serviceBond(uint256,address,uint256,bytes)": {
        "details": "For ether transactions, from and value still have to match or exceed the ether sent and the message senderNote that call data will only get forwarded for supporting currencies",
        "params": {
          "data": "Additonal bytes to send with the transaction",
          "from": "Account address to take value from",
          "id": "Id of bond to service",
          "value": "Either the amount to apply to the bond, or the NFT id to transfer as service payment"
        }
      },
      "setApprovalForAll(address,bool)": {
        "details": "Approve `operator` to operate on all of `owner` tokens Emits a {ApprovalForAll} event."
      },
      "supportsInterface(bytes4)": {
        "details": "See {IERC165-supportsInterface}."
      },
      "tokenURI(uint256)": {
        "details": "See {IERC721Metadata-tokenURI}."
      },
      "transferFrom(address,address,uint256)": {
        "details": "See {IERC721-transferFrom}."
      },
      "updateBeneficiary(uint256,address)": {
        "params": {
          "id": "Bond id",
          "newBeneficiary": "Address of new beneficiary account"
        }
      }
    },
    "title": " CollateralManager contract for handling bond collateral.",
    "version": 1
  },
  "userdoc": {
    "events": {
      "BeneficiaryChange(uint256,address)": {
        "notice": "recipient of bond payments has been updated"
      },
      "BondCompleted(uint256)": {
        "notice": "bond has been entirely repayed"
      },
      "BondDefaulted(uint256)": {
        "notice": "bond payments have been failed"
      },
      "BondServiced(uint256,address,uint64)": {
        "notice": "new bond payment has been posted"
      },
      "CollateralAdded(uint256,uint256,uint8)": {
        "notice": "New collateral has been attached to bond"
      },
      "CollateralReleased(uint256,uint256,address)": {
        "notice": "Collateral has been released from bond"
      },
      "CurrencyAdded(uint256,uint8,address,uint256)": {
        "notice": "New currency has been added to internal listing"
      }
    },
    "kind": "user",
    "methods": {
      "addCollateral(uint256,uint256,uint256)": {
        "notice": "Add a generic currency collateral to a bond"
      },
      "addERC1155NFTCurrency(address)": {
        "notice": "Add a new currency of type ERC1155 NFT."
      },
      "addERC1155TokenCurrency(address,uint256)": {
        "notice": "Add a new currency of type ERC1155 Token"
      },
      "addERC20Currency(address)": {
        "notice": "Add a new currency of type ERC20"
      },
      "bonds(uint256)": {
        "notice": "Bond data array -- holds alpha and beta slots for bond, to be interpreted by LBondManager."
      },
      "callBond(uint256)": {
        "notice": "Call bond to mark it as 'in default'."
      },
      "collateral(uint256,uint256)": {
        "notice": "Mapping holding collaterals associated with each bond id"
      },
      "currencies(uint256)": {
        "notice": "Array holding currency listing."
      },
      "destroyBond(uint256)": {
        "notice": "Collateral must be entirely released to allow bond destruction"
      },
      "forgiveBond(uint256)": {
        "notice": "Set bond as complete and forfeight future payments"
      },
      "getBond(uint256)": {
        "notice": "Interpret bond with given id into readable version"
      },
      "mintBond(bytes32,bytes32)": {
        "notice": "Append a new bond with given data"
      },
      "onERC1155Received(address,address,uint256,uint256,bytes)": {
        "notice": "SHOULD NOT be generally called by a direct user"
      },
      "onERC721Received(address,address,uint256,bytes)": {
        "notice": "SHOULD NOT be generally called by a direct user"
      },
      "safeBatchReleaseCollaterals(uint256[],address,bytes)": {
        "notice": "Release last collateral attached to specified bonds ids"
      },
      "serviceBond(uint256,address,uint256,bytes)": {
        "notice": "Service a specific bond with generic currency"
      },
      "updateBeneficiary(uint256,address)": {
        "notice": "Update the beneficiary associated with a bond"
      }
    },
    "version": 1
  }
}