{
  "contractName": "Core",
  "abi": [
    {
      "inputs": [
        {
          "internalType": "string",
          "name": "name",
          "type": "string"
        },
        {
          "internalType": "string",
          "name": "symbol",
          "type": "string"
        },
        {
          "internalType": "string",
          "name": "uri",
          "type": "string"
        }
      ],
      "stateMutability": "nonpayable",
      "type": "constructor"
    },
    {
      "anonymous": false,
      "inputs": [
        {
          "indexed": true,
          "internalType": "address",
          "name": "owner",
          "type": "address"
        },
        {
          "indexed": true,
          "internalType": "address",
          "name": "approved",
          "type": "address"
        },
        {
          "indexed": true,
          "internalType": "uint256",
          "name": "tokenId",
          "type": "uint256"
        }
      ],
      "name": "Approval",
      "type": "event"
    },
    {
      "anonymous": false,
      "inputs": [
        {
          "indexed": true,
          "internalType": "address",
          "name": "owner",
          "type": "address"
        },
        {
          "indexed": true,
          "internalType": "address",
          "name": "operator",
          "type": "address"
        },
        {
          "indexed": false,
          "internalType": "bool",
          "name": "approved",
          "type": "bool"
        }
      ],
      "name": "ApprovalForAll",
      "type": "event"
    },
    {
      "anonymous": false,
      "inputs": [
        {
          "indexed": false,
          "internalType": "uint256",
          "name": "id",
          "type": "uint256"
        },
        {
          "indexed": false,
          "internalType": "address",
          "name": "beneficiary",
          "type": "address"
        }
      ],
      "name": "BeneficiaryChange",
      "type": "event"
    },
    {
      "anonymous": false,
      "inputs": [
        {
          "indexed": false,
          "internalType": "uint256",
          "name": "id",
          "type": "uint256"
        }
      ],
      "name": "BondCompleted",
      "type": "event"
    },
    {
      "anonymous": false,
      "inputs": [
        {
          "indexed": false,
          "internalType": "uint256",
          "name": "id",
          "type": "uint256"
        }
      ],
      "name": "BondDefaulted",
      "type": "event"
    },
    {
      "anonymous": false,
      "inputs": [
        {
          "indexed": false,
          "internalType": "uint256",
          "name": "id",
          "type": "uint256"
        },
        {
          "indexed": false,
          "internalType": "address",
          "name": "operator",
          "type": "address"
        },
        {
          "indexed": false,
          "internalType": "uint64",
          "name": "toPeriod",
          "type": "uint64"
        }
      ],
      "name": "BondServiced",
      "type": "event"
    },
    {
      "anonymous": false,
      "inputs": [
        {
          "indexed": false,
          "internalType": "uint256",
          "name": "bondId",
          "type": "uint256"
        },
        {
          "indexed": false,
          "internalType": "uint256",
          "name": "collateralId",
          "type": "uint256"
        },
        {
          "indexed": false,
          "internalType": "enum CurrencyType",
          "name": "collateralType",
          "type": "uint8"
        }
      ],
      "name": "CollateralAdded",
      "type": "event"
    },
    {
      "anonymous": false,
      "inputs": [
        {
          "indexed": false,
          "internalType": "uint256",
          "name": "bondId",
          "type": "uint256"
        },
        {
          "indexed": false,
          "internalType": "uint256",
          "name": "collateralId",
          "type": "uint256"
        },
        {
          "indexed": false,
          "internalType": "address",
          "name": "to",
          "type": "address"
        }
      ],
      "name": "CollateralReleased",
      "type": "event"
    },
    {
      "anonymous": false,
      "inputs": [
        {
          "indexed": false,
          "internalType": "uint256",
          "name": "id",
          "type": "uint256"
        },
        {
          "indexed": false,
          "internalType": "enum CurrencyType",
          "name": "currencyType",
          "type": "uint8"
        },
        {
          "indexed": false,
          "internalType": "address",
          "name": "location",
          "type": "address"
        },
        {
          "indexed": false,
          "internalType": "uint256",
          "name": "ERC1155Id",
          "type": "uint256"
        }
      ],
      "name": "CurrencyAdded",
      "type": "event"
    },
    {
      "anonymous": false,
      "inputs": [
        {
          "indexed": false,
          "internalType": "uint128",
          "name": "newFee",
          "type": "uint128"
        }
      ],
      "name": "CurrencyFeeChanged",
      "type": "event"
    },
    {
      "anonymous": false,
      "inputs": [
        {
          "indexed": true,
          "internalType": "address",
          "name": "previousOwner",
          "type": "address"
        },
        {
          "indexed": true,
          "internalType": "address",
          "name": "newOwner",
          "type": "address"
        }
      ],
      "name": "OwnershipTransferred",
      "type": "event"
    },
    {
      "anonymous": false,
      "inputs": [
        {
          "indexed": true,
          "internalType": "address",
          "name": "from",
          "type": "address"
        },
        {
          "indexed": true,
          "internalType": "address",
          "name": "to",
          "type": "address"
        },
        {
          "indexed": true,
          "internalType": "uint256",
          "name": "tokenId",
          "type": "uint256"
        }
      ],
      "name": "Transfer",
      "type": "event"
    },
    {
      "inputs": [
        {
          "internalType": "uint256",
          "name": "id",
          "type": "uint256"
        },
        {
          "internalType": "address",
          "name": "from",
          "type": "address"
        },
        {
          "internalType": "uint256",
          "name": "currencyRef",
          "type": "uint256"
        },
        {
          "internalType": "uint256",
          "name": "valueOrId",
          "type": "uint256"
        }
      ],
      "name": "addCollateral",
      "outputs": [],
      "stateMutability": "payable",
      "type": "function"
    },
    {
      "inputs": [
        {
          "internalType": "address",
          "name": "location",
          "type": "address"
        }
      ],
      "name": "addERC1155NFTCurrency",
      "outputs": [],
      "stateMutability": "payable",
      "type": "function"
    },
    {
      "inputs": [
        {
          "internalType": "address",
          "name": "location",
          "type": "address"
        },
        {
          "internalType": "uint256",
          "name": "tokenId",
          "type": "uint256"
        }
      ],
      "name": "addERC1155TokenCurrency",
      "outputs": [],
      "stateMutability": "payable",
      "type": "function"
    },
    {
      "inputs": [
        {
          "internalType": "address",
          "name": "location",
          "type": "address"
        }
      ],
      "name": "addERC20Currency",
      "outputs": [],
      "stateMutability": "payable",
      "type": "function"
    },
    {
      "inputs": [
        {
          "internalType": "address",
          "name": "location",
          "type": "address"
        }
      ],
      "name": "addERC721Currency",
      "outputs": [],
      "stateMutability": "payable",
      "type": "function"
    },
    {
      "inputs": [
        {
          "internalType": "address",
          "name": "to",
          "type": "address"
        },
        {
          "internalType": "uint256",
          "name": "tokenId",
          "type": "uint256"
        }
      ],
      "name": "approve",
      "outputs": [],
      "stateMutability": "nonpayable",
      "type": "function"
    },
    {
      "inputs": [
        {
          "internalType": "address",
          "name": "owner",
          "type": "address"
        }
      ],
      "name": "balanceOf",
      "outputs": [
        {
          "internalType": "uint256",
          "name": "",
          "type": "uint256"
        }
      ],
      "stateMutability": "view",
      "type": "function"
    },
    {
      "inputs": [
        {
          "internalType": "address[]",
          "name": "owners",
          "type": "address[]"
        }
      ],
      "name": "balanceOfBatch",
      "outputs": [
        {
          "internalType": "uint256[]",
          "name": "",
          "type": "uint256[]"
        }
      ],
      "stateMutability": "view",
      "type": "function"
    },
    {
      "inputs": [
        {
          "internalType": "uint256",
          "name": "",
          "type": "uint256"
        }
      ],
      "name": "bonds",
      "outputs": [
        {
          "internalType": "bytes32",
          "name": "",
          "type": "bytes32"
        }
      ],
      "stateMutability": "view",
      "type": "function"
    },
    {
      "inputs": [
        {
          "internalType": "uint256",
          "name": "id",
          "type": "uint256"
        }
      ],
      "name": "callBond",
      "outputs": [],
      "stateMutability": "nonpayable",
      "type": "function"
    },
    {
      "inputs": [
        {
          "internalType": "uint256",
          "name": "",
          "type": "uint256"
        },
        {
          "internalType": "uint256",
          "name": "",
          "type": "uint256"
        }
      ],
      "name": "collateral",
      "outputs": [
        {
          "internalType": "uint256",
          "name": "amountOrId",
          "type": "uint256"
        },
        {
          "internalType": "uint256",
          "name": "currencyRef",
          "type": "uint256"
        }
      ],
      "stateMutability": "view",
      "type": "function"
    },
    {
      "inputs": [
        {
          "internalType": "uint256",
          "name": "",
          "type": "uint256"
        }
      ],
      "name": "currencies",
      "outputs": [
        {
          "internalType": "enum CurrencyType",
          "name": "currencyType",
          "type": "uint8"
        },
        {
          "internalType": "uint88",
          "name": "ERC1155SmallId",
          "type": "uint88"
        },
        {
          "internalType": "address",
          "name": "location",
          "type": "address"
        },
        {
          "internalType": "uint256",
          "name": "ERC1155Id",
          "type": "uint256"
        }
      ],
      "stateMutability": "view",
      "type": "function"
    },
    {
      "inputs": [],
      "name": "currencyFee",
      "outputs": [
        {
          "internalType": "uint128",
          "name": "",
          "type": "uint128"
        }
      ],
      "stateMutability": "view",
      "type": "function"
    },
    {
      "inputs": [
        {
          "internalType": "uint256",
          "name": "id",
          "type": "uint256"
        }
      ],
      "name": "destroyBond",
      "outputs": [],
      "stateMutability": "nonpayable",
      "type": "function"
    },
    {
      "inputs": [
        {
          "internalType": "uint256",
          "name": "id",
          "type": "uint256"
        }
      ],
      "name": "forgiveBond",
      "outputs": [],
      "stateMutability": "nonpayable",
      "type": "function"
    },
    {
      "inputs": [
        {
          "internalType": "uint256",
          "name": "tokenId",
          "type": "uint256"
        }
      ],
      "name": "getApproved",
      "outputs": [
        {
          "internalType": "address",
          "name": "",
          "type": "address"
        }
      ],
      "stateMutability": "view",
      "type": "function"
    },
    {
      "inputs": [
        {
          "internalType": "uint256",
          "name": "id",
          "type": "uint256"
        }
      ],
      "name": "getBond",
      "outputs": [
        {
          "components": [
            {
              "internalType": "bool",
              "name": "flag",
              "type": "bool"
            },
            {
              "internalType": "uint32",
              "name": "currencyRef",
              "type": "uint32"
            },
            {
              "internalType": "uint16",
              "name": "nPeriods",
              "type": "uint16"
            },
            {
              "internalType": "uint16",
              "name": "curPeriod",
              "type": "uint16"
            },
            {
              "internalType": "uint64",
              "name": "startTime",
              "type": "uint64"
            },
            {
              "internalType": "uint64",
              "name": "periodDuration",
              "type": "uint64"
            },
            {
              "internalType": "uint256",
              "name": "couponSize",
              "type": "uint256"
            },
            {
              "internalType": "uint256",
              "name": "faceValue",
              "type": "uint256"
            },
            {
              "internalType": "address",
              "name": "beneficiary",
              "type": "address"
            },
            {
              "internalType": "address",
              "name": "minter",
              "type": "address"
            }
          ],
          "internalType": "struct Bond",
          "name": "",
          "type": "tuple"
        }
      ],
      "stateMutability": "view",
      "type": "function"
    },
    {
      "inputs": [
        {
          "internalType": "address",
          "name": "owner",
          "type": "address"
        },
        {
          "internalType": "address",
          "name": "operator",
          "type": "address"
        }
      ],
      "name": "isApprovedForAll",
      "outputs": [
        {
          "internalType": "bool",
          "name": "",
          "type": "bool"
        }
      ],
      "stateMutability": "view",
      "type": "function"
    },
    {
      "inputs": [
        {
          "internalType": "bytes32",
          "name": "alp",
          "type": "bytes32"
        },
        {
          "internalType": "bytes32",
          "name": "bet",
          "type": "bytes32"
        }
      ],
      "name": "mintBond",
      "outputs": [],
      "stateMutability": "payable",
      "type": "function"
    },
    {
      "inputs": [],
      "name": "name",
      "outputs": [
        {
          "internalType": "string",
          "name": "",
          "type": "string"
        }
      ],
      "stateMutability": "view",
      "type": "function"
    },
    {
      "inputs": [
        {
          "internalType": "address",
          "name": "operator",
          "type": "address"
        },
        {
          "internalType": "address",
          "name": "",
          "type": "address"
        },
        {
          "internalType": "uint256",
          "name": "",
          "type": "uint256"
        },
        {
          "internalType": "uint256",
          "name": "",
          "type": "uint256"
        },
        {
          "internalType": "bytes",
          "name": "",
          "type": "bytes"
        }
      ],
      "name": "onERC1155Received",
      "outputs": [
        {
          "internalType": "bytes4",
          "name": "",
          "type": "bytes4"
        }
      ],
      "stateMutability": "view",
      "type": "function"
    },
    {
      "inputs": [
        {
          "internalType": "address",
          "name": "operator",
          "type": "address"
        },
        {
          "internalType": "address",
          "name": "",
          "type": "address"
        },
        {
          "internalType": "uint256",
          "name": "",
          "type": "uint256"
        },
        {
          "internalType": "bytes",
          "name": "",
          "type": "bytes"
        }
      ],
      "name": "onERC721Received",
      "outputs": [
        {
          "internalType": "bytes4",
          "name": "",
          "type": "bytes4"
        }
      ],
      "stateMutability": "view",
      "type": "function"
    },
    {
      "inputs": [],
      "name": "owner",
      "outputs": [
        {
          "internalType": "address",
          "name": "",
          "type": "address"
        }
      ],
      "stateMutability": "view",
      "type": "function"
    },
    {
      "inputs": [
        {
          "internalType": "uint256",
          "name": "tokenId",
          "type": "uint256"
        }
      ],
      "name": "ownerOf",
      "outputs": [
        {
          "internalType": "address",
          "name": "",
          "type": "address"
        }
      ],
      "stateMutability": "view",
      "type": "function"
    },
    {
      "inputs": [
        {
          "internalType": "uint256[]",
          "name": "ids",
          "type": "uint256[]"
        }
      ],
      "name": "ownerOfBatch",
      "outputs": [
        {
          "internalType": "address[]",
          "name": "",
          "type": "address[]"
        }
      ],
      "stateMutability": "view",
      "type": "function"
    },
    {
      "inputs": [],
      "name": "renounceOwnership",
      "outputs": [],
      "stateMutability": "nonpayable",
      "type": "function"
    },
    {
      "inputs": [
        {
          "internalType": "uint256[]",
          "name": "bondIds",
          "type": "uint256[]"
        },
        {
          "internalType": "address",
          "name": "to",
          "type": "address"
        },
        {
          "internalType": "bytes",
          "name": "data",
          "type": "bytes"
        }
      ],
      "name": "safeBatchReleaseCollaterals",
      "outputs": [],
      "stateMutability": "nonpayable",
      "type": "function"
    },
    {
      "inputs": [
        {
          "internalType": "address",
          "name": "from",
          "type": "address"
        },
        {
          "internalType": "address",
          "name": "to",
          "type": "address"
        },
        {
          "internalType": "uint256[]",
          "name": "ids",
          "type": "uint256[]"
        },
        {
          "internalType": "bytes",
          "name": "_data",
          "type": "bytes"
        }
      ],
      "name": "safeBatchTransferFrom",
      "outputs": [],
      "stateMutability": "nonpayable",
      "type": "function"
    },
    {
      "inputs": [
        {
          "internalType": "address",
          "name": "from",
          "type": "address"
        },
        {
          "internalType": "address",
          "name": "to",
          "type": "address"
        },
        {
          "internalType": "uint256",
          "name": "tokenId",
          "type": "uint256"
        }
      ],
      "name": "safeTransferFrom",
      "outputs": [],
      "stateMutability": "nonpayable",
      "type": "function"
    },
    {
      "inputs": [
        {
          "internalType": "address",
          "name": "from",
          "type": "address"
        },
        {
          "internalType": "address",
          "name": "to",
          "type": "address"
        },
        {
          "internalType": "uint256",
          "name": "tokenId",
          "type": "uint256"
        },
        {
          "internalType": "bytes",
          "name": "_data",
          "type": "bytes"
        }
      ],
      "name": "safeTransferFrom",
      "outputs": [],
      "stateMutability": "nonpayable",
      "type": "function"
    },
    {
      "inputs": [
        {
          "internalType": "uint256",
          "name": "id",
          "type": "uint256"
        },
        {
          "internalType": "address",
          "name": "from",
          "type": "address"
        },
        {
          "internalType": "uint256",
          "name": "value",
          "type": "uint256"
        },
        {
          "internalType": "bytes",
          "name": "data",
          "type": "bytes"
        }
      ],
      "name": "serviceBond",
      "outputs": [],
      "stateMutability": "payable",
      "type": "function"
    },
    {
      "inputs": [
        {
          "internalType": "address",
          "name": "operator",
          "type": "address"
        },
        {
          "internalType": "bool",
          "name": "approved",
          "type": "bool"
        }
      ],
      "name": "setApprovalForAll",
      "outputs": [],
      "stateMutability": "nonpayable",
      "type": "function"
    },
    {
      "inputs": [
        {
          "internalType": "address[]",
          "name": "operators",
          "type": "address[]"
        },
        {
          "internalType": "bool",
          "name": "approved",
          "type": "bool"
        }
      ],
      "name": "setBatchApprovalForAll",
      "outputs": [],
      "stateMutability": "nonpayable",
      "type": "function"
    },
    {
      "inputs": [
        {
          "internalType": "uint128",
          "name": "newFee",
          "type": "uint128"
        }
      ],
      "name": "setCurrencyFee",
      "outputs": [],
      "stateMutability": "nonpayable",
      "type": "function"
    },
    {
      "inputs": [
        {
          "internalType": "bytes4",
          "name": "interfaceId",
          "type": "bytes4"
        }
      ],
      "name": "supportsInterface",
      "outputs": [
        {
          "internalType": "bool",
          "name": "",
          "type": "bool"
        }
      ],
      "stateMutability": "view",
      "type": "function"
    },
    {
      "inputs": [],
      "name": "symbol",
      "outputs": [
        {
          "internalType": "string",
          "name": "",
          "type": "string"
        }
      ],
      "stateMutability": "view",
      "type": "function"
    },
    {
      "inputs": [
        {
          "internalType": "uint256",
          "name": "",
          "type": "uint256"
        }
      ],
      "name": "tokenURI",
      "outputs": [
        {
          "internalType": "string",
          "name": "",
          "type": "string"
        }
      ],
      "stateMutability": "view",
      "type": "function"
    },
    {
      "inputs": [
        {
          "internalType": "address",
          "name": "from",
          "type": "address"
        },
        {
          "internalType": "address",
          "name": "to",
          "type": "address"
        },
        {
          "internalType": "uint256",
          "name": "tokenId",
          "type": "uint256"
        }
      ],
      "name": "transferFrom",
      "outputs": [],
      "stateMutability": "nonpayable",
      "type": "function"
    },
    {
      "inputs": [
        {
          "internalType": "address",
          "name": "newOwner",
          "type": "address"
        }
      ],
      "name": "transferOwnership",
      "outputs": [],
      "stateMutability": "nonpayable",
      "type": "function"
    },
    {
      "inputs": [
        {
          "internalType": "uint256",
          "name": "id",
          "type": "uint256"
        },
        {
          "internalType": "address",
          "name": "newBeneficiary",
          "type": "address"
        }
      ],
      "name": "updateBeneficiary",
      "outputs": [],
      "stateMutability": "nonpayable",
      "type": "function"
    }
  ],
  "bytecode": "0x6080604052600b80546001600160801b031916662386f26fc100001790553480156200002a57600080fd5b50604051620052ab380380620052ab8339810160408190526200004d916200035b565b828282828282828282828282828282828282826000908051906020019062000077929190620001fe565b5081516200008d906001906020850190620001fe565b508051620000a3906002906020840190620001fe565b505050505050506007604051806080016040528060006004811115620000cd57620000cd62000429565b8152600060208083018290526040830182905260609092018190528354600181810186559482529190208251600290920201805492939092839160ff199091169083600481111562000123576200012362000429565b02179055506020820151815460408401516001600160a01b03166c01000000000000000000000000026001600160601b036001600160581b03909316610100029290921660ff90911617178155606090910151600190910155506200019c975062000196965050620001a8945050505050565b620001ac565b50505050505062000455565b3390565b600a80546001600160a01b038381166001600160a01b0319831681179093556040519116919082907f8be0079c531659141344cd1fd0a4f28419497f9722a3daafe3b4186f6b6457e090600090a35050565b8280546200020c90620003ec565b90600052602060002090601f0160209004810192826200023057600085556200027b565b82601f106200024b57805160ff19168380011785556200027b565b828001600101855582156200027b579182015b828111156200027b5782518255916020019190600101906200025e565b50620002899291506200028d565b5090565b5b808211156200028957600081556001016200028e565b600082601f830112620002b657600080fd5b81516001600160401b0380821115620002d357620002d36200043f565b604051601f8301601f19908116603f01168101908282118183101715620002fe57620002fe6200043f565b816040528381526020925086838588010111156200031b57600080fd5b600091505b838210156200033f578582018301518183018401529082019062000320565b83821115620003515760008385830101525b9695505050505050565b6000806000606084860312156200037157600080fd5b83516001600160401b03808211156200038957600080fd5b6200039787838801620002a4565b94506020860151915080821115620003ae57600080fd5b620003bc87838801620002a4565b93506040860151915080821115620003d357600080fd5b50620003e286828701620002a4565b9150509250925092565b600181811c908216806200040157607f821691505b602082108114156200042357634e487b7160e01b600052602260045260246000fd5b50919050565b634e487b7160e01b600052602160045260246000fd5b634e487b7160e01b600052604160045260246000fd5b614e4680620004656000396000f3fe6080604052600436106102bb5760003560e01c8063715018a61161016e578063cc4c19eb116100cb578063f23a6e611161007f578063f6d1c27111610064578063f6d1c271146107d0578063fe9accf914610800578063ffb555011461081357600080fd5b8063f23a6e6114610790578063f2fde38b146107b057600080fd5b8063ce1a5b39116100b0578063ce1a5b39146106fa578063d8fe76421461071a578063e985e9c51461074757600080fd5b8063cc4c19eb146106af578063cd30e2cd146106e757600080fd5b8063a22cb46511610122578063b88d4fde11610107578063b88d4fde14610642578063bda8011714610662578063c87b56dd1461068f57600080fd5b8063a22cb4651461060f578063b24673ba1461062f57600080fd5b80638da5cb5b116101535780638da5cb5b146105bc57806395d89b41146105da5780639f949d9d146105ef57600080fd5b8063715018a61461058757806378cb91751461059c57600080fd5b806328cfbd461161021c5780635f1c17c0116101d05780636352211e116101b55780636352211e1461051e57806368b0d5a81461055457806370a082311461056757600080fd5b80635f1c17c0146104d057806362311f55146104fe57600080fd5b80633f37b00c116102015780633f37b00c1461046357806342842e0e14610483578063458c738e146104a357600080fd5b806328cfbd46146104235780633e8eb5a41461044357600080fd5b8063150b7a02116102735780631f5e180e116102585780631f5e180e146103dd57806323b872dd146103f0578063275da3b41461041057600080fd5b8063150b7a0214610384578063187ddf87146103bd57600080fd5b8063081812fc116102a4578063081812fc14610317578063095ea7b31461034f5780630f68e5fc1461037157600080fd5b806301ffc9a7146102c057806306fdde03146102f5575b600080fd5b3480156102cc57600080fd5b506102e06102db3660046145f8565b610848565b60405190151581526020015b60405180910390f35b34801561030157600080fd5b5061030a6108e5565b6040516102ec9190614a87565b34801561032357600080fd5b50610337610332366004614748565b610973565b6040516001600160a01b0390911681526020016102ec565b34801561035b57600080fd5b5061036f61036a366004614440565b610a1e565b005b61036f61037f366004614786565b610b28565b34801561039057600080fd5b506103a461039f3660046142c3565b610f94565b6040516001600160e01b031990911681526020016102ec565b3480156103c957600080fd5b5061036f6103d83660046144a9565b610fc2565b61036f6103eb366004614186565b6110b2565b3480156103fc57600080fd5b5061036f61040b366004614282565b6110d3565b61036f61041e3660046145d6565b6111ae565b34801561042f57600080fd5b5061036f61043e3660046141f9565b61130b565b34801561044f57600080fd5b5061036f61045e366004614761565b611461565b34801561046f57600080fd5b5061036f61047e366004614525565b611664565b34801561048f57600080fd5b5061036f61049e366004614282565b61195e565b3480156104af57600080fd5b506104c36104be36600461446c565b611979565b6040516102ec91906149fb565b3480156104dc57600080fd5b506104f06104eb366004614748565b611a44565b6040519081526020016102ec565b34801561050a57600080fd5b5061036f610519366004614748565b611a65565b34801561052a57600080fd5b50610337610539366004614748565b6000908152600360205260409020546001600160a01b031690565b61036f610562366004614440565b611b6a565b34801561057357600080fd5b506104f0610582366004614186565b611b8d565b34801561059357600080fd5b5061036f611c27565b3480156105a857600080fd5b5061036f6105b7366004614748565b611c8d565b3480156105c857600080fd5b50600a546001600160a01b0316610337565b3480156105e657600080fd5b5061030a61208e565b3480156105fb57600080fd5b5061036f61060a366004614748565b61209b565b34801561061b57600080fd5b5061036f61062a366004614412565b612329565b61036f61063d3660046147b0565b612395565b34801561064e57600080fd5b5061036f61065d366004614336565b612540565b34801561066e57600080fd5b5061068261067d3660046144f0565b612628565b6040516102ec91906149ae565b34801561069b57600080fd5b5061030a6106aa366004614748565b6126fa565b3480156106bb57600080fd5b50600b546106cf906001600160801b031681565b6040516001600160801b0390911681526020016102ec565b61036f6106f5366004614186565b61278e565b34801561070657600080fd5b5061036f6107153660046146ec565b6127ac565b34801561072657600080fd5b5061073a610735366004614748565b612872565b6040516102ec9190614a9a565b34801561075357600080fd5b506102e06107623660046141c0565b6001600160a01b03918216600090815260066020908152604080832093909416825291909152205460ff1690565b34801561079c57600080fd5b506103a46107ab366004614396565b6129b1565b3480156107bc57600080fd5b5061036f6107cb366004614186565b6129f9565b3480156107dc57600080fd5b506107f06107eb366004614748565b612ad8565b6040516102ec9493929190614a48565b61036f61080e366004614186565b612b2d565b34801561081f57600080fd5b5061083361082e3660046145d6565b612b4b565b604080519283526020830191909152016102ec565b60006001600160e01b031982167f80ac58cd0000000000000000000000000000000000000000000000000000000014806108ab57506001600160e01b031982167f5b5e139f00000000000000000000000000000000000000000000000000000000145b806108df57507f01ffc9a7000000000000000000000000000000000000000000000000000000006001600160e01b03198316145b92915050565b600080546108f290614c2a565b80601f016020809104026020016040519081016040528092919081815260200182805461091e90614c2a565b801561096b5780601f106109405761010080835404028352916020019161096b565b820191906000526020600020905b81548152906001019060200180831161094e57829003601f168201915b505050505081565b6000818152600360205260408120546001600160a01b0316610a025760405162461bcd60e51b815260206004820152602c60248201527f4552433732313a20617070726f76656420717565727920666f72206e6f6e657860448201527f697374656e7420746f6b656e000000000000000000000000000000000000000060648201526084015b60405180910390fd5b506000908152600560205260409020546001600160a01b031690565b60008181526003602052604090205481906001600160a01b03163314610a865760405162461bcd60e51b815260206004820152601b60248201527f4552433732313a2063616c6c6564206973206e6f74206f776e6572000000000060448201526064016109f9565b6000828152600360205260409020546001600160a01b03908116908416811415610b185760405162461bcd60e51b815260206004820152602160248201527f4552433732313a20617070726f76616c20746f2063757272656e74206f776e6560448201527f720000000000000000000000000000000000000000000000000000000000000060648201526084016109f9565b610b228484612b87565b50505050565b83336001600160a01b0382161480610b6357506001600160a01b038116600090815260066020908152604080832033845290915290205460ff165b610bc05760405162461bcd60e51b815260206004820152602860248201527f4c6966656379636c654d616e616765723a2063616c6c6572206973206e6f7420604482015267185c1c1c9bdd995960c21b60648201526084016109f9565b6040805161014081018252600080825260208201819052918101829052606081018290526080810182905260a0810182905260c0810182905260e0810182905261010081018290526101208101829052906008610c1e896002614ba1565b81548110610c2e57610c2e614d05565b60009182526020909120015460405163836c4e3360e01b815290915073__LBondManager__________________________9063836c4e3390610c769084908690600401614a33565b6101406040518083038186803b158015610c8f57600080fd5b505af4158015610ca3573d6000803e3d6000fd5b505050506040513d601f19601f82011682018060405250810190610cc79190614632565b805190925015610d3f5760405162461bcd60e51b815260206004820152602f60248201527f4c6966656379636c654d616e616765723a2063616e6e6f74207365727669636560448201527f2064656661756c74656420626f6e64000000000000000000000000000000000060648201526084016109f9565b602082015163ffffffff16610e635785341015610d5e57610d5e614cad565b336001600160a01b03881614610d7657610d76614cad565b610d8282828a89612bee565b60008261010001516001600160a01b0316878787604051610da4929190614929565b60006040518083038185875af1925050503d8060008114610de1576040519150601f19603f3d011682016040523d82523d6000602084013e610de6565b606091505b5050905080610e5d5760405162461bcd60e51b815260206004820152602a60248201527f4c6966656379636c654d616e616765723a206574686572207472616e7361637460448201527f696f6e206661696c65640000000000000000000000000000000000000000000060648201526084016109f9565b50610f39565b60006007836020015163ffffffff1681548110610e8257610e82614d05565b60009182526020909120600291820201805490925060ff1690816004811115610ead57610ead614cd9565b1480610eca57506004816004811115610ec857610ec8614cd9565b145b15610ee157610edc84848c6001612bee565b610eed565b610eed84848c8b612bee565b610f35828a8661010001518b8b8b8080601f016020809104026020016040519081016040528093929190818152602001838380828437600092019190915250612ee792505050565b5050505b606080830151604080518b81526001600160a01b038b16602082015261ffff909216908201527fda82ac16b4aa1e491f2ec1eb4b24b3d9a42ae226c5079255d032ce34f43d55f6910160405180910390a15050505050505050565b60006001600160a01b038616301415610fb55750630a85bd0160e11b610fb9565b5060005b95945050505050565b60005b82518110156110ad573360009081526006602052604081208451849290869085908110610ff457610ff4614d05565b60200260200101516001600160a01b03166001600160a01b0316815260200190815260200160002060006101000a81548160ff02191690831515021790555082818151811061104557611045614d05565b60200260200101516001600160a01b0316336001600160a01b03167f17307eab39ab6107e8899845ad3d59bd9653f200f220920489ca2b5937696c3184604051611093911515815260200190565b60405180910390a3806110a581614c92565b915050610fc5565b505050565b600b546110c7906001600160801b0316613203565b6110d08161336d565b50565b60008181526003602052604090205481906001600160a01b03163381148061111e57506001600160a01b038116600090815260066020908152604080832033845290915290205460ff165b8061113f57506000828152600560205260409020546001600160a01b031633145b61119c5760405162461bcd60e51b815260206004820152602860248201527f4552433732313a2063616c6c6572206973206e6f74206f776e6572206e6f7220604482015267185c1c1c9bdd995960c21b60648201526084016109f9565b6111a78585856133a5565b5050505050565b6040517f511e6fbd0000000000000000000000000000000000000000000000000000000081526004810182905273__LBondManager__________________________9063511e6fbd9060240160206040518083038186803b15801561121257600080fd5b505af4158015611226573d6000803e3d6000fd5b505050506040513d601f19601f8201168201806040525081019061124a91906141a3565b6001600160a01b0316336001600160a01b0316146112aa5760405162461bcd60e51b815260206004820181905260248201527f426f6e64546f6b656e3a206d696e746572206d7573742062652063616c6c657260448201526064016109f9565b6008546000906112bc90600290614b7f565b600880546001818101835560008390527ff3f7a9fe364faab93b216da50a3214154f22a0a2b415b23a84c8169e8b636ee391820187905582549081019092550183905590506110ad3382613572565b60005b82518110156111a757336001600160a01b038616148061135157506001600160a01b038516600090815260066020908152604080832033845290915290205460ff165b8061139457506005600084838151811061136d5761136d614d05565b6020908102919091018101518252810191909152604001600020546001600160a01b031633145b6114065760405162461bcd60e51b815260206004820152602960248201527f53757065724552433732313a2063616c6c6572206973206e6f742076616c696460448201527f206f70657261746f72000000000000000000000000000000000000000000000060648201526084016109f9565b61142a858585848151811061141d5761141d614d05565b60200260200101516133a5565b61144f858585848151811061144157611441614d05565b6020026020010151856136c8565b8061145981614c92565b91505061130e565b60008281526003602052604090205482906001600160a01b0316338114806114ac57506001600160a01b038116600090815260066020908152604080832033845290915290205460ff165b806114cd57506000828152600560205260409020546001600160a01b031633145b61152a5760405162461bcd60e51b815260206004820152602860248201527f4552433732313a2063616c6c6572206973206e6f74206f776e6572206e6f7220604482015267185c1c1c9bdd995960c21b60648201526084016109f9565b6000611537856002614ba1565b905073__LBondManager__________________________6391fc35fd6008838154811061156657611566614d05565b9060005260206000200154866040518363ffffffff1660e01b81526004016115a19291909182526001600160a01b0316602082015260400190565b60206040518083038186803b1580156115b957600080fd5b505af41580156115cd573d6000803e3d6000fd5b505050506040513d601f19601f820116820180604052508101906115f191906145bd565b6008828154811061160457611604614d05565b90600052602060002001819055507fbb18cf80bf9cf9e4b91e7ef34ae790edb68cfd0af883758c4cbffc183b84ab7085856040516116559291909182526001600160a01b0316602082015260400190565b60405180910390a15050505050565b6007805460001991829160009190829061168057611680614d05565b9060005260206000209060020201905060005b87518110156119545760008882815181106116b0576116b0614d05565b6020026020010151905080851415806116ca575084600019145b1561174f576116d98133613890565b61174b5760405162461bcd60e51b815260206004820152603560248201527f436f6c6c61746572616c4d616e616765723a20756e617574686f72697a65642060448201527f746f2072656c6561736520636f6c6c61746572616c000000000000000000000060648201526084016109f9565b8094505b60008181526009602052604081205461176a90600190614c13565b6000838152600960205260408120805492935090918390811061178f5761178f614d05565b6000918252602080832060408051808201825260029094029091018054845260010154838301528684526009909152909120805491925090806117d4576117d4614cef565b60008281526020812060026000199093019283020181815560010155905580516118665760405162461bcd60e51b815260206004820152603c60248201527f436f6c6c61746572616c4d616e616765723a207468697320636f6c6c6174657260448201527f616c2068617320616c7265616479206265656e2072656c65617365640000000060648201526084016109f9565b80602001518614158061187a575085600019145b156118ae57600781602001518154811061189657611896614d05565b90600052602060002090600202019450806020015195505b6118f585308c84600001518d8d8080601f016020809104026020016040519081016040528093929190818152602001838380828437600092019190915250612ee792505050565b5060408051848152602081018490526001600160a01b038c168183015290517f054ec7ece823327cac62b619c1ad0d5ec021821029747486a9635b77a351be609181900360600190a1505050808061194c90614c92565b915050611693565b5050505050505050565b6110ad83838360405180602001604052806000815250612540565b60606000825167ffffffffffffffff81111561199757611997614d1b565b6040519080825280602002602001820160405280156119c0578160200160208202803683370190505b50905060005b8351811015611a3d57600460008583815181106119e5576119e5614d05565b60200260200101516001600160a01b03166001600160a01b0316815260200190815260200160002054828281518110611a2057611a20614d05565b602090810291909101015280611a3581614c92565b9150506119c6565b5092915050565b60088181548110611a5457600080fd5b600091825260209091200154905081565b60008181526003602052604090205481906001600160a01b031633811480611ab057506001600160a01b038116600090815260066020908152604080832033845290915290205460ff165b80611ad157506000828152600560205260409020546001600160a01b031633145b611b2e5760405162461bcd60e51b815260206004820152602860248201527f4552433732313a2063616c6c6572206973206e6f74206f776e6572206e6f7220604482015267185c1c1c9bdd995960c21b60648201526084016109f9565b60008381526009602052604090205415611b4a57611b4a614cad565b6000838152600960205260408120611b6191613f4b565b6110ad83613ae6565b600b54611b7f906001600160801b0316613203565b611b898282613c6b565b5050565b60006001600160a01b038216611c0b5760405162461bcd60e51b815260206004820152602a60248201527f4552433732313a2062616c616e636520717565727920666f7220746865207a6560448201527f726f20616464726573730000000000000000000000000000000000000000000060648201526084016109f9565b506001600160a01b031660009081526004602052604090205490565b600a546001600160a01b03163314611c815760405162461bcd60e51b815260206004820181905260248201527f4f776e61626c653a2063616c6c6572206973206e6f7420746865206f776e657260448201526064016109f9565b611c8b6000613cbe565b565b60008181526003602052604090205481906001600160a01b031633811480611cd857506001600160a01b038116600090815260066020908152604080832033845290915290205460ff165b80611cf957506000828152600560205260409020546001600160a01b031633145b611d565760405162461bcd60e51b815260206004820152602860248201527f4552433732313a2063616c6c6572206973206e6f74206f776e6572206e6f7220604482015267185c1c1c9bdd995960c21b60648201526084016109f9565b60006008611d65856002614ba1565b81548110611d7557611d75614d05565b60009182526020808320909101546040805161014081018252848152928301849052828101849052606083018490526080830184905260a0830184905260c0830184905260e08301849052610100830184905261012083018490525163836c4e3360e01b815290935073__LBondManager__________________________9163836c4e3391611e08918691600401614a33565b6101406040518083038186803b158015611e2157600080fd5b505af4158015611e35573d6000803e3d6000fd5b505050506040513d601f19601f82011682018060405250810190611e599190614632565b9050806040015161ffff16816060015161ffff161115611ee15760405162461bcd60e51b815260206004820152602c60248201527f4c6966656379636c654d616e616765723a2063616e6e6f742063616c6c20636f60448201527f6d706c6574656420626f6e64000000000000000000000000000000000000000060648201526084016109f9565b6080810151611efa9067ffffffffffffffff1642614c13565b8160a00151826060015161ffff16611f129190614bc0565b67ffffffffffffffff1610611f8f5760405162461bcd60e51b815260206004820152602260248201527f4c6966656379636c654d616e616765723a20626f6e64206e6f74206f7665726460448201527f756500000000000000000000000000000000000000000000000000000000000060648201526084016109f9565b6040517f83244ba4000000000000000000000000000000000000000000000000000000008152600481018390526001602482015273__LBondManager__________________________906383244ba49060440160206040518083038186803b158015611ffa57600080fd5b505af415801561200e573d6000803e3d6000fd5b505050506040513d601f19601f8201168201806040525081019061203291906145bd565b600861203f876002614ba1565b8154811061204f5761204f614d05565b90600052602060002001819055507f9d88e5720db4604a83f973ccb5ac75609d3fcb60e6c2c1118ac2e7b029ce1d9b8560405161165591815260200190565b600180546108f290614c2a565b60008181526003602052604090205481906001600160a01b0316338114806120e657506001600160a01b038116600090815260066020908152604080832033845290915290205460ff165b8061210757506000828152600560205260409020546001600160a01b031633145b6121645760405162461bcd60e51b815260206004820152602860248201527f4552433732313a2063616c6c6572206973206e6f74206f776e6572206e6f7220604482015267185c1c1c9bdd995960c21b60648201526084016109f9565b60006008612173856002614ba1565b8154811061218357612183614d05565b60009182526020822001546040517f36d7bc700000000000000000000000000000000000000000000000000000000081526004810182905290925073__LBondManager__________________________906336d7bc7090602401604080518083038186803b1580156121f457600080fd5b505af4158015612208573d6000803e3d6000fd5b505050506040513d601f19601f8201168201806040525081019061222c9190614715565b50905073__LBondManager__________________________63d07f832883612255846001614b41565b6040516001600160e01b031960e085901b168152600481019290925261ffff16602482015260440160206040518083038186803b15801561229557600080fd5b505af41580156122a9573d6000803e3d6000fd5b505050506040513d601f19601f820116820180604052508101906122cd91906145bd565b60086122da876002614ba1565b815481106122ea576122ea614d05565b90600052602060002001819055507f5ee8a220dbeeb0d453e678b58d1504bafdb5d1a5b55029fcc873b4813066a8318560405161165591815260200190565b3360008181526006602090815260408083206001600160a01b03871680855290835292819020805460ff191686151590811790915590519081529192917f17307eab39ab6107e8899845ad3d59bd9653f200f220920489ca2b5937696c31910160405180910390a35050565b82336001600160a01b03821614806123d057506001600160a01b038116600090815260066020908152604080832033845290915290205460ff165b61242d5760405162461bcd60e51b815260206004820152602860248201527f4c6966656379636c654d616e616765723a2063616c6c6572206973206e6f7420604482015267185c1c1c9bdd995960c21b60648201526084016109f9565b60008581526009602090815260408083208151808301909252858252818301878152815460018181018455928652938520925160029094029092019283559051910155836124895782341461248457612484614cad565b6124e1565b60006007858154811061249e5761249e614d05565b906000526020600020906002020190508060000160009054906101000a900460ff1691506124de8187308760405180602001604052806000815250612ee7565b50505b6000868152600960205260409020547f49b6f5ac374c4be8466fd8c3b0f9871cb2c0dfc84323369c5cff54e96a17234e90879061252090600190614c13565b8360405161253093929190614ad8565b60405180910390a1505050505050565b60008281526003602052604090205482906001600160a01b03163381148061258b57506001600160a01b038116600090815260066020908152604080832033845290915290205460ff165b806125ac57506000828152600560205260409020546001600160a01b031633145b6126095760405162461bcd60e51b815260206004820152602860248201527f4552433732313a2063616c6c6572206973206e6f74206f776e6572206e6f7220604482015267185c1c1c9bdd995960c21b60648201526084016109f9565b6126148686866133a5565b612620868686866136c8565b505050505050565b60606000825167ffffffffffffffff81111561264657612646614d1b565b60405190808252806020026020018201604052801561266f578160200160208202803683370190505b50905060005b8351811015611a3d576003600085838151811061269457612694614d05565b6020026020010151815260200190815260200160002060009054906101000a90046001600160a01b03168282815181106126d0576126d0614d05565b6001600160a01b0390921660209283029190910190910152806126f281614c92565b915050612675565b60606002805461270990614c2a565b80601f016020809104026020016040519081016040528092919081815260200182805461273590614c2a565b80156127825780601f1061275757610100808354040283529160200191612782565b820191906000526020600020905b81548152906001019060200180831161276557829003601f168201915b50505050509050919050565b600b546127a3906001600160801b0316613203565b6110d081613d10565b600a546001600160a01b031633146128065760405162461bcd60e51b815260206004820181905260248201527f4f776e61626c653a2063616c6c6572206973206e6f7420746865206f776e657260448201526064016109f9565b600b80547fffffffffffffffffffffffffffffffff00000000000000000000000000000000166001600160801b0383169081179091556040519081527fd0e2e6d07e84557b574a0d09d91b400186f7757216f92d9a0a62cf3b0893f5b49060200160405180910390a150565b6040805161014081018252600080825260208201819052918101829052606081018290526080810182905260a0810182905260c0810182905260e08101829052610100810182905261012081019190915273__LBondManager__________________________6388bc65c460086128ea856002614ba1565b815481106128fa576128fa614d05565b906000526020600020015460088560026129149190614ba1565b61291f906001614b67565b8154811061292f5761292f614d05565b90600052602060002001546040518363ffffffff1660e01b8152600401612960929190918252602082015260400190565b6101406040518083038186803b15801561297957600080fd5b505af415801561298d573d6000803e3d6000fd5b505050506040513d601f19601f820116820180604052508101906108df9190614632565b60006001600160a01b0387163014156129eb57507ff23a6e61000000000000000000000000000000000000000000000000000000006129ef565b5060005b9695505050505050565b600a546001600160a01b03163314612a535760405162461bcd60e51b815260206004820181905260248201527f4f776e61626c653a2063616c6c6572206973206e6f7420746865206f776e657260448201526064016109f9565b6001600160a01b038116612acf5760405162461bcd60e51b815260206004820152602660248201527f4f776e61626c653a206e6577206f776e657220697320746865207a65726f206160448201527f646472657373000000000000000000000000000000000000000000000000000060648201526084016109f9565b6110d081613cbe565b60078181548110612ae857600080fd5b60009182526020909120600290910201805460019091015460ff8216925061010082046affffffffffffffffffffff1691600160601b90046001600160a01b03169084565b600b54612b42906001600160801b0316613203565b6110d081613d27565b60096020528160005260406000208181548110612b6757600080fd5b600091825260209091206002909102018054600190910154909250905082565b600081815260056020908152604080832080546001600160a01b0319166001600160a01b038781169182179092556003909352818420549151859492909116917f8c5be1e5ebec7d5bd14f71427d1e84f3dd0314c0f7b2291e5b200ac8c7c3b92591a45050565b60008460c0015182612c009190614b7f565b905060008161ffff1611612c7c5760405162461bcd60e51b815260206004820152602e60248201527f4c6966656379636c654d616e616765723a2073657276696365207061796d656e60448201527f7420696e73756666696369656e7400000000000000000000000000000000000060648201526084016109f9565b8085606001818151612c8e9190614b41565b61ffff90811690915260408701516060880151908216911611159050612e0b576008612cbb846002614ba1565b612cc6906001614b67565b81548110612cd657612cd6614d05565b6000918252602090912001546040517f746386ef000000000000000000000000000000000000000000000000000000008152600481019190915273__LBondManager__________________________9063746386ef9060240160206040518083038186803b158015612d4757600080fd5b505af4158015612d5b573d6000803e3d6000fd5b505050506040513d601f19601f82011682018060405250810190612d7f91906145bd565b8560c0015186604001518760600151612d989190614bf0565b61ffff16612da69190614ba1565b10612dfc576040850151612dbb906001614b41565b61ffff1660608601526040518381527f5ee8a220dbeeb0d453e678b58d1504bafdb5d1a5b55029fcc873b4813066a8319060200160405180910390a1612e0b565b604085015161ffff1660608601525b60608501516040517fd07f83280000000000000000000000000000000000000000000000000000000081526004810186905261ffff909116602482015273__LBondManager__________________________9063d07f83289060440160206040518083038186803b158015612e7f57600080fd5b505af4158015612e93573d6000803e3d6000fd5b505050506040513d601f19601f82011682018060405250810190612eb791906145bd565b6008612ec4856002614ba1565b81548110612ed457612ed4614d05565b6000918252602090912001555050505050565b60006001865460ff166004811115612f0157612f01614cd9565b1415613027576001600160a01b038516301415612fc65785546040517fa9059cbb0000000000000000000000000000000000000000000000000000000081526001600160a01b03868116600483015260248201869052600160601b9092049091169063a9059cbb906044015b602060405180830381600087803b158015612f8757600080fd5b505af1158015612f9b573d6000803e3d6000fd5b505050506040513d601f19601f82011682018060405250810190612fbf91906145a0565b9050610fb9565b85546040517f23b872dd0000000000000000000000000000000000000000000000000000000081526001600160a01b038781166004830152868116602483015260448201869052600160601b909204909116906323b872dd90606401612f6d565b6002865460ff16600481111561303f5761303f614cd9565b14156130e75785546040517fb88d4fde0000000000000000000000000000000000000000000000000000000081526001600160a01b0387811660048301528681166024830152604482018690526080606483015260006084830152600160601b9092049091169063b88d4fde9060a4015b600060405180830381600087803b1580156130ca57600080fd5b505af11580156130de573d6000803e3d6000fd5b505050506131f7565b6003865460ff1660048111156130ff576130ff614cd9565b141561316857600186015461312857855461010090046affffffffffffffffffffff1660018701555b85546001870154604051637921219560e11b8152600160601b9092046001600160a01b03169163f242432a916130b091899189918990899060040161496b565b6004865460ff16600481111561318057613180614cd9565b14156131f7578554604051637921219560e11b8152600160601b9091046001600160a01b03169063f242432a906131c490889088908890600190899060040161496b565b600060405180830381600087803b1580156131de57600080fd5b505af11580156131f2573d6000803e3d6000fd5b505050505b50600195945050505050565b6001600160801b0381166132145750565b806001600160801b03163410156132935760405162461bcd60e51b815260206004820152602a60248201527f4d6f6e6574697a6564426f6e643a2076616c75652073656e742063616e6e6f7460448201527f20636f766572206665650000000000000000000000000000000000000000000060648201526084016109f9565b60006132a7600a546001600160a01b031690565b6001600160a01b03163460405160006040518083038185875af1925050503d80600081146132f1576040519150601f19603f3d011682016040523d82523d6000602084013e6132f6565b606091505b5050905080611b895760405162461bcd60e51b815260206004820152602560248201527f4d6f6e6574697a6564426f6e643a20666565207472616e73616374696f6e206660448201527f61696c656400000000000000000000000000000000000000000000000000000060648201526084016109f9565b60408051608081019091526110d0908060045b81526000602082018190526001600160a01b0385166040830152606090910152613d3e565b6000818152600360205260409020546001600160a01b038481169116146134345760405162461bcd60e51b815260206004820152602960248201527f4552433732313a207472616e73666572206f6620746f6b656e2074686174206960448201527f73206e6f74206f776e000000000000000000000000000000000000000000000060648201526084016109f9565b6001600160a01b0382166134af5760405162461bcd60e51b8152602060048201526024808201527f4552433732313a207472616e7366657220746f20746865207a65726f2061646460448201527f726573730000000000000000000000000000000000000000000000000000000060648201526084016109f9565b6134ba600082612b87565b6001600160a01b03831660009081526004602052604081208054600192906134e3908490614c13565b90915550506001600160a01b0382166000908152600460205260408120805460019290613511908490614b67565b909155505060008181526003602052604080822080546001600160a01b0319166001600160a01b0386811691821790925591518493918716917fddf252ad1be2c89b69c2b068fc378daa952ba7f163c4a11628f55a4df523b3ef91a4505050565b6001600160a01b0382166135c85760405162461bcd60e51b815260206004820181905260248201527f4552433732313a206d696e7420746f20746865207a65726f206164647265737360448201526064016109f9565b6000818152600360205260409020546001600160a01b03161561362d5760405162461bcd60e51b815260206004820152601c60248201527f4552433732313a20746f6b656e20616c7265616479206d696e7465640000000060448201526064016109f9565b6001600160a01b0382166000908152600460205260408120805460019290613656908490614b67565b909155505060008181526003602052604080822080546001600160a01b0319166001600160a01b03861690811790915590518392907fddf252ad1be2c89b69c2b068fc378daa952ba7f163c4a11628f55a4df523b3ef908290a4611b8960008383604051806020016040528060008152505b6001600160a01b0383163b15610b2257604051630a85bd0160e11b81526001600160a01b0384169063150b7a029061370a903390889087908790600401614939565b602060405180830381600087803b15801561372457600080fd5b505af1925050508015613754575060408051601f3d908101601f1916820190925261375191810190614615565b60015b61380a57613760614d31565b806308c379a0141561379a5750613775614d4d565b80613780575061379c565b8060405162461bcd60e51b81526004016109f99190614a87565b505b60405162461bcd60e51b815260206004820152603260248201527f4552433732313a207472616e7366657220746f206e6f6e20455243373231526560448201527f63656976657220696d706c656d656e746572000000000000000000000000000060648201526084016109f9565b6001600160e01b03198116630a85bd0160e11b146111a75760405162461bcd60e51b815260206004820152602560248201527f4552433732313a2045524337323152656365697665722072656a65637465642060448201527f746f6b656e00000000000000000000000000000000000000000000000000000060648201526084016109f9565b6040805161014081018252600080825260208201819052918101829052606081018290526080810182905260a0810182905260c0810182905260e081018290526101008101829052610120810182905260086138ed856002614ba1565b815481106138fd576138fd614d05565b60009182526020909120015460405163836c4e3360e01b815273__LBondManager__________________________9163836c4e339161394191908590600401614a33565b6101406040518083038186803b15801561395a57600080fd5b505af415801561396e573d6000803e3d6000fd5b505050506040513d601f19601f820116820180604052508101906139929190614632565b600085815260036020526040812054919250906139ba9086906001600160a01b031686613e8a565b825190915080156139c85750805b156139d8576001925050506108df565b60086139e5866002614ba1565b6139f0906001614b67565b81548110613a0057613a00614d05565b6000918252602090912001546040517fb437f29400000000000000000000000000000000000000000000000000000000815273__LBondManager__________________________9163b437f29491613a5d91908690600401614a33565b6101406040518083038186803b158015613a7657600080fd5b505af4158015613a8a573d6000803e3d6000fd5b505050506040513d601f19601f82011682018060405250810190613aae9190614632565b91506000613ac183610120015186613eff565b9050826040015161ffff16836060015161ffff161180156129ef575095945050505050565b60008181526003602052604090205481906001600160a01b031633811480613b3157506001600160a01b038116600090815260066020908152604080832033845290915290205460ff165b80613b5257506000828152600560205260409020546001600160a01b031633145b613baf5760405162461bcd60e51b815260206004820152602860248201527f4552433732313a2063616c6c6572206973206e6f74206f776e6572206e6f7220604482015267185c1c1c9bdd995960c21b60648201526084016109f9565b6008613bbc846002614ba1565b81548110613bcc57613bcc614d05565b60009182526020822001556008613be4846002614ba1565b613bef906001614b67565b81548110613bff57613bff614d05565b6000918252602080832090910182905584825260038152604080832080546001600160a01b03198082169092556005845282852080549092169091556001600160a01b03168084526004909252822080549192600192613c60908490614c13565b909155505050505050565b60408051608081018252600381526affffffffffffffffffffff8316602082018190526001600160a01b0385169282019290925260006060820152908214613cb557606081018290525b6110ad81613d3e565b600a80546001600160a01b038381166001600160a01b0319831681179093556040519116919082907f8be0079c531659141344cd1fd0a4f28419497f9722a3daafe3b4186f6b6457e090600090a35050565b60408051608081019091526110d090806002613380565b60408051608081019091526110d090806001613380565b6007805460018181018355600092909252825160029091027fa66cc928b5edb82af9bd49922954155ab7b0942694bea4ce44661d9a8736c6880180548493919291839160ff191690836004811115613d9857613d98614cd9565b02179055506020820151815460408401516001600160a01b0316600160601b026bffffffffffffffffffffffff6affffffffffffffffffffff909316610100029290921660ff909116171781556060909101516001909101556000600382516004811115613e0857613e08614cd9565b1415613e355781602001516affffffffffffffffffffff1690508160600151600014613e35575060608101515b6007547f2de521bc3664deadab052ac566d3e29f17b816025957077cd43ae461ebe1670790613e6690600190614c13565b83516040808601519051613e7e939291908690614aa9565b60405180910390a15050565b6000826001600160a01b0316826001600160a01b03161480613ed157506001600160a01b0380841660009081526006602090815260408083209386168352929052205460ff165b80613ef557506000848152600560205260409020546001600160a01b038381169116145b90505b9392505050565b6000826001600160a01b0316826001600160a01b03161480613ef85750506001600160a01b03918216600090815260066020908152604080832093909416825291909152205460ff1690565b50805460008255600202906000526020600020908101906110d091905b80821115613f825760008082556001820155600201613f68565b5090565b8051613f9181614dd7565b919050565b600082601f830112613fa757600080fd5b81356020613fb482614b1d565b604051613fc18282614c65565b8381528281019150858301600585901b87018401881015613fe157600080fd5b60005b85811015614009578135613ff781614dd7565b84529284019290840190600101613fe4565b5090979650505050505050565b600082601f83011261402757600080fd5b8135602061403482614b1d565b6040516140418282614c65565b8381528281019150858301600585901b8701840188101561406157600080fd5b60005b8581101561400957813584529284019290840190600101614064565b8051613f9181614dec565b60008083601f84011261409d57600080fd5b50813567ffffffffffffffff8111156140b557600080fd5b6020830191508360208285010111156140cd57600080fd5b9250929050565b600082601f8301126140e557600080fd5b813567ffffffffffffffff8111156140ff576140ff614d1b565b604051614116601f8301601f191660200182614c65565b81815284602083860101111561412b57600080fd5b816020850160208301376000918101602001919091529392505050565b805161ffff81168114613f9157600080fd5b805163ffffffff81168114613f9157600080fd5b805167ffffffffffffffff81168114613f9157600080fd5b60006020828403121561419857600080fd5b8135613ef881614dd7565b6000602082840312156141b557600080fd5b8151613ef881614dd7565b600080604083850312156141d357600080fd5b82356141de81614dd7565b915060208301356141ee81614dd7565b809150509250929050565b6000806000806080858703121561420f57600080fd5b843561421a81614dd7565b9350602085013561422a81614dd7565b9250604085013567ffffffffffffffff8082111561424757600080fd5b61425388838901614016565b9350606087013591508082111561426957600080fd5b50614276878288016140d4565b91505092959194509250565b60008060006060848603121561429757600080fd5b83356142a281614dd7565b925060208401356142b281614dd7565b929592945050506040919091013590565b6000806000806000608086880312156142db57600080fd5b85356142e681614dd7565b945060208601356142f681614dd7565b935060408601359250606086013567ffffffffffffffff81111561431957600080fd5b6143258882890161408b565b969995985093965092949392505050565b6000806000806080858703121561434c57600080fd5b843561435781614dd7565b9350602085013561436781614dd7565b925060408501359150606085013567ffffffffffffffff81111561438a57600080fd5b614276878288016140d4565b60008060008060008060a087890312156143af57600080fd5b86356143ba81614dd7565b955060208701356143ca81614dd7565b94506040870135935060608701359250608087013567ffffffffffffffff8111156143f457600080fd5b61440089828a0161408b565b979a9699509497509295939492505050565b6000806040838503121561442557600080fd5b823561443081614dd7565b915060208301356141ee81614dec565b6000806040838503121561445357600080fd5b823561445e81614dd7565b946020939093013593505050565b60006020828403121561447e57600080fd5b813567ffffffffffffffff81111561449557600080fd5b6144a184828501613f96565b949350505050565b600080604083850312156144bc57600080fd5b823567ffffffffffffffff8111156144d357600080fd5b6144df85828601613f96565b92505060208301356141ee81614dec565b60006020828403121561450257600080fd5b813567ffffffffffffffff81111561451957600080fd5b6144a184828501614016565b6000806000806060858703121561453b57600080fd5b843567ffffffffffffffff8082111561455357600080fd5b61455f88838901614016565b95506020870135915061457182614dd7565b9093506040860135908082111561458757600080fd5b506145948782880161408b565b95989497509550505050565b6000602082840312156145b257600080fd5b8151613ef881614dec565b6000602082840312156145cf57600080fd5b5051919050565b600080604083850312156145e957600080fd5b50508035926020909101359150565b60006020828403121561460a57600080fd5b8135613ef881614dfa565b60006020828403121561462757600080fd5b8151613ef881614dfa565b6000610140828403121561464557600080fd5b61464d614af3565b61465683614080565b81526146646020840161415a565b602082015261467560408401614148565b604082015261468660608401614148565b60608201526146976080840161416e565b60808201526146a860a0840161416e565b60a082015260c083015160c082015260e083015160e08201526101006146cf818501613f86565b908201526101206146e1848201613f86565b908201529392505050565b6000602082840312156146fe57600080fd5b81356001600160801b0381168114613ef857600080fd5b6000806040838503121561472857600080fd5b61473183614148565b915061473f60208401614148565b90509250929050565b60006020828403121561475a57600080fd5b5035919050565b6000806040838503121561477457600080fd5b8235915060208301356141ee81614dd7565b60008060008060006080868803121561479e57600080fd5b8535945060208601356142f681614dd7565b600080600080608085870312156147c657600080fd5b8435935060208501356147d881614dd7565b93969395505050506040820135916060013590565b6000815180845260005b81811015614813576020818501810151868301820152016147f7565b81811115614825576000602083870101525b50601f01601f19169290920160200192915050565b6005811061485857634e487b7160e01b600052602160045260246000fd5b9052565b8051151582526020810151614879602084018263ffffffff169052565b50604081015161488f604084018261ffff169052565b5060608101516148a5606084018261ffff169052565b5060808101516148c1608084018267ffffffffffffffff169052565b5060a08101516148dd60a084018267ffffffffffffffff169052565b5060c081015160c083015260e081015160e08301526101008082015161490d828501826001600160a01b03169052565b5050610120818101516001600160a01b03811684830152610b22565b8183823760009101908152919050565b60006001600160a01b038087168352808616602084015250836040830152608060608301526129ef60808301846147ed565b60006001600160a01b03808816835280871660208401525084604083015283606083015260a060808301526149a360a08301846147ed565b979650505050505050565b6020808252825182820181905260009190848201906040850190845b818110156149ef5783516001600160a01b0316835292840192918401916001016149ca565b50909695505050505050565b6020808252825182820181905260009190848201906040850190845b818110156149ef57835183529284019291840191600101614a17565b8281526101608101613ef8602083018461485c565b60808101614a56828761483a565b6affffffffffffffffffffff851660208301526001600160a01b038416604083015282606083015295945050505050565b602081526000613ef860208301846147ed565b61014081016108df828461485c565b84815260808101614abd602083018661483a565b6001600160a01b039390931660408201526060015292915050565b83815260208101839052606081016144a1604083018461483a565b604051610140810167ffffffffffffffff81118282101715614b1757614b17614d1b565b60405290565b600067ffffffffffffffff821115614b3757614b37614d1b565b5060051b60200190565b600061ffff808316818516808303821115614b5e57614b5e614cc3565b01949350505050565b60008219821115614b7a57614b7a614cc3565b500190565b600082614b9c57634e487b7160e01b600052601260045260246000fd5b500490565b6000816000190483118215151615614bbb57614bbb614cc3565b500290565b600067ffffffffffffffff80831681851681830481118215151615614be757614be7614cc3565b02949350505050565b600061ffff83811690831681811015614c0b57614c0b614cc3565b039392505050565b600082821015614c2557614c25614cc3565b500390565b600181811c90821680614c3e57607f821691505b60208210811415614c5f57634e487b7160e01b600052602260045260246000fd5b50919050565b601f8201601f1916810167ffffffffffffffff81118282101715614c8b57614c8b614d1b565b6040525050565b6000600019821415614ca657614ca6614cc3565b5060010190565b634e487b7160e01b600052600160045260246000fd5b634e487b7160e01b600052601160045260246000fd5b634e487b7160e01b600052602160045260246000fd5b634e487b7160e01b600052603160045260246000fd5b634e487b7160e01b600052603260045260246000fd5b634e487b7160e01b600052604160045260246000fd5b600060033d1115614d4a5760046000803e5060005160e01c5b90565b600060443d1015614d5b5790565b6040516003193d81016004833e81513d67ffffffffffffffff8160248401118184111715614d8b57505050505090565b8285019150815181811115614da35750505050505090565b843d8701016020828501011115614dbd5750505050505090565b614dcc60208286010187614c65565b509095945050505050565b6001600160a01b03811681146110d057600080fd5b80151581146110d057600080fd5b6001600160e01b0319811681146110d057600080fdfea26469706673582212203e3a96096fa8603170114a588a647d165b0595bdb24cb06cefcb9875f0bcbe1d64736f6c63430008060033",
  "immutableReferences": {},
  "source": "// SPDX-License-Identifier: UNLICENSED\npragma solidity ^0.8.0;\n\nimport \"./MonetizedBondNFT.sol\";\n\n/**\n * @title  Core Bond contract, containing all the methods and\n * data to create, read, update, delete bond financial primitives\n */\ncontract Core is MonetizedBondNFT {\n  constructor(\n    string memory name,\n    string memory symbol,\n    string memory uri\n  ) MonetizedBondNFT(name, symbol, uri) // solhint-disable-next-line no-empty-blocks\n  {}\n}\n\n",
  "sourcePath": "/home/runner/work/karmaToken/karmaToken/contracts/Core.sol",
  "compiler": {
    "name": "solc",
    "version": "0.8.6+commit.11564f7e.Linux.g++"
  },
  "schemaVersion": "3.4.7",
  "updatedAt": "2022-08-18T18:26:25.336Z",
  "devdoc": {
    "kind": "dev",
    "methods": {
      "addCollateral(uint256,address,uint256,uint256)": {
        "params": {
          "currencyRef": "Id of currency collateral is denominated in",
          "from": "Account to pull collateral from",
          "id": "Id of bond to attach collateral to",
          "valueOrId": "Either the amount of tokens to attach, or the NFT id being attached (depending on currency)"
        }
      },
      "addERC1155NFTCurrency(address)": {
        "details": "Note that no tokenId is required -- since we know the count to be 1, the structures that reference this currency can use their field to specify the tokenId.",
        "params": {
          "location": "address of ERC1155 contract being added"
        }
      },
      "addERC1155TokenCurrency(address,uint256)": {
        "details": "TokenId is required because structures that reference this currency are only able to specify one field -- the amount, and so the tokenId must be constant and specified here",
        "params": {
          "location": "address of the ERC1155 contract being added",
          "tokenId": "specific tokenId to associate with this ERC1155 currency listing."
        }
      },
      "addERC20Currency(address)": {
        "params": {
          "location": "address of the ERC20 contract being added"
        }
      },
      "addERC721Currency(address)": {
        "details": "Add a new currency of type ERC721",
        "params": {
          "location": "address of the ERC721 contract being added"
        }
      },
      "approve(address,uint256)": {
        "details": "See {IERC721-approve}."
      },
      "balanceOf(address)": {
        "details": "See {IERC721-balanceOf}."
      },
      "callBond(uint256)": {
        "details": "Can only be performed by token owner or authorized operator.",
        "params": {
          "id": "Id of bond to check for default"
        }
      },
      "destroyBond(uint256)": {
        "details": "Can only be performed by token owner or authorized operator.",
        "params": {
          "id": "Bond id"
        }
      },
      "forgiveBond(uint256)": {
        "details": "Can only be performed by token owner or authorized operator.",
        "params": {
          "id": "Bond id"
        }
      },
      "getApproved(uint256)": {
        "details": "See {IERC721-getApproved}."
      },
      "getBond(uint256)": {
        "params": {
          "id": "Bond id"
        },
        "returns": {
          "_0": "Bond As the expanded bond datastructure at given id"
        }
      },
      "isApprovedForAll(address,address)": {
        "details": "See {IERC721-isApprovedForAll}."
      },
      "mintBond(bytes32,bytes32)": {
        "details": "Minter field must correspond to message sender!",
        "params": {
          "alp": "Alpha bytes to append, as generated by library",
          "bet": "Beta bytes to append, as generated by library"
        }
      },
      "onERC1155Received(address,address,uint256,uint256,bytes)": {
        "details": "Handler function that get's called on any ERC1155 transfer to this function -- accepts only transfers initiated by itself."
      },
      "onERC721Received(address,address,uint256,bytes)": {
        "details": "Handler function that get's called on any ERC721 transfer to this function -- accepts only transfers initiated by itself."
      },
      "owner()": {
        "details": "Returns the address of the current owner."
      },
      "ownerOf(uint256)": {
        "details": "See {IERC721-ownerOf}."
      },
      "renounceOwnership()": {
        "details": "Leaves the contract without owner. It will not be possible to call `onlyOwner` functions anymore. Can only be called by the current owner. NOTE: Renouncing ownership will leave the contract without an owner, thereby removing any functionality that is only available to the owner."
      },
      "safeBatchReleaseCollaterals(uint256[],address,bytes)": {
        "details": "Method is optimized to memoize the 'previous' bond and currency used. If possible, sort incoming lists by bondIds and by related currencyIds.",
        "params": {
          "bondIds": "Integer array of bondIds to release collateral for",
          "data": "bytes to forward with each transfer",
          "to": "address to direct all collaterals to"
        }
      },
      "safeTransferFrom(address,address,uint256)": {
        "details": "See {IERC721-safeTransferFrom}."
      },
      "safeTransferFrom(address,address,uint256,bytes)": {
        "details": "Safely transfers `tokenId` token from `from` to `to`, checking first that contract recipients are aware of the ERC721 protocol to prevent tokens from being forever locked. `_data` is additional data, it has no specified format and it is sent in call to `to`. This internal function is equivalent to {safeTransferFrom}, and can be used to e.g. implement alternative mechanisms to perform token transfer, such as signature-based. Requirements: - `from` cannot be the zero address. - `to` cannot be the zero address. - `tokenId` token must exist and be owned by `from`. - If `to` refers to a smart contract, it must implement {IERC721Receiver-onERC721Received}, which is called upon a safe transfer. Emits a {Transfer} event."
      },
      "serviceBond(uint256,address,uint256,bytes)": {
        "details": "For ether transactions, from and value still have to match or exceed the ether sent and the message sender. Note that call data will only get forwarded for supporting currencies",
        "params": {
          "data": "Additonal bytes to send with the transaction",
          "from": "Account address to take value from",
          "id": "Id of bond to service",
          "value": "Either the amount to apply to the bond, or the NFT id to transfer as service payment"
        }
      },
      "setApprovalForAll(address,bool)": {
        "details": "Approve `operator` to operate on all of `owner` tokens Emits a {ApprovalForAll} event."
      },
      "supportsInterface(bytes4)": {
        "details": "See {IERC165-supportsInterface}."
      },
      "tokenURI(uint256)": {
        "details": "See {IERC721Metadata-tokenURI}."
      },
      "transferFrom(address,address,uint256)": {
        "details": "See {IERC721-transferFrom}."
      },
      "transferOwnership(address)": {
        "details": "Transfers ownership of the contract to a new account (`newOwner`). Can only be called by the current owner."
      },
      "updateBeneficiary(uint256,address)": {
        "params": {
          "id": "Bond id",
          "newBeneficiary": "Address of new beneficiary account"
        }
      }
    },
    "title": " Core Bond contract, containing all the methods and data to create, read, update, delete bond financial primitives",
    "version": 1
  },
  "userdoc": {
    "events": {
      "BeneficiaryChange(uint256,address)": {
        "notice": "recipient of bond payments has been updated"
      },
      "BondCompleted(uint256)": {
        "notice": "bond has been entirely repayed"
      },
      "BondDefaulted(uint256)": {
        "notice": "bond payments have been failed"
      },
      "BondServiced(uint256,address,uint64)": {
        "notice": "new bond payment has been posted"
      },
      "CollateralAdded(uint256,uint256,uint8)": {
        "notice": "New collateral has been attached to bond"
      },
      "CollateralReleased(uint256,uint256,address)": {
        "notice": "Collateral has been released from bond"
      },
      "CurrencyAdded(uint256,uint8,address,uint256)": {
        "notice": "New currency has been added to internal listing"
      }
    },
    "kind": "user",
    "methods": {
      "addCollateral(uint256,address,uint256,uint256)": {
        "notice": "Add a generic currency collateral to a bond"
      },
      "addERC1155NFTCurrency(address)": {
        "notice": "Add a new currency of type ERC1155 NFT."
      },
      "addERC1155TokenCurrency(address,uint256)": {
        "notice": "Add a new currency of type ERC1155 Token"
      },
      "addERC20Currency(address)": {
        "notice": "Add a new currency of type ERC20"
      },
      "bonds(uint256)": {
        "notice": "Bond data array -- holds alpha and beta slots for bond, to be interpreted by LBondManager."
      },
      "callBond(uint256)": {
        "notice": "Call bond to mark it as 'in default'."
      },
      "collateral(uint256,uint256)": {
        "notice": "Mapping holding collaterals associated with each bond id"
      },
      "currencies(uint256)": {
        "notice": "Array holding currency listing."
      },
      "currencyFee()": {
        "notice": "Fee for adding currencies, specified in wei. Default .01 ether is about ~ 13 USD"
      },
      "destroyBond(uint256)": {
        "notice": "Collateral must be entirely released to allow bond destruction"
      },
      "forgiveBond(uint256)": {
        "notice": "Set bond as complete and forfeight future payments"
      },
      "getBond(uint256)": {
        "notice": "Interpret bond with given id into readable version"
      },
      "mintBond(bytes32,bytes32)": {
        "notice": "Append a new bond with given data"
      },
      "onERC1155Received(address,address,uint256,uint256,bytes)": {
        "notice": "SHOULD NOT be generally called by a direct user"
      },
      "onERC721Received(address,address,uint256,bytes)": {
        "notice": "SHOULD NOT be generally called by a direct user"
      },
      "safeBatchReleaseCollaterals(uint256[],address,bytes)": {
        "notice": "Release last collateral attached to specified bonds ids"
      },
      "serviceBond(uint256,address,uint256,bytes)": {
        "notice": "Service a specific bond with generic currency"
      },
      "setCurrencyFee(uint128)": {
        "notice": "Set fee for adding a currency"
      },
      "updateBeneficiary(uint256,address)": {
        "notice": "Update the beneficiary associated with a bond"
      }
    },
    "version": 1
  }
}