{
  "contractName": "CurrencyManagerExposed",
  "abi": [
    {
      "anonymous": false,
      "inputs": [
        {
          "indexed": false,
          "internalType": "uint256",
          "name": "id",
          "type": "uint256"
        },
        {
          "indexed": false,
          "internalType": "enum CurrencyType",
          "name": "currencyType",
          "type": "uint8"
        },
        {
          "indexed": false,
          "internalType": "address",
          "name": "location",
          "type": "address"
        },
        {
          "indexed": false,
          "internalType": "uint256",
          "name": "ERC1155Id",
          "type": "uint256"
        }
      ],
      "name": "CurrencyAdded",
      "type": "event"
    },
    {
      "inputs": [
        {
          "internalType": "address",
          "name": "location",
          "type": "address"
        }
      ],
      "name": "addERC1155NFTCurrency",
      "outputs": [],
      "stateMutability": "payable",
      "type": "function"
    },
    {
      "inputs": [
        {
          "internalType": "address",
          "name": "location",
          "type": "address"
        },
        {
          "internalType": "uint256",
          "name": "tokenId",
          "type": "uint256"
        }
      ],
      "name": "addERC1155TokenCurrency",
      "outputs": [],
      "stateMutability": "payable",
      "type": "function"
    },
    {
      "inputs": [
        {
          "internalType": "address",
          "name": "location",
          "type": "address"
        }
      ],
      "name": "addERC20Currency",
      "outputs": [],
      "stateMutability": "payable",
      "type": "function"
    },
    {
      "inputs": [
        {
          "internalType": "address",
          "name": "location",
          "type": "address"
        }
      ],
      "name": "addERC721Currency",
      "outputs": [],
      "stateMutability": "payable",
      "type": "function"
    },
    {
      "inputs": [
        {
          "internalType": "uint256",
          "name": "",
          "type": "uint256"
        }
      ],
      "name": "currencies",
      "outputs": [
        {
          "internalType": "enum CurrencyType",
          "name": "currencyType",
          "type": "uint8"
        },
        {
          "internalType": "uint88",
          "name": "ERC1155SmallId",
          "type": "uint88"
        },
        {
          "internalType": "address",
          "name": "location",
          "type": "address"
        },
        {
          "internalType": "uint256",
          "name": "ERC1155Id",
          "type": "uint256"
        }
      ],
      "stateMutability": "view",
      "type": "function"
    },
    {
      "inputs": [
        {
          "internalType": "uint256",
          "name": "currencyId",
          "type": "uint256"
        },
        {
          "internalType": "address",
          "name": "from",
          "type": "address"
        },
        {
          "internalType": "address",
          "name": "to",
          "type": "address"
        },
        {
          "internalType": "uint256",
          "name": "amountOrId",
          "type": "uint256"
        },
        {
          "internalType": "bytes",
          "name": "data",
          "type": "bytes"
        }
      ],
      "name": "transferGenericCurrency",
      "outputs": [],
      "stateMutability": "nonpayable",
      "type": "function"
    }
  ],
  "bytecode": "0x608060405234801561001057600080fd5b506040805160808101825260008082526020820181905291810182905260608101829052815460018082018455928052815160029091027f290decd9548b62a8d60345a988386fc84ba6bc95484008f6362f93160ef3e56301805492939092839160ff199091169083600481111561008a5761008a6100e8565b02179055506020820151815460408401516001600160a01b03166c01000000000000000000000000026001600160601b036001600160581b03909316610100029290921660ff909116171781556060909101516001909101556100fe565b634e487b7160e01b600052602160045260246000fd5b610a088061010d6000396000f3fe6080604052600436106100655760003560e01c8063cd30e2cd11610043578063cd30e2cd146100b2578063f6d1c271146100c5578063fe9accf9146100fe57600080fd5b80631f5e180e1461006a57806368b0d5a81461007f57806392fe763814610092575b600080fd5b61007d6100783660046106de565b610111565b005b61007d61008d366004610700565b61014c565b34801561009e57600080fd5b5061007d6100ad366004610765565b6101a4565b61007d6100c03660046106de565b6101d9565b3480156100d157600080fd5b506100e56100e036600461074c565b6101f0565b6040516100f594939291906108fd565b60405180910390f35b61007d61010c3660046106de565b610245565b6040805160808101909152610149908060045b81526000602082018190526001600160a01b038516604083015260609091015261025c565b50565b60408051608081018252600381526affffffffffffffffffffff8316602082018190526001600160a01b038516928201929092526000606082015290821461019657606081018290525b61019f8161025c565b505050565b6101d1600086815481106101ba576101ba6109a6565b9060005260206000209060020201858585856103a5565b505050505050565b604080516080810190915261014990806002610124565b6000818154811061020057600080fd5b60009182526020909120600290910201805460019091015460ff8216925061010082046affffffffffffffffffffff1691600160601b90046001600160a01b03169084565b604080516080810190915261014990806001610124565b6000805460018181018355918052825160029091027f290decd9548b62a8d60345a988386fc84ba6bc95484008f6362f93160ef3e5630180548493919291839160ff1916908360048111156102b3576102b3610990565b02179055506020820151815460408401516001600160a01b0316600160601b026bffffffffffffffffffffffff6affffffffffffffffffffff909316610100029290921660ff90911617178155606090910151600190910155600060038251600481111561032357610323610990565b14156103505781602001516affffffffffffffffffffff1690508160600151600014610350575060608101515b6000547f2de521bc3664deadab052ac566d3e29f17b816025957077cd43ae461ebe16707906103819060019061096b565b8351604080860151905161039993929190869061093c565b60405180910390a15050565b60006001865460ff1660048111156103bf576103bf610990565b14156104e5576001600160a01b0385163014156104845785546040517fa9059cbb0000000000000000000000000000000000000000000000000000000081526001600160a01b03868116600483015260248201869052600160601b9092049091169063a9059cbb906044015b602060405180830381600087803b15801561044557600080fd5b505af1158015610459573d6000803e3d6000fd5b505050506040513d601f19601f8201168201806040525081019061047d919061072a565b90506106b9565b85546040517f23b872dd0000000000000000000000000000000000000000000000000000000081526001600160a01b038781166004830152868116602483015260448201869052600160601b909204909116906323b872dd9060640161042b565b6002865460ff1660048111156104fd576104fd610990565b14156105a55785546040517fb88d4fde0000000000000000000000000000000000000000000000000000000081526001600160a01b0387811660048301528681166024830152604482018690526080606483015260006084830152600160601b9092049091169063b88d4fde9060a4015b600060405180830381600087803b15801561058857600080fd5b505af115801561059c573d6000803e3d6000fd5b505050506106b5565b6003865460ff1660048111156105bd576105bd610990565b14156106265760018601546105e657855461010090046affffffffffffffffffffff1660018701555b85546001870154604051637921219560e11b8152600160601b9092046001600160a01b03169163f242432a9161056e9189918991899089906004016108ba565b6004865460ff16600481111561063e5761063e610990565b14156106b5578554604051637921219560e11b8152600160601b9091046001600160a01b03169063f242432a906106829088908890889060019089906004016108ba565b600060405180830381600087803b15801561069c57600080fd5b505af11580156106b0573d6000803e3d6000fd5b505050505b5060015b95945050505050565b80356001600160a01b03811681146106d957600080fd5b919050565b6000602082840312156106f057600080fd5b6106f9826106c2565b9392505050565b6000806040838503121561071357600080fd5b61071c836106c2565b946020939093013593505050565b60006020828403121561073c57600080fd5b815180151581146106f957600080fd5b60006020828403121561075e57600080fd5b5035919050565b600080600080600060a0868803121561077d57600080fd5b8535945061078d602087016106c2565b935061079b604087016106c2565b925060608601359150608086013567ffffffffffffffff808211156107bf57600080fd5b818801915088601f8301126107d357600080fd5b8135818111156107e5576107e56109bc565b604051601f8201601f19908116603f0116810190838211818310171561080d5761080d6109bc565b816040528281528b602084870101111561082657600080fd5b8260208601602083013760006020848301015280955050505050509295509295909350565b6000815180845260005b8181101561087157602081850181015186830182015201610855565b81811115610883576000602083870101525b50601f01601f19169290920160200192915050565b600581106108b657634e487b7160e01b600052602160045260246000fd5b9052565b60006001600160a01b03808816835280871660208401525084604083015283606083015260a060808301526108f260a083018461084b565b979650505050505050565b6080810161090b8287610898565b6affffffffffffffffffffff851660208301526001600160a01b038416604083015282606083015295945050505050565b848152608081016109506020830186610898565b6001600160a01b039390931660408201526060015292915050565b60008282101561098b57634e487b7160e01b600052601160045260246000fd5b500390565b634e487b7160e01b600052602160045260246000fd5b634e487b7160e01b600052603260045260246000fd5b634e487b7160e01b600052604160045260246000fdfea2646970667358221220c0f741981e2d4d69d0de7ddd41566866f6daecb5d9cc48eae28ddaba0b94c59164736f6c63430008060033",
  "immutableReferences": {},
  "source": "// SPDX-License-Identifier: UNLICENSED\npragma solidity ^0.8.0;\n\nimport \"../CurrencyManager.sol\";\n\ncontract CurrencyManagerExposed is CurrencyManager {\n    function transferGenericCurrency(\n        uint256 currencyId,\n        address from,\n        address to,\n        uint256 amountOrId,\n        bytes memory data\n    ) external {\n        _transferGenericCurrency(\n            currencies[currencyId],\n            from,\n            to,\n            amountOrId,\n            data\n        );\n    }\n}\n",
  "sourcePath": "/home/runner/work/karmaToken/karmaToken/contracts/exposed/CurrencyManagerExposed.sol",
  "compiler": {
    "name": "solc",
    "version": "0.8.6+commit.11564f7e.Linux.g++"
  },
  "schemaVersion": "3.4.7",
  "updatedAt": "2022-07-22T16:48:15.702Z",
  "devdoc": {
    "kind": "dev",
    "methods": {
      "addERC1155NFTCurrency(address)": {
        "details": "Note that no tokenId is required -- since we know the count to be 1, the structures that reference this currency can use their field to specify the tokenId.",
        "params": {
          "location": "address of ERC1155 contract being added"
        }
      },
      "addERC1155TokenCurrency(address,uint256)": {
        "details": "TokenId is required because structures that reference this currency are only able to specify one field -- the amount, and so the tokenId must be constant and specified here",
        "params": {
          "location": "address of the ERC1155 contract being added",
          "tokenId": "specific tokenId to associate with this ERC1155 currency listing."
        }
      },
      "addERC20Currency(address)": {
        "params": {
          "location": "address of the ERC20 contract being added"
        }
      },
      "addERC721Currency(address)": {
        "details": "Add a new currency of type ERC721",
        "params": {
          "location": "address of the ERC721 contract being added"
        }
      }
    },
    "version": 1
  },
  "userdoc": {
    "events": {
      "CurrencyAdded(uint256,uint8,address,uint256)": {
        "notice": "New currency has been added to internal listing"
      }
    },
    "kind": "user",
    "methods": {
      "addERC1155NFTCurrency(address)": {
        "notice": "Add a new currency of type ERC1155 NFT."
      },
      "addERC1155TokenCurrency(address,uint256)": {
        "notice": "Add a new currency of type ERC1155 Token"
      },
      "addERC20Currency(address)": {
        "notice": "Add a new currency of type ERC20"
      },
      "currencies(uint256)": {
        "notice": "Array holding currency listing."
      }
    },
    "version": 1
  }
}