{
  "contractName": "CurrencyManager",
  "abi": [
    {
      "inputs": [],
      "stateMutability": "nonpayable",
      "type": "constructor"
    },
    {
      "anonymous": false,
      "inputs": [
        {
          "indexed": false,
          "internalType": "uint256",
          "name": "id",
          "type": "uint256"
        },
        {
          "indexed": false,
          "internalType": "enum CurrencyType",
          "name": "currencyType",
          "type": "uint8"
        },
        {
          "indexed": false,
          "internalType": "address",
          "name": "location",
          "type": "address"
        },
        {
          "indexed": false,
          "internalType": "uint256",
          "name": "ERC1155Id",
          "type": "uint256"
        }
      ],
      "name": "CurrencyAdded",
      "type": "event"
    },
    {
      "inputs": [
        {
          "internalType": "uint256",
          "name": "",
          "type": "uint256"
        }
      ],
      "name": "currencies",
      "outputs": [
        {
          "internalType": "enum CurrencyType",
          "name": "currencyType",
          "type": "uint8"
        },
        {
          "internalType": "uint88",
          "name": "ERC1155SmallId",
          "type": "uint88"
        },
        {
          "internalType": "address",
          "name": "location",
          "type": "address"
        },
        {
          "internalType": "uint256",
          "name": "ERC1155Id",
          "type": "uint256"
        }
      ],
      "stateMutability": "view",
      "type": "function"
    },
    {
      "inputs": [
        {
          "internalType": "address",
          "name": "location",
          "type": "address"
        }
      ],
      "name": "addERC20Currency",
      "outputs": [],
      "stateMutability": "payable",
      "type": "function"
    },
    {
      "inputs": [
        {
          "internalType": "address",
          "name": "location",
          "type": "address"
        }
      ],
      "name": "addERC721Currency",
      "outputs": [],
      "stateMutability": "payable",
      "type": "function"
    },
    {
      "inputs": [
        {
          "internalType": "address",
          "name": "location",
          "type": "address"
        },
        {
          "internalType": "uint256",
          "name": "tokenId",
          "type": "uint256"
        }
      ],
      "name": "addERC1155TokenCurrency",
      "outputs": [],
      "stateMutability": "payable",
      "type": "function"
    },
    {
      "inputs": [
        {
          "internalType": "address",
          "name": "location",
          "type": "address"
        }
      ],
      "name": "addERC1155NFTCurrency",
      "outputs": [],
      "stateMutability": "payable",
      "type": "function"
    }
  ],
  "bytecode": "0x608060405234801561001057600080fd5b506040805160808101825260008082526020820181905291810182905260608101829052815460018082018455928052815160029091027f290decd9548b62a8d60345a988386fc84ba6bc95484008f6362f93160ef3e56301805492939092839160ff199091169083600481111561008a5761008a6100e8565b02179055506020820151815460408401516001600160a01b03166c01000000000000000000000000026001600160601b036001600160581b03909316610100029290921660ff909116171781556060909101516001909101556100fe565b634e487b7160e01b600052602160045260246000fd5b6104d98061010d6000396000f3fe60806040526004361061005a5760003560e01c8063cd30e2cd11610043578063cd30e2cd14610087578063f6d1c2711461009a578063fe9accf9146100d357600080fd5b80631f5e180e1461005f57806368b0d5a814610074575b600080fd5b61007261006d366004610373565b6100e6565b005b610072610082366004610395565b610121565b610072610095366004610373565b610179565b3480156100a657600080fd5b506100ba6100b53660046103bf565b610190565b6040516100ca94939291906103fa565b60405180910390f35b6100726100e1366004610373565b6101ee565b604080516080810190915261011e908060045b81526000602082018190526001600160a01b0385166040830152606090910152610205565b50565b60408051608081018252600381526affffffffffffffffffffff8316602082018190526001600160a01b038516928201929092526000606082015290821461016b57606081018290525b61017481610205565b505050565b604080516080810190915261011e908060026100f9565b600081815481106101a057600080fd5b60009182526020909120600290910201805460019091015460ff8216925061010082046affffffffffffffffffffff16916c0100000000000000000000000090046001600160a01b03169084565b604080516080810190915261011e908060016100f9565b6000805460018181018355918052825160029091027f290decd9548b62a8d60345a988386fc84ba6bc95484008f6362f93160ef3e5630180548493919291839160ff19169083600481111561025c5761025c61048d565b02179055506020820151815460408401516001600160a01b03166c01000000000000000000000000026bffffffffffffffffffffffff6affffffffffffffffffffff909316610100029290921660ff9091161717815560609091015160019091015560006003825160048111156102d5576102d561048d565b14156103025781602001516affffffffffffffffffffff1690508160600151600014610302575060608101515b6000547f2de521bc3664deadab052ac566d3e29f17b816025957077cd43ae461ebe167079061033390600190610468565b8351604080860151905161034b939291908690610439565b60405180910390a15050565b80356001600160a01b038116811461036e57600080fd5b919050565b60006020828403121561038557600080fd5b61038e82610357565b9392505050565b600080604083850312156103a857600080fd5b6103b183610357565b946020939093013593505050565b6000602082840312156103d157600080fd5b5035919050565b600581106103f657634e487b7160e01b600052602160045260246000fd5b9052565b6080810161040882876103d8565b6affffffffffffffffffffff851660208301526001600160a01b038416604083015282606083015295945050505050565b8481526080810161044d60208301866103d8565b6001600160a01b039390931660408201526060015292915050565b60008282101561048857634e487b7160e01b600052601160045260246000fd5b500390565b634e487b7160e01b600052602160045260246000fdfea2646970667358221220e1bbb1ea3126f50d9430d22e2c4201cbd9bed6df4e6ffa3db74c13d63328bb8264736f6c63430008060033",
  "immutableReferences": {},
  "source": "// SPDX-License-Identifier: UNLICENSED\npragma solidity ^0.8.0;\n\nimport \"@openzeppelin/contracts/token/ERC20/IERC20.sol\";\nimport \"@openzeppelin/contracts/token/ERC721/IERC721.sol\";\nimport \"@openzeppelin/contracts/token/ERC1155/IERC1155.sol\";\n\n/// @notice Enum representing various supported currency types\nenum CurrencyType {\n    Ether,\n    ERC20,\n    ERC721,\n    ERC1155Token,\n    ERC1155NFT\n}\n\n/// @notice Expanded Currency structure to be referenced by bonds\nstruct Currency {\n    CurrencyType currencyType; // {ERC20, ERC721, ERC1155 tokens, ERC1155 NFTs} = {0,1,2,3}\n    uint88 ERC1155SmallId;\n    address location;\n    uint256 ERC1155Id; // if ERC1155 and id > 500 septillion, use extra slot\n}\n\n/**\n * @title  Currency contract that maintains an internal currency listings\n * @notice This listing is referred to in all future bonds and\n * collateral structures, used to figure out payment.\n */\ncontract CurrencyManager {\n    // TODO: generic addCurrency?\n\n    /**\n     * @notice Array holding currency listing.\n     * @dev Note that position 0 will always be taken by the Ethereum\n     * currency type, as ensured by the constructor.\n     */\n    Currency[] public currencies;\n\n    /// @notice New currency has been added to internal listing\n    event CurrencyAdded(\n        uint256 id,\n        CurrencyType currencyType,\n        address location,\n        uint256 ERC1155Id\n    );\n\n    constructor() {\n        currencies.push(Currency(CurrencyType.Ether, 0, address(0), 0));\n    }\n\n    /**\n     * @notice Add a new currency of type ERC20\n     * @param location address of the ERC20 contract being added\n     */\n    function addERC20Currency(address location) public payable virtual {\n        _addCurrency(Currency(CurrencyType.ERC20, 0, location, 0));\n    }\n\n    /**\n     * @dev Add a new currency of type ERC721\n     * @param location address of the ERC721 contract being added\n     */\n    function addERC721Currency(address location) public payable virtual {\n        _addCurrency(Currency(CurrencyType.ERC721, 0, location, 0));\n    }\n\n    /**\n     * @notice Add a new currency of type ERC1155 Token\n     * @param location address of the ERC1155 contract being added\n     * @param tokenId specific tokenId to associate with this ERC1155\n     * currency listing.\n     * @dev TokenId is required because structures that reference\n     * this currency are only able to specify one field -- the amount, and\n     * so the tokenId must be constant and specified here\n     */\n    function addERC1155TokenCurrency(address location, uint256 tokenId)\n        public\n        payable\n        virtual\n    {\n        Currency memory c = Currency(\n            CurrencyType.ERC1155Token,\n            uint88(tokenId),\n            location,\n            0\n        );\n        if (c.ERC1155SmallId != tokenId) {\n            c.ERC1155Id = tokenId;\n        }\n        _addCurrency(c);\n    }\n\n    /**\n     * @notice Add a new currency of type ERC1155 NFT.\n     * @dev Note that no tokenId is required -- since we know the count to\n     * be 1, the structures that reference this currency can use their\n     * field to specify the tokenId.\n     * @param location address of ERC1155 contract being added\n     */\n    function addERC1155NFTCurrency(address location) public payable virtual {\n        _addCurrency(Currency(CurrencyType.ERC1155NFT, 0, location, 0));\n    }\n\n    /**\n     * @dev Safely tansfer any supported currency using its interface\n     * @param cur Currency type to transfer\n     * @param from Which address to transfer from\n     * @param to Which address to transfer to\n     * @param amountOrId Either amount or id.\n     * @param data bytes to pass on with the transaction\n     * @dev The amountOrId paramenter represents the missing integer\n     * that Currency doesn't store itself -- in the case of a fungible\n     * token, the amount, but in the case of an NFT, the token id.\n     */\n    function _transferGenericCurrency(\n        Currency storage cur,\n        address from,\n        address to,\n        uint256 amountOrId,\n        bytes memory data\n    ) internal returns (bool) {\n        if (cur.currencyType == CurrencyType.ERC20) {\n            if (from == address(this)) {\n                return IERC20(cur.location).transfer(to, amountOrId);\n            } else {\n                return IERC20(cur.location).transferFrom(from, to, amountOrId);\n            }\n        } else if (cur.currencyType == CurrencyType.ERC721) {\n            IERC721(cur.location).safeTransferFrom(from, to, amountOrId, \"\");\n        } else if (cur.currencyType == CurrencyType.ERC1155Token) {\n            if (cur.ERC1155Id == 0) cur.ERC1155Id = uint256(cur.ERC1155SmallId);\n            IERC1155(cur.location).safeTransferFrom(\n                from,\n                to,\n                cur.ERC1155Id,\n                amountOrId,\n                data\n            );\n        } else if (cur.currencyType == CurrencyType.ERC1155NFT) {\n            IERC1155(cur.location).safeTransferFrom(\n                from,\n                to,\n                amountOrId,\n                1,\n                data\n            );\n        }\n        return true;\n    }\n\n    /**\n     * @dev Internal method to append a new currency efficiently.\n     * @param c pre-build Currency structure to be added.\n     */\n    function _addCurrency(Currency memory c) internal {\n        currencies.push(c);\n        uint256 id = 0;\n        if (c.currencyType == CurrencyType.ERC1155Token) {\n            id = c.ERC1155SmallId;\n            if (c.ERC1155Id != 0) id = c.ERC1155Id;\n        }\n        emit CurrencyAdded(\n            currencies.length - 1,\n            c.currencyType,\n            c.location,\n            id\n        );\n    }\n}\n",
  "sourcePath": "/home/runner/work/karmaToken/karmaToken/contracts/CurrencyManager.sol",
  "compiler": {
    "name": "solc",
    "version": "0.8.6+commit.11564f7e.Linux.g++"
  },
  "schemaVersion": "3.4.7",
  "updatedAt": "2022-07-22T16:48:15.658Z",
  "devdoc": {
    "kind": "dev",
    "methods": {
      "addERC1155NFTCurrency(address)": {
        "details": "Note that no tokenId is required -- since we know the count to be 1, the structures that reference this currency can use their field to specify the tokenId.",
        "params": {
          "location": "address of ERC1155 contract being added"
        }
      },
      "addERC1155TokenCurrency(address,uint256)": {
        "details": "TokenId is required because structures that reference this currency are only able to specify one field -- the amount, and so the tokenId must be constant and specified here",
        "params": {
          "location": "address of the ERC1155 contract being added",
          "tokenId": "specific tokenId to associate with this ERC1155 currency listing."
        }
      },
      "addERC20Currency(address)": {
        "params": {
          "location": "address of the ERC20 contract being added"
        }
      },
      "addERC721Currency(address)": {
        "details": "Add a new currency of type ERC721",
        "params": {
          "location": "address of the ERC721 contract being added"
        }
      }
    },
    "stateVariables": {
      "currencies": {
        "details": "Note that position 0 will always be taken by the Ethereum currency type, as ensured by the constructor."
      }
    },
    "title": " Currency contract that maintains an internal currency listings",
    "version": 1
  },
  "userdoc": {
    "events": {
      "CurrencyAdded(uint256,uint8,address,uint256)": {
        "notice": "New currency has been added to internal listing"
      }
    },
    "kind": "user",
    "methods": {
      "addERC1155NFTCurrency(address)": {
        "notice": "Add a new currency of type ERC1155 NFT."
      },
      "addERC1155TokenCurrency(address,uint256)": {
        "notice": "Add a new currency of type ERC1155 Token"
      },
      "addERC20Currency(address)": {
        "notice": "Add a new currency of type ERC20"
      },
      "currencies(uint256)": {
        "notice": "Array holding currency listing."
      }
    },
    "notice": "This listing is referred to in all future bonds and collateral structures, used to figure out payment.",
    "version": 1
  }
}