{
  "contractName": "ERC1155Exposed",
  "abi": [
    {
      "inputs": [],
      "stateMutability": "nonpayable",
      "type": "constructor"
    },
    {
      "anonymous": false,
      "inputs": [
        {
          "indexed": true,
          "internalType": "address",
          "name": "account",
          "type": "address"
        },
        {
          "indexed": true,
          "internalType": "address",
          "name": "operator",
          "type": "address"
        },
        {
          "indexed": false,
          "internalType": "bool",
          "name": "approved",
          "type": "bool"
        }
      ],
      "name": "ApprovalForAll",
      "type": "event"
    },
    {
      "anonymous": false,
      "inputs": [
        {
          "indexed": true,
          "internalType": "address",
          "name": "operator",
          "type": "address"
        },
        {
          "indexed": true,
          "internalType": "address",
          "name": "from",
          "type": "address"
        },
        {
          "indexed": true,
          "internalType": "address",
          "name": "to",
          "type": "address"
        },
        {
          "indexed": false,
          "internalType": "uint256[]",
          "name": "ids",
          "type": "uint256[]"
        },
        {
          "indexed": false,
          "internalType": "uint256[]",
          "name": "values",
          "type": "uint256[]"
        }
      ],
      "name": "TransferBatch",
      "type": "event"
    },
    {
      "anonymous": false,
      "inputs": [
        {
          "indexed": true,
          "internalType": "address",
          "name": "operator",
          "type": "address"
        },
        {
          "indexed": true,
          "internalType": "address",
          "name": "from",
          "type": "address"
        },
        {
          "indexed": true,
          "internalType": "address",
          "name": "to",
          "type": "address"
        },
        {
          "indexed": false,
          "internalType": "uint256",
          "name": "id",
          "type": "uint256"
        },
        {
          "indexed": false,
          "internalType": "uint256",
          "name": "value",
          "type": "uint256"
        }
      ],
      "name": "TransferSingle",
      "type": "event"
    },
    {
      "anonymous": false,
      "inputs": [
        {
          "indexed": false,
          "internalType": "string",
          "name": "value",
          "type": "string"
        },
        {
          "indexed": true,
          "internalType": "uint256",
          "name": "id",
          "type": "uint256"
        }
      ],
      "name": "URI",
      "type": "event"
    },
    {
      "inputs": [
        {
          "internalType": "address",
          "name": "account",
          "type": "address"
        },
        {
          "internalType": "uint256",
          "name": "id",
          "type": "uint256"
        }
      ],
      "name": "balanceOf",
      "outputs": [
        {
          "internalType": "uint256",
          "name": "",
          "type": "uint256"
        }
      ],
      "stateMutability": "view",
      "type": "function"
    },
    {
      "inputs": [
        {
          "internalType": "address[]",
          "name": "accounts",
          "type": "address[]"
        },
        {
          "internalType": "uint256[]",
          "name": "ids",
          "type": "uint256[]"
        }
      ],
      "name": "balanceOfBatch",
      "outputs": [
        {
          "internalType": "uint256[]",
          "name": "",
          "type": "uint256[]"
        }
      ],
      "stateMutability": "view",
      "type": "function"
    },
    {
      "inputs": [
        {
          "internalType": "address",
          "name": "account",
          "type": "address"
        },
        {
          "internalType": "address",
          "name": "operator",
          "type": "address"
        }
      ],
      "name": "isApprovedForAll",
      "outputs": [
        {
          "internalType": "bool",
          "name": "",
          "type": "bool"
        }
      ],
      "stateMutability": "view",
      "type": "function"
    },
    {
      "inputs": [
        {
          "internalType": "address",
          "name": "from",
          "type": "address"
        },
        {
          "internalType": "address",
          "name": "to",
          "type": "address"
        },
        {
          "internalType": "uint256[]",
          "name": "ids",
          "type": "uint256[]"
        },
        {
          "internalType": "uint256[]",
          "name": "amounts",
          "type": "uint256[]"
        },
        {
          "internalType": "bytes",
          "name": "data",
          "type": "bytes"
        }
      ],
      "name": "safeBatchTransferFrom",
      "outputs": [],
      "stateMutability": "nonpayable",
      "type": "function"
    },
    {
      "inputs": [
        {
          "internalType": "address",
          "name": "from",
          "type": "address"
        },
        {
          "internalType": "address",
          "name": "to",
          "type": "address"
        },
        {
          "internalType": "uint256",
          "name": "id",
          "type": "uint256"
        },
        {
          "internalType": "uint256",
          "name": "amount",
          "type": "uint256"
        },
        {
          "internalType": "bytes",
          "name": "data",
          "type": "bytes"
        }
      ],
      "name": "safeTransferFrom",
      "outputs": [],
      "stateMutability": "nonpayable",
      "type": "function"
    },
    {
      "inputs": [
        {
          "internalType": "address",
          "name": "operator",
          "type": "address"
        },
        {
          "internalType": "bool",
          "name": "approved",
          "type": "bool"
        }
      ],
      "name": "setApprovalForAll",
      "outputs": [],
      "stateMutability": "nonpayable",
      "type": "function"
    },
    {
      "inputs": [
        {
          "internalType": "bytes4",
          "name": "interfaceId",
          "type": "bytes4"
        }
      ],
      "name": "supportsInterface",
      "outputs": [
        {
          "internalType": "bool",
          "name": "",
          "type": "bool"
        }
      ],
      "stateMutability": "view",
      "type": "function"
    },
    {
      "inputs": [
        {
          "internalType": "uint256",
          "name": "",
          "type": "uint256"
        }
      ],
      "name": "uri",
      "outputs": [
        {
          "internalType": "string",
          "name": "",
          "type": "string"
        }
      ],
      "stateMutability": "view",
      "type": "function"
    },
    {
      "inputs": [
        {
          "internalType": "address",
          "name": "to",
          "type": "address"
        },
        {
          "internalType": "uint256",
          "name": "id",
          "type": "uint256"
        },
        {
          "internalType": "uint256",
          "name": "amount",
          "type": "uint256"
        }
      ],
      "name": "mint",
      "outputs": [],
      "stateMutability": "nonpayable",
      "type": "function"
    }
  ],
  "bytecode": "0x60806040523480156200001157600080fd5b50604080518082019091526004815263151154d560e21b602082015262000038816200003f565b506200013b565b80516200005490600290602084019062000058565b5050565b8280546200006690620000fe565b90600052602060002090601f0160209004810192826200008a5760008555620000d5565b82601f10620000a557805160ff1916838001178555620000d5565b82800160010185558215620000d5579182015b82811115620000d5578251825591602001919060010190620000b8565b50620000e3929150620000e7565b5090565b5b80821115620000e35760008155600101620000e8565b600181811c908216806200011357607f821691505b602082108114156200013557634e487b7160e01b600052602260045260246000fd5b50919050565b6116dc806200014b6000396000f3fe608060405234801561001057600080fd5b50600436106100a25760003560e01c80632eb2c2d611610076578063a22cb4651161005b578063a22cb46514610158578063e985e9c51461016b578063f242432a146101a757600080fd5b80632eb2c2d6146101255780634e1273f41461013857600080fd5b8062fdd58e146100a757806301ffc9a7146100cd5780630e89341c146100f0578063156e29f614610110575b600080fd5b6100ba6100b53660046111e1565b6101ba565b6040519081526020015b60405180910390f35b6100e06100db36600461130f565b610263565b60405190151581526020016100c4565b6101036100fe366004611350565b610300565b6040516100c491906114d3565b61012361011e36600461120b565b610394565b005b610123610133366004611096565b6103b4565b61014b61014636600461123e565b610456565b6040516100c49190611492565b6101236101663660046111a5565b610594565b6100e0610179366004611063565b6001600160a01b03918216600090815260016020908152604080832093909416825291909152205460ff1690565b6101236101b5366004611140565b61067f565b60006001600160a01b03831661023d5760405162461bcd60e51b815260206004820152602b60248201527f455243313135353a2062616c616e636520717565727920666f7220746865207a60448201527f65726f206164647265737300000000000000000000000000000000000000000060648201526084015b60405180910390fd5b506000908152602081815260408083206001600160a01b03949094168352929052205490565b60006001600160e01b031982167fd9b67a260000000000000000000000000000000000000000000000000000000014806102c657506001600160e01b031982167f0e89341c00000000000000000000000000000000000000000000000000000000145b806102fa57507f01ffc9a7000000000000000000000000000000000000000000000000000000006001600160e01b03198316145b92915050565b60606002805461030f90611522565b80601f016020809104026020016040519081016040528092919081815260200182805461033b90611522565b80156103885780601f1061035d57610100808354040283529160200191610388565b820191906000526020600020905b81548152906001019060200180831161036b57829003601f168201915b50505050509050919050565b6103af8383836040518060200160405280600081525061071a565b505050565b6001600160a01b0385163314806103d057506103d08533610179565b6104425760405162461bcd60e51b815260206004820152603260248201527f455243313135353a207472616e736665722063616c6c6572206973206e6f742060448201527f6f776e6572206e6f7220617070726f76656400000000000000000000000000006064820152608401610234565b61044f8585858585610840565b5050505050565b606081518351146104cf5760405162461bcd60e51b815260206004820152602960248201527f455243313135353a206163636f756e747320616e6420696473206c656e67746860448201527f206d69736d6174636800000000000000000000000000000000000000000000006064820152608401610234565b6000835167ffffffffffffffff8111156104eb576104eb6115d1565b604051908082528060200260200182016040528015610514578160200160208202803683370190505b50905060005b845181101561058c5761055f858281518110610538576105386115bb565b6020026020010151858381518110610552576105526115bb565b60200260200101516101ba565b828281518110610571576105716115bb565b60209081029190910101526105858161158a565b905061051a565b509392505050565b336001600160a01b03831614156106135760405162461bcd60e51b815260206004820152602960248201527f455243313135353a2073657474696e6720617070726f76616c2073746174757360448201527f20666f722073656c6600000000000000000000000000000000000000000000006064820152608401610234565b3360008181526001602090815260408083206001600160a01b03871680855290835292819020805460ff191686151590811790915590519081529192917f17307eab39ab6107e8899845ad3d59bd9653f200f220920489ca2b5937696c31910160405180910390a35050565b6001600160a01b03851633148061069b575061069b8533610179565b61070d5760405162461bcd60e51b815260206004820152602960248201527f455243313135353a2063616c6c6572206973206e6f74206f776e6572206e6f7260448201527f20617070726f76656400000000000000000000000000000000000000000000006064820152608401610234565b61044f8585858585610ab3565b6001600160a01b0384166107965760405162461bcd60e51b815260206004820152602160248201527f455243313135353a206d696e7420746f20746865207a65726f2061646472657360448201527f73000000000000000000000000000000000000000000000000000000000000006064820152608401610234565b336107b0816000876107a788610c51565b61044f88610c51565b6000848152602081815260408083206001600160a01b0389168452909152812080548592906107e090849061150a565b909155505060408051858152602081018590526001600160a01b0380881692600092918516917fc3d58168c5ae7397731d063d5bbf3d657854427343f4c083240f7aacaa2d0f62910160405180910390a461044f81600087878787610c9c565b81518351146108b75760405162461bcd60e51b815260206004820152602860248201527f455243313135353a2069647320616e6420616d6f756e7473206c656e6774682060448201527f6d69736d617463680000000000000000000000000000000000000000000000006064820152608401610234565b6001600160a01b03841661091b5760405162461bcd60e51b815260206004820152602560248201527f455243313135353a207472616e7366657220746f20746865207a65726f206164604482015264647265737360d81b6064820152608401610234565b3360005b8451811015610a4557600085828151811061093c5761093c6115bb565b60200260200101519050600085838151811061095a5761095a6115bb565b602090810291909101810151600084815280835260408082206001600160a01b038e1683529093529190912054909150818110156109ed5760405162461bcd60e51b815260206004820152602a60248201527f455243313135353a20696e73756666696369656e742062616c616e636520666f60448201526939103a3930b739b332b960b11b6064820152608401610234565b6000838152602081815260408083206001600160a01b038e8116855292528083208585039055908b16825281208054849290610a2a90849061150a565b9250508190555050505080610a3e9061158a565b905061091f565b50846001600160a01b0316866001600160a01b0316826001600160a01b03167f4a39dc06d4c0dbc64b70af90fd698a233a518aa5d07e595d983b8c0526c8f7fb8787604051610a959291906114a5565b60405180910390a4610aab818787878787610e51565b505050505050565b6001600160a01b038416610b175760405162461bcd60e51b815260206004820152602560248201527f455243313135353a207472616e7366657220746f20746865207a65726f206164604482015264647265737360d81b6064820152608401610234565b33610b278187876107a788610c51565b6000848152602081815260408083206001600160a01b038a16845290915290205483811015610bab5760405162461bcd60e51b815260206004820152602a60248201527f455243313135353a20696e73756666696369656e742062616c616e636520666f60448201526939103a3930b739b332b960b11b6064820152608401610234565b6000858152602081815260408083206001600160a01b038b8116855292528083208785039055908816825281208054869290610be890849061150a565b909155505060408051868152602081018690526001600160a01b03808916928a821692918616917fc3d58168c5ae7397731d063d5bbf3d657854427343f4c083240f7aacaa2d0f62910160405180910390a4610c48828888888888610c9c565b50505050505050565b60408051600180825281830190925260609160009190602080830190803683370190505090508281600081518110610c8b57610c8b6115bb565b602090810291909101015292915050565b6001600160a01b0384163b15610aab5760405163f23a6e6160e01b81526001600160a01b0385169063f23a6e6190610ce0908990899088908890889060040161144f565b602060405180830381600087803b158015610cfa57600080fd5b505af1925050508015610d2a575060408051601f3d908101601f19168201909252610d2791810190611333565b60015b610de057610d366115e7565b806308c379a01415610d705750610d4b611603565b80610d565750610d72565b8060405162461bcd60e51b815260040161023491906114d3565b505b60405162461bcd60e51b815260206004820152603460248201527f455243313135353a207472616e7366657220746f206e6f6e204552433131353560448201527f526563656976657220696d706c656d656e7465720000000000000000000000006064820152608401610234565b6001600160e01b0319811663f23a6e6160e01b14610c485760405162461bcd60e51b815260206004820152602860248201527f455243313135353a204552433131353552656365697665722072656a656374656044820152676420746f6b656e7360c01b6064820152608401610234565b6001600160a01b0384163b15610aab5760405163bc197c8160e01b81526001600160a01b0385169063bc197c8190610e9590899089908890889088906004016113f1565b602060405180830381600087803b158015610eaf57600080fd5b505af1925050508015610edf575060408051601f3d908101601f19168201909252610edc91810190611333565b60015b610eeb57610d366115e7565b6001600160e01b0319811663bc197c8160e01b14610c485760405162461bcd60e51b815260206004820152602860248201527f455243313135353a204552433131353552656365697665722072656a656374656044820152676420746f6b656e7360c01b6064820152608401610234565b80356001600160a01b0381168114610f7357600080fd5b919050565b600082601f830112610f8957600080fd5b81356020610f96826114e6565b604051610fa3828261155d565b8381528281019150858301600585901b87018401881015610fc357600080fd5b60005b85811015610fe257813584529284019290840190600101610fc6565b5090979650505050505050565b600082601f83011261100057600080fd5b813567ffffffffffffffff81111561101a5761101a6115d1565b604051611031601f8301601f19166020018261155d565b81815284602083860101111561104657600080fd5b816020850160208301376000918101602001919091529392505050565b6000806040838503121561107657600080fd5b61107f83610f5c565b915061108d60208401610f5c565b90509250929050565b600080600080600060a086880312156110ae57600080fd5b6110b786610f5c565b94506110c560208701610f5c565b9350604086013567ffffffffffffffff808211156110e257600080fd5b6110ee89838a01610f78565b9450606088013591508082111561110457600080fd5b61111089838a01610f78565b9350608088013591508082111561112657600080fd5b5061113388828901610fef565b9150509295509295909350565b600080600080600060a0868803121561115857600080fd5b61116186610f5c565b945061116f60208701610f5c565b93506040860135925060608601359150608086013567ffffffffffffffff81111561119957600080fd5b61113388828901610fef565b600080604083850312156111b857600080fd5b6111c183610f5c565b9150602083013580151581146111d657600080fd5b809150509250929050565b600080604083850312156111f457600080fd5b6111fd83610f5c565b946020939093013593505050565b60008060006060848603121561122057600080fd5b61122984610f5c565b95602085013595506040909401359392505050565b6000806040838503121561125157600080fd5b823567ffffffffffffffff8082111561126957600080fd5b818501915085601f83011261127d57600080fd5b8135602061128a826114e6565b604051611297828261155d565b8381528281019150858301600585901b870184018b10156112b757600080fd5b600096505b848710156112e1576112cd81610f5c565b8352600196909601959183019183016112bc565b50965050860135925050808211156112f857600080fd5b5061130585828601610f78565b9150509250929050565b60006020828403121561132157600080fd5b813561132c8161168d565b9392505050565b60006020828403121561134557600080fd5b815161132c8161168d565b60006020828403121561136257600080fd5b5035919050565b600081518084526020808501945080840160005b838110156113995781518752958201959082019060010161137d565b509495945050505050565b6000815180845260005b818110156113ca576020818501810151868301820152016113ae565b818111156113dc576000602083870101525b50601f01601f19169290920160200192915050565b60006001600160a01b03808816835280871660208401525060a0604083015261141d60a0830186611369565b828103606084015261142f8186611369565b9050828103608084015261144381856113a4565b98975050505050505050565b60006001600160a01b03808816835280871660208401525084604083015283606083015260a0608083015261148760a08301846113a4565b979650505050505050565b60208152600061132c6020830184611369565b6040815260006114b86040830185611369565b82810360208401526114ca8185611369565b95945050505050565b60208152600061132c60208301846113a4565b600067ffffffffffffffff821115611500576115006115d1565b5060051b60200190565b6000821982111561151d5761151d6115a5565b500190565b600181811c9082168061153657607f821691505b6020821081141561155757634e487b7160e01b600052602260045260246000fd5b50919050565b601f8201601f1916810167ffffffffffffffff81118282101715611583576115836115d1565b6040525050565b600060001982141561159e5761159e6115a5565b5060010190565b634e487b7160e01b600052601160045260246000fd5b634e487b7160e01b600052603260045260246000fd5b634e487b7160e01b600052604160045260246000fd5b600060033d11156116005760046000803e5060005160e01c5b90565b600060443d10156116115790565b6040516003193d81016004833e81513d67ffffffffffffffff816024840111818411171561164157505050505090565b82850191508151818111156116595750505050505090565b843d87010160208285010111156116735750505050505090565b6116826020828601018761155d565b509095945050505050565b6001600160e01b0319811681146116a357600080fd5b5056fea264697066735822122031895807a73da75f763b799529fb9ad996479b9efb10e3b3ff56c43923490b9264736f6c63430008060033",
  "immutableReferences": {},
  "source": "// SPDX-License-Identifier: UNLICENSED\npragma solidity ^0.8.0;\n\nimport \"@openzeppelin/contracts/token/ERC1155/ERC1155.sol\";\n\ncontract ERC1155Exposed is ERC1155 {\n    constructor() ERC1155(\"TEST\") {}\n\n    function mint(\n        address to,\n        uint256 id,\n        uint256 amount\n    ) public {\n        _mint(to, id, amount, \"\");\n    }\n}\n",
  "sourcePath": "/home/runner/work/karmaToken/karmaToken/contracts/exposed/ERC1155Exposed.sol",
  "compiler": {
    "name": "solc",
    "version": "0.8.6+commit.11564f7e.Linux.g++"
  },
  "schemaVersion": "3.4.7",
  "updatedAt": "2022-07-22T16:48:15.704Z",
  "devdoc": {
    "kind": "dev",
    "methods": {
      "balanceOf(address,uint256)": {
        "details": "See {IERC1155-balanceOf}. Requirements: - `account` cannot be the zero address."
      },
      "balanceOfBatch(address[],uint256[])": {
        "details": "See {IERC1155-balanceOfBatch}. Requirements: - `accounts` and `ids` must have the same length."
      },
      "isApprovedForAll(address,address)": {
        "details": "See {IERC1155-isApprovedForAll}."
      },
      "safeBatchTransferFrom(address,address,uint256[],uint256[],bytes)": {
        "details": "See {IERC1155-safeBatchTransferFrom}."
      },
      "safeTransferFrom(address,address,uint256,uint256,bytes)": {
        "details": "See {IERC1155-safeTransferFrom}."
      },
      "setApprovalForAll(address,bool)": {
        "details": "See {IERC1155-setApprovalForAll}."
      },
      "supportsInterface(bytes4)": {
        "details": "See {IERC165-supportsInterface}."
      },
      "uri(uint256)": {
        "details": "See {IERC1155MetadataURI-uri}. This implementation returns the same URI for *all* token types. It relies on the token type ID substitution mechanism https://eips.ethereum.org/EIPS/eip-1155#metadata[defined in the EIP]. Clients calling this function must replace the `\\{id\\}` substring with the actual token type ID."
      }
    },
    "version": 1
  },
  "userdoc": {
    "kind": "user",
    "methods": {},
    "version": 1
  }
}