{
  "contractName": "ERC721ReceiverExposed",
  "abi": [
    {
      "inputs": [
        {
          "internalType": "address",
          "name": "",
          "type": "address"
        },
        {
          "internalType": "address",
          "name": "",
          "type": "address"
        },
        {
          "internalType": "uint256",
          "name": "",
          "type": "uint256"
        },
        {
          "internalType": "bytes",
          "name": "data",
          "type": "bytes"
        }
      ],
      "name": "onERC721Received",
      "outputs": [
        {
          "internalType": "bytes4",
          "name": "retval",
          "type": "bytes4"
        }
      ],
      "stateMutability": "pure",
      "type": "function"
    }
  ],
  "bytecode": "0x608060405234801561001057600080fd5b50610297806100206000396000f3fe608060405234801561001057600080fd5b506004361061002b5760003560e01c8063150b7a0214610030575b600080fd5b61004361003e366004610106565b610078565b6040517fffffffff00000000000000000000000000000000000000000000000000000000909116815260200160405180910390f35b6000610083826101e2565b7fff0000000000000000000000000000000000000000000000000000000000000016156100b2575060006100d5565b507f150b7a02000000000000000000000000000000000000000000000000000000005b949350505050565b803573ffffffffffffffffffffffffffffffffffffffff8116811461010157600080fd5b919050565b6000806000806080858703121561011c57600080fd5b610125856100dd565b9350610133602086016100dd565b925060408501359150606085013567ffffffffffffffff8082111561015757600080fd5b818701915087601f83011261016b57600080fd5b81358181111561017d5761017d610232565b604051601f8201601f19908116603f011681019083821181831017156101a5576101a5610232565b816040528281528a60208487010111156101be57600080fd5b82602086016020830137600060208483010152809550505050505092959194509250565b6000815160208301517fff000000000000000000000000000000000000000000000000000000000000008082169350600183101561022a5780818460010360031b1b83161693505b505050919050565b7f4e487b7100000000000000000000000000000000000000000000000000000000600052604160045260246000fdfea2646970667358221220b96970792f9ecf7a02d62315e819e15ee288990a056a403bed0dbbb504194a4d64736f6c63430008060033",
  "immutableReferences": {},
  "source": "// SPDX-License-Identifier: UNLICENSED\npragma solidity ^0.8.0;\n\nimport \"@openzeppelin/contracts/token/ERC721/IERC721Receiver.sol\";\n\ncontract ERC721ReceiverExposed is IERC721Receiver {\n    function onERC721Received(\n        address,\n        address,\n        uint256,\n        bytes memory data\n    ) external pure override returns (bytes4 retval) {\n        if (bytes1(data) != 0) {\n            return 0;\n        }\n        return IERC721Receiver.onERC721Received.selector;\n    }\n}\n",
  "sourcePath": "/home/runner/work/karmaToken/karmaToken/contracts/exposed/ERC721ReceiverExposed.sol",
  "compiler": {
    "name": "solc",
    "version": "0.8.6+commit.11564f7e.Linux.g++"
  },
  "schemaVersion": "3.4.7",
  "updatedAt": "2022-07-15T13:44:05.618Z",
  "devdoc": {
    "kind": "dev",
    "methods": {},
    "version": 1
  },
  "userdoc": {
    "kind": "user",
    "methods": {},
    "version": 1
  }
}