{
  "contractName": "LBondManager",
  "abi": [
    {
      "inputs": [],
      "name": "supportedFormat",
      "outputs": [
        {
          "internalType": "uint8",
          "name": "",
          "type": "uint8"
        }
      ],
      "stateMutability": "pure",
      "type": "function"
    },
    {
      "inputs": [
        {
          "internalType": "bytes32",
          "name": "alp",
          "type": "bytes32"
        }
      ],
      "name": "readFormatAndFlag",
      "outputs": [
        {
          "internalType": "uint8",
          "name": "format",
          "type": "uint8"
        },
        {
          "internalType": "bool",
          "name": "flag",
          "type": "bool"
        }
      ],
      "stateMutability": "pure",
      "type": "function"
    },
    {
      "inputs": [
        {
          "internalType": "bytes32",
          "name": "alp",
          "type": "bytes32"
        }
      ],
      "name": "readCouponSize",
      "outputs": [
        {
          "internalType": "uint256",
          "name": "couponSize",
          "type": "uint256"
        }
      ],
      "stateMutability": "pure",
      "type": "function"
    },
    {
      "inputs": [
        {
          "internalType": "bytes32",
          "name": "alp",
          "type": "bytes32"
        }
      ],
      "name": "readPeriodData",
      "outputs": [
        {
          "internalType": "uint16",
          "name": "nPeriods",
          "type": "uint16"
        },
        {
          "internalType": "uint16",
          "name": "curPeriod",
          "type": "uint16"
        }
      ],
      "stateMutability": "pure",
      "type": "function"
    },
    {
      "inputs": [
        {
          "internalType": "bytes32",
          "name": "alp",
          "type": "bytes32"
        }
      ],
      "name": "readCurrency",
      "outputs": [
        {
          "internalType": "uint32",
          "name": "currency",
          "type": "uint32"
        }
      ],
      "stateMutability": "pure",
      "type": "function"
    },
    {
      "inputs": [
        {
          "internalType": "bytes32",
          "name": "alp",
          "type": "bytes32"
        }
      ],
      "name": "readBeneficiary",
      "outputs": [
        {
          "internalType": "address",
          "name": "beneficiary",
          "type": "address"
        }
      ],
      "stateMutability": "pure",
      "type": "function"
    },
    {
      "inputs": [
        {
          "internalType": "bytes32",
          "name": "bet",
          "type": "bytes32"
        }
      ],
      "name": "readFaceValue",
      "outputs": [
        {
          "internalType": "uint256",
          "name": "faceValue",
          "type": "uint256"
        }
      ],
      "stateMutability": "pure",
      "type": "function"
    },
    {
      "inputs": [
        {
          "internalType": "bytes32",
          "name": "bet",
          "type": "bytes32"
        }
      ],
      "name": "readStartTime",
      "outputs": [
        {
          "internalType": "uint64",
          "name": "startTime",
          "type": "uint64"
        }
      ],
      "stateMutability": "pure",
      "type": "function"
    },
    {
      "inputs": [
        {
          "internalType": "bytes32",
          "name": "bet",
          "type": "bytes32"
        }
      ],
      "name": "readPeriodDuration",
      "outputs": [
        {
          "internalType": "uint64",
          "name": "periodDuration",
          "type": "uint64"
        }
      ],
      "stateMutability": "pure",
      "type": "function"
    },
    {
      "inputs": [
        {
          "internalType": "bytes32",
          "name": "bet",
          "type": "bytes32"
        }
      ],
      "name": "readMinter",
      "outputs": [
        {
          "internalType": "address",
          "name": "minter",
          "type": "address"
        }
      ],
      "stateMutability": "pure",
      "type": "function"
    },
    {
      "inputs": [
        {
          "internalType": "bytes32",
          "name": "alp",
          "type": "bytes32"
        },
        {
          "internalType": "bool",
          "name": "flag",
          "type": "bool"
        }
      ],
      "name": "writeFlag",
      "outputs": [
        {
          "internalType": "bytes32",
          "name": "",
          "type": "bytes32"
        }
      ],
      "stateMutability": "pure",
      "type": "function"
    },
    {
      "inputs": [
        {
          "internalType": "bytes32",
          "name": "alp",
          "type": "bytes32"
        },
        {
          "internalType": "uint16",
          "name": "curPeriod",
          "type": "uint16"
        }
      ],
      "name": "writeCurPeriod",
      "outputs": [
        {
          "internalType": "bytes32",
          "name": "",
          "type": "bytes32"
        }
      ],
      "stateMutability": "pure",
      "type": "function"
    },
    {
      "inputs": [
        {
          "internalType": "bytes32",
          "name": "alp",
          "type": "bytes32"
        },
        {
          "internalType": "address",
          "name": "beneficiary",
          "type": "address"
        }
      ],
      "name": "writeBeneficiary",
      "outputs": [
        {
          "internalType": "bytes32",
          "name": "",
          "type": "bytes32"
        }
      ],
      "stateMutability": "pure",
      "type": "function"
    },
    {
      "inputs": [
        {
          "internalType": "bytes32",
          "name": "alp",
          "type": "bytes32"
        },
        {
          "components": [
            {
              "internalType": "bool",
              "name": "flag",
              "type": "bool"
            },
            {
              "internalType": "uint32",
              "name": "currencyRef",
              "type": "uint32"
            },
            {
              "internalType": "uint16",
              "name": "nPeriods",
              "type": "uint16"
            },
            {
              "internalType": "uint16",
              "name": "curPeriod",
              "type": "uint16"
            },
            {
              "internalType": "uint64",
              "name": "startTime",
              "type": "uint64"
            },
            {
              "internalType": "uint64",
              "name": "periodDuration",
              "type": "uint64"
            },
            {
              "internalType": "uint256",
              "name": "couponSize",
              "type": "uint256"
            },
            {
              "internalType": "uint256",
              "name": "faceValue",
              "type": "uint256"
            },
            {
              "internalType": "address",
              "name": "beneficiary",
              "type": "address"
            },
            {
              "internalType": "address",
              "name": "minter",
              "type": "address"
            }
          ],
          "internalType": "struct Bond",
          "name": "b",
          "type": "tuple"
        }
      ],
      "name": "fillBondFromAlpha",
      "outputs": [
        {
          "components": [
            {
              "internalType": "bool",
              "name": "flag",
              "type": "bool"
            },
            {
              "internalType": "uint32",
              "name": "currencyRef",
              "type": "uint32"
            },
            {
              "internalType": "uint16",
              "name": "nPeriods",
              "type": "uint16"
            },
            {
              "internalType": "uint16",
              "name": "curPeriod",
              "type": "uint16"
            },
            {
              "internalType": "uint64",
              "name": "startTime",
              "type": "uint64"
            },
            {
              "internalType": "uint64",
              "name": "periodDuration",
              "type": "uint64"
            },
            {
              "internalType": "uint256",
              "name": "couponSize",
              "type": "uint256"
            },
            {
              "internalType": "uint256",
              "name": "faceValue",
              "type": "uint256"
            },
            {
              "internalType": "address",
              "name": "beneficiary",
              "type": "address"
            },
            {
              "internalType": "address",
              "name": "minter",
              "type": "address"
            }
          ],
          "internalType": "struct Bond",
          "name": "",
          "type": "tuple"
        }
      ],
      "stateMutability": "pure",
      "type": "function"
    },
    {
      "inputs": [
        {
          "internalType": "bytes32",
          "name": "bet",
          "type": "bytes32"
        },
        {
          "components": [
            {
              "internalType": "bool",
              "name": "flag",
              "type": "bool"
            },
            {
              "internalType": "uint32",
              "name": "currencyRef",
              "type": "uint32"
            },
            {
              "internalType": "uint16",
              "name": "nPeriods",
              "type": "uint16"
            },
            {
              "internalType": "uint16",
              "name": "curPeriod",
              "type": "uint16"
            },
            {
              "internalType": "uint64",
              "name": "startTime",
              "type": "uint64"
            },
            {
              "internalType": "uint64",
              "name": "periodDuration",
              "type": "uint64"
            },
            {
              "internalType": "uint256",
              "name": "couponSize",
              "type": "uint256"
            },
            {
              "internalType": "uint256",
              "name": "faceValue",
              "type": "uint256"
            },
            {
              "internalType": "address",
              "name": "beneficiary",
              "type": "address"
            },
            {
              "internalType": "address",
              "name": "minter",
              "type": "address"
            }
          ],
          "internalType": "struct Bond",
          "name": "b",
          "type": "tuple"
        }
      ],
      "name": "fillBondFromBeta",
      "outputs": [
        {
          "components": [
            {
              "internalType": "bool",
              "name": "flag",
              "type": "bool"
            },
            {
              "internalType": "uint32",
              "name": "currencyRef",
              "type": "uint32"
            },
            {
              "internalType": "uint16",
              "name": "nPeriods",
              "type": "uint16"
            },
            {
              "internalType": "uint16",
              "name": "curPeriod",
              "type": "uint16"
            },
            {
              "internalType": "uint64",
              "name": "startTime",
              "type": "uint64"
            },
            {
              "internalType": "uint64",
              "name": "periodDuration",
              "type": "uint64"
            },
            {
              "internalType": "uint256",
              "name": "couponSize",
              "type": "uint256"
            },
            {
              "internalType": "uint256",
              "name": "faceValue",
              "type": "uint256"
            },
            {
              "internalType": "address",
              "name": "beneficiary",
              "type": "address"
            },
            {
              "internalType": "address",
              "name": "minter",
              "type": "address"
            }
          ],
          "internalType": "struct Bond",
          "name": "",
          "type": "tuple"
        }
      ],
      "stateMutability": "pure",
      "type": "function"
    },
    {
      "inputs": [
        {
          "internalType": "bytes32",
          "name": "alp",
          "type": "bytes32"
        },
        {
          "internalType": "bytes32",
          "name": "bet",
          "type": "bytes32"
        }
      ],
      "name": "readBond",
      "outputs": [
        {
          "components": [
            {
              "internalType": "bool",
              "name": "flag",
              "type": "bool"
            },
            {
              "internalType": "uint32",
              "name": "currencyRef",
              "type": "uint32"
            },
            {
              "internalType": "uint16",
              "name": "nPeriods",
              "type": "uint16"
            },
            {
              "internalType": "uint16",
              "name": "curPeriod",
              "type": "uint16"
            },
            {
              "internalType": "uint64",
              "name": "startTime",
              "type": "uint64"
            },
            {
              "internalType": "uint64",
              "name": "periodDuration",
              "type": "uint64"
            },
            {
              "internalType": "uint256",
              "name": "couponSize",
              "type": "uint256"
            },
            {
              "internalType": "uint256",
              "name": "faceValue",
              "type": "uint256"
            },
            {
              "internalType": "address",
              "name": "beneficiary",
              "type": "address"
            },
            {
              "internalType": "address",
              "name": "minter",
              "type": "address"
            }
          ],
          "internalType": "struct Bond",
          "name": "b",
          "type": "tuple"
        }
      ],
      "stateMutability": "pure",
      "type": "function"
    },
    {
      "inputs": [
        {
          "internalType": "bool",
          "name": "flag",
          "type": "bool"
        },
        {
          "internalType": "uint256",
          "name": "couponSize",
          "type": "uint256"
        },
        {
          "internalType": "uint16",
          "name": "nPeriods",
          "type": "uint16"
        },
        {
          "internalType": "uint16",
          "name": "curPeriod",
          "type": "uint16"
        },
        {
          "internalType": "uint32",
          "name": "currencyRef",
          "type": "uint32"
        },
        {
          "internalType": "address",
          "name": "beneficiary",
          "type": "address"
        }
      ],
      "name": "buildAlpha",
      "outputs": [
        {
          "internalType": "bytes32",
          "name": "alp",
          "type": "bytes32"
        }
      ],
      "stateMutability": "pure",
      "type": "function"
    },
    {
      "inputs": [
        {
          "internalType": "uint256",
          "name": "faceValue",
          "type": "uint256"
        },
        {
          "internalType": "uint64",
          "name": "startTime",
          "type": "uint64"
        },
        {
          "internalType": "uint64",
          "name": "periodDuration",
          "type": "uint64"
        },
        {
          "internalType": "address",
          "name": "minter",
          "type": "address"
        }
      ],
      "name": "buildBeta",
      "outputs": [
        {
          "internalType": "bytes32",
          "name": "bet",
          "type": "bytes32"
        }
      ],
      "stateMutability": "pure",
      "type": "function"
    },
    {
      "inputs": [
        {
          "components": [
            {
              "internalType": "bool",
              "name": "flag",
              "type": "bool"
            },
            {
              "internalType": "uint32",
              "name": "currencyRef",
              "type": "uint32"
            },
            {
              "internalType": "uint16",
              "name": "nPeriods",
              "type": "uint16"
            },
            {
              "internalType": "uint16",
              "name": "curPeriod",
              "type": "uint16"
            },
            {
              "internalType": "uint64",
              "name": "startTime",
              "type": "uint64"
            },
            {
              "internalType": "uint64",
              "name": "periodDuration",
              "type": "uint64"
            },
            {
              "internalType": "uint256",
              "name": "couponSize",
              "type": "uint256"
            },
            {
              "internalType": "uint256",
              "name": "faceValue",
              "type": "uint256"
            },
            {
              "internalType": "address",
              "name": "beneficiary",
              "type": "address"
            },
            {
              "internalType": "address",
              "name": "minter",
              "type": "address"
            }
          ],
          "internalType": "struct Bond",
          "name": "b",
          "type": "tuple"
        }
      ],
      "name": "buildBondBytes",
      "outputs": [
        {
          "internalType": "bytes32",
          "name": "alp",
          "type": "bytes32"
        },
        {
          "internalType": "bytes32",
          "name": "bet",
          "type": "bytes32"
        }
      ],
      "stateMutability": "pure",
      "type": "function"
    }
  ],
  "bytecode": "0x61139c61003a600b82828239805160001a60731461002d57634e487b7160e01b600052600060045260246000fd5b30600052607381538281f3fe730000000000000000000000000000000000000000301460806040526004361061015b5760003560e01c8063836c4e33116100d7578063b437f2941161008b578063d07f832811610070578063d07f83281461036a578063f5e7e297146103bf578063f9a8c4ec146103e757600080fd5b8063b437f29414610357578063b7808add1461021e57600080fd5b806391fc35fd116100bc57806391fc35fd146102d85780639ac8c3cb14610318578063a1ea0e6a1461032b57600080fd5b8063836c4e33146102a557806388bc65c4146102c557600080fd5b8063511e6fbd1161012e578063746386ef11610113578063746386ef1461026c5780637651658e1461027f57806383244ba41461029257600080fd5b8063511e6fbd1461021e578063733d30fd1461025057600080fd5b8063140ca80b146101605780631a8cf2ff146101865780632a15e478146101b457806336d7bc70146101e0575b600080fd5b61017361016e366004610f43565b6103f6565b6040519081526020015b60405180910390f35b61019f610194366004610f43565b60a01c62ffffff1690565b60405163ffffffff909116815260200161017d565b6101c76101c2366004610f43565b610471565b60405167ffffffffffffffff909116815260200161017d565b6102036101ee366004610f43565b61ffff60c882901c81169260b89290921c1690565b6040805161ffff93841681529290911660208301520161017d565b61023861022c366004610f43565b6001600160a01b031690565b6040516001600160a01b03909116815260200161017d565b6101c761025e366004610f43565b60b01c65ffffffffffff1690565b61017361027a366004610f43565b6104d2565b61017361028d366004610ed6565b61053a565b6101736102a0366004610f88565b6107da565b6102b86102b3366004610fcd565b610840565b60405161017d9190611184565b6102b86102d3366004610fab565b6108eb565b6101736102e6366004610f5c565b6001600160a01b03167fffffffffffffffffffffffff0000000000000000000000000000000000000000919091161790565b610173610326366004611101565b610959565b61033e610339366004610f43565b610c91565b6040805160ff909316835290151560208301520161017d565b6102b8610365366004610fcd565b610cfa565b6101736103783660046110aa565b60b81b78ffff0000000000000000000000000000000000000000000000167fffffffffffffff0000ffffffffffffffffffffffffffffffffffffffffffffff919091161790565b6103d26103cd3660046110cd565b610d99565b6040805192835260208301919091520161017d565b6040516000815260200161017d565b633fffffff60d882901c16600882901b600360f684901c16600181141561042c57610425633b9aca00846112c7565b925061046a565b8060ff16600214156104495761042566038d7ea4c68000846112c7565b8060ff166003141561046a57610467670de0b6b3a7640000846112c7565b92505b5050919050565b613fff60a082901c16605082901b600360ae84901c16600181141561049e5761049b603c846112e6565b92505b8060ff16600214156104b9576104b6610e10846112e6565b92505b8060ff166003141561046a5761046762015180846112e6565b633fffffff60e082901c168160fe81901c60018114156104fd576104fa633b9aca00846112c7565b92505b8060ff16600214156104495761051a66038d7ea4c68000846112c7565b92508060ff166003141561046a57610467670de0b6b3a7640000846112c7565b6000808761054957600061054c565b60015b905060008769e35fa931a000000000008111156105805760039150610579670de0b6b3a76400008a61128c565b90506105c6565b670ee6b280000000008911156105a5576002915061057966038d7ea4c680008a61128c565b63400000008911156105c657600191506105c3633b9aca008a61128c565b90505b63400000008163ffffffff161061064a5760405162461bcd60e51b815260206004820152602c60248201527f4c426f6e644d616e616765723a20636f75706f6e53697a6520746f6f206c617260448201527f676520746f20656e636f6465000000000000000000000000000000000000000060648201526084015b60405180910390fd5b673fffffffc0000000601e83901b1617630100000063ffffffff8716106106d95760405162461bcd60e51b815260206004820152602d60248201527f4c426f6e644d616e616765723a2063757272656e637952656620746f6f206c6160448201527f72676520746f20656e636f6465000000000000000000000000000000000000006064820152608401610641565b604080517fff0000000000000000000000000000000000000000000000000000000000000060f886901b1660208201527fffffffff0000000000000000000000000000000000000000000000000000000060e084901b1660218201527fffff00000000000000000000000000000000000000000000000000000000000060f08b811b821660258401528a901b1660278201527fffffff000000000000000000000000000000000000000000000000000000000060e889901b1660298201526bffffffffffffffffffffffff19606088901b16602c8201528791016040516020818303038152906040526107cb90611316565b9b9a5050505050505050505050565b7ffeffffffffffffffffffffffffffffffffffffffffffffffffffffffffffffff919091169060008161080e576000610811565b60015b60f81b7effffffffffffffffffffffffffffffffffffffffffffffffffffffffffffff19168317905092915050565b6040805161014081018252600080825260208201819052918101829052606081018290526080810182905260a0810182905260c0810182905260e08101829052610100810182905261012081019190915261089a83610c91565b15158352506108a8836103f6565b60c08301525061ffff60b883901c8116606083015260c883901c16604082015260a082901c62ffffff1660208201526001600160a01b0390911661010082015290565b6040805161014081018252600080825260208201819052918101829052606081018290526080810182905260a0810182905260c0810182905260e0810182905261010081018290526101208101919091526109468382610840565b90506109528282610cfa565b9392505050565b60008085634000000081111561097e576001915061097b633b9aca008861128c565b90505b670ee6b280000000008711156109a657600291506109a366038d7ea4c680008861128c565b90505b69e35fa931a000000000008711156109d157600391506109ce670de0b6b3a76400008861128c565b90505b63400000008163ffffffff1610610a3e5760405162461bcd60e51b815260206004820152602b60248201527f4c426f6e644d616e616765723a206661636556616c756520746f6f206c61726760448201526a6520746f20656e636f646560a81b6064820152608401610641565b673fffffffc0000000601e83901b161785660100000000000067ffffffffffffffff821610610ac35760405162461bcd60e51b815260206004820152602b60248201527f4c426f6e644d616e616765723a20737461727454696d6520746f6f206c61726760448201526a6520746f20656e636f646560a81b6064820152608401610641565b60008661400067ffffffffffffffff82161115610aec5760019150610ae9603c896112a0565b90505b620f00008867ffffffffffffffff161115610b145760029150610b11610e10896112a0565b90505b63038400008867ffffffffffffffff161115610b3e5760039150610b3b62015180896112a0565b90505b6140008161ffff1610610bb95760405162461bcd60e51b815260206004820152603060248201527f4c426f6e644d616e616765723a20706572696f644475726174696f6e20746f6f60448201527f206c6172676520746f20656e636f6465000000000000000000000000000000006064820152608401610641565b6040805160e086901b7fffffffff0000000000000000000000000000000000000000000000000000000016602082015260d085901b7fffffffffffff0000000000000000000000000000000000000000000000000000166024820152600e84901b633fffc000169290921760f081901b7fffff00000000000000000000000000000000000000000000000000000000000016602a840152606089901b6bffffffffffffffffffffffff1916602c8401529101604051602081830303815290604052610c8390611316565b9a9950505050505050505050565b60f981901c6000828215610ce75760405162461bcd60e51b815260206004820152601b60248201527f4c6962726172793a20756e737570706f7274656420666f726d617400000000006044820152606401610641565b919360f89290921c600190811614925050565b6040805161014081018252600080825260208201819052918101829052606081018290526080810182905260a0810182905260c0810182905260e081018290526101008101829052610120810191909152610d54836104d2565b60e083015265ffffffffffff60b084901c166080830152610d7483610471565b67ffffffffffffffff1660a0830152506001600160a01b039190911661012082015290565b600080610df3610dac6020850185610ebb565b60c0850135610dc160608701604088016110e6565b610dd160808801606089016110e6565b610de16040890160208a0161114e565b61028d6101208a016101008b01610ea0565b9150610e2f60e0840135610e0d60a0860160808701611169565b610e1d60c0870160a08801611169565b61032661014088016101208901610ea0565b9050915091565b80356001600160a01b0381168114610e4d57600080fd5b919050565b80358015158114610e4d57600080fd5b803561ffff81168114610e4d57600080fd5b803563ffffffff81168114610e4d57600080fd5b803567ffffffffffffffff81168114610e4d57600080fd5b600060208284031215610eb257600080fd5b61095282610e36565b600060208284031215610ecd57600080fd5b61095282610e52565b60008060008060008060c08789031215610eef57600080fd5b610ef887610e52565b955060208701359450610f0d60408801610e62565b9350610f1b60608801610e62565b9250610f2960808801610e74565b9150610f3760a08801610e36565b90509295509295509295565b600060208284031215610f5557600080fd5b5035919050565b60008060408385031215610f6f57600080fd5b82359150610f7f60208401610e36565b90509250929050565b60008060408385031215610f9b57600080fd5b82359150610f7f60208401610e52565b60008060408385031215610fbe57600080fd5b50508035926020909101359150565b600080828403610160811215610fe257600080fd5b8335925061014080601f1983011215610ffa57600080fd5b611002611254565b915061101060208601610e52565b825261101e60408601610e74565b602083015261102f60608601610e62565b604083015261104060808601610e62565b606083015261105160a08601610e88565b608083015261106260c08601610e88565b60a083015260e085013560c08301526101008086013560e084015261012061108b818801610e36565b8285015261109a838801610e36565b9084015250929590945092505050565b600080604083850312156110bd57600080fd5b82359150610f7f60208401610e62565b600061014082840312156110e057600080fd5b50919050565b6000602082840312156110f857600080fd5b61095282610e62565b6000806000806080858703121561111757600080fd5b8435935061112760208601610e88565b925061113560408601610e88565b915061114360608601610e36565b905092959194509250565b60006020828403121561116057600080fd5b61095282610e74565b60006020828403121561117b57600080fd5b61095282610e88565b815115158152610140810160208301516111a6602084018263ffffffff169052565b5060408301516111bc604084018261ffff169052565b5060608301516111d2606084018261ffff169052565b5060808301516111ee608084018267ffffffffffffffff169052565b5060a083015161120a60a084018267ffffffffffffffff169052565b5060c083015160c083015260e083015160e08301526101008084015161123a828501826001600160a01b03169052565b5050610120928301516001600160a01b0316919092015290565b604051610140810167ffffffffffffffff8111828210171561128657634e487b7160e01b600052604160045260246000fd5b60405290565b60008261129b5761129b611350565b500490565b600067ffffffffffffffff808416806112bb576112bb611350565b92169190910492915050565b60008160001904831182151516156112e1576112e161133a565b500290565b600067ffffffffffffffff8083168185168183048111821515161561130d5761130d61133a565b02949350505050565b805160208083015191908110156110e05760001960209190910360031b1b16919050565b634e487b7160e01b600052601160045260246000fd5b634e487b7160e01b600052601260045260246000fdfea264697066735822122015cf296454d7b63193d205f64df5125cf39a7a849c36c3c9f2fc58cc92d3c27664736f6c63430008060033",
  "immutableReferences": {},
  "source": "// SPDX-License-Identifier: UNLICENSED\npragma solidity ^0.8.0;\n\nstruct Bond {\n    bool flag;\n    uint32 currencyRef;\n    uint16 nPeriods;\n    uint16 curPeriod;\n    uint64 startTime;\n    uint64 periodDuration;\n    uint256 couponSize;\n    uint256 faceValue;\n    address beneficiary;\n    address minter;\n}\n\n/**\n * @title  Library containing utils for reading and writing bonds\n * @notice Bonds are bit-compressed in storage -- must be read by\n * this library\n */\nlibrary LBondManager {\n    /**\n     * @dev describes the 7-bit format id that LBondManager accepts\n     */\n    function supportedFormat() public pure returns (uint8) {\n        return 0;\n    }\n\n    /* ###################\n     *    READING DATA\n     * ################### */\n\n    // READING ALPHA SLOT\n\n    function readFormatAndFlag(bytes32 alp)\n        public\n        pure\n        returns (uint8 format, bool flag)\n    {\n        // read format + flag (8 bits)\n        bytes1 packedFormatFlag = bytes1(alp);\n        format = uint8(packedFormatFlag >> 1); // get first 7 bits\n        require(format == supportedFormat(), \"Library: unsupported format\");\n        flag = uint8(packedFormatFlag & 0x01) == 1; // get last bit\n    }\n\n    function readCouponSize(bytes32 alp)\n        public\n        pure\n        returns (uint256 couponSize)\n    {\n        // read mult + coupon size (32 bits)\n        bytes4 couponData = bytes4(alp << 8); // skip 8 bits, get 32 bits\n        uint8 couponMult = uint8(bytes1(couponData)) >> 6; // get first 2 bits\n        couponSize = uint32(couponData) & 0x3FFFFFFF;\n        if (couponMult == 1) couponSize *= 1 gwei;\n        else if (couponMult == 2) couponSize *= 1 ether / 1000;\n        else if (couponMult == 3) couponSize *= 1 ether;\n    }\n\n    function readPeriodData(bytes32 alp)\n        public\n        pure\n        returns (uint16 nPeriods, uint16 curPeriod)\n    {\n        // read nPeriods (16 bits)\n        nPeriods = uint16(bytes2(alp << (8 + 32)));\n        // read curPeriod (16 bits)\n        curPeriod = uint16(bytes2(alp << (8 + 32 + 16)));\n    }\n\n    function readCurrency(bytes32 alp) public pure returns (uint32 currency) {\n        // read currency (24 bits)\n        return uint32(bytes4(bytes3(alp << (8 + 32 + 16 + 16))) >> 8);\n    }\n\n    function readBeneficiary(bytes32 alp)\n        public\n        pure\n        returns (address beneficiary)\n    {\n        // read beneficiary (160 bits, 20 bytes)\n        return address(bytes20(alp << (8 + 32 + 16 + 16 + 24)));\n    }\n\n    // READING BETA SLOT\n\n    function readFaceValue(bytes32 bet)\n        public\n        pure\n        returns (uint256 faceValue)\n    {\n        // read face value (32 bits, 4 bytes)\n        bytes4 valueData = bytes4(bet);\n        uint8 valueMult = uint8(bytes1(bet)) >> 6; // get first two bits\n        faceValue = uint32(valueData) & 0x3FFFFFFF; // clear first two bits\n        if (valueMult == 1) faceValue *= 1 gwei;\n        if (valueMult == 2) faceValue *= 1 ether / 1000;\n        if (valueMult == 3) faceValue *= 1 ether;\n    }\n\n    function readStartTime(bytes32 bet) public pure returns (uint64 startTime) {\n        // read start time (48 bits, 6 bytes)\n        return uint64(bytes8(bytes6(bet << (32))) >> 16); // skip face value 32 bits\n    }\n\n    function readPeriodDuration(bytes32 bet)\n        public\n        pure\n        returns (uint64 periodDuration)\n    {\n        // read period duration (16 bits, 2 bytes)\n        // 2 bits for multiplier\n        bytes2 durationData = bytes2(bet << (32 + 48)); // skip face value and start time\n        uint8 durationMult = uint8(bytes1(durationData)) >> 6; // get first two bits\n        periodDuration = uint16(durationData) & 0x3FFF; // clear first two bits\n        if (durationMult == 1) periodDuration *= 60; // in minutes?\n        if (durationMult == 2) periodDuration *= 60 * 60; // in hours?\n        if (durationMult == 3) periodDuration *= 60 * 60 * 24; // in days?\n    }\n\n    function readMinter(bytes32 bet) public pure returns (address minter) {\n        return address(bytes20(bet << (32 + 48 + 16)));\n    }\n\n    /* ###################\n     *    WRITING DATA\n     * ################### */\n\n    // WRITING ALPHA SLOT\n\n    function writeFlag(bytes32 alp, bool flag) public pure returns (bytes32) {\n        alp &= 0xFEFFFFFFFFFFFFFFFFFFFFFFFFFFFFFFFFFFFFFFFFFFFFFFFFFFFFFFFFFFFFFF; // clear flag bit\n        return alp | bytes32(bytes1(flag ? 1 : 0));\n    }\n\n    function writeCurPeriod(bytes32 alp, uint16 curPeriod)\n        public\n        pure\n        returns (bytes32)\n    {\n        alp &= 0xFFFFFFFFFFFFFF0000FFFFFFFFFFFFFFFFFFFFFFFFFFFFFFFFFFFFFFFFFFFFFF;\n        return alp | (bytes32(bytes2(curPeriod)) >> (8 + 32 + 16));\n    }\n\n    function writeBeneficiary(bytes32 alp, address beneficiary)\n        public\n        pure\n        returns (bytes32)\n    {\n        alp &= 0xFFFFFFFFFFFFFFFFFFFFFFFF0000000000000000000000000000000000000000;\n        return alp | (bytes32(bytes20(beneficiary)) >> (8 + 32 + 16 + 16 + 24));\n    }\n\n    // NO DATA-SPECIFIC WRITING NEEDS TO HAPPEN IN BETA SLOT\n\n    /* ###################\n     *    Generic Reads + Writes\n     * ################### */\n\n    function fillBondFromAlpha(bytes32 alp, Bond memory b)\n        public\n        pure\n        returns (Bond memory)\n    {\n        (, b.flag) = readFormatAndFlag(alp);\n        b.couponSize = readCouponSize(alp);\n        (b.nPeriods, b.curPeriod) = readPeriodData(alp);\n        b.currencyRef = readCurrency(alp);\n        b.beneficiary = readBeneficiary(alp);\n        return b;\n    }\n\n    function fillBondFromBeta(bytes32 bet, Bond memory b)\n        public\n        pure\n        returns (Bond memory)\n    {\n        b.faceValue = readFaceValue(bet);\n        b.startTime = readStartTime(bet);\n        b.periodDuration = readPeriodDuration(bet);\n        b.minter = readMinter(bet);\n        return b;\n    }\n\n    /**\n     * @notice Read full bond from given alpha and beta parts\n     * @param alp Alpha part of the bond data\n     * @param bet Beta part of the bond data\n     */\n    function readBond(bytes32 alp, bytes32 bet)\n        public\n        pure\n        returns (Bond memory b)\n    {\n        b = fillBondFromAlpha(alp, b);\n        b = fillBondFromBeta(bet, b);\n    }\n\n    /**\n     * @notice Build bond alpha bytes from parts\n     * @param flag Boolean describing if bond is defaulted\n     * (usually starts as false)\n     * @param couponSize Amount to pay each period\n     * @param nPeriods Number of periods until completion\n     * @param curPeriod Current period of the bond (usually\n     * starts at 0)\n     * @param currencyRef Id of currency to expect payments\n     * to be made in\n     * @param beneficiary Account address of recipient of all\n     * payments\n     * @return alp Alpha bytes32 used to represent the first\n     * part of the bond\n     * @dev Note that setting curPeriod to something greater\n     * than nPeriods means bond will be immediately interpreted\n     * as 'completed'.\n     * @dev Some fields may be encoded with smaller resolution\n     * than may be apparent to decrease storage space -- these\n     * include: couponSize\n     */\n    function buildAlpha(\n        bool flag,\n        uint256 couponSize,\n        uint16 nPeriods,\n        uint16 curPeriod,\n        uint32 currencyRef,\n        address beneficiary\n    ) public pure returns (bytes32 alp) {\n        uint8 flagNFormat = flag ? 1 : 0;\n\n        uint32 couponSizeMult = 0;\n        uint32 couponSizeEnc = uint32(couponSize);\n        if (couponSize > (1 ether * 2**30) / 1000) {\n            couponSizeMult = 3;\n            couponSizeEnc = uint32(couponSize / 1 ether);\n        } else if (couponSize > 1 gwei * 2**30) {\n            couponSizeMult = 2;\n            couponSizeEnc = uint32(couponSize / (1 ether / 1000));\n        } else if (couponSize > 2**30) {\n            couponSizeMult = 1;\n            couponSizeEnc = uint32(couponSize / 1 gwei);\n        }\n        require(\n            couponSizeEnc < 2**30,\n            \"LBondManager: couponSize too large to encode\"\n        );\n        couponSizeEnc = (couponSizeEnc) | (couponSizeMult << 30);\n\n        require(\n            currencyRef < 2**24,\n            \"LBondManager: currencyRef too large to encode\"\n        );\n        uint24 currencyRefEnc = uint24(currencyRef);\n\n        return\n            bytes32(\n                abi.encodePacked(\n                    flagNFormat,\n                    couponSizeEnc,\n                    nPeriods,\n                    curPeriod,\n                    currencyRefEnc,\n                    beneficiary\n                )\n            );\n    }\n\n    /**\n     * @notice BUild bond beta bytes from parts\n     * @param faceValue Amount to pay at end of bond\n     * @param startTime Time this bond begins at, in\n     * seconds since 1970\n     * @param periodDuration How long between each period of\n     * the bond, in seconds\n     * @param minter Account address of the bond creator\n     * @dev Some fields may be encoded with smaller resolution\n     * than may be apparent to decrease storage space -- these\n     * include: faceValue and periodDuration\n     */\n    function buildBeta(\n        uint256 faceValue,\n        uint64 startTime,\n        uint64 periodDuration,\n        address minter\n    ) public pure returns (bytes32 bet) {\n        uint32 faceValueMult = 0;\n        uint32 faceValueEnc = uint32(faceValue);\n        if (faceValue > 2**30) {\n            faceValueMult = 1;\n            faceValueEnc = uint32(faceValue / 1 gwei);\n        }\n        if (faceValue > 1 gwei * 2**30) {\n            faceValueMult = 2;\n            faceValueEnc = uint32(faceValue / (1 ether / 1000));\n        }\n        if (faceValue > (1 ether * 2**30) / 1000) {\n            faceValueMult = 3;\n            faceValueEnc = uint32(faceValue / 1 ether);\n        }\n        require(\n            faceValueEnc < 2**30,\n            \"LBondManager: faceValue too large to encode\"\n        );\n        faceValueEnc = (faceValueEnc) | (faceValueMult << 30);\n\n        uint48 startTimeEnc = uint48(startTime);\n        require(\n            startTime < 2**48,\n            \"LBondManager: startTime too large to encode\"\n        );\n\n        uint16 periodDurationMult = 0;\n        uint16 periodDurationEnc = uint16(periodDuration);\n        if (periodDuration > 2**14) {\n            periodDurationMult = 1;\n            periodDurationEnc = uint16(periodDuration / 60);\n        }\n        if (periodDuration > 60 * 2**14) {\n            periodDurationMult = 2;\n            periodDurationEnc = uint16(periodDuration / (60 * 60));\n        }\n        if (periodDuration > 60 * 60 * 2**14) {\n            periodDurationMult = 3;\n            periodDurationEnc = uint16(periodDuration / (60 * 60 * 24));\n        }\n        require(\n            periodDurationEnc < 2**14,\n            \"LBondManager: periodDuration too large to encode\"\n        );\n        periodDurationEnc = (periodDurationEnc) | (periodDurationMult << 14);\n\n        return\n            bytes32(\n                abi.encodePacked(\n                    faceValueEnc,\n                    startTimeEnc,\n                    periodDurationEnc,\n                    minter\n                )\n            );\n    }\n\n    function buildBondBytes(Bond calldata b)\n        external\n        pure\n        returns (bytes32 alp, bytes32 bet)\n    {\n        alp = buildAlpha(\n            b.flag,\n            b.couponSize,\n            b.nPeriods,\n            b.curPeriod,\n            b.currencyRef,\n            b.beneficiary\n        );\n        bet = buildBeta(b.faceValue, b.startTime, b.periodDuration, b.minter);\n    }\n}\n",
  "sourcePath": "/home/runner/work/karmaToken/karmaToken/contracts/LBondManager.sol",
  "compiler": {
    "name": "solc",
    "version": "0.8.6+commit.11564f7e.Linux.g++"
  },
  "schemaVersion": "3.4.7",
  "updatedAt": "2022-07-20T22:20:24.838Z",
  "devdoc": {
    "kind": "dev",
    "methods": {
      "buildAlpha(bool,uint256,uint16,uint16,uint32,address)": {
        "details": "Note that setting curPeriod to something greater than nPeriods means bond will be immediately interpreted as 'completed'.Some fields may be encoded with smaller resolution than may be apparent to decrease storage space -- these include: couponSize",
        "params": {
          "beneficiary": "Account address of recipient of all payments",
          "couponSize": "Amount to pay each period",
          "curPeriod": "Current period of the bond (usually starts at 0)",
          "currencyRef": "Id of currency to expect payments to be made in",
          "flag": "Boolean describing if bond is defaulted (usually starts as false)",
          "nPeriods": "Number of periods until completion"
        },
        "returns": {
          "alp": "Alpha bytes32 used to represent the first part of the bond"
        }
      },
      "buildBeta(uint256,uint64,uint64,address)": {
        "details": "Some fields may be encoded with smaller resolution than may be apparent to decrease storage space -- these include: faceValue and periodDuration",
        "params": {
          "faceValue": "Amount to pay at end of bond",
          "minter": "Account address of the bond creator",
          "periodDuration": "How long between each period of the bond, in seconds",
          "startTime": "Time this bond begins at, in seconds since 1970"
        }
      },
      "readBond(bytes32,bytes32)": {
        "params": {
          "alp": "Alpha part of the bond data",
          "bet": "Beta part of the bond data"
        }
      },
      "supportedFormat()": {
        "details": "describes the 7-bit format id that LBondManager accepts"
      }
    },
    "title": " Library containing utils for reading and writing bonds",
    "version": 1
  },
  "userdoc": {
    "kind": "user",
    "methods": {
      "buildAlpha(bool,uint256,uint16,uint16,uint32,address)": {
        "notice": "Build bond alpha bytes from parts"
      },
      "buildBeta(uint256,uint64,uint64,address)": {
        "notice": "BUild bond beta bytes from parts"
      },
      "readBond(bytes32,bytes32)": {
        "notice": "Read full bond from given alpha and beta parts"
      }
    },
    "notice": "Bonds are bit-compressed in storage -- must be read by this library",
    "version": 1
  }
}