{
  "contractName": "LifecycleManager",
  "abi": [
    {
      "inputs": [
        {
          "internalType": "string",
          "name": "name",
          "type": "string"
        },
        {
          "internalType": "string",
          "name": "symbol",
          "type": "string"
        },
        {
          "internalType": "string",
          "name": "uri",
          "type": "string"
        }
      ],
      "stateMutability": "nonpayable",
      "type": "constructor"
    },
    {
      "anonymous": false,
      "inputs": [
        {
          "indexed": true,
          "internalType": "address",
          "name": "owner",
          "type": "address"
        },
        {
          "indexed": true,
          "internalType": "address",
          "name": "approved",
          "type": "address"
        },
        {
          "indexed": true,
          "internalType": "uint256",
          "name": "tokenId",
          "type": "uint256"
        }
      ],
      "name": "Approval",
      "type": "event"
    },
    {
      "anonymous": false,
      "inputs": [
        {
          "indexed": true,
          "internalType": "address",
          "name": "owner",
          "type": "address"
        },
        {
          "indexed": true,
          "internalType": "address",
          "name": "operator",
          "type": "address"
        },
        {
          "indexed": false,
          "internalType": "bool",
          "name": "approved",
          "type": "bool"
        }
      ],
      "name": "ApprovalForAll",
      "type": "event"
    },
    {
      "anonymous": false,
      "inputs": [
        {
          "indexed": false,
          "internalType": "uint256",
          "name": "id",
          "type": "uint256"
        },
        {
          "indexed": false,
          "internalType": "address",
          "name": "beneficiary",
          "type": "address"
        }
      ],
      "name": "BeneficiaryChange",
      "type": "event"
    },
    {
      "anonymous": false,
      "inputs": [
        {
          "indexed": false,
          "internalType": "uint256",
          "name": "id",
          "type": "uint256"
        }
      ],
      "name": "BondCompleted",
      "type": "event"
    },
    {
      "anonymous": false,
      "inputs": [
        {
          "indexed": false,
          "internalType": "uint256",
          "name": "id",
          "type": "uint256"
        }
      ],
      "name": "BondDefaulted",
      "type": "event"
    },
    {
      "anonymous": false,
      "inputs": [
        {
          "indexed": false,
          "internalType": "uint256",
          "name": "id",
          "type": "uint256"
        },
        {
          "indexed": false,
          "internalType": "address",
          "name": "operator",
          "type": "address"
        },
        {
          "indexed": false,
          "internalType": "uint64",
          "name": "toPeriod",
          "type": "uint64"
        }
      ],
      "name": "BondServiced",
      "type": "event"
    },
    {
      "anonymous": false,
      "inputs": [
        {
          "indexed": false,
          "internalType": "uint256",
          "name": "id",
          "type": "uint256"
        },
        {
          "indexed": false,
          "internalType": "enum CurrencyType",
          "name": "currencyType",
          "type": "uint8"
        },
        {
          "indexed": false,
          "internalType": "address",
          "name": "location",
          "type": "address"
        },
        {
          "indexed": false,
          "internalType": "uint256",
          "name": "ERC1155Id",
          "type": "uint256"
        }
      ],
      "name": "CurrencyAdded",
      "type": "event"
    },
    {
      "anonymous": false,
      "inputs": [
        {
          "indexed": true,
          "internalType": "address",
          "name": "from",
          "type": "address"
        },
        {
          "indexed": true,
          "internalType": "address",
          "name": "to",
          "type": "address"
        },
        {
          "indexed": true,
          "internalType": "uint256",
          "name": "tokenId",
          "type": "uint256"
        }
      ],
      "name": "Transfer",
      "type": "event"
    },
    {
      "inputs": [
        {
          "internalType": "address",
          "name": "location",
          "type": "address"
        }
      ],
      "name": "addERC1155NFTCurrency",
      "outputs": [],
      "stateMutability": "payable",
      "type": "function"
    },
    {
      "inputs": [
        {
          "internalType": "address",
          "name": "location",
          "type": "address"
        },
        {
          "internalType": "uint256",
          "name": "tokenId",
          "type": "uint256"
        }
      ],
      "name": "addERC1155TokenCurrency",
      "outputs": [],
      "stateMutability": "payable",
      "type": "function"
    },
    {
      "inputs": [
        {
          "internalType": "address",
          "name": "location",
          "type": "address"
        }
      ],
      "name": "addERC20Currency",
      "outputs": [],
      "stateMutability": "payable",
      "type": "function"
    },
    {
      "inputs": [
        {
          "internalType": "address",
          "name": "location",
          "type": "address"
        }
      ],
      "name": "addERC721Currency",
      "outputs": [],
      "stateMutability": "payable",
      "type": "function"
    },
    {
      "inputs": [
        {
          "internalType": "address",
          "name": "to",
          "type": "address"
        },
        {
          "internalType": "uint256",
          "name": "tokenId",
          "type": "uint256"
        }
      ],
      "name": "approve",
      "outputs": [],
      "stateMutability": "nonpayable",
      "type": "function"
    },
    {
      "inputs": [
        {
          "internalType": "address",
          "name": "owner",
          "type": "address"
        }
      ],
      "name": "balanceOf",
      "outputs": [
        {
          "internalType": "uint256",
          "name": "",
          "type": "uint256"
        }
      ],
      "stateMutability": "view",
      "type": "function"
    },
    {
      "inputs": [
        {
          "internalType": "address[]",
          "name": "owners",
          "type": "address[]"
        }
      ],
      "name": "balanceOfBatch",
      "outputs": [
        {
          "internalType": "uint256[]",
          "name": "",
          "type": "uint256[]"
        }
      ],
      "stateMutability": "view",
      "type": "function"
    },
    {
      "inputs": [
        {
          "internalType": "uint256",
          "name": "",
          "type": "uint256"
        }
      ],
      "name": "bonds",
      "outputs": [
        {
          "internalType": "bytes32",
          "name": "",
          "type": "bytes32"
        }
      ],
      "stateMutability": "view",
      "type": "function"
    },
    {
      "inputs": [
        {
          "internalType": "uint256",
          "name": "",
          "type": "uint256"
        }
      ],
      "name": "currencies",
      "outputs": [
        {
          "internalType": "enum CurrencyType",
          "name": "currencyType",
          "type": "uint8"
        },
        {
          "internalType": "uint88",
          "name": "ERC1155SmallId",
          "type": "uint88"
        },
        {
          "internalType": "address",
          "name": "location",
          "type": "address"
        },
        {
          "internalType": "uint256",
          "name": "ERC1155Id",
          "type": "uint256"
        }
      ],
      "stateMutability": "view",
      "type": "function"
    },
    {
      "inputs": [
        {
          "internalType": "uint256",
          "name": "tokenId",
          "type": "uint256"
        }
      ],
      "name": "getApproved",
      "outputs": [
        {
          "internalType": "address",
          "name": "",
          "type": "address"
        }
      ],
      "stateMutability": "view",
      "type": "function"
    },
    {
      "inputs": [
        {
          "internalType": "uint256",
          "name": "id",
          "type": "uint256"
        }
      ],
      "name": "getBond",
      "outputs": [
        {
          "components": [
            {
              "internalType": "bool",
              "name": "flag",
              "type": "bool"
            },
            {
              "internalType": "uint32",
              "name": "currencyRef",
              "type": "uint32"
            },
            {
              "internalType": "uint16",
              "name": "nPeriods",
              "type": "uint16"
            },
            {
              "internalType": "uint16",
              "name": "curPeriod",
              "type": "uint16"
            },
            {
              "internalType": "uint64",
              "name": "startTime",
              "type": "uint64"
            },
            {
              "internalType": "uint64",
              "name": "periodDuration",
              "type": "uint64"
            },
            {
              "internalType": "uint256",
              "name": "couponSize",
              "type": "uint256"
            },
            {
              "internalType": "uint256",
              "name": "faceValue",
              "type": "uint256"
            },
            {
              "internalType": "address",
              "name": "beneficiary",
              "type": "address"
            },
            {
              "internalType": "address",
              "name": "minter",
              "type": "address"
            }
          ],
          "internalType": "struct Bond",
          "name": "",
          "type": "tuple"
        }
      ],
      "stateMutability": "view",
      "type": "function"
    },
    {
      "inputs": [
        {
          "internalType": "address",
          "name": "owner",
          "type": "address"
        },
        {
          "internalType": "address",
          "name": "operator",
          "type": "address"
        }
      ],
      "name": "isApprovedForAll",
      "outputs": [
        {
          "internalType": "bool",
          "name": "",
          "type": "bool"
        }
      ],
      "stateMutability": "view",
      "type": "function"
    },
    {
      "inputs": [
        {
          "internalType": "bytes32",
          "name": "alp",
          "type": "bytes32"
        },
        {
          "internalType": "bytes32",
          "name": "bet",
          "type": "bytes32"
        }
      ],
      "name": "mintBond",
      "outputs": [],
      "stateMutability": "payable",
      "type": "function"
    },
    {
      "inputs": [],
      "name": "name",
      "outputs": [
        {
          "internalType": "string",
          "name": "",
          "type": "string"
        }
      ],
      "stateMutability": "view",
      "type": "function"
    },
    {
      "inputs": [
        {
          "internalType": "uint256",
          "name": "tokenId",
          "type": "uint256"
        }
      ],
      "name": "ownerOf",
      "outputs": [
        {
          "internalType": "address",
          "name": "",
          "type": "address"
        }
      ],
      "stateMutability": "view",
      "type": "function"
    },
    {
      "inputs": [
        {
          "internalType": "uint256[]",
          "name": "ids",
          "type": "uint256[]"
        }
      ],
      "name": "ownerOfBatch",
      "outputs": [
        {
          "internalType": "address[]",
          "name": "",
          "type": "address[]"
        }
      ],
      "stateMutability": "view",
      "type": "function"
    },
    {
      "inputs": [
        {
          "internalType": "address",
          "name": "from",
          "type": "address"
        },
        {
          "internalType": "address",
          "name": "to",
          "type": "address"
        },
        {
          "internalType": "uint256[]",
          "name": "ids",
          "type": "uint256[]"
        },
        {
          "internalType": "bytes",
          "name": "_data",
          "type": "bytes"
        }
      ],
      "name": "safeBatchTransferFrom",
      "outputs": [],
      "stateMutability": "nonpayable",
      "type": "function"
    },
    {
      "inputs": [
        {
          "internalType": "address",
          "name": "from",
          "type": "address"
        },
        {
          "internalType": "address",
          "name": "to",
          "type": "address"
        },
        {
          "internalType": "uint256",
          "name": "tokenId",
          "type": "uint256"
        }
      ],
      "name": "safeTransferFrom",
      "outputs": [],
      "stateMutability": "nonpayable",
      "type": "function"
    },
    {
      "inputs": [
        {
          "internalType": "address",
          "name": "from",
          "type": "address"
        },
        {
          "internalType": "address",
          "name": "to",
          "type": "address"
        },
        {
          "internalType": "uint256",
          "name": "tokenId",
          "type": "uint256"
        },
        {
          "internalType": "bytes",
          "name": "_data",
          "type": "bytes"
        }
      ],
      "name": "safeTransferFrom",
      "outputs": [],
      "stateMutability": "nonpayable",
      "type": "function"
    },
    {
      "inputs": [
        {
          "internalType": "address",
          "name": "operator",
          "type": "address"
        },
        {
          "internalType": "bool",
          "name": "approved",
          "type": "bool"
        }
      ],
      "name": "setApprovalForAll",
      "outputs": [],
      "stateMutability": "nonpayable",
      "type": "function"
    },
    {
      "inputs": [
        {
          "internalType": "address[]",
          "name": "operators",
          "type": "address[]"
        },
        {
          "internalType": "bool",
          "name": "approved",
          "type": "bool"
        }
      ],
      "name": "setBatchApprovalForAll",
      "outputs": [],
      "stateMutability": "nonpayable",
      "type": "function"
    },
    {
      "inputs": [
        {
          "internalType": "bytes4",
          "name": "interfaceId",
          "type": "bytes4"
        }
      ],
      "name": "supportsInterface",
      "outputs": [
        {
          "internalType": "bool",
          "name": "",
          "type": "bool"
        }
      ],
      "stateMutability": "view",
      "type": "function"
    },
    {
      "inputs": [],
      "name": "symbol",
      "outputs": [
        {
          "internalType": "string",
          "name": "",
          "type": "string"
        }
      ],
      "stateMutability": "view",
      "type": "function"
    },
    {
      "inputs": [
        {
          "internalType": "uint256",
          "name": "",
          "type": "uint256"
        }
      ],
      "name": "tokenURI",
      "outputs": [
        {
          "internalType": "string",
          "name": "",
          "type": "string"
        }
      ],
      "stateMutability": "view",
      "type": "function"
    },
    {
      "inputs": [
        {
          "internalType": "address",
          "name": "from",
          "type": "address"
        },
        {
          "internalType": "address",
          "name": "to",
          "type": "address"
        },
        {
          "internalType": "uint256",
          "name": "tokenId",
          "type": "uint256"
        }
      ],
      "name": "transferFrom",
      "outputs": [],
      "stateMutability": "nonpayable",
      "type": "function"
    },
    {
      "inputs": [
        {
          "internalType": "uint256",
          "name": "id",
          "type": "uint256"
        },
        {
          "internalType": "address",
          "name": "newBeneficiary",
          "type": "address"
        }
      ],
      "name": "updateBeneficiary",
      "outputs": [],
      "stateMutability": "nonpayable",
      "type": "function"
    },
    {
      "inputs": [
        {
          "internalType": "uint256",
          "name": "id",
          "type": "uint256"
        },
        {
          "internalType": "address",
          "name": "from",
          "type": "address"
        },
        {
          "internalType": "uint256",
          "name": "value",
          "type": "uint256"
        },
        {
          "internalType": "bytes",
          "name": "data",
          "type": "bytes"
        }
      ],
      "name": "serviceBond",
      "outputs": [],
      "stateMutability": "payable",
      "type": "function"
    },
    {
      "inputs": [
        {
          "internalType": "address",
          "name": "operator",
          "type": "address"
        },
        {
          "internalType": "address",
          "name": "",
          "type": "address"
        },
        {
          "internalType": "uint256",
          "name": "",
          "type": "uint256"
        },
        {
          "internalType": "uint256",
          "name": "",
          "type": "uint256"
        },
        {
          "internalType": "bytes",
          "name": "",
          "type": "bytes"
        }
      ],
      "name": "onERC1155Received",
      "outputs": [
        {
          "internalType": "bytes4",
          "name": "",
          "type": "bytes4"
        }
      ],
      "stateMutability": "view",
      "type": "function"
    },
    {
      "inputs": [
        {
          "internalType": "address",
          "name": "operator",
          "type": "address"
        },
        {
          "internalType": "address",
          "name": "",
          "type": "address"
        },
        {
          "internalType": "uint256",
          "name": "",
          "type": "uint256"
        },
        {
          "internalType": "bytes",
          "name": "",
          "type": "bytes"
        }
      ],
      "name": "onERC721Received",
      "outputs": [
        {
          "internalType": "bytes4",
          "name": "",
          "type": "bytes4"
        }
      ],
      "stateMutability": "view",
      "type": "function"
    },
    {
      "inputs": [
        {
          "internalType": "uint256",
          "name": "id",
          "type": "uint256"
        }
      ],
      "name": "callBond",
      "outputs": [],
      "stateMutability": "nonpayable",
      "type": "function"
    },
    {
      "inputs": [
        {
          "internalType": "uint256",
          "name": "id",
          "type": "uint256"
        }
      ],
      "name": "forgiveBond",
      "outputs": [],
      "stateMutability": "nonpayable",
      "type": "function"
    },
    {
      "inputs": [
        {
          "internalType": "uint256",
          "name": "id",
          "type": "uint256"
        }
      ],
      "name": "destroyBond",
      "outputs": [],
      "stateMutability": "nonpayable",
      "type": "function"
    }
  ],
  "bytecode": "0x60806040523480156200001157600080fd5b50604051620041de380380620041de8339810160408190526200003491620002c4565b82828282828282828282600090805190602001906200005592919062000167565b5081516200006b90600190602085019062000167565b5080516200008190600290602084019062000167565b505050505050506007604051806080016040528060006004811115620000ab57620000ab62000392565b8152600060208083018290526040830182905260609092018190528354600181810186559482529190208251600290920201805492939092839160ff199091169083600481111562000101576200010162000392565b02179055506020820151815460408401516001600160a01b03166c01000000000000000000000000026001600160601b036001600160581b03909316610100029290921660ff9091161717815560609091015160019091015550620003be945050505050565b828054620001759062000355565b90600052602060002090601f016020900481019282620001995760008555620001e4565b82601f10620001b457805160ff1916838001178555620001e4565b82800160010185558215620001e4579182015b82811115620001e4578251825591602001919060010190620001c7565b50620001f2929150620001f6565b5090565b5b80821115620001f25760008155600101620001f7565b600082601f8301126200021f57600080fd5b81516001600160401b03808211156200023c576200023c620003a8565b604051601f8301601f19908116603f01168101908282118183101715620002675762000267620003a8565b816040528381526020925086838588010111156200028457600080fd5b600091505b83821015620002a8578582018301518183018401529082019062000289565b83821115620002ba5760008385830101525b9695505050505050565b600080600060608486031215620002da57600080fd5b83516001600160401b0380821115620002f257600080fd5b62000300878388016200020d565b945060208601519150808211156200031757600080fd5b62000325878388016200020d565b935060408601519150808211156200033c57600080fd5b506200034b868287016200020d565b9150509250925092565b600181811c908216806200036a57607f821691505b602082108114156200038c57634e487b7160e01b600052602260045260246000fd5b50919050565b634e487b7160e01b600052602160045260246000fd5b634e487b7160e01b600052604160045260246000fd5b613e1080620003ce6000396000f3fe6080604052600436106101e35760003560e01c80636352211e11610102578063bda8011711610095578063e985e9c511610064578063e985e9c5146105b1578063f23a6e61146105fa578063f6d1c2711461061a578063fe9accf91461064a57600080fd5b8063bda8011714610524578063c87b56dd14610551578063cd30e2cd14610571578063d8fe76421461058457600080fd5b806395d89b41116100d157806395d89b41146104af5780639f949d9d146104c4578063a22cb465146104e4578063b88d4fde1461050457600080fd5b80636352211e1461042657806368b0d5a81461045c57806370a082311461046f57806378cb91751461048f57600080fd5b806323b872dd1161017a57806342842e0e1161014957806342842e0e1461038b578063458c738e146103ab5780635f1c17c0146103d857806362311f551461040657600080fd5b806323b872dd14610318578063275da3b41461033857806328cfbd461461034b5780633e8eb5a41461036b57600080fd5b80630f68e5fc116101b65780630f68e5fc14610299578063150b7a02146102ac578063187ddf87146102e55780631f5e180e1461030557600080fd5b806301ffc9a7146101e857806306fdde031461021d578063081812fc1461023f578063095ea7b314610277575b600080fd5b3480156101f457600080fd5b50610208610203366004613659565b61065d565b60405190151581526020015b60405180910390f35b34801561022957600080fd5b506102326106fa565b6040516102149190613a82565b34801561024b57600080fd5b5061025f61025a366004613780565b610788565b6040516001600160a01b039091168152602001610214565b34801561028357600080fd5b5061029761029236600461351c565b610833565b005b6102976102a73660046137be565b61093d565b3480156102b857600080fd5b506102cc6102c736600461339f565b610da9565b6040516001600160e01b03199091168152602001610214565b3480156102f157600080fd5b50610297610300366004613585565b610dd7565b61029761031336600461325b565b610ec7565b34801561032457600080fd5b5061029761033336600461335e565b610f02565b610297610346366004613637565b610fdd565b34801561035757600080fd5b506102976103663660046132d5565b61113a565b34801561037757600080fd5b50610297610386366004613799565b611290565b34801561039757600080fd5b506102976103a636600461335e565b611493565b3480156103b757600080fd5b506103cb6103c6366004613548565b6114ae565b60405161021491906139f6565b3480156103e457600080fd5b506103f86103f3366004613780565b611579565b604051908152602001610214565b34801561041257600080fd5b50610297610421366004613780565b61159a565b34801561043257600080fd5b5061025f610441366004613780565b6000908152600360205260409020546001600160a01b031690565b61029761046a36600461351c565b61172c565b34801561047b57600080fd5b506103f861048a36600461325b565b61177f565b34801561049b57600080fd5b506102976104aa366004613780565b611819565b3480156104bb57600080fd5b50610232611c1a565b3480156104d057600080fd5b506102976104df366004613780565b611c27565b3480156104f057600080fd5b506102976104ff3660046134ee565b611eb5565b34801561051057600080fd5b5061029761051f366004613412565b611f21565b34801561053057600080fd5b5061054461053f3660046135cc565b612009565b60405161021491906139a9565b34801561055d57600080fd5b5061023261056c366004613780565b6120db565b61029761057f36600461325b565b61216f565b34801561059057600080fd5b506105a461059f366004613780565b612186565b6040516102149190613a95565b3480156105bd57600080fd5b506102086105cc36600461329c565b6001600160a01b03918216600090815260066020908152604080832093909416825291909152205460ff1690565b34801561060657600080fd5b506102cc610615366004613472565b6122c5565b34801561062657600080fd5b5061063a610635366004613780565b61230d565b6040516102149493929190613a43565b61029761065836600461325b565b612362565b60006001600160e01b031982167f80ac58cd0000000000000000000000000000000000000000000000000000000014806106c057506001600160e01b031982167f5b5e139f00000000000000000000000000000000000000000000000000000000145b806106f457507f01ffc9a7000000000000000000000000000000000000000000000000000000006001600160e01b03198316145b92915050565b6000805461070790613c0a565b80601f016020809104026020016040519081016040528092919081815260200182805461073390613c0a565b80156107805780601f1061075557610100808354040283529160200191610780565b820191906000526020600020905b81548152906001019060200180831161076357829003601f168201915b505050505081565b6000818152600360205260408120546001600160a01b03166108175760405162461bcd60e51b815260206004820152602c60248201527f4552433732313a20617070726f76656420717565727920666f72206e6f6e657860448201527f697374656e7420746f6b656e000000000000000000000000000000000000000060648201526084015b60405180910390fd5b506000908152600560205260409020546001600160a01b031690565b60008181526003602052604090205481906001600160a01b0316331461089b5760405162461bcd60e51b815260206004820152601b60248201527f4552433732313a2063616c6c6564206973206e6f74206f776e65720000000000604482015260640161080e565b6000828152600360205260409020546001600160a01b0390811690841681141561092d5760405162461bcd60e51b815260206004820152602160248201527f4552433732313a20617070726f76616c20746f2063757272656e74206f776e6560448201527f7200000000000000000000000000000000000000000000000000000000000000606482015260840161080e565b6109378484612379565b50505050565b83336001600160a01b038216148061097857506001600160a01b038116600090815260066020908152604080832033845290915290205460ff165b6109d55760405162461bcd60e51b815260206004820152602860248201527f4c6966656379636c654d616e616765723a2063616c6c6572206973206e6f7420604482015267185c1c1c9bdd995960c21b606482015260840161080e565b6040805161014081018252600080825260208201819052918101829052606081018290526080810182905260a0810182905260c0810182905260e0810182905261010081018290526101208101829052906008610a33896002613b81565b81548110610a4357610a43613ccf565b60009182526020909120015460405163836c4e3360e01b815290915073__LBondManager__________________________9063836c4e3390610a8b9084908690600401613a2e565b6101406040518083038186803b158015610aa457600080fd5b505af4158015610ab8573d6000803e3d6000fd5b505050506040513d601f19601f82011682018060405250810190610adc9190613693565b805190925015610b545760405162461bcd60e51b815260206004820152602f60248201527f4c6966656379636c654d616e616765723a2063616e6e6f74207365727669636560448201527f2064656661756c74656420626f6e640000000000000000000000000000000000606482015260840161080e565b602082015163ffffffff16610c785785341015610b7357610b73613c8d565b336001600160a01b03881614610b8b57610b8b613c8d565b610b9782828a896123ed565b60008261010001516001600160a01b0316878787604051610bb9929190613924565b60006040518083038185875af1925050503d8060008114610bf6576040519150601f19603f3d011682016040523d82523d6000602084013e610bfb565b606091505b5050905080610c725760405162461bcd60e51b815260206004820152602a60248201527f4c6966656379636c654d616e616765723a206574686572207472616e7361637460448201527f696f6e206661696c656400000000000000000000000000000000000000000000606482015260840161080e565b50610d4e565b60006007836020015163ffffffff1681548110610c9757610c97613ccf565b60009182526020909120600291820201805490925060ff1690816004811115610cc257610cc2613cb9565b1480610cdf57506004816004811115610cdd57610cdd613cb9565b145b15610cf657610cf184848c60016123ed565b610d02565b610d0284848c8b6123ed565b610d4a828a8661010001518b8b8b8080601f0160208091040260200160405190810160405280939291908181526020018383808284376000920191909152506126e692505050565b5050505b606080830151604080518b81526001600160a01b038b16602082015261ffff909216908201527fda82ac16b4aa1e491f2ec1eb4b24b3d9a42ae226c5079255d032ce34f43d55f6910160405180910390a15050505050505050565b60006001600160a01b038616301415610dca5750630a85bd0160e11b610dce565b5060005b95945050505050565b60005b8251811015610ec2573360009081526006602052604081208451849290869085908110610e0957610e09613ccf565b60200260200101516001600160a01b03166001600160a01b0316815260200190815260200160002060006101000a81548160ff021916908315150217905550828181518110610e5a57610e5a613ccf565b60200260200101516001600160a01b0316336001600160a01b03167f17307eab39ab6107e8899845ad3d59bd9653f200f220920489ca2b5937696c3184604051610ea8911515815260200190565b60405180910390a380610eba81613c72565b915050610dda565b505050565b6040805160808101909152610eff908060045b81526000602082018190526001600160a01b0385166040830152606090910152612a02565b50565b60008181526003602052604090205481906001600160a01b031633811480610f4d57506001600160a01b038116600090815260066020908152604080832033845290915290205460ff165b80610f6e57506000828152600560205260409020546001600160a01b031633145b610fcb5760405162461bcd60e51b815260206004820152602860248201527f4552433732313a2063616c6c6572206973206e6f74206f776e6572206e6f7220604482015267185c1c1c9bdd995960c21b606482015260840161080e565b610fd6858585612b4e565b5050505050565b6040517f511e6fbd0000000000000000000000000000000000000000000000000000000081526004810182905273__LBondManager__________________________9063511e6fbd9060240160206040518083038186803b15801561104157600080fd5b505af4158015611055573d6000803e3d6000fd5b505050506040513d601f19601f82011682018060405250810190611079919061327f565b6001600160a01b0316336001600160a01b0316146110d95760405162461bcd60e51b815260206004820181905260248201527f426f6e64546f6b656e3a206d696e746572206d7573742062652063616c6c6572604482015260640161080e565b6008546000906110eb90600290613b5f565b600880546001818101835560008390527ff3f7a9fe364faab93b216da50a3214154f22a0a2b415b23a84c8169e8b636ee39182018790558254908101909255018390559050610ec23382612d28565b60005b8251811015610fd657336001600160a01b038616148061118057506001600160a01b038516600090815260066020908152604080832033845290915290205460ff165b806111c357506005600084838151811061119c5761119c613ccf565b6020908102919091018101518252810191909152604001600020546001600160a01b031633145b6112355760405162461bcd60e51b815260206004820152602960248201527f53757065724552433732313a2063616c6c6572206973206e6f742076616c696460448201527f206f70657261746f720000000000000000000000000000000000000000000000606482015260840161080e565b611259858585848151811061124c5761124c613ccf565b6020026020010151612b4e565b61127e858585848151811061127057611270613ccf565b602002602001015185612e93565b8061128881613c72565b91505061113d565b60008281526003602052604090205482906001600160a01b0316338114806112db57506001600160a01b038116600090815260066020908152604080832033845290915290205460ff165b806112fc57506000828152600560205260409020546001600160a01b031633145b6113595760405162461bcd60e51b815260206004820152602860248201527f4552433732313a2063616c6c6572206973206e6f74206f776e6572206e6f7220604482015267185c1c1c9bdd995960c21b606482015260840161080e565b6000611366856002613b81565b905073__LBondManager__________________________6391fc35fd6008838154811061139557611395613ccf565b9060005260206000200154866040518363ffffffff1660e01b81526004016113d09291909182526001600160a01b0316602082015260400190565b60206040518083038186803b1580156113e857600080fd5b505af41580156113fc573d6000803e3d6000fd5b505050506040513d601f19601f82011682018060405250810190611420919061361e565b6008828154811061143357611433613ccf565b90600052602060002001819055507fbb18cf80bf9cf9e4b91e7ef34ae790edb68cfd0af883758c4cbffc183b84ab7085856040516114849291909182526001600160a01b0316602082015260400190565b60405180910390a15050505050565b610ec283838360405180602001604052806000815250611f21565b60606000825167ffffffffffffffff8111156114cc576114cc613ce5565b6040519080825280602002602001820160405280156114f5578160200160208202803683370190505b50905060005b8351811015611572576004600085838151811061151a5761151a613ccf565b60200260200101516001600160a01b03166001600160a01b031681526020019081526020016000205482828151811061155557611555613ccf565b60209081029190910101528061156a81613c72565b9150506114fb565b5092915050565b6008818154811061158957600080fd5b600091825260209091200154905081565b60008181526003602052604090205481906001600160a01b0316338114806115e557506001600160a01b038116600090815260066020908152604080832033845290915290205460ff165b8061160657506000828152600560205260409020546001600160a01b031633145b6116635760405162461bcd60e51b815260206004820152602860248201527f4552433732313a2063616c6c6572206973206e6f74206f776e6572206e6f7220604482015267185c1c1c9bdd995960c21b606482015260840161080e565b6008611670846002613b81565b8154811061168057611680613ccf565b60009182526020822001556008611698846002613b81565b6116a3906001613b47565b815481106116b3576116b3613ccf565b60009182526020808320909101829055848252600381526040808320805473ffffffffffffffffffffffffffffffffffffffff198082169092556005845282852080549092169091556001600160a01b03168084526004909252822080549192600192611721908490613bf3565b909155505050505050565b60408051608081018252600381526affffffffffffffffffffff8316602082018190526001600160a01b038516928201929092526000606082015290821461177657606081018290525b610ec281612a02565b60006001600160a01b0382166117fd5760405162461bcd60e51b815260206004820152602a60248201527f4552433732313a2062616c616e636520717565727920666f7220746865207a6560448201527f726f206164647265737300000000000000000000000000000000000000000000606482015260840161080e565b506001600160a01b031660009081526004602052604090205490565b60008181526003602052604090205481906001600160a01b03163381148061186457506001600160a01b038116600090815260066020908152604080832033845290915290205460ff165b8061188557506000828152600560205260409020546001600160a01b031633145b6118e25760405162461bcd60e51b815260206004820152602860248201527f4552433732313a2063616c6c6572206973206e6f74206f776e6572206e6f7220604482015267185c1c1c9bdd995960c21b606482015260840161080e565b600060086118f1856002613b81565b8154811061190157611901613ccf565b60009182526020808320909101546040805161014081018252848152928301849052828101849052606083018490526080830184905260a0830184905260c0830184905260e08301849052610100830184905261012083018490525163836c4e3360e01b815290935073__LBondManager__________________________9163836c4e3391611994918691600401613a2e565b6101406040518083038186803b1580156119ad57600080fd5b505af41580156119c1573d6000803e3d6000fd5b505050506040513d601f19601f820116820180604052508101906119e59190613693565b9050806040015161ffff16816060015161ffff161115611a6d5760405162461bcd60e51b815260206004820152602c60248201527f4c6966656379636c654d616e616765723a2063616e6e6f742063616c6c20636f60448201527f6d706c6574656420626f6e640000000000000000000000000000000000000000606482015260840161080e565b6080810151611a869067ffffffffffffffff1642613bf3565b8160a00151826060015161ffff16611a9e9190613ba0565b67ffffffffffffffff1610611b1b5760405162461bcd60e51b815260206004820152602260248201527f4c6966656379636c654d616e616765723a20626f6e64206e6f74206f7665726460448201527f7565000000000000000000000000000000000000000000000000000000000000606482015260840161080e565b6040517f83244ba4000000000000000000000000000000000000000000000000000000008152600481018390526001602482015273__LBondManager__________________________906383244ba49060440160206040518083038186803b158015611b8657600080fd5b505af4158015611b9a573d6000803e3d6000fd5b505050506040513d601f19601f82011682018060405250810190611bbe919061361e565b6008611bcb876002613b81565b81548110611bdb57611bdb613ccf565b90600052602060002001819055507f9d88e5720db4604a83f973ccb5ac75609d3fcb60e6c2c1118ac2e7b029ce1d9b8560405161148491815260200190565b6001805461070790613c0a565b60008181526003602052604090205481906001600160a01b031633811480611c7257506001600160a01b038116600090815260066020908152604080832033845290915290205460ff165b80611c9357506000828152600560205260409020546001600160a01b031633145b611cf05760405162461bcd60e51b815260206004820152602860248201527f4552433732313a2063616c6c6572206973206e6f74206f776e6572206e6f7220604482015267185c1c1c9bdd995960c21b606482015260840161080e565b60006008611cff856002613b81565b81548110611d0f57611d0f613ccf565b60009182526020822001546040517f36d7bc700000000000000000000000000000000000000000000000000000000081526004810182905290925073__LBondManager__________________________906336d7bc7090602401604080518083038186803b158015611d8057600080fd5b505af4158015611d94573d6000803e3d6000fd5b505050506040513d601f19601f82011682018060405250810190611db8919061374d565b50905073__LBondManager__________________________63d07f832883611de1846001613b21565b6040516001600160e01b031960e085901b168152600481019290925261ffff16602482015260440160206040518083038186803b158015611e2157600080fd5b505af4158015611e35573d6000803e3d6000fd5b505050506040513d601f19601f82011682018060405250810190611e59919061361e565b6008611e66876002613b81565b81548110611e7657611e76613ccf565b90600052602060002001819055507f5ee8a220dbeeb0d453e678b58d1504bafdb5d1a5b55029fcc873b4813066a8318560405161148491815260200190565b3360008181526006602090815260408083206001600160a01b03871680855290835292819020805460ff191686151590811790915590519081529192917f17307eab39ab6107e8899845ad3d59bd9653f200f220920489ca2b5937696c31910160405180910390a35050565b60008281526003602052604090205482906001600160a01b031633811480611f6c57506001600160a01b038116600090815260066020908152604080832033845290915290205460ff165b80611f8d57506000828152600560205260409020546001600160a01b031633145b611fea5760405162461bcd60e51b815260206004820152602860248201527f4552433732313a2063616c6c6572206973206e6f74206f776e6572206e6f7220604482015267185c1c1c9bdd995960c21b606482015260840161080e565b611ff5868686612b4e565b61200186868686612e93565b505050505050565b60606000825167ffffffffffffffff81111561202757612027613ce5565b604051908082528060200260200182016040528015612050578160200160208202803683370190505b50905060005b8351811015611572576003600085838151811061207557612075613ccf565b6020026020010151815260200190815260200160002060009054906101000a90046001600160a01b03168282815181106120b1576120b1613ccf565b6001600160a01b0390921660209283029190910190910152806120d381613c72565b915050612056565b6060600280546120ea90613c0a565b80601f016020809104026020016040519081016040528092919081815260200182805461211690613c0a565b80156121635780601f1061213857610100808354040283529160200191612163565b820191906000526020600020905b81548152906001019060200180831161214657829003601f168201915b50505050509050919050565b6040805160808101909152610eff90806002610eda565b6040805161014081018252600080825260208201819052918101829052606081018290526080810182905260a0810182905260c0810182905260e08101829052610100810182905261012081019190915273__LBondManager__________________________6388bc65c460086121fe856002613b81565b8154811061220e5761220e613ccf565b906000526020600020015460088560026122289190613b81565b612233906001613b47565b8154811061224357612243613ccf565b90600052602060002001546040518363ffffffff1660e01b8152600401612274929190918252602082015260400190565b6101406040518083038186803b15801561228d57600080fd5b505af41580156122a1573d6000803e3d6000fd5b505050506040513d601f19601f820116820180604052508101906106f49190613693565b60006001600160a01b0387163014156122ff57507ff23a6e6100000000000000000000000000000000000000000000000000000000612303565b5060005b9695505050505050565b6007818154811061231d57600080fd5b60009182526020909120600290910201805460019091015460ff8216925061010082046affffffffffffffffffffff1691600160601b90046001600160a01b03169084565b6040805160808101909152610eff90806001610eda565b6000818152600560209081526040808320805473ffffffffffffffffffffffffffffffffffffffff19166001600160a01b038781169182179092556003909352818420549151859492909116917f8c5be1e5ebec7d5bd14f71427d1e84f3dd0314c0f7b2291e5b200ac8c7c3b92591a45050565b60008460c00151826123ff9190613b5f565b905060008161ffff161161247b5760405162461bcd60e51b815260206004820152602e60248201527f4c6966656379636c654d616e616765723a2073657276696365207061796d656e60448201527f7420696e73756666696369656e74000000000000000000000000000000000000606482015260840161080e565b808560600181815161248d9190613b21565b61ffff9081169091526040870151606088015190821691161115905061260a5760086124ba846002613b81565b6124c5906001613b47565b815481106124d5576124d5613ccf565b6000918252602090912001546040517f746386ef000000000000000000000000000000000000000000000000000000008152600481019190915273__LBondManager__________________________9063746386ef9060240160206040518083038186803b15801561254657600080fd5b505af415801561255a573d6000803e3d6000fd5b505050506040513d601f19601f8201168201806040525081019061257e919061361e565b8560c00151866040015187606001516125979190613bd0565b61ffff166125a59190613b81565b106125fb5760408501516125ba906001613b21565b61ffff1660608601526040518381527f5ee8a220dbeeb0d453e678b58d1504bafdb5d1a5b55029fcc873b4813066a8319060200160405180910390a161260a565b604085015161ffff1660608601525b60608501516040517fd07f83280000000000000000000000000000000000000000000000000000000081526004810186905261ffff909116602482015273__LBondManager__________________________9063d07f83289060440160206040518083038186803b15801561267e57600080fd5b505af4158015612692573d6000803e3d6000fd5b505050506040513d601f19601f820116820180604052508101906126b6919061361e565b60086126c3856002613b81565b815481106126d3576126d3613ccf565b6000918252602090912001555050505050565b60006001865460ff16600481111561270057612700613cb9565b1415612826576001600160a01b0385163014156127c55785546040517fa9059cbb0000000000000000000000000000000000000000000000000000000081526001600160a01b03868116600483015260248201869052600160601b9092049091169063a9059cbb906044015b602060405180830381600087803b15801561278657600080fd5b505af115801561279a573d6000803e3d6000fd5b505050506040513d601f19601f820116820180604052508101906127be9190613601565b9050610dce565b85546040517f23b872dd0000000000000000000000000000000000000000000000000000000081526001600160a01b038781166004830152868116602483015260448201869052600160601b909204909116906323b872dd9060640161276c565b6002865460ff16600481111561283e5761283e613cb9565b14156128e65785546040517fb88d4fde0000000000000000000000000000000000000000000000000000000081526001600160a01b0387811660048301528681166024830152604482018690526080606483015260006084830152600160601b9092049091169063b88d4fde9060a4015b600060405180830381600087803b1580156128c957600080fd5b505af11580156128dd573d6000803e3d6000fd5b505050506129f6565b6003865460ff1660048111156128fe576128fe613cb9565b141561296757600186015461292757855461010090046affffffffffffffffffffff1660018701555b85546001870154604051637921219560e11b8152600160601b9092046001600160a01b03169163f242432a916128af918991899189908990600401613966565b6004865460ff16600481111561297f5761297f613cb9565b14156129f6578554604051637921219560e11b8152600160601b9091046001600160a01b03169063f242432a906129c3908890889088906001908990600401613966565b600060405180830381600087803b1580156129dd57600080fd5b505af11580156129f1573d6000803e3d6000fd5b505050505b50600195945050505050565b6007805460018181018355600092909252825160029091027fa66cc928b5edb82af9bd49922954155ab7b0942694bea4ce44661d9a8736c6880180548493919291839160ff191690836004811115612a5c57612a5c613cb9565b02179055506020820151815460408401516001600160a01b0316600160601b026bffffffffffffffffffffffff6affffffffffffffffffffff909316610100029290921660ff909116171781556060909101516001909101556000600382516004811115612acc57612acc613cb9565b1415612af95781602001516affffffffffffffffffffff1690508160600151600014612af9575060608101515b6007547f2de521bc3664deadab052ac566d3e29f17b816025957077cd43ae461ebe1670790612b2a90600190613bf3565b83516040808601519051612b42939291908690613aa4565b60405180910390a15050565b6000818152600360205260409020546001600160a01b03848116911614612bdd5760405162461bcd60e51b815260206004820152602960248201527f4552433732313a207472616e73666572206f6620746f6b656e2074686174206960448201527f73206e6f74206f776e0000000000000000000000000000000000000000000000606482015260840161080e565b6001600160a01b038216612c585760405162461bcd60e51b8152602060048201526024808201527f4552433732313a207472616e7366657220746f20746865207a65726f2061646460448201527f7265737300000000000000000000000000000000000000000000000000000000606482015260840161080e565b612c63600082612379565b6001600160a01b0383166000908152600460205260408120805460019290612c8c908490613bf3565b90915550506001600160a01b0382166000908152600460205260408120805460019290612cba908490613b47565b9091555050600081815260036020526040808220805473ffffffffffffffffffffffffffffffffffffffff19166001600160a01b0386811691821790925591518493918716917fddf252ad1be2c89b69c2b068fc378daa952ba7f163c4a11628f55a4df523b3ef91a4505050565b6001600160a01b038216612d7e5760405162461bcd60e51b815260206004820181905260248201527f4552433732313a206d696e7420746f20746865207a65726f2061646472657373604482015260640161080e565b6000818152600360205260409020546001600160a01b031615612de35760405162461bcd60e51b815260206004820152601c60248201527f4552433732313a20746f6b656e20616c7265616479206d696e74656400000000604482015260640161080e565b6001600160a01b0382166000908152600460205260408120805460019290612e0c908490613b47565b9091555050600081815260036020526040808220805473ffffffffffffffffffffffffffffffffffffffff19166001600160a01b03861690811790915590518392907fddf252ad1be2c89b69c2b068fc378daa952ba7f163c4a11628f55a4df523b3ef908290a4612e8f6000838360405180602001604052806000815250612e93565b5050565b6001600160a01b0383163b1561093757604051630a85bd0160e11b81526001600160a01b0384169063150b7a0290612ed5903390889087908790600401613934565b602060405180830381600087803b158015612eef57600080fd5b505af1925050508015612f1f575060408051601f3d908101601f19168201909252612f1c91810190613676565b60015b612fd557612f2b613cfb565b806308c379a01415612f655750612f40613d17565b80612f4b5750612f67565b8060405162461bcd60e51b815260040161080e9190613a82565b505b60405162461bcd60e51b815260206004820152603260248201527f4552433732313a207472616e7366657220746f206e6f6e20455243373231526560448201527f63656976657220696d706c656d656e7465720000000000000000000000000000606482015260840161080e565b6001600160e01b03198116630a85bd0160e11b14610fd65760405162461bcd60e51b815260206004820152602560248201527f4552433732313a2045524337323152656365697665722072656a65637465642060448201527f746f6b656e000000000000000000000000000000000000000000000000000000606482015260840161080e565b805161306681613da1565b919050565b600082601f83011261307c57600080fd5b8135602061308982613afd565b6040516130968282613c45565b8381528281019150858301600585901b870184018810156130b657600080fd5b60005b858110156130de5781356130cc81613da1565b845292840192908401906001016130b9565b5090979650505050505050565b600082601f8301126130fc57600080fd5b8135602061310982613afd565b6040516131168282613c45565b8381528281019150858301600585901b8701840188101561313657600080fd5b60005b858110156130de57813584529284019290840190600101613139565b805161306681613db6565b60008083601f84011261317257600080fd5b50813567ffffffffffffffff81111561318a57600080fd5b6020830191508360208285010111156131a257600080fd5b9250929050565b600082601f8301126131ba57600080fd5b813567ffffffffffffffff8111156131d4576131d4613ce5565b6040516131eb601f8301601f191660200182613c45565b81815284602083860101111561320057600080fd5b816020850160208301376000918101602001919091529392505050565b805161ffff8116811461306657600080fd5b805163ffffffff8116811461306657600080fd5b805167ffffffffffffffff8116811461306657600080fd5b60006020828403121561326d57600080fd5b813561327881613da1565b9392505050565b60006020828403121561329157600080fd5b815161327881613da1565b600080604083850312156132af57600080fd5b82356132ba81613da1565b915060208301356132ca81613da1565b809150509250929050565b600080600080608085870312156132eb57600080fd5b84356132f681613da1565b9350602085013561330681613da1565b9250604085013567ffffffffffffffff8082111561332357600080fd5b61332f888389016130eb565b9350606087013591508082111561334557600080fd5b50613352878288016131a9565b91505092959194509250565b60008060006060848603121561337357600080fd5b833561337e81613da1565b9250602084013561338e81613da1565b929592945050506040919091013590565b6000806000806000608086880312156133b757600080fd5b85356133c281613da1565b945060208601356133d281613da1565b935060408601359250606086013567ffffffffffffffff8111156133f557600080fd5b61340188828901613160565b969995985093965092949392505050565b6000806000806080858703121561342857600080fd5b843561343381613da1565b9350602085013561344381613da1565b925060408501359150606085013567ffffffffffffffff81111561346657600080fd5b613352878288016131a9565b60008060008060008060a0878903121561348b57600080fd5b863561349681613da1565b955060208701356134a681613da1565b94506040870135935060608701359250608087013567ffffffffffffffff8111156134d057600080fd5b6134dc89828a01613160565b979a9699509497509295939492505050565b6000806040838503121561350157600080fd5b823561350c81613da1565b915060208301356132ca81613db6565b6000806040838503121561352f57600080fd5b823561353a81613da1565b946020939093013593505050565b60006020828403121561355a57600080fd5b813567ffffffffffffffff81111561357157600080fd5b61357d8482850161306b565b949350505050565b6000806040838503121561359857600080fd5b823567ffffffffffffffff8111156135af57600080fd5b6135bb8582860161306b565b92505060208301356132ca81613db6565b6000602082840312156135de57600080fd5b813567ffffffffffffffff8111156135f557600080fd5b61357d848285016130eb565b60006020828403121561361357600080fd5b815161327881613db6565b60006020828403121561363057600080fd5b5051919050565b6000806040838503121561364a57600080fd5b50508035926020909101359150565b60006020828403121561366b57600080fd5b813561327881613dc4565b60006020828403121561368857600080fd5b815161327881613dc4565b600061014082840312156136a657600080fd5b6136ae613ad3565b6136b783613155565b81526136c56020840161322f565b60208201526136d66040840161321d565b60408201526136e76060840161321d565b60608201526136f860808401613243565b608082015261370960a08401613243565b60a082015260c083015160c082015260e083015160e082015261010061373081850161305b565b9082015261012061374284820161305b565b908201529392505050565b6000806040838503121561376057600080fd5b6137698361321d565b91506137776020840161321d565b90509250929050565b60006020828403121561379257600080fd5b5035919050565b600080604083850312156137ac57600080fd5b8235915060208301356132ca81613da1565b6000806000806000608086880312156137d657600080fd5b8535945060208601356133d281613da1565b6000815180845260005b8181101561380e576020818501810151868301820152016137f2565b81811115613820576000602083870101525b50601f01601f19169290920160200192915050565b6005811061385357634e487b7160e01b600052602160045260246000fd5b9052565b8051151582526020810151613874602084018263ffffffff169052565b50604081015161388a604084018261ffff169052565b5060608101516138a0606084018261ffff169052565b5060808101516138bc608084018267ffffffffffffffff169052565b5060a08101516138d860a084018267ffffffffffffffff169052565b5060c081015160c083015260e081015160e083015261010080820151613908828501826001600160a01b03169052565b5050610120818101516001600160a01b03811684830152610937565b8183823760009101908152919050565b60006001600160a01b0380871683528086166020840152508360408301526080606083015261230360808301846137e8565b60006001600160a01b03808816835280871660208401525084604083015283606083015260a0608083015261399e60a08301846137e8565b979650505050505050565b6020808252825182820181905260009190848201906040850190845b818110156139ea5783516001600160a01b0316835292840192918401916001016139c5565b50909695505050505050565b6020808252825182820181905260009190848201906040850190845b818110156139ea57835183529284019291840191600101613a12565b82815261016081016132786020830184613857565b60808101613a518287613835565b6affffffffffffffffffffff851660208301526001600160a01b038416604083015282606083015295945050505050565b60208152600061327860208301846137e8565b61014081016106f48284613857565b84815260808101613ab86020830186613835565b6001600160a01b039390931660408201526060015292915050565b604051610140810167ffffffffffffffff81118282101715613af757613af7613ce5565b60405290565b600067ffffffffffffffff821115613b1757613b17613ce5565b5060051b60200190565b600061ffff808316818516808303821115613b3e57613b3e613ca3565b01949350505050565b60008219821115613b5a57613b5a613ca3565b500190565b600082613b7c57634e487b7160e01b600052601260045260246000fd5b500490565b6000816000190483118215151615613b9b57613b9b613ca3565b500290565b600067ffffffffffffffff80831681851681830481118215151615613bc757613bc7613ca3565b02949350505050565b600061ffff83811690831681811015613beb57613beb613ca3565b039392505050565b600082821015613c0557613c05613ca3565b500390565b600181811c90821680613c1e57607f821691505b60208210811415613c3f57634e487b7160e01b600052602260045260246000fd5b50919050565b601f8201601f1916810167ffffffffffffffff81118282101715613c6b57613c6b613ce5565b6040525050565b6000600019821415613c8657613c86613ca3565b5060010190565b634e487b7160e01b600052600160045260246000fd5b634e487b7160e01b600052601160045260246000fd5b634e487b7160e01b600052602160045260246000fd5b634e487b7160e01b600052603260045260246000fd5b634e487b7160e01b600052604160045260246000fd5b600060033d1115613d145760046000803e5060005160e01c5b90565b600060443d1015613d255790565b6040516003193d81016004833e81513d67ffffffffffffffff8160248401118184111715613d5557505050505090565b8285019150815181811115613d6d5750505050505090565b843d8701016020828501011115613d875750505050505090565b613d9660208286010187613c45565b509095945050505050565b6001600160a01b0381168114610eff57600080fd5b8015158114610eff57600080fd5b6001600160e01b031981168114610eff57600080fdfea2646970667358221220a368c609b894d3223c8e1859039b00927c054f1b3f6b4cdd9e3b0c87f8cdcb3a64736f6c63430008060033",
  "immutableReferences": {},
  "source": "// SPDX-License-Identifier: UNLICENSED\npragma solidity ^0.8.0;\n\nimport \"./BondToken.sol\";\nimport \"@openzeppelin/contracts/token/ERC20/IERC20.sol\";\nimport \"@openzeppelin/contracts/token/ERC721/IERC721.sol\";\nimport \"@openzeppelin/contracts/token/ERC1155/IERC1155.sol\";\n\n/**\n * @title  LifecycleManager contract exposing methods related to\n * bringing a bond through it's full lifecycle of servicing,\n * repayment, and   potentially default.\n */\ncontract LifecycleManager is BondToken {\n    using LBondManager for bytes32;\n\n    /// @notice new bond payment has been posted\n    event BondServiced(uint256 id, address operator, uint64 toPeriod);\n    /// @notice bond has been entirely repayed\n    event BondCompleted(uint256 id);\n    /// @notice bond payments have been failed\n    event BondDefaulted(uint256 id);\n\n    constructor(\n        string memory name,\n        string memory symbol,\n        string memory uri\n    )\n        BondToken(name, symbol, uri) // solhint-disable-next-line no-empty-blocks\n    {}\n\n    modifier onlyOperatorFor(address subject) {\n      require(msg.sender == subject || _operatorApprovals[subject][msg.sender], \"LifecycleManager: caller is not approved\");\n      _;\n    }\n\n    // SERVICE PAYMENT METHODS\n\n    /**\n     * @dev Internal method contains logic for updating bond periods\n     * @param b Bond structure with alpha elements filled\n     * @param alpha First bond slot data\n     * @param id Id of bond to apply service payments to\n     * @param value Amount of service payments to apply\n     */\n    function _updateBondPeriod(\n        Bond memory b,\n        bytes32 alpha,\n        uint256 id,\n        uint256 value\n    ) internal {\n        // figure out period change\n        uint16 addedPeriods = uint16(value / b.couponSize);\n        require(\n            addedPeriods > 0,\n            \"LifecycleManager: service payment insufficient\"\n        );\n        b.curPeriod += addedPeriods;\n        if (b.curPeriod > b.nPeriods) {\n            // might be complete... read beta to find face value\n            if (\n                (b.curPeriod - b.nPeriods) * b.couponSize >=\n                bonds[id * 2 + 1].readFaceValue()\n            ) {\n                b.curPeriod = b.nPeriods + 1;\n                emit BondCompleted(id);\n            } else b.curPeriod = b.nPeriods;\n        }\n        bonds[id * 2] = alpha.writeCurPeriod(b.curPeriod);\n        // presumably, after return:\n        // calling function should check for matching currency\n        // and pay bond holder whatever he is due in that currency\n    }\n\n    /**\n     * @notice Service a specific bond with generic currency\n     * @param id Id of bond to service\n     * @param from Account address to take value from\n     * @param value Either the amount to apply to the bond, or\n     * the NFT id to transfer as service payment\n     * @param data Additonal bytes to send with the transaction\n     *\n     * @dev For ether transactions, from and value still have to\n     * match or exceed the ether sent and the message sender. \n     * @dev Note that call data will only get forwarded for\n     * supporting currencies\n     */\n    function serviceBond(\n        uint256 id,\n        address from,\n        uint256 value,\n        bytes calldata data\n    ) public payable onlyOperatorFor(from) {\n        Bond memory b;\n        bytes32 alpha = bonds[id * 2]; // READ A\n        b = alpha.fillBondFromAlpha(b);\n        require(\n            b.flag == false,\n            \"LifecycleManager: cannot service defaulted bond\"\n        );\n        if (b.currencyRef == 0) {\n            // special case for ether\n            assert(msg.value >= value);\n            assert(msg.sender == from);\n            _updateBondPeriod(b, alpha, id, value);\n            (bool success, ) = b.beneficiary.call{value: value}(data);\n            require(success, \"LifecycleManager: ether transaction failed\");\n        } else {\n            Currency storage c = currencies[b.currencyRef];\n            CurrencyType typ = c.currencyType;\n            if (typ == CurrencyType.ERC721 || typ == CurrencyType.ERC1155NFT)\n                _updateBondPeriod(b, alpha, id, 1);\n            else _updateBondPeriod(b, alpha, id, value);\n            _transferGenericCurrency(c, from, b.beneficiary, value, data);\n        }\n        emit BondServiced(id, from, b.curPeriod);\n    }\n\n    // PAYMENT RECEIVER FUNCTIONS\n    // complex behavior discontinued due to discussion, refer\n    // to commit a3cc493 for last version\n\n    /**\n     * @notice SHOULD NOT be generally called by a direct user\n     * @dev Handler function that get's called on any ERC1155\n     * transfer to this function -- accepts only transfers\n     * initiated by itself.\n     */\n    function onERC1155Received(\n        address operator,\n        address,\n        uint256,\n        uint256,\n        bytes calldata\n    ) external view returns (bytes4) {\n        // for ERC1155 single transfers\n        if (operator == address(this)) return 0xf23a6e61;\n        return 0x0;\n    }\n\n    /**\n     * @notice SHOULD NOT be generally called by a direct user\n     * @dev Handler function that get's called on any ERC721\n     * transfer to this function -- accepts only transfers\n     * initiated by itself.\n     */\n    function onERC721Received(\n        address operator,\n        address,\n        uint256,\n        bytes calldata\n    ) external view returns (bytes4) {\n        if (operator == address(this)) return this.onERC721Received.selector;\n        return 0x0;\n    }\n\n    // OTHER BOND MANAGEMENT\n\n    /**\n     * @notice Call bond to mark it as 'in default'.\n     * @dev Can only be performed by token owner or authorized\n     * operator.\n     * @param id Id of bond to check for default\n     */\n    function callBond(uint256 id) public onlyValidOperator(id) {\n        // check if bond is overdue\n        bytes32 alpha = bonds[id * 2];\n        Bond memory b = alpha.fillBondFromAlpha(\n            Bond(false, 0, 0, 0, 0, 0, 0, 0, address(0), address(0))\n        );\n        require( // check if bond is done\n            b.curPeriod <= b.nPeriods,\n            \"LifecycleManager: cannot call completed bond\"\n        );\n        require(\n            b.curPeriod * b.periodDuration < block.timestamp - b.startTime,\n            \"LifecycleManager: bond not overdue\"\n        );\n        // mark defaulted\n        bonds[id * 2] = alpha.writeFlag(true);\n        emit BondDefaulted(id);\n    }\n\n    /**\n     * @notice Set bond as complete and forfeight future payments\n     * @dev Can only be performed by token owner or authorized operator.\n     * @param id Bond id\n     */\n    function forgiveBond(uint256 id) public onlyValidOperator(id) {\n        bytes32 alpha = bonds[id * 2];\n        (uint16 per, ) = alpha.readPeriodData();\n        bonds[id * 2] = alpha.writeCurPeriod(per + 1);\n        emit BondCompleted(id);\n    }\n\n    /**\n     * @notice Destroy bond and all related resource, refunding gas\n     * @dev Can only be performed by token owner or authorized operator.\n     * @param id Bond id\n     */\n    function destroyBond(uint256 id) public virtual onlyValidOperator(id) {\n        // Note: raw version implies owner can destroy at any time\n        // frees 4 slots, writes to one\n        // EXPECT this to be overriden by further funcitons as desctruction\n        // becomes conditioned on more things\n        delete bonds[id * 2];\n        delete bonds[id * 2 + 1];\n        address owner = _owners[id];\n        delete _owners[id];\n        delete _tokenApprovals[id];\n        _balances[owner] -= 1;\n    }\n}\n",
  "sourcePath": "/home/runner/work/karmaToken/karmaToken/contracts/LifecycleManager.sol",
  "compiler": {
    "name": "solc",
    "version": "0.8.6+commit.11564f7e.Linux.g++"
  },
  "schemaVersion": "3.4.7",
  "updatedAt": "2022-08-18T18:26:25.366Z",
  "devdoc": {
    "kind": "dev",
    "methods": {
      "addERC1155NFTCurrency(address)": {
        "details": "Note that no tokenId is required -- since we know the count to be 1, the structures that reference this currency can use their field to specify the tokenId.",
        "params": {
          "location": "address of ERC1155 contract being added"
        }
      },
      "addERC1155TokenCurrency(address,uint256)": {
        "details": "TokenId is required because structures that reference this currency are only able to specify one field -- the amount, and so the tokenId must be constant and specified here",
        "params": {
          "location": "address of the ERC1155 contract being added",
          "tokenId": "specific tokenId to associate with this ERC1155 currency listing."
        }
      },
      "addERC20Currency(address)": {
        "params": {
          "location": "address of the ERC20 contract being added"
        }
      },
      "addERC721Currency(address)": {
        "details": "Add a new currency of type ERC721",
        "params": {
          "location": "address of the ERC721 contract being added"
        }
      },
      "approve(address,uint256)": {
        "details": "See {IERC721-approve}."
      },
      "balanceOf(address)": {
        "details": "See {IERC721-balanceOf}."
      },
      "callBond(uint256)": {
        "details": "Can only be performed by token owner or authorized operator.",
        "params": {
          "id": "Id of bond to check for default"
        }
      },
      "destroyBond(uint256)": {
        "details": "Can only be performed by token owner or authorized operator.",
        "params": {
          "id": "Bond id"
        }
      },
      "forgiveBond(uint256)": {
        "details": "Can only be performed by token owner or authorized operator.",
        "params": {
          "id": "Bond id"
        }
      },
      "getApproved(uint256)": {
        "details": "See {IERC721-getApproved}."
      },
      "getBond(uint256)": {
        "params": {
          "id": "Bond id"
        },
        "returns": {
          "_0": "Bond As the expanded bond datastructure at given id"
        }
      },
      "isApprovedForAll(address,address)": {
        "details": "See {IERC721-isApprovedForAll}."
      },
      "mintBond(bytes32,bytes32)": {
        "details": "Minter field must correspond to message sender!",
        "params": {
          "alp": "Alpha bytes to append, as generated by library",
          "bet": "Beta bytes to append, as generated by library"
        }
      },
      "onERC1155Received(address,address,uint256,uint256,bytes)": {
        "details": "Handler function that get's called on any ERC1155 transfer to this function -- accepts only transfers initiated by itself."
      },
      "onERC721Received(address,address,uint256,bytes)": {
        "details": "Handler function that get's called on any ERC721 transfer to this function -- accepts only transfers initiated by itself."
      },
      "ownerOf(uint256)": {
        "details": "See {IERC721-ownerOf}."
      },
      "safeTransferFrom(address,address,uint256)": {
        "details": "See {IERC721-safeTransferFrom}."
      },
      "safeTransferFrom(address,address,uint256,bytes)": {
        "details": "Safely transfers `tokenId` token from `from` to `to`, checking first that contract recipients are aware of the ERC721 protocol to prevent tokens from being forever locked. `_data` is additional data, it has no specified format and it is sent in call to `to`. This internal function is equivalent to {safeTransferFrom}, and can be used to e.g. implement alternative mechanisms to perform token transfer, such as signature-based. Requirements: - `from` cannot be the zero address. - `to` cannot be the zero address. - `tokenId` token must exist and be owned by `from`. - If `to` refers to a smart contract, it must implement {IERC721Receiver-onERC721Received}, which is called upon a safe transfer. Emits a {Transfer} event."
      },
      "serviceBond(uint256,address,uint256,bytes)": {
        "details": "For ether transactions, from and value still have to match or exceed the ether sent and the message sender. Note that call data will only get forwarded for supporting currencies",
        "params": {
          "data": "Additonal bytes to send with the transaction",
          "from": "Account address to take value from",
          "id": "Id of bond to service",
          "value": "Either the amount to apply to the bond, or the NFT id to transfer as service payment"
        }
      },
      "setApprovalForAll(address,bool)": {
        "details": "Approve `operator` to operate on all of `owner` tokens Emits a {ApprovalForAll} event."
      },
      "supportsInterface(bytes4)": {
        "details": "See {IERC165-supportsInterface}."
      },
      "tokenURI(uint256)": {
        "details": "See {IERC721Metadata-tokenURI}."
      },
      "transferFrom(address,address,uint256)": {
        "details": "See {IERC721-transferFrom}."
      },
      "updateBeneficiary(uint256,address)": {
        "params": {
          "id": "Bond id",
          "newBeneficiary": "Address of new beneficiary account"
        }
      }
    },
    "title": " LifecycleManager contract exposing methods related to bringing a bond through it's full lifecycle of servicing, repayment, and   potentially default.",
    "version": 1
  },
  "userdoc": {
    "events": {
      "BeneficiaryChange(uint256,address)": {
        "notice": "recipient of bond payments has been updated"
      },
      "BondCompleted(uint256)": {
        "notice": "bond has been entirely repayed"
      },
      "BondDefaulted(uint256)": {
        "notice": "bond payments have been failed"
      },
      "BondServiced(uint256,address,uint64)": {
        "notice": "new bond payment has been posted"
      },
      "CurrencyAdded(uint256,uint8,address,uint256)": {
        "notice": "New currency has been added to internal listing"
      }
    },
    "kind": "user",
    "methods": {
      "addERC1155NFTCurrency(address)": {
        "notice": "Add a new currency of type ERC1155 NFT."
      },
      "addERC1155TokenCurrency(address,uint256)": {
        "notice": "Add a new currency of type ERC1155 Token"
      },
      "addERC20Currency(address)": {
        "notice": "Add a new currency of type ERC20"
      },
      "bonds(uint256)": {
        "notice": "Bond data array -- holds alpha and beta slots for bond, to be interpreted by LBondManager."
      },
      "callBond(uint256)": {
        "notice": "Call bond to mark it as 'in default'."
      },
      "currencies(uint256)": {
        "notice": "Array holding currency listing."
      },
      "destroyBond(uint256)": {
        "notice": "Destroy bond and all related resource, refunding gas"
      },
      "forgiveBond(uint256)": {
        "notice": "Set bond as complete and forfeight future payments"
      },
      "getBond(uint256)": {
        "notice": "Interpret bond with given id into readable version"
      },
      "mintBond(bytes32,bytes32)": {
        "notice": "Append a new bond with given data"
      },
      "onERC1155Received(address,address,uint256,uint256,bytes)": {
        "notice": "SHOULD NOT be generally called by a direct user"
      },
      "onERC721Received(address,address,uint256,bytes)": {
        "notice": "SHOULD NOT be generally called by a direct user"
      },
      "serviceBond(uint256,address,uint256,bytes)": {
        "notice": "Service a specific bond with generic currency"
      },
      "updateBeneficiary(uint256,address)": {
        "notice": "Update the beneficiary associated with a bond"
      }
    },
    "version": 1
  }
}