{
  "contractName": "MonetizedBondNFT",
  "abi": [
    {
      "inputs": [
        {
          "internalType": "string",
          "name": "name",
          "type": "string"
        },
        {
          "internalType": "string",
          "name": "symbol",
          "type": "string"
        },
        {
          "internalType": "string",
          "name": "uri",
          "type": "string"
        }
      ],
      "stateMutability": "nonpayable",
      "type": "constructor"
    },
    {
      "anonymous": false,
      "inputs": [
        {
          "indexed": true,
          "internalType": "address",
          "name": "owner",
          "type": "address"
        },
        {
          "indexed": true,
          "internalType": "address",
          "name": "approved",
          "type": "address"
        },
        {
          "indexed": true,
          "internalType": "uint256",
          "name": "tokenId",
          "type": "uint256"
        }
      ],
      "name": "Approval",
      "type": "event"
    },
    {
      "anonymous": false,
      "inputs": [
        {
          "indexed": true,
          "internalType": "address",
          "name": "owner",
          "type": "address"
        },
        {
          "indexed": true,
          "internalType": "address",
          "name": "operator",
          "type": "address"
        },
        {
          "indexed": false,
          "internalType": "bool",
          "name": "approved",
          "type": "bool"
        }
      ],
      "name": "ApprovalForAll",
      "type": "event"
    },
    {
      "anonymous": false,
      "inputs": [
        {
          "indexed": false,
          "internalType": "uint256",
          "name": "id",
          "type": "uint256"
        },
        {
          "indexed": false,
          "internalType": "address",
          "name": "beneficiary",
          "type": "address"
        }
      ],
      "name": "BeneficiaryChange",
      "type": "event"
    },
    {
      "anonymous": false,
      "inputs": [
        {
          "indexed": false,
          "internalType": "uint256",
          "name": "id",
          "type": "uint256"
        }
      ],
      "name": "BondCompleted",
      "type": "event"
    },
    {
      "anonymous": false,
      "inputs": [
        {
          "indexed": false,
          "internalType": "uint256",
          "name": "id",
          "type": "uint256"
        }
      ],
      "name": "BondDefaulted",
      "type": "event"
    },
    {
      "anonymous": false,
      "inputs": [
        {
          "indexed": false,
          "internalType": "uint256",
          "name": "id",
          "type": "uint256"
        },
        {
          "indexed": false,
          "internalType": "address",
          "name": "operator",
          "type": "address"
        },
        {
          "indexed": false,
          "internalType": "uint64",
          "name": "toPeriod",
          "type": "uint64"
        }
      ],
      "name": "BondServiced",
      "type": "event"
    },
    {
      "anonymous": false,
      "inputs": [
        {
          "indexed": false,
          "internalType": "uint256",
          "name": "bondId",
          "type": "uint256"
        },
        {
          "indexed": false,
          "internalType": "uint256",
          "name": "collateralId",
          "type": "uint256"
        },
        {
          "indexed": false,
          "internalType": "enum CurrencyType",
          "name": "collateralType",
          "type": "uint8"
        }
      ],
      "name": "CollateralAdded",
      "type": "event"
    },
    {
      "anonymous": false,
      "inputs": [
        {
          "indexed": false,
          "internalType": "uint256",
          "name": "bondId",
          "type": "uint256"
        },
        {
          "indexed": false,
          "internalType": "uint256",
          "name": "collateralId",
          "type": "uint256"
        },
        {
          "indexed": false,
          "internalType": "address",
          "name": "to",
          "type": "address"
        }
      ],
      "name": "CollateralReleased",
      "type": "event"
    },
    {
      "anonymous": false,
      "inputs": [
        {
          "indexed": false,
          "internalType": "uint256",
          "name": "id",
          "type": "uint256"
        },
        {
          "indexed": false,
          "internalType": "enum CurrencyType",
          "name": "currencyType",
          "type": "uint8"
        },
        {
          "indexed": false,
          "internalType": "address",
          "name": "location",
          "type": "address"
        },
        {
          "indexed": false,
          "internalType": "uint256",
          "name": "ERC1155Id",
          "type": "uint256"
        }
      ],
      "name": "CurrencyAdded",
      "type": "event"
    },
    {
      "anonymous": false,
      "inputs": [
        {
          "indexed": false,
          "internalType": "uint64",
          "name": "newFee",
          "type": "uint64"
        }
      ],
      "name": "MintFeeChanged",
      "type": "event"
    },
    {
      "anonymous": false,
      "inputs": [
        {
          "indexed": true,
          "internalType": "address",
          "name": "previousOwner",
          "type": "address"
        },
        {
          "indexed": true,
          "internalType": "address",
          "name": "newOwner",
          "type": "address"
        }
      ],
      "name": "OwnershipTransferred",
      "type": "event"
    },
    {
      "anonymous": false,
      "inputs": [
        {
          "indexed": false,
          "internalType": "uint64",
          "name": "newFee",
          "type": "uint64"
        }
      ],
      "name": "ServiceFeeChanged",
      "type": "event"
    },
    {
      "anonymous": false,
      "inputs": [
        {
          "indexed": true,
          "internalType": "address",
          "name": "from",
          "type": "address"
        },
        {
          "indexed": true,
          "internalType": "address",
          "name": "to",
          "type": "address"
        },
        {
          "indexed": true,
          "internalType": "uint256",
          "name": "tokenId",
          "type": "uint256"
        }
      ],
      "name": "Transfer",
      "type": "event"
    },
    {
      "inputs": [
        {
          "internalType": "uint256",
          "name": "id",
          "type": "uint256"
        },
        {
          "internalType": "uint256",
          "name": "currencyRef",
          "type": "uint256"
        },
        {
          "internalType": "uint256",
          "name": "valueOrId",
          "type": "uint256"
        }
      ],
      "name": "addCollateral",
      "outputs": [],
      "stateMutability": "payable",
      "type": "function"
    },
    {
      "inputs": [
        {
          "internalType": "address",
          "name": "location",
          "type": "address"
        }
      ],
      "name": "addERC1155NFTCurrency",
      "outputs": [],
      "stateMutability": "payable",
      "type": "function"
    },
    {
      "inputs": [
        {
          "internalType": "address",
          "name": "location",
          "type": "address"
        },
        {
          "internalType": "uint256",
          "name": "tokenId",
          "type": "uint256"
        }
      ],
      "name": "addERC1155TokenCurrency",
      "outputs": [],
      "stateMutability": "payable",
      "type": "function"
    },
    {
      "inputs": [
        {
          "internalType": "address",
          "name": "location",
          "type": "address"
        }
      ],
      "name": "addERC20Currency",
      "outputs": [],
      "stateMutability": "payable",
      "type": "function"
    },
    {
      "inputs": [
        {
          "internalType": "address",
          "name": "location",
          "type": "address"
        }
      ],
      "name": "addERC721Currency",
      "outputs": [],
      "stateMutability": "payable",
      "type": "function"
    },
    {
      "inputs": [
        {
          "internalType": "address",
          "name": "to",
          "type": "address"
        },
        {
          "internalType": "uint256",
          "name": "tokenId",
          "type": "uint256"
        }
      ],
      "name": "approve",
      "outputs": [],
      "stateMutability": "nonpayable",
      "type": "function"
    },
    {
      "inputs": [
        {
          "internalType": "address",
          "name": "owner",
          "type": "address"
        }
      ],
      "name": "balanceOf",
      "outputs": [
        {
          "internalType": "uint256",
          "name": "",
          "type": "uint256"
        }
      ],
      "stateMutability": "view",
      "type": "function"
    },
    {
      "inputs": [
        {
          "internalType": "address[]",
          "name": "owners",
          "type": "address[]"
        }
      ],
      "name": "balanceOfBatch",
      "outputs": [
        {
          "internalType": "uint256[]",
          "name": "",
          "type": "uint256[]"
        }
      ],
      "stateMutability": "view",
      "type": "function"
    },
    {
      "inputs": [
        {
          "internalType": "uint256",
          "name": "",
          "type": "uint256"
        }
      ],
      "name": "bonds",
      "outputs": [
        {
          "internalType": "bytes32",
          "name": "",
          "type": "bytes32"
        }
      ],
      "stateMutability": "view",
      "type": "function"
    },
    {
      "inputs": [
        {
          "internalType": "uint256",
          "name": "id",
          "type": "uint256"
        }
      ],
      "name": "callBond",
      "outputs": [],
      "stateMutability": "nonpayable",
      "type": "function"
    },
    {
      "inputs": [
        {
          "internalType": "uint256",
          "name": "",
          "type": "uint256"
        },
        {
          "internalType": "uint256",
          "name": "",
          "type": "uint256"
        }
      ],
      "name": "collateral",
      "outputs": [
        {
          "internalType": "uint256",
          "name": "amountOrId",
          "type": "uint256"
        },
        {
          "internalType": "uint256",
          "name": "currencyRef",
          "type": "uint256"
        }
      ],
      "stateMutability": "view",
      "type": "function"
    },
    {
      "inputs": [
        {
          "internalType": "uint256",
          "name": "",
          "type": "uint256"
        }
      ],
      "name": "currencies",
      "outputs": [
        {
          "internalType": "enum CurrencyType",
          "name": "currencyType",
          "type": "uint8"
        },
        {
          "internalType": "uint88",
          "name": "ERC1155SmallId",
          "type": "uint88"
        },
        {
          "internalType": "address",
          "name": "location",
          "type": "address"
        },
        {
          "internalType": "uint256",
          "name": "ERC1155Id",
          "type": "uint256"
        }
      ],
      "stateMutability": "view",
      "type": "function"
    },
    {
      "inputs": [
        {
          "internalType": "uint256",
          "name": "id",
          "type": "uint256"
        }
      ],
      "name": "destroyBond",
      "outputs": [],
      "stateMutability": "nonpayable",
      "type": "function"
    },
    {
      "inputs": [
        {
          "internalType": "uint256",
          "name": "id",
          "type": "uint256"
        }
      ],
      "name": "forgiveBond",
      "outputs": [],
      "stateMutability": "nonpayable",
      "type": "function"
    },
    {
      "inputs": [
        {
          "internalType": "uint256",
          "name": "tokenId",
          "type": "uint256"
        }
      ],
      "name": "getApproved",
      "outputs": [
        {
          "internalType": "address",
          "name": "",
          "type": "address"
        }
      ],
      "stateMutability": "view",
      "type": "function"
    },
    {
      "inputs": [
        {
          "internalType": "uint256",
          "name": "id",
          "type": "uint256"
        }
      ],
      "name": "getBond",
      "outputs": [
        {
          "components": [
            {
              "internalType": "bool",
              "name": "flag",
              "type": "bool"
            },
            {
              "internalType": "uint32",
              "name": "currencyRef",
              "type": "uint32"
            },
            {
              "internalType": "uint16",
              "name": "nPeriods",
              "type": "uint16"
            },
            {
              "internalType": "uint16",
              "name": "curPeriod",
              "type": "uint16"
            },
            {
              "internalType": "uint64",
              "name": "startTime",
              "type": "uint64"
            },
            {
              "internalType": "uint64",
              "name": "periodDuration",
              "type": "uint64"
            },
            {
              "internalType": "uint256",
              "name": "couponSize",
              "type": "uint256"
            },
            {
              "internalType": "uint256",
              "name": "faceValue",
              "type": "uint256"
            },
            {
              "internalType": "address",
              "name": "beneficiary",
              "type": "address"
            },
            {
              "internalType": "address",
              "name": "minter",
              "type": "address"
            }
          ],
          "internalType": "struct Bond",
          "name": "",
          "type": "tuple"
        }
      ],
      "stateMutability": "view",
      "type": "function"
    },
    {
      "inputs": [
        {
          "internalType": "address",
          "name": "owner",
          "type": "address"
        },
        {
          "internalType": "address",
          "name": "operator",
          "type": "address"
        }
      ],
      "name": "isApprovedForAll",
      "outputs": [
        {
          "internalType": "bool",
          "name": "",
          "type": "bool"
        }
      ],
      "stateMutability": "view",
      "type": "function"
    },
    {
      "inputs": [],
      "name": "mintFee",
      "outputs": [
        {
          "internalType": "uint64",
          "name": "",
          "type": "uint64"
        }
      ],
      "stateMutability": "view",
      "type": "function"
    },
    {
      "inputs": [],
      "name": "name",
      "outputs": [
        {
          "internalType": "string",
          "name": "",
          "type": "string"
        }
      ],
      "stateMutability": "view",
      "type": "function"
    },
    {
      "inputs": [
        {
          "internalType": "address",
          "name": "operator",
          "type": "address"
        },
        {
          "internalType": "address",
          "name": "",
          "type": "address"
        },
        {
          "internalType": "uint256",
          "name": "",
          "type": "uint256"
        },
        {
          "internalType": "uint256",
          "name": "",
          "type": "uint256"
        },
        {
          "internalType": "bytes",
          "name": "",
          "type": "bytes"
        }
      ],
      "name": "onERC1155Received",
      "outputs": [
        {
          "internalType": "bytes4",
          "name": "",
          "type": "bytes4"
        }
      ],
      "stateMutability": "view",
      "type": "function"
    },
    {
      "inputs": [
        {
          "internalType": "address",
          "name": "operator",
          "type": "address"
        },
        {
          "internalType": "address",
          "name": "",
          "type": "address"
        },
        {
          "internalType": "uint256",
          "name": "",
          "type": "uint256"
        },
        {
          "internalType": "bytes",
          "name": "",
          "type": "bytes"
        }
      ],
      "name": "onERC721Received",
      "outputs": [
        {
          "internalType": "bytes4",
          "name": "",
          "type": "bytes4"
        }
      ],
      "stateMutability": "view",
      "type": "function"
    },
    {
      "inputs": [],
      "name": "owner",
      "outputs": [
        {
          "internalType": "address",
          "name": "",
          "type": "address"
        }
      ],
      "stateMutability": "view",
      "type": "function"
    },
    {
      "inputs": [
        {
          "internalType": "uint256",
          "name": "tokenId",
          "type": "uint256"
        }
      ],
      "name": "ownerOf",
      "outputs": [
        {
          "internalType": "address",
          "name": "",
          "type": "address"
        }
      ],
      "stateMutability": "view",
      "type": "function"
    },
    {
      "inputs": [
        {
          "internalType": "uint256[]",
          "name": "ids",
          "type": "uint256[]"
        }
      ],
      "name": "ownerOfBatch",
      "outputs": [
        {
          "internalType": "address[]",
          "name": "",
          "type": "address[]"
        }
      ],
      "stateMutability": "view",
      "type": "function"
    },
    {
      "inputs": [],
      "name": "renounceOwnership",
      "outputs": [],
      "stateMutability": "nonpayable",
      "type": "function"
    },
    {
      "inputs": [
        {
          "internalType": "uint256[]",
          "name": "bondIds",
          "type": "uint256[]"
        },
        {
          "internalType": "address",
          "name": "to",
          "type": "address"
        },
        {
          "internalType": "bytes",
          "name": "data",
          "type": "bytes"
        }
      ],
      "name": "safeBatchReleaseCollaterals",
      "outputs": [],
      "stateMutability": "nonpayable",
      "type": "function"
    },
    {
      "inputs": [
        {
          "internalType": "address",
          "name": "from",
          "type": "address"
        },
        {
          "internalType": "address",
          "name": "to",
          "type": "address"
        },
        {
          "internalType": "uint256[]",
          "name": "ids",
          "type": "uint256[]"
        },
        {
          "internalType": "bytes",
          "name": "_data",
          "type": "bytes"
        }
      ],
      "name": "safeBatchTransferFrom",
      "outputs": [],
      "stateMutability": "nonpayable",
      "type": "function"
    },
    {
      "inputs": [
        {
          "internalType": "address",
          "name": "from",
          "type": "address"
        },
        {
          "internalType": "address",
          "name": "to",
          "type": "address"
        },
        {
          "internalType": "uint256",
          "name": "tokenId",
          "type": "uint256"
        }
      ],
      "name": "safeTransferFrom",
      "outputs": [],
      "stateMutability": "nonpayable",
      "type": "function"
    },
    {
      "inputs": [
        {
          "internalType": "address",
          "name": "from",
          "type": "address"
        },
        {
          "internalType": "address",
          "name": "to",
          "type": "address"
        },
        {
          "internalType": "uint256",
          "name": "tokenId",
          "type": "uint256"
        },
        {
          "internalType": "bytes",
          "name": "_data",
          "type": "bytes"
        }
      ],
      "name": "safeTransferFrom",
      "outputs": [],
      "stateMutability": "nonpayable",
      "type": "function"
    },
    {
      "inputs": [
        {
          "internalType": "uint256",
          "name": "id",
          "type": "uint256"
        },
        {
          "internalType": "address",
          "name": "from",
          "type": "address"
        },
        {
          "internalType": "uint256",
          "name": "value",
          "type": "uint256"
        },
        {
          "internalType": "bytes",
          "name": "data",
          "type": "bytes"
        }
      ],
      "name": "serviceBond",
      "outputs": [],
      "stateMutability": "payable",
      "type": "function"
    },
    {
      "inputs": [],
      "name": "serviceFee",
      "outputs": [
        {
          "internalType": "uint64",
          "name": "",
          "type": "uint64"
        }
      ],
      "stateMutability": "view",
      "type": "function"
    },
    {
      "inputs": [
        {
          "internalType": "address",
          "name": "operator",
          "type": "address"
        },
        {
          "internalType": "bool",
          "name": "approved",
          "type": "bool"
        }
      ],
      "name": "setApprovalForAll",
      "outputs": [],
      "stateMutability": "nonpayable",
      "type": "function"
    },
    {
      "inputs": [
        {
          "internalType": "address[]",
          "name": "operators",
          "type": "address[]"
        },
        {
          "internalType": "bool",
          "name": "approved",
          "type": "bool"
        }
      ],
      "name": "setBatchApprovalForAll",
      "outputs": [],
      "stateMutability": "nonpayable",
      "type": "function"
    },
    {
      "inputs": [
        {
          "internalType": "bytes4",
          "name": "interfaceId",
          "type": "bytes4"
        }
      ],
      "name": "supportsInterface",
      "outputs": [
        {
          "internalType": "bool",
          "name": "",
          "type": "bool"
        }
      ],
      "stateMutability": "view",
      "type": "function"
    },
    {
      "inputs": [],
      "name": "symbol",
      "outputs": [
        {
          "internalType": "string",
          "name": "",
          "type": "string"
        }
      ],
      "stateMutability": "view",
      "type": "function"
    },
    {
      "inputs": [
        {
          "internalType": "uint256",
          "name": "",
          "type": "uint256"
        }
      ],
      "name": "tokenURI",
      "outputs": [
        {
          "internalType": "string",
          "name": "",
          "type": "string"
        }
      ],
      "stateMutability": "view",
      "type": "function"
    },
    {
      "inputs": [
        {
          "internalType": "address",
          "name": "from",
          "type": "address"
        },
        {
          "internalType": "address",
          "name": "to",
          "type": "address"
        },
        {
          "internalType": "uint256",
          "name": "tokenId",
          "type": "uint256"
        }
      ],
      "name": "transferFrom",
      "outputs": [],
      "stateMutability": "nonpayable",
      "type": "function"
    },
    {
      "inputs": [
        {
          "internalType": "address",
          "name": "newOwner",
          "type": "address"
        }
      ],
      "name": "transferOwnership",
      "outputs": [],
      "stateMutability": "nonpayable",
      "type": "function"
    },
    {
      "inputs": [
        {
          "internalType": "uint256",
          "name": "id",
          "type": "uint256"
        },
        {
          "internalType": "address",
          "name": "newBeneficiary",
          "type": "address"
        }
      ],
      "name": "updateBeneficiary",
      "outputs": [],
      "stateMutability": "nonpayable",
      "type": "function"
    },
    {
      "inputs": [
        {
          "internalType": "uint64",
          "name": "newFee",
          "type": "uint64"
        }
      ],
      "name": "setMintFee",
      "outputs": [],
      "stateMutability": "nonpayable",
      "type": "function"
    },
    {
      "inputs": [
        {
          "internalType": "uint64",
          "name": "newFee",
          "type": "uint64"
        }
      ],
      "name": "setServiceFee",
      "outputs": [],
      "stateMutability": "nonpayable",
      "type": "function"
    },
    {
      "inputs": [
        {
          "internalType": "uint256",
          "name": "n",
          "type": "uint256"
        },
        {
          "internalType": "address",
          "name": "to",
          "type": "address"
        },
        {
          "internalType": "bytes",
          "name": "data",
          "type": "bytes"
        }
      ],
      "name": "withdrawValue",
      "outputs": [],
      "stateMutability": "nonpayable",
      "type": "function"
    },
    {
      "inputs": [
        {
          "internalType": "bytes32",
          "name": "alpha",
          "type": "bytes32"
        },
        {
          "internalType": "bytes32",
          "name": "beta",
          "type": "bytes32"
        }
      ],
      "name": "mintBond",
      "outputs": [],
      "stateMutability": "payable",
      "type": "function"
    }
  ],
  "bytecode": "0x6080604052600a805464071afd498d60af1b600160a01b600160e01b0319909116179055600b80546001600160401b031916620f42401790553480156200004557600080fd5b506040516200531a3803806200531a833981016040819052620000689162000370565b82828282828282828282828282828282600090805190602001906200008f92919062000213565b508151620000a590600190602085019062000213565b508051620000bb90600290602084019062000213565b505050505050506007604051806080016040528060006004811115620000e557620000e56200043e565b8152600060208083018290526040830182905260609092018190528354600181810186559482529190208251600290920201805492939092839160ff19909116908360048111156200013b576200013b6200043e565b02179055506020820151815460408401516001600160a01b03166c01000000000000000000000000026001600160601b036001600160581b03909316610100029290921660ff9091161717815560609091015160019091015550620001b49750620001ae965050620001bd945050505050565b620001c1565b5050506200046a565b3390565b600a80546001600160a01b038381166001600160a01b0319831681179093556040519116919082907f8be0079c531659141344cd1fd0a4f28419497f9722a3daafe3b4186f6b6457e090600090a35050565b828054620002219062000401565b90600052602060002090601f01602090048101928262000245576000855562000290565b82601f106200026057805160ff191683800117855562000290565b8280016001018555821562000290579182015b828111156200029057825182559160200191906001019062000273565b506200029e929150620002a2565b5090565b5b808211156200029e5760008155600101620002a3565b600082601f830112620002cb57600080fd5b81516001600160401b0380821115620002e857620002e862000454565b604051601f8301601f19908116603f0116810190828211818310171562000313576200031362000454565b816040528381526020925086838588010111156200033057600080fd5b600091505b8382101562000354578582018301518183018401529082019062000335565b83821115620003665760008385830101525b9695505050505050565b6000806000606084860312156200038657600080fd5b83516001600160401b03808211156200039e57600080fd5b620003ac87838801620002b9565b94506020860151915080821115620003c357600080fd5b620003d187838801620002b9565b93506040860151915080821115620003e857600080fd5b50620003f786828701620002b9565b9150509250925092565b600181811c908216806200041657607f821691505b602082108114156200043857634e487b7160e01b600052602260045260246000fd5b50919050565b634e487b7160e01b600052602160045260246000fd5b634e487b7160e01b600052604160045260246000fd5b614ea0806200047a6000396000f3fe6080604052600436106102dc5760003560e01c806370a0823111610184578063c861c6e6116100d6578063f0c5ad5c1161008a578063f6d1c27111610064578063f6d1c2711461085b578063fe9accf91461088b578063ffb555011461089e57600080fd5b8063f0c5ad5c146107fb578063f23a6e611461081b578063f2fde38b1461083b57600080fd5b8063cd30e2cd116100bb578063cd30e2cd14610772578063d8fe764214610785578063e985e9c5146107b257600080fd5b8063c861c6e61461073f578063c87b56dd1461075257600080fd5b806395d89b4111610138578063a87d837111610112578063a87d8371146106d2578063b88d4fde146106f2578063bda801171461071257600080fd5b806395d89b411461067d5780639f949d9d14610692578063a22cb465146106b257600080fd5b806378cb91751161016957806378cb91751461061e5780638abdf5aa1461063e5780638da5cb5b1461065f57600080fd5b806370a08231146105e9578063715018a61461060957600080fd5b8063275da3b41161023d578063458c738e116101f157806362311f55116101cb57806362311f55146105805780636352211e146105a057806368b0d5a8146105d657600080fd5b8063458c738e1461050557806356b2c8c4146105325780635f1c17c01461055257600080fd5b80633e8eb5a4116102225780633e8eb5a4146104a55780633f37b00c146104c557806342842e0e146104e557600080fd5b8063275da3b41461047257806328cfbd461461048557600080fd5b806313966db511610294578063187ddf8711610279578063187ddf871461041f5780631f5e180e1461043f57806323b872dd1461045257600080fd5b806313966db5146103a5578063150b7a02146103e657600080fd5b8063081812fc116102c5578063081812fc14610338578063095ea7b3146103705780630f68e5fc1461039257600080fd5b806301ffc9a7146102e157806306fdde0314610316575b600080fd5b3480156102ed57600080fd5b506103016102fc3660046145d9565b6108d3565b60405190151581526020015b60405180910390f35b34801561032257600080fd5b5061032b610970565b60405161030d9190614a9f565b34801561034457600080fd5b50610358610353366004614700565b6109fe565b6040516001600160a01b03909116815260200161030d565b34801561037c57600080fd5b5061039061038b366004614421565b610aa9565b005b6103906103a0366004614797565b610bb3565b3480156103b157600080fd5b50600a546103cd90600160a01b900467ffffffffffffffff1681565b60405167ffffffffffffffff909116815260200161030d565b3480156103f257600080fd5b506104066104013660046142a4565b610f86565b6040516001600160e01b0319909116815260200161030d565b34801561042b57600080fd5b5061039061043a36600461448a565b610fb4565b61039061044d366004614167565b6110a4565b34801561045e57600080fd5b5061039061046d366004614263565b6110df565b6103906104803660046145b7565b6111ba565b34801561049157600080fd5b506103906104a03660046141da565b611251565b3480156104b157600080fd5b506103906104c0366004614719565b6113a7565b3480156104d157600080fd5b506103906104e0366004614506565b6115aa565b3480156104f157600080fd5b50610390610500366004614263565b6118a4565b34801561051157600080fd5b5061052561052036600461444d565b6118bf565b60405161030d9190614a13565b34801561053e57600080fd5b5061039061054d3660046147ed565b61198a565b34801561055e57600080fd5b5061057261056d366004614700565b611a5a565b60405190815260200161030d565b34801561058c57600080fd5b5061039061059b366004614700565b611a7b565b3480156105ac57600080fd5b506103586105bb366004614700565b6000908152600360205260409020546001600160a01b031690565b6103906105e4366004614421565b611b80565b3480156105f557600080fd5b50610572610604366004614167565b611bd3565b34801561061557600080fd5b50610390611c6d565b34801561062a57600080fd5b50610390610639366004614700565b611cd3565b34801561064a57600080fd5b50600b546103cd9067ffffffffffffffff1681565b34801561066b57600080fd5b50600a546001600160a01b0316610358565b34801561068957600080fd5b5061032b6120d4565b34801561069e57600080fd5b506103906106ad366004614700565b6120e1565b3480156106be57600080fd5b506103906106cd3660046143f3565b61236f565b3480156106de57600080fd5b506103906106ed36600461473e565b6123db565b3480156106fe57600080fd5b5061039061070d366004614317565b612509565b34801561071e57600080fd5b5061073261072d3660046144d1565b6125f1565b60405161030d91906149c6565b61039061074d3660046147c1565b6126c3565b34801561075e57600080fd5b5061032b61076d366004614700565b6127d4565b610390610780366004614167565b612868565b34801561079157600080fd5b506107a56107a0366004614700565b61287f565b60405161030d9190614ab2565b3480156107be57600080fd5b506103016107cd3660046141a1565b6001600160a01b03918216600090815260066020908152604080832093909416825291909152205460ff1690565b34801561080757600080fd5b506103906108163660046147ed565b6129be565b34801561082757600080fd5b50610406610836366004614377565b612a68565b34801561084757600080fd5b50610390610856366004614167565b612ab0565b34801561086757600080fd5b5061087b610876366004614700565b612b8f565b60405161030d9493929190614a60565b610390610899366004614167565b612be4565b3480156108aa57600080fd5b506108be6108b93660046145b7565b612bfb565b6040805192835260208301919091520161030d565b60006001600160e01b031982167f80ac58cd00000000000000000000000000000000000000000000000000000000148061093657506001600160e01b031982167f5b5e139f00000000000000000000000000000000000000000000000000000000145b8061096a57507f01ffc9a7000000000000000000000000000000000000000000000000000000006001600160e01b03198316145b92915050565b6000805461097d90614c6e565b80601f01602080910402602001604051908101604052809291908181526020018280546109a990614c6e565b80156109f65780601f106109cb576101008083540402835291602001916109f6565b820191906000526020600020905b8154815290600101906020018083116109d957829003601f168201915b505050505081565b6000818152600360205260408120546001600160a01b0316610a8d5760405162461bcd60e51b815260206004820152602c60248201527f4552433732313a20617070726f76656420717565727920666f72206e6f6e657860448201527f697374656e7420746f6b656e000000000000000000000000000000000000000060648201526084015b60405180910390fd5b506000908152600560205260409020546001600160a01b031690565b60008181526003602052604090205481906001600160a01b03163314610b115760405162461bcd60e51b815260206004820152601b60248201527f4552433732313a2063616c6c6564206973206e6f74206f776e657200000000006044820152606401610a84565b6000828152600360205260409020546001600160a01b03908116908416811415610ba35760405162461bcd60e51b815260206004820152602160248201527f4552433732313a20617070726f76616c20746f2063757272656e74206f776e6560448201527f72000000000000000000000000000000000000000000000000000000000000006064820152608401610a84565b610bad8484612c37565b50505050565b6040805161014081018252600080825260208201819052918101829052606081018290526080810182905260a0810182905260c0810182905260e0810182905261010081018290526101208101829052906008610c11886002614bb9565b81548110610c2157610c21614d49565b60009182526020909120015460405163836c4e3360e01b815290915073__LBondManager__________________________9063836c4e3390610c699084908690600401614a4b565b6101406040518083038186803b158015610c8257600080fd5b505af4158015610c96573d6000803e3d6000fd5b505050506040513d601f19601f82011682018060405250810190610cba9190614613565b805190925015610d325760405162461bcd60e51b815260206004820152602f60248201527f4c6966656379636c654d616e616765723a2063616e6e6f74207365727669636560448201527f2064656661756c74656420626f6e6400000000000000000000000000000000006064820152608401610a84565b602082015163ffffffff16610e565784341015610d5157610d51614cf1565b336001600160a01b03871614610d6957610d69614cf1565b610d7582828988612c9e565b60008261010001516001600160a01b0316868686604051610d97929190614925565b60006040518083038185875af1925050503d8060008114610dd4576040519150601f19603f3d011682016040523d82523d6000602084013e610dd9565b606091505b5050905080610e505760405162461bcd60e51b815260206004820152602a60248201527f4c6966656379636c654d616e616765723a206574686572207472616e7361637460448201527f696f6e206661696c6564000000000000000000000000000000000000000000006064820152608401610a84565b50610f2c565b60006007836020015163ffffffff1681548110610e7557610e75614d49565b60009182526020909120600291820201805490925060ff1690816004811115610ea057610ea0614d1d565b1480610ebd57506004816004811115610ebb57610ebb614d1d565b145b15610ed457610ecf84848b6001612c9e565b610ee0565b610ee084848b8a612c9e565b610f2882898661010001518a8a8a8080601f016020809104026020016040519081016040528093929190818152602001838380828437600092019190915250612f9792505050565b5050505b606080830151604080518a81526001600160a01b038a16602082015261ffff909216908201527fda82ac16b4aa1e491f2ec1eb4b24b3d9a42ae226c5079255d032ce34f43d55f6910160405180910390a150505050505050565b60006001600160a01b038616301415610fa75750630a85bd0160e11b610fab565b5060005b95945050505050565b60005b825181101561109f573360009081526006602052604081208451849290869085908110610fe657610fe6614d49565b60200260200101516001600160a01b03166001600160a01b0316815260200190815260200160002060006101000a81548160ff02191690831515021790555082818151811061103757611037614d49565b60200260200101516001600160a01b0316336001600160a01b03167f17307eab39ab6107e8899845ad3d59bd9653f200f220920489ca2b5937696c3184604051611085911515815260200190565b60405180910390a38061109781614cd6565b915050610fb7565b505050565b60408051608081019091526110dc908060045b81526000602082018190526001600160a01b03851660408301526060909101526132b3565b50565b60008181526003602052604090205481906001600160a01b03163381148061112a57506001600160a01b038116600090815260066020908152604080832033845290915290205460ff165b8061114b57506000828152600560205260409020546001600160a01b031633145b6111a85760405162461bcd60e51b815260206004820152602860248201527f4552433732313a2063616c6c6572206973206e6f74206f776e6572206e6f7220604482015267185c1c1c9bdd995960c21b6064820152608401610a84565b6111b38585856133ff565b5050505050565b600a54600160a01b900467ffffffffffffffff163410156112435760405162461bcd60e51b815260206004820152603260248201527f4d6f6e6574697a65644c6f616e4e46543a206574682073656e7420646f65732060448201527f6e6f7420636f766572206d696e742066656500000000000000000000000000006064820152608401610a84565b61124d82826135cc565b5050565b60005b82518110156111b357336001600160a01b038616148061129757506001600160a01b038516600090815260066020908152604080832033845290915290205460ff165b806112da5750600560008483815181106112b3576112b3614d49565b6020908102919091018101518252810191909152604001600020546001600160a01b031633145b61134c5760405162461bcd60e51b815260206004820152602960248201527f53757065724552433732313a2063616c6c6572206973206e6f742076616c696460448201527f206f70657261746f7200000000000000000000000000000000000000000000006064820152608401610a84565b611370858585848151811061136357611363614d49565b60200260200101516133ff565b611395858585848151811061138757611387614d49565b602002602001015185613729565b8061139f81614cd6565b915050611254565b60008281526003602052604090205482906001600160a01b0316338114806113f257506001600160a01b038116600090815260066020908152604080832033845290915290205460ff165b8061141357506000828152600560205260409020546001600160a01b031633145b6114705760405162461bcd60e51b815260206004820152602860248201527f4552433732313a2063616c6c6572206973206e6f74206f776e6572206e6f7220604482015267185c1c1c9bdd995960c21b6064820152608401610a84565b600061147d856002614bb9565b905073__LBondManager__________________________6391fc35fd600883815481106114ac576114ac614d49565b9060005260206000200154866040518363ffffffff1660e01b81526004016114e79291909182526001600160a01b0316602082015260400190565b60206040518083038186803b1580156114ff57600080fd5b505af4158015611513573d6000803e3d6000fd5b505050506040513d601f19601f82011682018060405250810190611537919061459e565b6008828154811061154a5761154a614d49565b90600052602060002001819055507fbb18cf80bf9cf9e4b91e7ef34ae790edb68cfd0af883758c4cbffc183b84ab70858560405161159b9291909182526001600160a01b0316602082015260400190565b60405180910390a15050505050565b600780546000199182916000919082906115c6576115c6614d49565b9060005260206000209060020201905060005b875181101561189a5760008882815181106115f6576115f6614d49565b602002602001015190508085141580611610575084600019145b156116955761161f81336138f1565b6116915760405162461bcd60e51b815260206004820152603560248201527f436f6c6c61746572616c4d616e616765723a20756e617574686f72697a65642060448201527f746f2072656c6561736520636f6c6c61746572616c00000000000000000000006064820152608401610a84565b8094505b6000818152600960205260408120546116b090600190614c2b565b600083815260096020526040812080549293509091839081106116d5576116d5614d49565b60009182526020808320604080518082018252600290940290910180548452600101548383015286845260099091529091208054919250908061171a5761171a614d33565b60008281526020812060026000199093019283020181815560010155905580516117ac5760405162461bcd60e51b815260206004820152603c60248201527f436f6c6c61746572616c4d616e616765723a207468697320636f6c6c6174657260448201527f616c2068617320616c7265616479206265656e2072656c6561736564000000006064820152608401610a84565b8060200151861415806117c0575085600019145b156117f45760078160200151815481106117dc576117dc614d49565b90600052602060002090600202019450806020015195505b61183b85308c84600001518d8d8080601f016020809104026020016040519081016040528093929190818152602001838380828437600092019190915250612f9792505050565b5060408051848152602081018490526001600160a01b038c168183015290517f054ec7ece823327cac62b619c1ad0d5ec021821029747486a9635b77a351be609181900360600190a1505050808061189290614cd6565b9150506115d9565b5050505050505050565b61109f83838360405180602001604052806000815250612509565b60606000825167ffffffffffffffff8111156118dd576118dd614d5f565b604051908082528060200260200182016040528015611906578160200160208202803683370190505b50905060005b8351811015611983576004600085838151811061192b5761192b614d49565b60200260200101516001600160a01b03166001600160a01b031681526020019081526020016000205482828151811061196657611966614d49565b60209081029190910101528061197b81614cd6565b91505061190c565b5092915050565b600a546001600160a01b031633146119e45760405162461bcd60e51b815260206004820181905260248201527f4f776e61626c653a2063616c6c6572206973206e6f7420746865206f776e65726044820152606401610a84565b600a80547fffffffff0000000000000000ffffffffffffffffffffffffffffffffffffffff16600160a01b67ffffffffffffffff8416908102919091179091556040519081527e56cb8e9c017787765f5e531508a458e673cc1c25779f6de87b3717cf6c7006906020015b60405180910390a150565b60088181548110611a6a57600080fd5b600091825260209091200154905081565b60008181526003602052604090205481906001600160a01b031633811480611ac657506001600160a01b038116600090815260066020908152604080832033845290915290205460ff165b80611ae757506000828152600560205260409020546001600160a01b031633145b611b445760405162461bcd60e51b815260206004820152602860248201527f4552433732313a2063616c6c6572206973206e6f74206f776e6572206e6f7220604482015267185c1c1c9bdd995960c21b6064820152608401610a84565b60008381526009602052604090205415611b6057611b60614cf1565b6000838152600960205260408120611b7791613f39565b61109f83613b47565b60408051608081018252600381526affffffffffffffffffffff8316602082018190526001600160a01b0385169282019290925260006060820152908214611bca57606081018290525b61109f816132b3565b60006001600160a01b038216611c515760405162461bcd60e51b815260206004820152602a60248201527f4552433732313a2062616c616e636520717565727920666f7220746865207a6560448201527f726f2061646472657373000000000000000000000000000000000000000000006064820152608401610a84565b506001600160a01b031660009081526004602052604090205490565b600a546001600160a01b03163314611cc75760405162461bcd60e51b815260206004820181905260248201527f4f776e61626c653a2063616c6c6572206973206e6f7420746865206f776e65726044820152606401610a84565b611cd16000613ccc565b565b60008181526003602052604090205481906001600160a01b031633811480611d1e57506001600160a01b038116600090815260066020908152604080832033845290915290205460ff165b80611d3f57506000828152600560205260409020546001600160a01b031633145b611d9c5760405162461bcd60e51b815260206004820152602860248201527f4552433732313a2063616c6c6572206973206e6f74206f776e6572206e6f7220604482015267185c1c1c9bdd995960c21b6064820152608401610a84565b60006008611dab856002614bb9565b81548110611dbb57611dbb614d49565b60009182526020808320909101546040805161014081018252848152928301849052828101849052606083018490526080830184905260a0830184905260c0830184905260e08301849052610100830184905261012083018490525163836c4e3360e01b815290935073__LBondManager__________________________9163836c4e3391611e4e918691600401614a4b565b6101406040518083038186803b158015611e6757600080fd5b505af4158015611e7b573d6000803e3d6000fd5b505050506040513d601f19601f82011682018060405250810190611e9f9190614613565b9050806040015161ffff16816060015161ffff161115611f275760405162461bcd60e51b815260206004820152602c60248201527f4c6966656379636c654d616e616765723a2063616e6e6f742063616c6c20636f60448201527f6d706c6574656420626f6e6400000000000000000000000000000000000000006064820152608401610a84565b6080810151611f409067ffffffffffffffff1642614c2b565b8160a00151826060015161ffff16611f589190614bd8565b67ffffffffffffffff1610611fd55760405162461bcd60e51b815260206004820152602260248201527f4c6966656379636c654d616e616765723a20626f6e64206e6f74206f7665726460448201527f75650000000000000000000000000000000000000000000000000000000000006064820152608401610a84565b6040517f83244ba4000000000000000000000000000000000000000000000000000000008152600481018390526001602482015273__LBondManager__________________________906383244ba49060440160206040518083038186803b15801561204057600080fd5b505af4158015612054573d6000803e3d6000fd5b505050506040513d601f19601f82011682018060405250810190612078919061459e565b6008612085876002614bb9565b8154811061209557612095614d49565b90600052602060002001819055507f9d88e5720db4604a83f973ccb5ac75609d3fcb60e6c2c1118ac2e7b029ce1d9b8560405161159b91815260200190565b6001805461097d90614c6e565b60008181526003602052604090205481906001600160a01b03163381148061212c57506001600160a01b038116600090815260066020908152604080832033845290915290205460ff165b8061214d57506000828152600560205260409020546001600160a01b031633145b6121aa5760405162461bcd60e51b815260206004820152602860248201527f4552433732313a2063616c6c6572206973206e6f74206f776e6572206e6f7220604482015267185c1c1c9bdd995960c21b6064820152608401610a84565b600060086121b9856002614bb9565b815481106121c9576121c9614d49565b60009182526020822001546040517f36d7bc700000000000000000000000000000000000000000000000000000000081526004810182905290925073__LBondManager__________________________906336d7bc7090602401604080518083038186803b15801561223a57600080fd5b505af415801561224e573d6000803e3d6000fd5b505050506040513d601f19601f8201168201806040525081019061227291906146cd565b50905073__LBondManager__________________________63d07f83288361229b846001614b59565b6040516001600160e01b031960e085901b168152600481019290925261ffff16602482015260440160206040518083038186803b1580156122db57600080fd5b505af41580156122ef573d6000803e3d6000fd5b505050506040513d601f19601f82011682018060405250810190612313919061459e565b6008612320876002614bb9565b8154811061233057612330614d49565b90600052602060002001819055507f5ee8a220dbeeb0d453e678b58d1504bafdb5d1a5b55029fcc873b4813066a8318560405161159b91815260200190565b3360008181526006602090815260408083206001600160a01b03871680855290835292819020805460ff191686151590811790915590519081529192917f17307eab39ab6107e8899845ad3d59bd9653f200f220920489ca2b5937696c31910160405180910390a35050565b600a546001600160a01b031633146124355760405162461bcd60e51b815260206004820181905260248201527f4f776e61626c653a2063616c6c6572206973206e6f7420746865206f776e65726044820152606401610a84565b6000826001600160a01b031684836040516124509190614935565b60006040518083038185875af1925050503d806000811461248d576040519150601f19603f3d011682016040523d82523d6000602084013e612492565b606091505b5050905080610bad5760405162461bcd60e51b815260206004820152602160248201527f4d6f6e6574697a6564426f6e644e46543a207769746864726177206661696c6560448201527f64000000000000000000000000000000000000000000000000000000000000006064820152608401610a84565b60008281526003602052604090205482906001600160a01b03163381148061255457506001600160a01b038116600090815260066020908152604080832033845290915290205460ff165b8061257557506000828152600560205260409020546001600160a01b031633145b6125d25760405162461bcd60e51b815260206004820152602860248201527f4552433732313a2063616c6c6572206973206e6f74206f776e6572206e6f7220604482015267185c1c1c9bdd995960c21b6064820152608401610a84565b6125dd8686866133ff565b6125e986868686613729565b505050505050565b60606000825167ffffffffffffffff81111561260f5761260f614d5f565b604051908082528060200260200182016040528015612638578160200160208202803683370190505b50905060005b8351811015611983576003600085838151811061265d5761265d614d49565b6020026020010151815260200190815260200160002060009054906101000a90046001600160a01b031682828151811061269957612699614d49565b6001600160a01b0390921660209283029190910190910152806126bb81614cd6565b91505061263e565b600083815260096020908152604080832081518083019092528482528183018681528154600181810184559286529385209251600290940290920192835590519101558261271f5781341461271a5761271a614cf1565b612777565b60006007848154811061273457612734614d49565b906000526020600020906002020190508060000160009054906101000a900460ff1691506127748133308660405180602001604052806000815250612f97565b50505b6000848152600960205260409020547f49b6f5ac374c4be8466fd8c3b0f9871cb2c0dfc84323369c5cff54e96a17234e9085906127b690600190614c2b565b836040516127c693929190614af0565b60405180910390a150505050565b6060600280546127e390614c6e565b80601f016020809104026020016040519081016040528092919081815260200182805461280f90614c6e565b801561285c5780601f106128315761010080835404028352916020019161285c565b820191906000526020600020905b81548152906001019060200180831161283f57829003601f168201915b50505050509050919050565b60408051608081019091526110dc908060026110b7565b6040805161014081018252600080825260208201819052918101829052606081018290526080810182905260a0810182905260c0810182905260e08101829052610100810182905261012081019190915273__LBondManager__________________________6388bc65c460086128f7856002614bb9565b8154811061290757612907614d49565b906000526020600020015460088560026129219190614bb9565b61292c906001614b7f565b8154811061293c5761293c614d49565b90600052602060002001546040518363ffffffff1660e01b815260040161296d929190918252602082015260400190565b6101406040518083038186803b15801561298657600080fd5b505af415801561299a573d6000803e3d6000fd5b505050506040513d601f19601f8201168201806040525081019061096a9190614613565b600a546001600160a01b03163314612a185760405162461bcd60e51b815260206004820181905260248201527f4f776e61626c653a2063616c6c6572206973206e6f7420746865206f776e65726044820152606401610a84565b600b805467ffffffffffffffff191667ffffffffffffffff83169081179091556040519081527faeff230597ce7fc92614cded74c3f34e2a059bf3565faad807d09f4e72830c0890602001611a4f565b60006001600160a01b038716301415612aa257507ff23a6e6100000000000000000000000000000000000000000000000000000000612aa6565b5060005b9695505050505050565b600a546001600160a01b03163314612b0a5760405162461bcd60e51b815260206004820181905260248201527f4f776e61626c653a2063616c6c6572206973206e6f7420746865206f776e65726044820152606401610a84565b6001600160a01b038116612b865760405162461bcd60e51b815260206004820152602660248201527f4f776e61626c653a206e6577206f776e657220697320746865207a65726f206160448201527f64647265737300000000000000000000000000000000000000000000000000006064820152608401610a84565b6110dc81613ccc565b60078181548110612b9f57600080fd5b60009182526020909120600290910201805460019091015460ff8216925061010082046affffffffffffffffffffff1691600160601b90046001600160a01b03169084565b60408051608081019091526110dc908060016110b7565b60096020528160005260406000208181548110612c1757600080fd5b600091825260209091206002909102018054600190910154909250905082565b600081815260056020908152604080832080546001600160a01b0319166001600160a01b038781169182179092556003909352818420549151859492909116917f8c5be1e5ebec7d5bd14f71427d1e84f3dd0314c0f7b2291e5b200ac8c7c3b92591a45050565b60008460c0015182612cb09190614b97565b905060008161ffff1611612d2c5760405162461bcd60e51b815260206004820152602e60248201527f4c6966656379636c654d616e616765723a2073657276696365207061796d656e60448201527f7420696e73756666696369656e740000000000000000000000000000000000006064820152608401610a84565b8085606001818151612d3e9190614b59565b61ffff90811690915260408701516060880151908216911611159050612ebb576008612d6b846002614bb9565b612d76906001614b7f565b81548110612d8657612d86614d49565b6000918252602090912001546040517f746386ef000000000000000000000000000000000000000000000000000000008152600481019190915273__LBondManager__________________________9063746386ef9060240160206040518083038186803b158015612df757600080fd5b505af4158015612e0b573d6000803e3d6000fd5b505050506040513d601f19601f82011682018060405250810190612e2f919061459e565b8560c0015186604001518760600151612e489190614c08565b61ffff16612e569190614bb9565b10612eac576040850151612e6b906001614b59565b61ffff1660608601526040518381527f5ee8a220dbeeb0d453e678b58d1504bafdb5d1a5b55029fcc873b4813066a8319060200160405180910390a1612ebb565b604085015161ffff1660608601525b60608501516040517fd07f83280000000000000000000000000000000000000000000000000000000081526004810186905261ffff909116602482015273__LBondManager__________________________9063d07f83289060440160206040518083038186803b158015612f2f57600080fd5b505af4158015612f43573d6000803e3d6000fd5b505050506040513d601f19601f82011682018060405250810190612f67919061459e565b6008612f74856002614bb9565b81548110612f8457612f84614d49565b6000918252602090912001555050505050565b60006001865460ff166004811115612fb157612fb1614d1d565b14156130d7576001600160a01b0385163014156130765785546040517fa9059cbb0000000000000000000000000000000000000000000000000000000081526001600160a01b03868116600483015260248201869052600160601b9092049091169063a9059cbb906044015b602060405180830381600087803b15801561303757600080fd5b505af115801561304b573d6000803e3d6000fd5b505050506040513d601f19601f8201168201806040525081019061306f9190614581565b9050610fab565b85546040517f23b872dd0000000000000000000000000000000000000000000000000000000081526001600160a01b038781166004830152868116602483015260448201869052600160601b909204909116906323b872dd9060640161301d565b6002865460ff1660048111156130ef576130ef614d1d565b14156131975785546040517fb88d4fde0000000000000000000000000000000000000000000000000000000081526001600160a01b0387811660048301528681166024830152604482018690526080606483015260006084830152600160601b9092049091169063b88d4fde9060a4015b600060405180830381600087803b15801561317a57600080fd5b505af115801561318e573d6000803e3d6000fd5b505050506132a7565b6003865460ff1660048111156131af576131af614d1d565b14156132185760018601546131d857855461010090046affffffffffffffffffffff1660018701555b85546001870154604051637921219560e11b8152600160601b9092046001600160a01b03169163f242432a91613160918991899189908990600401614983565b6004865460ff16600481111561323057613230614d1d565b14156132a7578554604051637921219560e11b8152600160601b9091046001600160a01b03169063f242432a90613274908890889088906001908990600401614983565b600060405180830381600087803b15801561328e57600080fd5b505af11580156132a2573d6000803e3d6000fd5b505050505b50600195945050505050565b6007805460018181018355600092909252825160029091027fa66cc928b5edb82af9bd49922954155ab7b0942694bea4ce44661d9a8736c6880180548493919291839160ff19169083600481111561330d5761330d614d1d565b02179055506020820151815460408401516001600160a01b0316600160601b026bffffffffffffffffffffffff6affffffffffffffffffffff909316610100029290921660ff90911617178155606090910151600190910155600060038251600481111561337d5761337d614d1d565b14156133aa5781602001516affffffffffffffffffffff16905081606001516000146133aa575060608101515b6007547f2de521bc3664deadab052ac566d3e29f17b816025957077cd43ae461ebe16707906133db90600190614c2b565b835160408086015190516133f3939291908690614ac1565b60405180910390a15050565b6000818152600360205260409020546001600160a01b0384811691161461348e5760405162461bcd60e51b815260206004820152602960248201527f4552433732313a207472616e73666572206f6620746f6b656e2074686174206960448201527f73206e6f74206f776e00000000000000000000000000000000000000000000006064820152608401610a84565b6001600160a01b0382166135095760405162461bcd60e51b8152602060048201526024808201527f4552433732313a207472616e7366657220746f20746865207a65726f2061646460448201527f72657373000000000000000000000000000000000000000000000000000000006064820152608401610a84565b613514600082612c37565b6001600160a01b038316600090815260046020526040812080546001929061353d908490614c2b565b90915550506001600160a01b038216600090815260046020526040812080546001929061356b908490614b7f565b909155505060008181526003602052604080822080546001600160a01b0319166001600160a01b0386811691821790925591518493918716917fddf252ad1be2c89b69c2b068fc378daa952ba7f163c4a11628f55a4df523b3ef91a4505050565b6040517f511e6fbd0000000000000000000000000000000000000000000000000000000081526004810182905273__LBondManager__________________________9063511e6fbd9060240160206040518083038186803b15801561363057600080fd5b505af4158015613644573d6000803e3d6000fd5b505050506040513d601f19601f820116820180604052508101906136689190614184565b6001600160a01b0316336001600160a01b0316146136c85760405162461bcd60e51b815260206004820181905260248201527f426f6e64546f6b656e3a206d696e746572206d7573742062652063616c6c65726044820152606401610a84565b6008546000906136da90600290614b97565b600880546001818101835560008390527ff3f7a9fe364faab93b216da50a3214154f22a0a2b415b23a84c8169e8b636ee3918201879055825490810190925501839055905061109f3382613d1e565b6001600160a01b0383163b15610bad57604051630a85bd0160e11b81526001600160a01b0384169063150b7a029061376b903390889087908790600401614951565b602060405180830381600087803b15801561378557600080fd5b505af19250505080156137b5575060408051601f3d908101601f191682019092526137b2918101906145f6565b60015b61386b576137c1614d75565b806308c379a014156137fb57506137d6614d91565b806137e157506137fd565b8060405162461bcd60e51b8152600401610a849190614a9f565b505b60405162461bcd60e51b815260206004820152603260248201527f4552433732313a207472616e7366657220746f206e6f6e20455243373231526560448201527f63656976657220696d706c656d656e74657200000000000000000000000000006064820152608401610a84565b6001600160e01b03198116630a85bd0160e11b146111b35760405162461bcd60e51b815260206004820152602560248201527f4552433732313a2045524337323152656365697665722072656a65637465642060448201527f746f6b656e0000000000000000000000000000000000000000000000000000006064820152608401610a84565b6040805161014081018252600080825260208201819052918101829052606081018290526080810182905260a0810182905260c0810182905260e0810182905261010081018290526101208101829052600861394e856002614bb9565b8154811061395e5761395e614d49565b60009182526020909120015460405163836c4e3360e01b815273__LBondManager__________________________9163836c4e33916139a291908590600401614a4b565b6101406040518083038186803b1580156139bb57600080fd5b505af41580156139cf573d6000803e3d6000fd5b505050506040513d601f19601f820116820180604052508101906139f39190614613565b60008581526003602052604081205491925090613a1b9086906001600160a01b031686613e78565b82519091508015613a295750805b15613a395760019250505061096a565b6008613a46866002614bb9565b613a51906001614b7f565b81548110613a6157613a61614d49565b6000918252602090912001546040517fb437f29400000000000000000000000000000000000000000000000000000000815273__LBondManager__________________________9163b437f29491613abe91908690600401614a4b565b6101406040518083038186803b158015613ad757600080fd5b505af4158015613aeb573d6000803e3d6000fd5b505050506040513d601f19601f82011682018060405250810190613b0f9190614613565b91506000613b2283610120015186613eed565b9050826040015161ffff16836060015161ffff16118015612aa6575095945050505050565b60008181526003602052604090205481906001600160a01b031633811480613b9257506001600160a01b038116600090815260066020908152604080832033845290915290205460ff165b80613bb357506000828152600560205260409020546001600160a01b031633145b613c105760405162461bcd60e51b815260206004820152602860248201527f4552433732313a2063616c6c6572206973206e6f74206f776e6572206e6f7220604482015267185c1c1c9bdd995960c21b6064820152608401610a84565b6008613c1d846002614bb9565b81548110613c2d57613c2d614d49565b60009182526020822001556008613c45846002614bb9565b613c50906001614b7f565b81548110613c6057613c60614d49565b6000918252602080832090910182905584825260038152604080832080546001600160a01b03198082169092556005845282852080549092169091556001600160a01b03168084526004909252822080549192600192613cc1908490614c2b565b909155505050505050565b600a80546001600160a01b038381166001600160a01b0319831681179093556040519116919082907f8be0079c531659141344cd1fd0a4f28419497f9722a3daafe3b4186f6b6457e090600090a35050565b6001600160a01b038216613d745760405162461bcd60e51b815260206004820181905260248201527f4552433732313a206d696e7420746f20746865207a65726f20616464726573736044820152606401610a84565b6000818152600360205260409020546001600160a01b031615613dd95760405162461bcd60e51b815260206004820152601c60248201527f4552433732313a20746f6b656e20616c7265616479206d696e746564000000006044820152606401610a84565b6001600160a01b0382166000908152600460205260408120805460019290613e02908490614b7f565b909155505060008181526003602052604080822080546001600160a01b0319166001600160a01b03861690811790915590518392907fddf252ad1be2c89b69c2b068fc378daa952ba7f163c4a11628f55a4df523b3ef908290a461124d6000838360405180602001604052806000815250613729565b6000826001600160a01b0316826001600160a01b03161480613ebf57506001600160a01b0380841660009081526006602090815260408083209386168352929052205460ff165b80613ee357506000848152600560205260409020546001600160a01b038381169116145b90505b9392505050565b6000826001600160a01b0316826001600160a01b03161480613ee65750506001600160a01b03918216600090815260066020908152604080832093909416825291909152205460ff1690565b50805460008255600202906000526020600020908101906110dc91905b80821115613f705760008082556001820155600201613f56565b5090565b8051613f7f81614e1b565b919050565b600082601f830112613f9557600080fd5b81356020613fa282614b35565b604051613faf8282614ca9565b8381528281019150858301600585901b87018401881015613fcf57600080fd5b60005b85811015613ff7578135613fe581614e1b565b84529284019290840190600101613fd2565b5090979650505050505050565b600082601f83011261401557600080fd5b8135602061402282614b35565b60405161402f8282614ca9565b8381528281019150858301600585901b8701840188101561404f57600080fd5b60005b85811015613ff757813584529284019290840190600101614052565b8051613f7f81614e30565b60008083601f84011261408b57600080fd5b50813567ffffffffffffffff8111156140a357600080fd5b6020830191508360208285010111156140bb57600080fd5b9250929050565b600082601f8301126140d357600080fd5b813567ffffffffffffffff8111156140ed576140ed614d5f565b604051614104601f8301601f191660200182614ca9565b81815284602083860101111561411957600080fd5b816020850160208301376000918101602001919091529392505050565b805161ffff81168114613f7f57600080fd5b805163ffffffff81168114613f7f57600080fd5b8051613f7f81614e54565b60006020828403121561417957600080fd5b8135613ee681614e1b565b60006020828403121561419657600080fd5b8151613ee681614e1b565b600080604083850312156141b457600080fd5b82356141bf81614e1b565b915060208301356141cf81614e1b565b809150509250929050565b600080600080608085870312156141f057600080fd5b84356141fb81614e1b565b9350602085013561420b81614e1b565b9250604085013567ffffffffffffffff8082111561422857600080fd5b61423488838901614004565b9350606087013591508082111561424a57600080fd5b50614257878288016140c2565b91505092959194509250565b60008060006060848603121561427857600080fd5b833561428381614e1b565b9250602084013561429381614e1b565b929592945050506040919091013590565b6000806000806000608086880312156142bc57600080fd5b85356142c781614e1b565b945060208601356142d781614e1b565b935060408601359250606086013567ffffffffffffffff8111156142fa57600080fd5b61430688828901614079565b969995985093965092949392505050565b6000806000806080858703121561432d57600080fd5b843561433881614e1b565b9350602085013561434881614e1b565b925060408501359150606085013567ffffffffffffffff81111561436b57600080fd5b614257878288016140c2565b60008060008060008060a0878903121561439057600080fd5b863561439b81614e1b565b955060208701356143ab81614e1b565b94506040870135935060608701359250608087013567ffffffffffffffff8111156143d557600080fd5b6143e189828a01614079565b979a9699509497509295939492505050565b6000806040838503121561440657600080fd5b823561441181614e1b565b915060208301356141cf81614e30565b6000806040838503121561443457600080fd5b823561443f81614e1b565b946020939093013593505050565b60006020828403121561445f57600080fd5b813567ffffffffffffffff81111561447657600080fd5b61448284828501613f84565b949350505050565b6000806040838503121561449d57600080fd5b823567ffffffffffffffff8111156144b457600080fd5b6144c085828601613f84565b92505060208301356141cf81614e30565b6000602082840312156144e357600080fd5b813567ffffffffffffffff8111156144fa57600080fd5b61448284828501614004565b6000806000806060858703121561451c57600080fd5b843567ffffffffffffffff8082111561453457600080fd5b61454088838901614004565b95506020870135915061455282614e1b565b9093506040860135908082111561456857600080fd5b5061457587828801614079565b95989497509550505050565b60006020828403121561459357600080fd5b8151613ee681614e30565b6000602082840312156145b057600080fd5b5051919050565b600080604083850312156145ca57600080fd5b50508035926020909101359150565b6000602082840312156145eb57600080fd5b8135613ee681614e3e565b60006020828403121561460857600080fd5b8151613ee681614e3e565b6000610140828403121561462657600080fd5b61462e614b0b565b6146378361406e565b815261464560208401614148565b602082015261465660408401614136565b604082015261466760608401614136565b60608201526146786080840161415c565b608082015261468960a0840161415c565b60a082015260c083015160c082015260e083015160e08201526101006146b0818501613f74565b908201526101206146c2848201613f74565b908201529392505050565b600080604083850312156146e057600080fd5b6146e983614136565b91506146f760208401614136565b90509250929050565b60006020828403121561471257600080fd5b5035919050565b6000806040838503121561472c57600080fd5b8235915060208301356141cf81614e1b565b60008060006060848603121561475357600080fd5b83359250602084013561476581614e1b565b9150604084013567ffffffffffffffff81111561478157600080fd5b61478d868287016140c2565b9150509250925092565b6000806000806000608086880312156147af57600080fd5b8535945060208601356142d781614e1b565b6000806000606084860312156147d657600080fd5b505081359360208301359350604090920135919050565b6000602082840312156147ff57600080fd5b8135613ee681614e54565b60008151808452614822816020860160208601614c42565b601f01601f19169290920160200192915050565b6005811061485457634e487b7160e01b600052602160045260246000fd5b9052565b8051151582526020810151614875602084018263ffffffff169052565b50604081015161488b604084018261ffff169052565b5060608101516148a1606084018261ffff169052565b5060808101516148bd608084018267ffffffffffffffff169052565b5060a08101516148d960a084018267ffffffffffffffff169052565b5060c081015160c083015260e081015160e083015261010080820151614909828501826001600160a01b03169052565b5050610120818101516001600160a01b03811684830152610bad565b8183823760009101908152919050565b60008251614947818460208701614c42565b9190910192915050565b60006001600160a01b03808716835280861660208401525083604083015260806060830152612aa6608083018461480a565b60006001600160a01b03808816835280871660208401525084604083015283606083015260a060808301526149bb60a083018461480a565b979650505050505050565b6020808252825182820181905260009190848201906040850190845b81811015614a075783516001600160a01b0316835292840192918401916001016149e2565b50909695505050505050565b6020808252825182820181905260009190848201906040850190845b81811015614a0757835183529284019291840191600101614a2f565b8281526101608101613ee66020830184614858565b60808101614a6e8287614836565b6affffffffffffffffffffff851660208301526001600160a01b038416604083015282606083015295945050505050565b602081526000613ee6602083018461480a565b610140810161096a8284614858565b84815260808101614ad56020830186614836565b6001600160a01b039390931660408201526060015292915050565b83815260208101839052606081016144826040830184614836565b604051610140810167ffffffffffffffff81118282101715614b2f57614b2f614d5f565b60405290565b600067ffffffffffffffff821115614b4f57614b4f614d5f565b5060051b60200190565b600061ffff808316818516808303821115614b7657614b76614d07565b01949350505050565b60008219821115614b9257614b92614d07565b500190565b600082614bb457634e487b7160e01b600052601260045260246000fd5b500490565b6000816000190483118215151615614bd357614bd3614d07565b500290565b600067ffffffffffffffff80831681851681830481118215151615614bff57614bff614d07565b02949350505050565b600061ffff83811690831681811015614c2357614c23614d07565b039392505050565b600082821015614c3d57614c3d614d07565b500390565b60005b83811015614c5d578181015183820152602001614c45565b83811115610bad5750506000910152565b600181811c90821680614c8257607f821691505b60208210811415614ca357634e487b7160e01b600052602260045260246000fd5b50919050565b601f8201601f1916810167ffffffffffffffff81118282101715614ccf57614ccf614d5f565b6040525050565b6000600019821415614cea57614cea614d07565b5060010190565b634e487b7160e01b600052600160045260246000fd5b634e487b7160e01b600052601160045260246000fd5b634e487b7160e01b600052602160045260246000fd5b634e487b7160e01b600052603160045260246000fd5b634e487b7160e01b600052603260045260246000fd5b634e487b7160e01b600052604160045260246000fd5b600060033d1115614d8e5760046000803e5060005160e01c5b90565b600060443d1015614d9f5790565b6040516003193d81016004833e81513d67ffffffffffffffff8160248401118184111715614dcf57505050505090565b8285019150815181811115614de75750505050505090565b843d8701016020828501011115614e015750505050505090565b614e1060208286010187614ca9565b509095945050505050565b6001600160a01b03811681146110dc57600080fd5b80151581146110dc57600080fd5b6001600160e01b0319811681146110dc57600080fd5b67ffffffffffffffff811681146110dc57600080fdfea26469706673582212208601e82a273f7db60dd7daa5920b6c9d1b2918b426bee403eb4f5dfab463b74664736f6c63430008060033",
  "immutableReferences": {},
  "source": "// SPDX-License-Identifier: UNLICENSED\npragma solidity ^0.8.0;\n\nimport \"./CollateralManager.sol\";\nimport \"@openzeppelin/contracts/access/Ownable.sol\";\n\ncontract MonetizedBondNFT is CollateralManager, Ownable {\n    /**\n     * @dev fee control for minting, specified in wei. Ranges from 18 eth (2**64) to\n     * 0, where the next-smallest is 1 wei. Default .001 ether is ~ $1.15 (Jun 2022)\n     */\n    uint64 public mintFee = .001 ether;\n    /**\n     * @dev fee control for servicing, specified in parts to 1 billion. Ranges from\n     * 18,446,744,073% to 0, where the next-smallest 0.0000001%. Default 1 million\n     * is 0.1%.\n     */\n    uint64 public serviceFee = 1_000_000;\n\n    event MintFeeChanged(uint64 newFee);\n    event ServiceFeeChanged(uint64 newFee);\n\n    constructor(\n        string memory name,\n        string memory symbol,\n        string memory uri\n    )\n        CollateralManager(name, symbol, uri) // solhint-disable-next-line no-empty-blocks\n    {}\n\n    /**\n     * @dev Sets initial mint fee (when minter is creating). Only\n     *  callable by owner.\n     * @param newFee New Fee to apply to all mints\n     */\n    function setMintFee(uint64 newFee) external onlyOwner {\n        mintFee = newFee;\n        emit MintFeeChanged(newFee);\n    }\n\n    /**\n     * @dev Sets service fee (when minter is paying). Only\n     * callable by owner.\n     * @param newFee New Fee to bite out of service payments.\n     */\n    function setServiceFee(uint64 newFee) external onlyOwner {\n        serviceFee = newFee;\n        emit ServiceFeeChanged(newFee);\n    }\n\n    /**\n     * @dev Retrieves fees to an alternative account, callable by owner.\n     * Assumes that contract holds only ether related to fees -- no bond\n     * or collateral has any references to ethereum stored in this\n     * contract. This assumption is FALSE due to collateral storage\n     * @param n Count of wei to transfer. Must be below total paid\n     * @param to Address to transfer ether to\n     * @param data Additional calldata to attach\n     */\n    function withdrawValue(\n        uint256 n,\n        address to,\n        bytes memory data\n    ) external onlyOwner {\n        // solhint-disable-next-line avoid-low-level-calls\n        (bool success, ) = to.call{value: n}(data);\n        require(success, \"MonetizedBondNFT: withdraw failed\");\n    }\n\n    // OVERRIDES\n\n    /**\n     * @dev Ensure user pays minting fee when minting\n     */\n    function mintBond(bytes32 alpha, bytes32 beta) public payable override {\n        require(\n            msg.value >= mintFee,\n            \"MonetizedLoanNFT: eth sent does not cover mint fee\"\n        );\n        super.mintBond(alpha, beta);\n    }\n\n    // /**\n    //  * @dev Ensure user pays service fee when servicing, but be aware value\n    //  *  might be different based on what they're doing\n    //  */\n    // function serviceLoan(uint256 id) public payable override {\n    //     uint256 fee = (msg.value * serviceFee) / 1_000_000_000;\n    //     if ((msg.value * serviceFee) % 1_000_000_000 > 0) fee++; // round up fee\n    //     uint256 trueValue = msg.value - fee;\n    //     require(\n    //         trueValue >= bonds[id].couponSize,\n    //         \"MonetizedLoanNFT: ether sent cannot cover service fee and minimum payment\"\n    //     );\n    //     super.serviceLoan(id);\n    // }\n}\n",
  "sourcePath": "/home/runner/work/karmaToken/karmaToken/contracts/MonetizedBondNFT.sol",
  "compiler": {
    "name": "solc",
    "version": "0.8.6+commit.11564f7e.Linux.g++"
  },
  "schemaVersion": "3.4.7",
  "updatedAt": "2022-07-15T13:44:05.591Z",
  "devdoc": {
    "kind": "dev",
    "methods": {
      "addCollateral(uint256,uint256,uint256)": {
        "params": {
          "currencyRef": "Id of currency collateral is denominated in",
          "id": "Id of bond to attach collateral to",
          "valueOrId": "Either the amount of tokens to attach, or the NFT id being attached (depending on currency)"
        }
      },
      "addERC1155NFTCurrency(address)": {
        "details": "Note that no tokenId is required -- since we know the count to be 1, the structures that reference this currency can use their field to specify the tokenId.",
        "params": {
          "location": "address of ERC1155 contract being added"
        }
      },
      "addERC1155TokenCurrency(address,uint256)": {
        "details": "TokenId is required because structures that reference this currency are only able to specify one field -- the amount, and so the tokenId must be constant and specified here",
        "params": {
          "location": "address of the ERC1155 contract being added",
          "tokenId": "specific tokenId to associate with this ERC1155 currency listing."
        }
      },
      "addERC20Currency(address)": {
        "params": {
          "location": "address of the ERC20 contract being added"
        }
      },
      "addERC721Currency(address)": {
        "details": "Add a new currency of type ERC721",
        "params": {
          "location": "address of the ERC721 contract being added"
        }
      },
      "approve(address,uint256)": {
        "details": "See {IERC721-approve}."
      },
      "balanceOf(address)": {
        "details": "See {IERC721-balanceOf}."
      },
      "callBond(uint256)": {
        "details": "Can only be performed by token owner or authorized operator.",
        "params": {
          "id": "Id of bond to check for default"
        }
      },
      "destroyBond(uint256)": {
        "details": "Can only be performed by token owner or authorized operator.",
        "params": {
          "id": "Bond id"
        }
      },
      "forgiveBond(uint256)": {
        "details": "Can only be performed by token owner or authorized operator.",
        "params": {
          "id": "Bond id"
        }
      },
      "getApproved(uint256)": {
        "details": "See {IERC721-getApproved}."
      },
      "getBond(uint256)": {
        "params": {
          "id": "Bond id"
        },
        "returns": {
          "_0": "Bond As the expanded bond datastructure at given id"
        }
      },
      "isApprovedForAll(address,address)": {
        "details": "See {IERC721-isApprovedForAll}."
      },
      "mintBond(bytes32,bytes32)": {
        "details": "Ensure user pays minting fee when minting"
      },
      "onERC1155Received(address,address,uint256,uint256,bytes)": {
        "details": "Handler function that get's called on any ERC1155 transfer to this function -- accepts only transfers initiated by itself."
      },
      "onERC721Received(address,address,uint256,bytes)": {
        "details": "Handler function that get's called on any ERC721 transfer to this function -- accepts only transfers initiated by itself."
      },
      "owner()": {
        "details": "Returns the address of the current owner."
      },
      "ownerOf(uint256)": {
        "details": "See {IERC721-ownerOf}."
      },
      "renounceOwnership()": {
        "details": "Leaves the contract without owner. It will not be possible to call `onlyOwner` functions anymore. Can only be called by the current owner. NOTE: Renouncing ownership will leave the contract without an owner, thereby removing any functionality that is only available to the owner."
      },
      "safeBatchReleaseCollaterals(uint256[],address,bytes)": {
        "details": "Method is optimized to memoize the 'previous' bond and currency used. If possible, sort incoming lists by bondIds and by related currencyIds.",
        "params": {
          "bondIds": "Integer array of bondIds to release collateral for",
          "data": "bytes to forward with each transfer",
          "to": "address to direct all collaterals to"
        }
      },
      "safeTransferFrom(address,address,uint256)": {
        "details": "See {IERC721-safeTransferFrom}."
      },
      "safeTransferFrom(address,address,uint256,bytes)": {
        "details": "Safely transfers `tokenId` token from `from` to `to`, checking first that contract recipients are aware of the ERC721 protocol to prevent tokens from being forever locked. `_data` is additional data, it has no specified format and it is sent in call to `to`. This internal function is equivalent to {safeTransferFrom}, and can be used to e.g. implement alternative mechanisms to perform token transfer, such as signature-based. Requirements: - `from` cannot be the zero address. - `to` cannot be the zero address. - `tokenId` token must exist and be owned by `from`. - If `to` refers to a smart contract, it must implement {IERC721Receiver-onERC721Received}, which is called upon a safe transfer. Emits a {Transfer} event."
      },
      "serviceBond(uint256,address,uint256,bytes)": {
        "details": "For ether transactions, from and value still have to match or exceed the ether sent and the message senderNote that call data will only get forwarded for supporting currencies",
        "params": {
          "data": "Additonal bytes to send with the transaction",
          "from": "Account address to take value from",
          "id": "Id of bond to service",
          "value": "Either the amount to apply to the bond, or the NFT id to transfer as service payment"
        }
      },
      "setApprovalForAll(address,bool)": {
        "details": "Approve `operator` to operate on all of `owner` tokens Emits a {ApprovalForAll} event."
      },
      "setMintFee(uint64)": {
        "details": "Sets initial mint fee (when minter is creating). Only  callable by owner.",
        "params": {
          "newFee": "New Fee to apply to all mints"
        }
      },
      "setServiceFee(uint64)": {
        "details": "Sets service fee (when minter is paying). Only callable by owner.",
        "params": {
          "newFee": "New Fee to bite out of service payments."
        }
      },
      "supportsInterface(bytes4)": {
        "details": "See {IERC165-supportsInterface}."
      },
      "tokenURI(uint256)": {
        "details": "See {IERC721Metadata-tokenURI}."
      },
      "transferFrom(address,address,uint256)": {
        "details": "See {IERC721-transferFrom}."
      },
      "transferOwnership(address)": {
        "details": "Transfers ownership of the contract to a new account (`newOwner`). Can only be called by the current owner."
      },
      "updateBeneficiary(uint256,address)": {
        "params": {
          "id": "Bond id",
          "newBeneficiary": "Address of new beneficiary account"
        }
      },
      "withdrawValue(uint256,address,bytes)": {
        "details": "Retrieves fees to an alternative account, callable by owner. Assumes that contract holds only ether related to fees -- no bond or collateral has any references to ethereum stored in this contract. This assumption is FALSE due to collateral storage",
        "params": {
          "data": "Additional calldata to attach",
          "n": "Count of wei to transfer. Must be below total paid",
          "to": "Address to transfer ether to"
        }
      }
    },
    "stateVariables": {
      "mintFee": {
        "details": "fee control for minting, specified in wei. Ranges from 18 eth (2**64) to 0, where the next-smallest is 1 wei. Default .001 ether is ~ $1.15 (Jun 2022)"
      },
      "serviceFee": {
        "details": "fee control for servicing, specified in parts to 1 billion. Ranges from 18,446,744,073% to 0, where the next-smallest 0.0000001%. Default 1 million is 0.1%."
      }
    },
    "version": 1
  },
  "userdoc": {
    "events": {
      "BeneficiaryChange(uint256,address)": {
        "notice": "recipient of bond payments has been updated"
      },
      "BondCompleted(uint256)": {
        "notice": "bond has been entirely repayed"
      },
      "BondDefaulted(uint256)": {
        "notice": "bond payments have been failed"
      },
      "BondServiced(uint256,address,uint64)": {
        "notice": "new bond payment has been posted"
      },
      "CollateralAdded(uint256,uint256,uint8)": {
        "notice": "New collateral has been attached to bond"
      },
      "CollateralReleased(uint256,uint256,address)": {
        "notice": "Collateral has been released from bond"
      },
      "CurrencyAdded(uint256,uint8,address,uint256)": {
        "notice": "New currency has been added to internal listing"
      }
    },
    "kind": "user",
    "methods": {
      "addCollateral(uint256,uint256,uint256)": {
        "notice": "Add a generic currency collateral to a bond"
      },
      "addERC1155NFTCurrency(address)": {
        "notice": "Add a new currency of type ERC1155 NFT."
      },
      "addERC1155TokenCurrency(address,uint256)": {
        "notice": "Add a new currency of type ERC1155 Token"
      },
      "addERC20Currency(address)": {
        "notice": "Add a new currency of type ERC20"
      },
      "bonds(uint256)": {
        "notice": "Bond data array -- holds alpha and beta slots for bond, to be interpreted by LBondManager."
      },
      "callBond(uint256)": {
        "notice": "Call bond to mark it as 'in default'."
      },
      "collateral(uint256,uint256)": {
        "notice": "Mapping holding collaterals associated with each bond id"
      },
      "currencies(uint256)": {
        "notice": "Array holding currency listing."
      },
      "destroyBond(uint256)": {
        "notice": "Collateral must be entirely released to allow bond destruction"
      },
      "forgiveBond(uint256)": {
        "notice": "Set bond as complete and forfeight future payments"
      },
      "getBond(uint256)": {
        "notice": "Interpret bond with given id into readable version"
      },
      "onERC1155Received(address,address,uint256,uint256,bytes)": {
        "notice": "SHOULD NOT be generally called by a direct user"
      },
      "onERC721Received(address,address,uint256,bytes)": {
        "notice": "SHOULD NOT be generally called by a direct user"
      },
      "safeBatchReleaseCollaterals(uint256[],address,bytes)": {
        "notice": "Release last collateral attached to specified bonds ids"
      },
      "serviceBond(uint256,address,uint256,bytes)": {
        "notice": "Service a specific bond with generic currency"
      },
      "updateBeneficiary(uint256,address)": {
        "notice": "Update the beneficiary associated with a bond"
      }
    },
    "version": 1
  }
}