{
  "contractName": "SuperERC721",
  "abi": [
    {
      "inputs": [
        {
          "internalType": "string",
          "name": "name_",
          "type": "string"
        },
        {
          "internalType": "string",
          "name": "symbol_",
          "type": "string"
        },
        {
          "internalType": "string",
          "name": "uri_",
          "type": "string"
        }
      ],
      "stateMutability": "nonpayable",
      "type": "constructor"
    },
    {
      "anonymous": false,
      "inputs": [
        {
          "indexed": true,
          "internalType": "address",
          "name": "owner",
          "type": "address"
        },
        {
          "indexed": true,
          "internalType": "address",
          "name": "approved",
          "type": "address"
        },
        {
          "indexed": true,
          "internalType": "uint256",
          "name": "tokenId",
          "type": "uint256"
        }
      ],
      "name": "Approval",
      "type": "event"
    },
    {
      "anonymous": false,
      "inputs": [
        {
          "indexed": true,
          "internalType": "address",
          "name": "owner",
          "type": "address"
        },
        {
          "indexed": true,
          "internalType": "address",
          "name": "operator",
          "type": "address"
        },
        {
          "indexed": false,
          "internalType": "bool",
          "name": "approved",
          "type": "bool"
        }
      ],
      "name": "ApprovalForAll",
      "type": "event"
    },
    {
      "anonymous": false,
      "inputs": [
        {
          "indexed": true,
          "internalType": "address",
          "name": "from",
          "type": "address"
        },
        {
          "indexed": true,
          "internalType": "address",
          "name": "to",
          "type": "address"
        },
        {
          "indexed": true,
          "internalType": "uint256",
          "name": "tokenId",
          "type": "uint256"
        }
      ],
      "name": "Transfer",
      "type": "event"
    },
    {
      "inputs": [
        {
          "internalType": "address",
          "name": "to",
          "type": "address"
        },
        {
          "internalType": "uint256",
          "name": "tokenId",
          "type": "uint256"
        }
      ],
      "name": "approve",
      "outputs": [],
      "stateMutability": "nonpayable",
      "type": "function"
    },
    {
      "inputs": [
        {
          "internalType": "address",
          "name": "owner",
          "type": "address"
        }
      ],
      "name": "balanceOf",
      "outputs": [
        {
          "internalType": "uint256",
          "name": "",
          "type": "uint256"
        }
      ],
      "stateMutability": "view",
      "type": "function"
    },
    {
      "inputs": [
        {
          "internalType": "uint256",
          "name": "tokenId",
          "type": "uint256"
        }
      ],
      "name": "getApproved",
      "outputs": [
        {
          "internalType": "address",
          "name": "",
          "type": "address"
        }
      ],
      "stateMutability": "view",
      "type": "function"
    },
    {
      "inputs": [
        {
          "internalType": "address",
          "name": "owner",
          "type": "address"
        },
        {
          "internalType": "address",
          "name": "operator",
          "type": "address"
        }
      ],
      "name": "isApprovedForAll",
      "outputs": [
        {
          "internalType": "bool",
          "name": "",
          "type": "bool"
        }
      ],
      "stateMutability": "view",
      "type": "function"
    },
    {
      "inputs": [],
      "name": "name",
      "outputs": [
        {
          "internalType": "string",
          "name": "",
          "type": "string"
        }
      ],
      "stateMutability": "view",
      "type": "function"
    },
    {
      "inputs": [
        {
          "internalType": "uint256",
          "name": "tokenId",
          "type": "uint256"
        }
      ],
      "name": "ownerOf",
      "outputs": [
        {
          "internalType": "address",
          "name": "",
          "type": "address"
        }
      ],
      "stateMutability": "view",
      "type": "function"
    },
    {
      "inputs": [
        {
          "internalType": "address",
          "name": "from",
          "type": "address"
        },
        {
          "internalType": "address",
          "name": "to",
          "type": "address"
        },
        {
          "internalType": "uint256",
          "name": "tokenId",
          "type": "uint256"
        }
      ],
      "name": "safeTransferFrom",
      "outputs": [],
      "stateMutability": "nonpayable",
      "type": "function"
    },
    {
      "inputs": [
        {
          "internalType": "address",
          "name": "from",
          "type": "address"
        },
        {
          "internalType": "address",
          "name": "to",
          "type": "address"
        },
        {
          "internalType": "uint256",
          "name": "tokenId",
          "type": "uint256"
        },
        {
          "internalType": "bytes",
          "name": "_data",
          "type": "bytes"
        }
      ],
      "name": "safeTransferFrom",
      "outputs": [],
      "stateMutability": "nonpayable",
      "type": "function"
    },
    {
      "inputs": [
        {
          "internalType": "address",
          "name": "operator",
          "type": "address"
        },
        {
          "internalType": "bool",
          "name": "approved",
          "type": "bool"
        }
      ],
      "name": "setApprovalForAll",
      "outputs": [],
      "stateMutability": "nonpayable",
      "type": "function"
    },
    {
      "inputs": [
        {
          "internalType": "bytes4",
          "name": "interfaceId",
          "type": "bytes4"
        }
      ],
      "name": "supportsInterface",
      "outputs": [
        {
          "internalType": "bool",
          "name": "",
          "type": "bool"
        }
      ],
      "stateMutability": "view",
      "type": "function"
    },
    {
      "inputs": [],
      "name": "symbol",
      "outputs": [
        {
          "internalType": "string",
          "name": "",
          "type": "string"
        }
      ],
      "stateMutability": "view",
      "type": "function"
    },
    {
      "inputs": [
        {
          "internalType": "uint256",
          "name": "",
          "type": "uint256"
        }
      ],
      "name": "tokenURI",
      "outputs": [
        {
          "internalType": "string",
          "name": "",
          "type": "string"
        }
      ],
      "stateMutability": "view",
      "type": "function"
    },
    {
      "inputs": [
        {
          "internalType": "address",
          "name": "from",
          "type": "address"
        },
        {
          "internalType": "address",
          "name": "to",
          "type": "address"
        },
        {
          "internalType": "uint256",
          "name": "tokenId",
          "type": "uint256"
        }
      ],
      "name": "transferFrom",
      "outputs": [],
      "stateMutability": "nonpayable",
      "type": "function"
    },
    {
      "inputs": [
        {
          "internalType": "address[]",
          "name": "owners",
          "type": "address[]"
        }
      ],
      "name": "balanceOfBatch",
      "outputs": [
        {
          "internalType": "uint256[]",
          "name": "",
          "type": "uint256[]"
        }
      ],
      "stateMutability": "view",
      "type": "function"
    },
    {
      "inputs": [
        {
          "internalType": "uint256[]",
          "name": "ids",
          "type": "uint256[]"
        }
      ],
      "name": "ownerOfBatch",
      "outputs": [
        {
          "internalType": "address[]",
          "name": "",
          "type": "address[]"
        }
      ],
      "stateMutability": "view",
      "type": "function"
    },
    {
      "inputs": [
        {
          "internalType": "address[]",
          "name": "operators",
          "type": "address[]"
        },
        {
          "internalType": "bool",
          "name": "approved",
          "type": "bool"
        }
      ],
      "name": "setBatchApprovalForAll",
      "outputs": [],
      "stateMutability": "nonpayable",
      "type": "function"
    },
    {
      "inputs": [
        {
          "internalType": "address",
          "name": "from",
          "type": "address"
        },
        {
          "internalType": "address",
          "name": "to",
          "type": "address"
        },
        {
          "internalType": "uint256[]",
          "name": "ids",
          "type": "uint256[]"
        },
        {
          "internalType": "bytes",
          "name": "_data",
          "type": "bytes"
        }
      ],
      "name": "safeBatchTransferFrom",
      "outputs": [],
      "stateMutability": "nonpayable",
      "type": "function"
    }
  ],
  "bytecode": "0x60806040523480156200001157600080fd5b5060405162001bad38038062001bad8339810160408190526200003491620001e5565b82828282600090805190602001906200004f92919062000088565b5081516200006590600190602085019062000088565b5080516200007b90600290602084019062000088565b50505050505050620002c9565b828054620000969062000276565b90600052602060002090601f016020900481019282620000ba576000855562000105565b82601f10620000d557805160ff191683800117855562000105565b8280016001018555821562000105579182015b8281111562000105578251825591602001919060010190620000e8565b506200011392915062000117565b5090565b5b8082111562000113576000815560010162000118565b600082601f8301126200014057600080fd5b81516001600160401b03808211156200015d576200015d620002b3565b604051601f8301601f19908116603f01168101908282118183101715620001885762000188620002b3565b81604052838152602092508683858801011115620001a557600080fd5b600091505b83821015620001c95785820183015181830184015290820190620001aa565b83821115620001db5760008385830101525b9695505050505050565b600080600060608486031215620001fb57600080fd5b83516001600160401b03808211156200021357600080fd5b62000221878388016200012e565b945060208601519150808211156200023857600080fd5b62000246878388016200012e565b935060408601519150808211156200025d57600080fd5b506200026c868287016200012e565b9150509250925092565b600181811c908216806200028b57607f821691505b60208210811415620002ad57634e487b7160e01b600052602260045260246000fd5b50919050565b634e487b7160e01b600052604160045260246000fd5b6118d480620002d96000396000f3fe608060405234801561001057600080fd5b506004361061011b5760003560e01c8063458c738e116100b2578063a22cb46511610081578063bda8011711610066578063bda8011714610281578063c87b56dd146102a1578063e985e9c5146102b457600080fd5b8063a22cb4651461025b578063b88d4fde1461026e57600080fd5b8063458c738e146101e95780636352211e1461020957806370a082311461023257806395d89b411461025357600080fd5b8063187ddf87116100ee578063187ddf871461019d57806323b872dd146101b057806328cfbd46146101c357806342842e0e146101d657600080fd5b806301ffc9a71461012057806306fdde0314610148578063081812fc1461015d578063095ea7b314610188575b600080fd5b61013361012e366004611553565b6102f0565b60405190151581526020015b60405180910390f35b61015061038d565b60405161013f91906116b4565b61017061016b36600461158d565b61041b565b6040516001600160a01b03909116815260200161013f565b61019b610196366004611472565b6104c6565b005b61019b6101ab3660046114d9565b6105d0565b61019b6101be3660046113b0565b6106c0565b61019b6101d136600461132b565b61079b565b61019b6101e43660046113b0565b6108f1565b6101fc6101f736600461149c565b61090c565b60405161013f919061167c565b61017061021736600461158d565b6000908152600360205260409020546001600160a01b031690565b6102456102403660046112d6565b6109d7565b60405190815260200161013f565b610150610a71565b61019b610269366004611448565b610a7e565b61019b61027c3660046113ec565b610aea565b61029461028f36600461151e565b610bd2565b60405161013f919061162f565b6101506102af36600461158d565b610ca4565b6101336102c23660046112f8565b6001600160a01b03918216600090815260066020908152604080832093909416825291909152205460ff1690565b60006001600160e01b031982167f80ac58cd00000000000000000000000000000000000000000000000000000000148061035357506001600160e01b031982167f5b5e139f00000000000000000000000000000000000000000000000000000000145b8061038757507f01ffc9a7000000000000000000000000000000000000000000000000000000006001600160e01b03198316145b92915050565b6000805461039a9061171a565b80601f01602080910402602001604051908101604052809291908181526020018280546103c69061171a565b80156104135780601f106103e857610100808354040283529160200191610413565b820191906000526020600020905b8154815290600101906020018083116103f657829003601f168201915b505050505081565b6000818152600360205260408120546001600160a01b03166104aa5760405162461bcd60e51b815260206004820152602c60248201527f4552433732313a20617070726f76656420717565727920666f72206e6f6e657860448201527f697374656e7420746f6b656e000000000000000000000000000000000000000060648201526084015b60405180910390fd5b506000908152600560205260409020546001600160a01b031690565b60008181526003602052604090205481906001600160a01b0316331461052e5760405162461bcd60e51b815260206004820152601b60248201527f4552433732313a2063616c6c6564206973206e6f74206f776e6572000000000060448201526064016104a1565b6000828152600360205260409020546001600160a01b039081169084168114156105c05760405162461bcd60e51b815260206004820152602160248201527f4552433732313a20617070726f76616c20746f2063757272656e74206f776e6560448201527f720000000000000000000000000000000000000000000000000000000000000060648201526084016104a1565b6105ca8484610d38565b50505050565b60005b82518110156106bb573360009081526006602052604081208451849290869085908110610602576106026117b3565b60200260200101516001600160a01b03166001600160a01b0316815260200190815260200160002060006101000a81548160ff021916908315150217905550828181518110610653576106536117b3565b60200260200101516001600160a01b0316336001600160a01b03167f17307eab39ab6107e8899845ad3d59bd9653f200f220920489ca2b5937696c31846040516106a1911515815260200190565b60405180910390a3806106b381611782565b9150506105d3565b505050565b60008181526003602052604090205481906001600160a01b03163381148061070b57506001600160a01b038116600090815260066020908152604080832033845290915290205460ff165b8061072c57506000828152600560205260409020546001600160a01b031633145b6107895760405162461bcd60e51b815260206004820152602860248201527f4552433732313a2063616c6c6572206973206e6f74206f776e6572206e6f7220604482015267185c1c1c9bdd995960c21b60648201526084016104a1565b610794858585610dac565b5050505050565b60005b825181101561079457336001600160a01b03861614806107e157506001600160a01b038516600090815260066020908152604080832033845290915290205460ff165b806108245750600560008483815181106107fd576107fd6117b3565b6020908102919091018101518252810191909152604001600020546001600160a01b031633145b6108965760405162461bcd60e51b815260206004820152602960248201527f53757065724552433732313a2063616c6c6572206973206e6f742076616c696460448201527f206f70657261746f72000000000000000000000000000000000000000000000060648201526084016104a1565b6108ba85858584815181106108ad576108ad6117b3565b6020026020010151610dac565b6108df85858584815181106108d1576108d16117b3565b602002602001015185610f86565b806108e981611782565b91505061079e565b6106bb83838360405180602001604052806000815250610aea565b60606000825167ffffffffffffffff81111561092a5761092a6117c9565b604051908082528060200260200182016040528015610953578160200160208202803683370190505b50905060005b83518110156109d05760046000858381518110610978576109786117b3565b60200260200101516001600160a01b03166001600160a01b03168152602001908152602001600020548282815181106109b3576109b36117b3565b6020908102919091010152806109c881611782565b915050610959565b5092915050565b60006001600160a01b038216610a555760405162461bcd60e51b815260206004820152602a60248201527f4552433732313a2062616c616e636520717565727920666f7220746865207a6560448201527f726f20616464726573730000000000000000000000000000000000000000000060648201526084016104a1565b506001600160a01b031660009081526004602052604090205490565b6001805461039a9061171a565b3360008181526006602090815260408083206001600160a01b03871680855290835292819020805460ff191686151590811790915590519081529192917f17307eab39ab6107e8899845ad3d59bd9653f200f220920489ca2b5937696c31910160405180910390a35050565b60008281526003602052604090205482906001600160a01b031633811480610b3557506001600160a01b038116600090815260066020908152604080832033845290915290205460ff165b80610b5657506000828152600560205260409020546001600160a01b031633145b610bb35760405162461bcd60e51b815260206004820152602860248201527f4552433732313a2063616c6c6572206973206e6f74206f776e6572206e6f7220604482015267185c1c1c9bdd995960c21b60648201526084016104a1565b610bbe868686610dac565b610bca86868686610f86565b505050505050565b60606000825167ffffffffffffffff811115610bf057610bf06117c9565b604051908082528060200260200182016040528015610c19578160200160208202803683370190505b50905060005b83518110156109d05760036000858381518110610c3e57610c3e6117b3565b6020026020010151815260200190815260200160002060009054906101000a90046001600160a01b0316828281518110610c7a57610c7a6117b3565b6001600160a01b039092166020928302919091019091015280610c9c81611782565b915050610c1f565b606060028054610cb39061171a565b80601f0160208091040260200160405190810160405280929190818152602001828054610cdf9061171a565b8015610d2c5780601f10610d0157610100808354040283529160200191610d2c565b820191906000526020600020905b815481529060010190602001808311610d0f57829003601f168201915b50505050509050919050565b6000818152600560209081526040808320805473ffffffffffffffffffffffffffffffffffffffff19166001600160a01b038781169182179092556003909352818420549151859492909116917f8c5be1e5ebec7d5bd14f71427d1e84f3dd0314c0f7b2291e5b200ac8c7c3b92591a45050565b6000818152600360205260409020546001600160a01b03848116911614610e3b5760405162461bcd60e51b815260206004820152602960248201527f4552433732313a207472616e73666572206f6620746f6b656e2074686174206960448201527f73206e6f74206f776e000000000000000000000000000000000000000000000060648201526084016104a1565b6001600160a01b038216610eb65760405162461bcd60e51b8152602060048201526024808201527f4552433732313a207472616e7366657220746f20746865207a65726f2061646460448201527f726573730000000000000000000000000000000000000000000000000000000060648201526084016104a1565b610ec1600082610d38565b6001600160a01b0383166000908152600460205260408120805460019290610eea908490611703565b90915550506001600160a01b0382166000908152600460205260408120805460019290610f189084906116eb565b9091555050600081815260036020526040808220805473ffffffffffffffffffffffffffffffffffffffff19166001600160a01b0386811691821790925591518493918716917fddf252ad1be2c89b69c2b068fc378daa952ba7f163c4a11628f55a4df523b3ef91a4505050565b6001600160a01b0383163b156105ca57604051630a85bd0160e11b81526001600160a01b0384169063150b7a0290610fc89033908890879087906004016115f3565b602060405180830381600087803b158015610fe257600080fd5b505af1925050508015611012575060408051601f3d908101601f1916820190925261100f91810190611570565b60015b6110c85761101e6117df565b806308c379a0141561105857506110336117fb565b8061103e575061105a565b8060405162461bcd60e51b81526004016104a191906116b4565b505b60405162461bcd60e51b815260206004820152603260248201527f4552433732313a207472616e7366657220746f206e6f6e20455243373231526560448201527f63656976657220696d706c656d656e746572000000000000000000000000000060648201526084016104a1565b6001600160e01b03198116630a85bd0160e11b146107945760405162461bcd60e51b815260206004820152602560248201527f4552433732313a2045524337323152656365697665722072656a65637465642060448201527f746f6b656e00000000000000000000000000000000000000000000000000000060648201526084016104a1565b80356001600160a01b038116811461116557600080fd5b919050565b600082601f83011261117b57600080fd5b81356020611188826116c7565b6040516111958282611755565b8381528281019150858301600585901b870184018810156111b557600080fd5b60005b858110156111db576111c98261114e565b845292840192908401906001016111b8565b5090979650505050505050565b600082601f8301126111f957600080fd5b81356020611206826116c7565b6040516112138282611755565b8381528281019150858301600585901b8701840188101561123357600080fd5b60005b858110156111db57813584529284019290840190600101611236565b8035801515811461116557600080fd5b600082601f83011261127357600080fd5b813567ffffffffffffffff81111561128d5761128d6117c9565b6040516112a4601f8301601f191660200182611755565b8181528460208386010111156112b957600080fd5b816020850160208301376000918101602001919091529392505050565b6000602082840312156112e857600080fd5b6112f18261114e565b9392505050565b6000806040838503121561130b57600080fd5b6113148361114e565b91506113226020840161114e565b90509250929050565b6000806000806080858703121561134157600080fd5b61134a8561114e565b93506113586020860161114e565b9250604085013567ffffffffffffffff8082111561137557600080fd5b611381888389016111e8565b9350606087013591508082111561139757600080fd5b506113a487828801611262565b91505092959194509250565b6000806000606084860312156113c557600080fd5b6113ce8461114e565b92506113dc6020850161114e565b9150604084013590509250925092565b6000806000806080858703121561140257600080fd5b61140b8561114e565b93506114196020860161114e565b925060408501359150606085013567ffffffffffffffff81111561143c57600080fd5b6113a487828801611262565b6000806040838503121561145b57600080fd5b6114648361114e565b915061132260208401611252565b6000806040838503121561148557600080fd5b61148e8361114e565b946020939093013593505050565b6000602082840312156114ae57600080fd5b813567ffffffffffffffff8111156114c557600080fd5b6114d18482850161116a565b949350505050565b600080604083850312156114ec57600080fd5b823567ffffffffffffffff81111561150357600080fd5b61150f8582860161116a565b92505061132260208401611252565b60006020828403121561153057600080fd5b813567ffffffffffffffff81111561154757600080fd5b6114d1848285016111e8565b60006020828403121561156557600080fd5b81356112f181611885565b60006020828403121561158257600080fd5b81516112f181611885565b60006020828403121561159f57600080fd5b5035919050565b6000815180845260005b818110156115cc576020818501810151868301820152016115b0565b818111156115de576000602083870101525b50601f01601f19169290920160200192915050565b60006001600160a01b0380871683528086166020840152508360408301526080606083015261162560808301846115a6565b9695505050505050565b6020808252825182820181905260009190848201906040850190845b818110156116705783516001600160a01b03168352928401929184019160010161164b565b50909695505050505050565b6020808252825182820181905260009190848201906040850190845b8181101561167057835183529284019291840191600101611698565b6020815260006112f160208301846115a6565b600067ffffffffffffffff8211156116e1576116e16117c9565b5060051b60200190565b600082198211156116fe576116fe61179d565b500190565b6000828210156117155761171561179d565b500390565b600181811c9082168061172e57607f821691505b6020821081141561174f57634e487b7160e01b600052602260045260246000fd5b50919050565b601f8201601f1916810167ffffffffffffffff8111828210171561177b5761177b6117c9565b6040525050565b60006000198214156117965761179661179d565b5060010190565b634e487b7160e01b600052601160045260246000fd5b634e487b7160e01b600052603260045260246000fd5b634e487b7160e01b600052604160045260246000fd5b600060033d11156117f85760046000803e5060005160e01c5b90565b600060443d10156118095790565b6040516003193d81016004833e81513d67ffffffffffffffff816024840111818411171561183957505050505090565b82850191508151818111156118515750505050505090565b843d870101602082850101111561186b5750505050505090565b61187a60208286010187611755565b509095945050505050565b6001600160e01b03198116811461189b57600080fd5b5056fea2646970667358221220f89a54e13afd7a0f65a0d3b11d6496c7cb94c67da44c1758245c1996e78d5c4d64736f6c63430008060033",
  "immutableReferences": {},
  "source": "// SPDX-License-Identifier: UNLICENSED\npragma solidity ^0.8.0;\n\nimport \"./ERC721.sol\";\n\ncontract SuperERC721 is ERC721 {\n    constructor(\n        string memory name_,\n        string memory symbol_,\n        string memory uri_\n    )\n        ERC721(name_, symbol_, uri_) // solhint-disable-next-line no-empty-blocks\n    {}\n\n    function balanceOfBatch(address[] memory owners)\n        public\n        view\n        returns (uint256[] memory)\n    {\n        uint256[] memory balances = new uint256[](owners.length);\n        for (uint256 i = 0; i < owners.length; i++) {\n            balances[i] = _balances[owners[i]];\n        }\n        return balances;\n    }\n\n    function ownerOfBatch(uint256[] memory ids)\n        public\n        view\n        returns (address[] memory)\n    {\n        address[] memory owners = new address[](ids.length);\n        for (uint256 i = 0; i < ids.length; i++) {\n            owners[i] = _owners[ids[i]];\n        }\n        return owners;\n    }\n\n    function setBatchApprovalForAll(address[] memory operators, bool approved)\n        public\n    {\n        for (uint256 i = 0; i < operators.length; i++) {\n            _operatorApprovals[msg.sender][operators[i]] = approved;\n            emit ApprovalForAll(msg.sender, operators[i], approved);\n        }\n    }\n\n    function safeBatchTransferFrom(\n        address from,\n        address to,\n        uint256[] memory ids,\n        bytes memory _data\n    ) public {\n        for (uint256 i = 0; i < ids.length; i++) {\n            // check valid operator\n            require(\n                msg.sender == from ||\n                    _operatorApprovals[from][msg.sender] ||\n                    msg.sender == _tokenApprovals[ids[i]],\n                \"SuperERC721: caller is not valid operator\"\n            );\n            _transfer(from, to, ids[i]);\n            _checkOnERC721Received(from, to, ids[i], _data);\n        }\n    }\n\n    function _mintBatch(address to, uint256[] memory ids) internal virtual {\n        for (uint256 i = 0; i < ids.length; i++) {\n            require(\n                _owners[ids[i]] == address(0),\n                \"SuperERC721: token already minted\"\n            );\n            _owners[ids[i]] = to;\n            emit Transfer(address(0), to, ids[i]);\n            _checkOnERC721Received(address(0), to, ids[i], \"\");\n        }\n        _balances[to] += ids.length;\n    }\n}\n",
  "sourcePath": "/home/runner/work/karmaToken/karmaToken/contracts/tokens/SuperERC721.sol",
  "compiler": {
    "name": "solc",
    "version": "0.8.6+commit.11564f7e.Linux.g++"
  },
  "schemaVersion": "3.4.7",
  "updatedAt": "2022-07-20T22:20:24.906Z",
  "devdoc": {
    "kind": "dev",
    "methods": {
      "approve(address,uint256)": {
        "details": "See {IERC721-approve}."
      },
      "balanceOf(address)": {
        "details": "See {IERC721-balanceOf}."
      },
      "getApproved(uint256)": {
        "details": "See {IERC721-getApproved}."
      },
      "isApprovedForAll(address,address)": {
        "details": "See {IERC721-isApprovedForAll}."
      },
      "ownerOf(uint256)": {
        "details": "See {IERC721-ownerOf}."
      },
      "safeTransferFrom(address,address,uint256)": {
        "details": "See {IERC721-safeTransferFrom}."
      },
      "safeTransferFrom(address,address,uint256,bytes)": {
        "details": "Safely transfers `tokenId` token from `from` to `to`, checking first that contract recipients are aware of the ERC721 protocol to prevent tokens from being forever locked. `_data` is additional data, it has no specified format and it is sent in call to `to`. This internal function is equivalent to {safeTransferFrom}, and can be used to e.g. implement alternative mechanisms to perform token transfer, such as signature-based. Requirements: - `from` cannot be the zero address. - `to` cannot be the zero address. - `tokenId` token must exist and be owned by `from`. - If `to` refers to a smart contract, it must implement {IERC721Receiver-onERC721Received}, which is called upon a safe transfer. Emits a {Transfer} event."
      },
      "setApprovalForAll(address,bool)": {
        "details": "Approve `operator` to operate on all of `owner` tokens Emits a {ApprovalForAll} event."
      },
      "supportsInterface(bytes4)": {
        "details": "See {IERC165-supportsInterface}."
      },
      "tokenURI(uint256)": {
        "details": "See {IERC721Metadata-tokenURI}."
      },
      "transferFrom(address,address,uint256)": {
        "details": "See {IERC721-transferFrom}."
      }
    },
    "version": 1
  },
  "userdoc": {
    "kind": "user",
    "methods": {},
    "version": 1
  }
}