{
  "contractName": "SuperERC721Exposed",
  "abi": [
    {
      "inputs": [
        {
          "internalType": "string",
          "name": "name_",
          "type": "string"
        },
        {
          "internalType": "string",
          "name": "symbol_",
          "type": "string"
        },
        {
          "internalType": "string",
          "name": "uri_",
          "type": "string"
        }
      ],
      "stateMutability": "nonpayable",
      "type": "constructor"
    },
    {
      "anonymous": false,
      "inputs": [
        {
          "indexed": true,
          "internalType": "address",
          "name": "owner",
          "type": "address"
        },
        {
          "indexed": true,
          "internalType": "address",
          "name": "approved",
          "type": "address"
        },
        {
          "indexed": true,
          "internalType": "uint256",
          "name": "tokenId",
          "type": "uint256"
        }
      ],
      "name": "Approval",
      "type": "event"
    },
    {
      "anonymous": false,
      "inputs": [
        {
          "indexed": true,
          "internalType": "address",
          "name": "owner",
          "type": "address"
        },
        {
          "indexed": true,
          "internalType": "address",
          "name": "operator",
          "type": "address"
        },
        {
          "indexed": false,
          "internalType": "bool",
          "name": "approved",
          "type": "bool"
        }
      ],
      "name": "ApprovalForAll",
      "type": "event"
    },
    {
      "anonymous": false,
      "inputs": [
        {
          "indexed": true,
          "internalType": "address",
          "name": "from",
          "type": "address"
        },
        {
          "indexed": true,
          "internalType": "address",
          "name": "to",
          "type": "address"
        },
        {
          "indexed": true,
          "internalType": "uint256",
          "name": "tokenId",
          "type": "uint256"
        }
      ],
      "name": "Transfer",
      "type": "event"
    },
    {
      "inputs": [
        {
          "internalType": "address",
          "name": "to",
          "type": "address"
        },
        {
          "internalType": "uint256",
          "name": "tokenId",
          "type": "uint256"
        }
      ],
      "name": "approve",
      "outputs": [],
      "stateMutability": "nonpayable",
      "type": "function"
    },
    {
      "inputs": [
        {
          "internalType": "address",
          "name": "owner",
          "type": "address"
        }
      ],
      "name": "balanceOf",
      "outputs": [
        {
          "internalType": "uint256",
          "name": "",
          "type": "uint256"
        }
      ],
      "stateMutability": "view",
      "type": "function"
    },
    {
      "inputs": [
        {
          "internalType": "address[]",
          "name": "owners",
          "type": "address[]"
        }
      ],
      "name": "balanceOfBatch",
      "outputs": [
        {
          "internalType": "uint256[]",
          "name": "",
          "type": "uint256[]"
        }
      ],
      "stateMutability": "view",
      "type": "function"
    },
    {
      "inputs": [
        {
          "internalType": "uint256",
          "name": "tokenId",
          "type": "uint256"
        }
      ],
      "name": "getApproved",
      "outputs": [
        {
          "internalType": "address",
          "name": "",
          "type": "address"
        }
      ],
      "stateMutability": "view",
      "type": "function"
    },
    {
      "inputs": [
        {
          "internalType": "address",
          "name": "owner",
          "type": "address"
        },
        {
          "internalType": "address",
          "name": "operator",
          "type": "address"
        }
      ],
      "name": "isApprovedForAll",
      "outputs": [
        {
          "internalType": "bool",
          "name": "",
          "type": "bool"
        }
      ],
      "stateMutability": "view",
      "type": "function"
    },
    {
      "inputs": [],
      "name": "name",
      "outputs": [
        {
          "internalType": "string",
          "name": "",
          "type": "string"
        }
      ],
      "stateMutability": "view",
      "type": "function"
    },
    {
      "inputs": [
        {
          "internalType": "uint256",
          "name": "tokenId",
          "type": "uint256"
        }
      ],
      "name": "ownerOf",
      "outputs": [
        {
          "internalType": "address",
          "name": "",
          "type": "address"
        }
      ],
      "stateMutability": "view",
      "type": "function"
    },
    {
      "inputs": [
        {
          "internalType": "uint256[]",
          "name": "ids",
          "type": "uint256[]"
        }
      ],
      "name": "ownerOfBatch",
      "outputs": [
        {
          "internalType": "address[]",
          "name": "",
          "type": "address[]"
        }
      ],
      "stateMutability": "view",
      "type": "function"
    },
    {
      "inputs": [
        {
          "internalType": "address",
          "name": "from",
          "type": "address"
        },
        {
          "internalType": "address",
          "name": "to",
          "type": "address"
        },
        {
          "internalType": "uint256[]",
          "name": "ids",
          "type": "uint256[]"
        },
        {
          "internalType": "bytes",
          "name": "_data",
          "type": "bytes"
        }
      ],
      "name": "safeBatchTransferFrom",
      "outputs": [],
      "stateMutability": "nonpayable",
      "type": "function"
    },
    {
      "inputs": [
        {
          "internalType": "address",
          "name": "from",
          "type": "address"
        },
        {
          "internalType": "address",
          "name": "to",
          "type": "address"
        },
        {
          "internalType": "uint256",
          "name": "tokenId",
          "type": "uint256"
        }
      ],
      "name": "safeTransferFrom",
      "outputs": [],
      "stateMutability": "nonpayable",
      "type": "function"
    },
    {
      "inputs": [
        {
          "internalType": "address",
          "name": "from",
          "type": "address"
        },
        {
          "internalType": "address",
          "name": "to",
          "type": "address"
        },
        {
          "internalType": "uint256",
          "name": "tokenId",
          "type": "uint256"
        },
        {
          "internalType": "bytes",
          "name": "_data",
          "type": "bytes"
        }
      ],
      "name": "safeTransferFrom",
      "outputs": [],
      "stateMutability": "nonpayable",
      "type": "function"
    },
    {
      "inputs": [
        {
          "internalType": "address",
          "name": "operator",
          "type": "address"
        },
        {
          "internalType": "bool",
          "name": "approved",
          "type": "bool"
        }
      ],
      "name": "setApprovalForAll",
      "outputs": [],
      "stateMutability": "nonpayable",
      "type": "function"
    },
    {
      "inputs": [
        {
          "internalType": "address[]",
          "name": "operators",
          "type": "address[]"
        },
        {
          "internalType": "bool",
          "name": "approved",
          "type": "bool"
        }
      ],
      "name": "setBatchApprovalForAll",
      "outputs": [],
      "stateMutability": "nonpayable",
      "type": "function"
    },
    {
      "inputs": [
        {
          "internalType": "bytes4",
          "name": "interfaceId",
          "type": "bytes4"
        }
      ],
      "name": "supportsInterface",
      "outputs": [
        {
          "internalType": "bool",
          "name": "",
          "type": "bool"
        }
      ],
      "stateMutability": "view",
      "type": "function"
    },
    {
      "inputs": [],
      "name": "symbol",
      "outputs": [
        {
          "internalType": "string",
          "name": "",
          "type": "string"
        }
      ],
      "stateMutability": "view",
      "type": "function"
    },
    {
      "inputs": [
        {
          "internalType": "uint256",
          "name": "",
          "type": "uint256"
        }
      ],
      "name": "tokenURI",
      "outputs": [
        {
          "internalType": "string",
          "name": "",
          "type": "string"
        }
      ],
      "stateMutability": "view",
      "type": "function"
    },
    {
      "inputs": [
        {
          "internalType": "address",
          "name": "from",
          "type": "address"
        },
        {
          "internalType": "address",
          "name": "to",
          "type": "address"
        },
        {
          "internalType": "uint256",
          "name": "tokenId",
          "type": "uint256"
        }
      ],
      "name": "transferFrom",
      "outputs": [],
      "stateMutability": "nonpayable",
      "type": "function"
    },
    {
      "inputs": [
        {
          "internalType": "address",
          "name": "to",
          "type": "address"
        },
        {
          "internalType": "uint256",
          "name": "tokenId",
          "type": "uint256"
        }
      ],
      "name": "mint",
      "outputs": [],
      "stateMutability": "nonpayable",
      "type": "function"
    },
    {
      "inputs": [
        {
          "internalType": "address",
          "name": "to",
          "type": "address"
        },
        {
          "internalType": "uint256[]",
          "name": "ids",
          "type": "uint256[]"
        }
      ],
      "name": "mintBatch",
      "outputs": [],
      "stateMutability": "nonpayable",
      "type": "function"
    }
  ],
  "bytecode": "0x60806040523480156200001157600080fd5b5060405162001fc738038062001fc78339810160408190526200003491620001eb565b8282828282828260009080519060200190620000529291906200008e565b508151620000689060019060208501906200008e565b5080516200007e9060029060208401906200008e565b50505050505050505050620002cf565b8280546200009c906200027c565b90600052602060002090601f016020900481019282620000c057600085556200010b565b82601f10620000db57805160ff19168380011785556200010b565b828001600101855582156200010b579182015b828111156200010b578251825591602001919060010190620000ee565b50620001199291506200011d565b5090565b5b808211156200011957600081556001016200011e565b600082601f8301126200014657600080fd5b81516001600160401b0380821115620001635762000163620002b9565b604051601f8301601f19908116603f011681019082821181831017156200018e576200018e620002b9565b81604052838152602092508683858801011115620001ab57600080fd5b600091505b83821015620001cf5785820183015181830184015290820190620001b0565b83821115620001e15760008385830101525b9695505050505050565b6000806000606084860312156200020157600080fd5b83516001600160401b03808211156200021957600080fd5b620002278783880162000134565b945060208601519150808211156200023e57600080fd5b6200024c8783880162000134565b935060408601519150808211156200026357600080fd5b50620002728682870162000134565b9150509250925092565b600181811c908216806200029157607f821691505b60208210811415620002b357634e487b7160e01b600052602260045260246000fd5b50919050565b634e487b7160e01b600052604160045260246000fd5b611ce880620002df6000396000f3fe608060405234801561001057600080fd5b50600436106101515760003560e01c8063458c738e116100cd578063a22cb46511610081578063bda8011711610066578063bda80117146102dd578063c87b56dd146102fd578063e985e9c51461031057600080fd5b8063a22cb465146102b7578063b88d4fde146102ca57600080fd5b806370a08231116100b257806370a082311461027b57806375ceb3411461029c57806395d89b41146102af57600080fd5b8063458c738e146102325780636352211e1461025257600080fd5b8063187ddf871161012457806328cfbd461161010957806328cfbd46146101f957806340c10f191461020c57806342842e0e1461021f57600080fd5b8063187ddf87146101d357806323b872dd146101e657600080fd5b806301ffc9a71461015657806306fdde031461017e578063081812fc14610193578063095ea7b3146101be575b600080fd5b610169610164366004611967565b61034c565b60405190151581526020015b60405180910390f35b6101866103e9565b6040516101759190611ac8565b6101a66101a13660046119a1565b610477565b6040516001600160a01b039091168152602001610175565b6101d16101cc366004611886565b610522565b005b6101d16101e13660046118ed565b61062c565b6101d16101f4366004611776565b61071c565b6101d16102073660046116f1565b6107f7565b6101d161021a366004611886565b61094d565b6101d161022d366004611776565b61095b565b6102456102403660046118b0565b610976565b6040516101759190611a90565b6101a66102603660046119a1565b6000908152600360205260409020546001600160a01b031690565b61028e61028936600461169c565b610a41565b604051908152602001610175565b6101d16102aa36600461180e565b610adb565b610186610ae5565b6101d16102c536600461185c565b610af2565b6101d16102d83660046117b2565b610b5e565b6102f06102eb366004611932565b610c46565b6040516101759190611a43565b61018661030b3660046119a1565b610d18565b61016961031e3660046116be565b6001600160a01b03918216600090815260066020908152604080832093909416825291909152205460ff1690565b60006001600160e01b031982167f80ac58cd0000000000000000000000000000000000000000000000000000000014806103af57506001600160e01b031982167f5b5e139f00000000000000000000000000000000000000000000000000000000145b806103e357507f01ffc9a7000000000000000000000000000000000000000000000000000000006001600160e01b03198316145b92915050565b600080546103f690611b2e565b80601f016020809104026020016040519081016040528092919081815260200182805461042290611b2e565b801561046f5780601f106104445761010080835404028352916020019161046f565b820191906000526020600020905b81548152906001019060200180831161045257829003601f168201915b505050505081565b6000818152600360205260408120546001600160a01b03166105065760405162461bcd60e51b815260206004820152602c60248201527f4552433732313a20617070726f76656420717565727920666f72206e6f6e657860448201527f697374656e7420746f6b656e000000000000000000000000000000000000000060648201526084015b60405180910390fd5b506000908152600560205260409020546001600160a01b031690565b60008181526003602052604090205481906001600160a01b0316331461058a5760405162461bcd60e51b815260206004820152601b60248201527f4552433732313a2063616c6c6564206973206e6f74206f776e6572000000000060448201526064016104fd565b6000828152600360205260409020546001600160a01b0390811690841681141561061c5760405162461bcd60e51b815260206004820152602160248201527f4552433732313a20617070726f76616c20746f2063757272656e74206f776e6560448201527f720000000000000000000000000000000000000000000000000000000000000060648201526084016104fd565b6106268484610dac565b50505050565b60005b825181101561071757336000908152600660205260408120845184929086908590811061065e5761065e611bc7565b60200260200101516001600160a01b03166001600160a01b0316815260200190815260200160002060006101000a81548160ff0219169083151502179055508281815181106106af576106af611bc7565b60200260200101516001600160a01b0316336001600160a01b03167f17307eab39ab6107e8899845ad3d59bd9653f200f220920489ca2b5937696c31846040516106fd911515815260200190565b60405180910390a38061070f81611b96565b91505061062f565b505050565b60008181526003602052604090205481906001600160a01b03163381148061076757506001600160a01b038116600090815260066020908152604080832033845290915290205460ff165b8061078857506000828152600560205260409020546001600160a01b031633145b6107e55760405162461bcd60e51b815260206004820152602860248201527f4552433732313a2063616c6c6572206973206e6f74206f776e6572206e6f7220604482015267185c1c1c9bdd995960c21b60648201526084016104fd565b6107f0858585610e20565b5050505050565b60005b82518110156107f057336001600160a01b038616148061083d57506001600160a01b038516600090815260066020908152604080832033845290915290205460ff165b8061088057506005600084838151811061085957610859611bc7565b6020908102919091018101518252810191909152604001600020546001600160a01b031633145b6108f25760405162461bcd60e51b815260206004820152602960248201527f53757065724552433732313a2063616c6c6572206973206e6f742076616c696460448201527f206f70657261746f72000000000000000000000000000000000000000000000060648201526084016104fd565b610916858585848151811061090957610909611bc7565b6020026020010151610e20565b61093b858585848151811061092d5761092d611bc7565b602002602001015185610ffa565b8061094581611b96565b9150506107fa565b61095782826111c2565b5050565b61071783838360405180602001604052806000815250610b5e565b60606000825167ffffffffffffffff81111561099457610994611bdd565b6040519080825280602002602001820160405280156109bd578160200160208202803683370190505b50905060005b8351811015610a3a57600460008583815181106109e2576109e2611bc7565b60200260200101516001600160a01b03166001600160a01b0316815260200190815260200160002054828281518110610a1d57610a1d611bc7565b602090810291909101015280610a3281611b96565b9150506109c3565b5092915050565b60006001600160a01b038216610abf5760405162461bcd60e51b815260206004820152602a60248201527f4552433732313a2062616c616e636520717565727920666f7220746865207a6560448201527f726f20616464726573730000000000000000000000000000000000000000000060648201526084016104fd565b506001600160a01b031660009081526004602052604090205490565b6109578282611329565b600180546103f690611b2e565b3360008181526006602090815260408083206001600160a01b03871680855290835292819020805460ff191686151590811790915590519081529192917f17307eab39ab6107e8899845ad3d59bd9653f200f220920489ca2b5937696c31910160405180910390a35050565b60008281526003602052604090205482906001600160a01b031633811480610ba957506001600160a01b038116600090815260066020908152604080832033845290915290205460ff165b80610bca57506000828152600560205260409020546001600160a01b031633145b610c275760405162461bcd60e51b815260206004820152602860248201527f4552433732313a2063616c6c6572206973206e6f74206f776e6572206e6f7220604482015267185c1c1c9bdd995960c21b60648201526084016104fd565b610c32868686610e20565b610c3e86868686610ffa565b505050505050565b60606000825167ffffffffffffffff811115610c6457610c64611bdd565b604051908082528060200260200182016040528015610c8d578160200160208202803683370190505b50905060005b8351811015610a3a5760036000858381518110610cb257610cb2611bc7565b6020026020010151815260200190815260200160002060009054906101000a90046001600160a01b0316828281518110610cee57610cee611bc7565b6001600160a01b039092166020928302919091019091015280610d1081611b96565b915050610c93565b606060028054610d2790611b2e565b80601f0160208091040260200160405190810160405280929190818152602001828054610d5390611b2e565b8015610da05780601f10610d7557610100808354040283529160200191610da0565b820191906000526020600020905b815481529060010190602001808311610d8357829003601f168201915b50505050509050919050565b6000818152600560209081526040808320805473ffffffffffffffffffffffffffffffffffffffff19166001600160a01b038781169182179092556003909352818420549151859492909116917f8c5be1e5ebec7d5bd14f71427d1e84f3dd0314c0f7b2291e5b200ac8c7c3b92591a45050565b6000818152600360205260409020546001600160a01b03848116911614610eaf5760405162461bcd60e51b815260206004820152602960248201527f4552433732313a207472616e73666572206f6620746f6b656e2074686174206960448201527f73206e6f74206f776e000000000000000000000000000000000000000000000060648201526084016104fd565b6001600160a01b038216610f2a5760405162461bcd60e51b8152602060048201526024808201527f4552433732313a207472616e7366657220746f20746865207a65726f2061646460448201527f726573730000000000000000000000000000000000000000000000000000000060648201526084016104fd565b610f35600082610dac565b6001600160a01b0383166000908152600460205260408120805460019290610f5e908490611b17565b90915550506001600160a01b0382166000908152600460205260408120805460019290610f8c908490611aff565b9091555050600081815260036020526040808220805473ffffffffffffffffffffffffffffffffffffffff19166001600160a01b0386811691821790925591518493918716917fddf252ad1be2c89b69c2b068fc378daa952ba7f163c4a11628f55a4df523b3ef91a4505050565b6001600160a01b0383163b1561062657604051630a85bd0160e11b81526001600160a01b0384169063150b7a029061103c903390889087908790600401611a07565b602060405180830381600087803b15801561105657600080fd5b505af1925050508015611086575060408051601f3d908101601f1916820190925261108391810190611984565b60015b61113c57611092611bf3565b806308c379a014156110cc57506110a7611c0f565b806110b257506110ce565b8060405162461bcd60e51b81526004016104fd9190611ac8565b505b60405162461bcd60e51b815260206004820152603260248201527f4552433732313a207472616e7366657220746f206e6f6e20455243373231526560448201527f63656976657220696d706c656d656e746572000000000000000000000000000060648201526084016104fd565b6001600160e01b03198116630a85bd0160e11b146107f05760405162461bcd60e51b815260206004820152602560248201527f4552433732313a2045524337323152656365697665722072656a65637465642060448201527f746f6b656e00000000000000000000000000000000000000000000000000000060648201526084016104fd565b6001600160a01b0382166112185760405162461bcd60e51b815260206004820181905260248201527f4552433732313a206d696e7420746f20746865207a65726f206164647265737360448201526064016104fd565b6000818152600360205260409020546001600160a01b03161561127d5760405162461bcd60e51b815260206004820152601c60248201527f4552433732313a20746f6b656e20616c7265616479206d696e7465640000000060448201526064016104fd565b6001600160a01b03821660009081526004602052604081208054600192906112a6908490611aff565b9091555050600081815260036020526040808220805473ffffffffffffffffffffffffffffffffffffffff19166001600160a01b03861690811790915590518392907fddf252ad1be2c89b69c2b068fc378daa952ba7f163c4a11628f55a4df523b3ef908290a46109576000838360405180602001604052806000815250610ffa565b60005b81518110156114e05760006001600160a01b03166003600084848151811061135657611356611bc7565b6020908102919091018101518252810191909152604001600020546001600160a01b0316146113ed5760405162461bcd60e51b815260206004820152602160248201527f53757065724552433732313a20746f6b656e20616c7265616479206d696e746560448201527f640000000000000000000000000000000000000000000000000000000000000060648201526084016104fd565b826003600084848151811061140457611404611bc7565b6020026020010151815260200190815260200160002060006101000a8154816001600160a01b0302191690836001600160a01b0316021790555081818151811061145057611450611bc7565b6020026020010151836001600160a01b031660006001600160a01b03167fddf252ad1be2c89b69c2b068fc378daa952ba7f163c4a11628f55a4df523b3ef60405160405180910390a46114ce6000848484815181106114b1576114b1611bc7565b602002602001015160405180602001604052806000815250610ffa565b806114d881611b96565b91505061132c565b5080516001600160a01b0383166000908152600460205260408120805490919061150b908490611aff565b90915550505050565b80356001600160a01b038116811461152b57600080fd5b919050565b600082601f83011261154157600080fd5b8135602061154e82611adb565b60405161155b8282611b69565b8381528281019150858301600585901b8701840188101561157b57600080fd5b60005b858110156115a15761158f82611514565b8452928401929084019060010161157e565b5090979650505050505050565b600082601f8301126115bf57600080fd5b813560206115cc82611adb565b6040516115d98282611b69565b8381528281019150858301600585901b870184018810156115f957600080fd5b60005b858110156115a1578135845292840192908401906001016115fc565b8035801515811461152b57600080fd5b600082601f83011261163957600080fd5b813567ffffffffffffffff81111561165357611653611bdd565b60405161166a601f8301601f191660200182611b69565b81815284602083860101111561167f57600080fd5b816020850160208301376000918101602001919091529392505050565b6000602082840312156116ae57600080fd5b6116b782611514565b9392505050565b600080604083850312156116d157600080fd5b6116da83611514565b91506116e860208401611514565b90509250929050565b6000806000806080858703121561170757600080fd5b61171085611514565b935061171e60208601611514565b9250604085013567ffffffffffffffff8082111561173b57600080fd5b611747888389016115ae565b9350606087013591508082111561175d57600080fd5b5061176a87828801611628565b91505092959194509250565b60008060006060848603121561178b57600080fd5b61179484611514565b92506117a260208501611514565b9150604084013590509250925092565b600080600080608085870312156117c857600080fd5b6117d185611514565b93506117df60208601611514565b925060408501359150606085013567ffffffffffffffff81111561180257600080fd5b61176a87828801611628565b6000806040838503121561182157600080fd5b61182a83611514565b9150602083013567ffffffffffffffff81111561184657600080fd5b611852858286016115ae565b9150509250929050565b6000806040838503121561186f57600080fd5b61187883611514565b91506116e860208401611618565b6000806040838503121561189957600080fd5b6118a283611514565b946020939093013593505050565b6000602082840312156118c257600080fd5b813567ffffffffffffffff8111156118d957600080fd5b6118e584828501611530565b949350505050565b6000806040838503121561190057600080fd5b823567ffffffffffffffff81111561191757600080fd5b61192385828601611530565b9250506116e860208401611618565b60006020828403121561194457600080fd5b813567ffffffffffffffff81111561195b57600080fd5b6118e5848285016115ae565b60006020828403121561197957600080fd5b81356116b781611c99565b60006020828403121561199657600080fd5b81516116b781611c99565b6000602082840312156119b357600080fd5b5035919050565b6000815180845260005b818110156119e0576020818501810151868301820152016119c4565b818111156119f2576000602083870101525b50601f01601f19169290920160200192915050565b60006001600160a01b03808716835280861660208401525083604083015260806060830152611a3960808301846119ba565b9695505050505050565b6020808252825182820181905260009190848201906040850190845b81811015611a845783516001600160a01b031683529284019291840191600101611a5f565b50909695505050505050565b6020808252825182820181905260009190848201906040850190845b81811015611a8457835183529284019291840191600101611aac565b6020815260006116b760208301846119ba565b600067ffffffffffffffff821115611af557611af5611bdd565b5060051b60200190565b60008219821115611b1257611b12611bb1565b500190565b600082821015611b2957611b29611bb1565b500390565b600181811c90821680611b4257607f821691505b60208210811415611b6357634e487b7160e01b600052602260045260246000fd5b50919050565b601f8201601f1916810167ffffffffffffffff81118282101715611b8f57611b8f611bdd565b6040525050565b6000600019821415611baa57611baa611bb1565b5060010190565b634e487b7160e01b600052601160045260246000fd5b634e487b7160e01b600052603260045260246000fd5b634e487b7160e01b600052604160045260246000fd5b600060033d1115611c0c5760046000803e5060005160e01c5b90565b600060443d1015611c1d5790565b6040516003193d81016004833e81513d67ffffffffffffffff8160248401118184111715611c4d57505050505090565b8285019150815181811115611c655750505050505090565b843d8701016020828501011115611c7f5750505050505090565b611c8e60208286010187611b69565b509095945050505050565b6001600160e01b031981168114611caf57600080fd5b5056fea26469706673582212200e209ba7bb915510eec8c43a2dc966c82dc2347fcf16e77c18c36d1f4b5d5bf764736f6c63430008060033",
  "immutableReferences": {},
  "source": "// SPDX-License-Identifier: UNLICENSED\npragma solidity ^0.8.0;\n\nimport \"../tokens/SuperERC721.sol\";\n\ncontract SuperERC721Exposed is SuperERC721 {\n    constructor(\n        string memory name_,\n        string memory symbol_,\n        string memory uri_\n    )\n        SuperERC721(name_, symbol_, uri_) // solhint-disable-next-line no-empty-blocks\n    {}\n\n    function mint(address to, uint256 tokenId) public {\n        _mint(to, tokenId);\n    }\n\n    function mintBatch(address to, uint256[] memory ids) public {\n        _mintBatch(to, ids);\n    }\n}\n",
  "sourcePath": "/home/runner/work/karmaToken/karmaToken/contracts/exposed/SuperERC721Exposed.sol",
  "compiler": {
    "name": "solc",
    "version": "0.8.6+commit.11564f7e.Linux.g++"
  },
  "schemaVersion": "3.4.7",
  "updatedAt": "2022-07-15T13:44:05.619Z",
  "devdoc": {
    "kind": "dev",
    "methods": {
      "approve(address,uint256)": {
        "details": "See {IERC721-approve}."
      },
      "balanceOf(address)": {
        "details": "See {IERC721-balanceOf}."
      },
      "getApproved(uint256)": {
        "details": "See {IERC721-getApproved}."
      },
      "isApprovedForAll(address,address)": {
        "details": "See {IERC721-isApprovedForAll}."
      },
      "ownerOf(uint256)": {
        "details": "See {IERC721-ownerOf}."
      },
      "safeTransferFrom(address,address,uint256)": {
        "details": "See {IERC721-safeTransferFrom}."
      },
      "safeTransferFrom(address,address,uint256,bytes)": {
        "details": "Safely transfers `tokenId` token from `from` to `to`, checking first that contract recipients are aware of the ERC721 protocol to prevent tokens from being forever locked. `_data` is additional data, it has no specified format and it is sent in call to `to`. This internal function is equivalent to {safeTransferFrom}, and can be used to e.g. implement alternative mechanisms to perform token transfer, such as signature-based. Requirements: - `from` cannot be the zero address. - `to` cannot be the zero address. - `tokenId` token must exist and be owned by `from`. - If `to` refers to a smart contract, it must implement {IERC721Receiver-onERC721Received}, which is called upon a safe transfer. Emits a {Transfer} event."
      },
      "setApprovalForAll(address,bool)": {
        "details": "Approve `operator` to operate on all of `owner` tokens Emits a {ApprovalForAll} event."
      },
      "supportsInterface(bytes4)": {
        "details": "See {IERC165-supportsInterface}."
      },
      "tokenURI(uint256)": {
        "details": "See {IERC721Metadata-tokenURI}."
      },
      "transferFrom(address,address,uint256)": {
        "details": "See {IERC721-transferFrom}."
      }
    },
    "version": 1
  },
  "userdoc": {
    "kind": "user",
    "methods": {},
    "version": 1
  }
}