{
  "contractName": "UpgradeableDelegate",
  "abi": [
    {
      "anonymous": false,
      "inputs": [
        {
          "indexed": true,
          "internalType": "address",
          "name": "previousOwner",
          "type": "address"
        },
        {
          "indexed": true,
          "internalType": "address",
          "name": "newOwner",
          "type": "address"
        }
      ],
      "name": "OwnershipTransferred",
      "type": "event"
    },
    {
      "stateMutability": "payable",
      "type": "fallback"
    },
    {
      "inputs": [],
      "name": "owner",
      "outputs": [
        {
          "internalType": "address",
          "name": "",
          "type": "address"
        }
      ],
      "stateMutability": "view",
      "type": "function"
    },
    {
      "inputs": [],
      "name": "ref",
      "outputs": [
        {
          "internalType": "address",
          "name": "",
          "type": "address"
        }
      ],
      "stateMutability": "view",
      "type": "function"
    },
    {
      "inputs": [],
      "name": "refChange",
      "outputs": [
        {
          "internalType": "bytes32",
          "name": "",
          "type": "bytes32"
        }
      ],
      "stateMutability": "view",
      "type": "function"
    },
    {
      "inputs": [],
      "name": "renounceOwnership",
      "outputs": [],
      "stateMutability": "nonpayable",
      "type": "function"
    },
    {
      "inputs": [
        {
          "internalType": "address",
          "name": "newOwner",
          "type": "address"
        }
      ],
      "name": "transferOwnership",
      "outputs": [],
      "stateMutability": "nonpayable",
      "type": "function"
    },
    {
      "stateMutability": "payable",
      "type": "receive"
    },
    {
      "inputs": [
        {
          "internalType": "address",
          "name": "newRef",
          "type": "address"
        }
      ],
      "name": "submitChange",
      "outputs": [],
      "stateMutability": "nonpayable",
      "type": "function"
    },
    {
      "inputs": [],
      "name": "implementChange",
      "outputs": [],
      "stateMutability": "nonpayable",
      "type": "function"
    }
  ],
  "bytecode": "0x6080604052600180546001600160a01b0319169055600060025534801561002557600080fd5b5061002f33610034565b610084565b600080546001600160a01b038381166001600160a01b0319831681178455604051919092169283917f8be0079c531659141344cd1fd0a4f28419497f9722a3daafe3b4186f6b6457e09190a35050565b610515806100936000396000f3fe60806040526004361061006e5760003560e01c80638da5cb5b1161004b5780638da5cb5b146100ed578063cf66b6bb1461010b578063ee0e80891461012b578063f2fde38b1461014057005b806321a78f6814610077578063715018a6146100b457806371ec68f2146100c957005b3661007557005b005b34801561008357600080fd5b50600154610097906001600160a01b031681565b6040516001600160a01b0390911681526020015b60405180910390f35b3480156100c057600080fd5b50610075610160565b3480156100d557600080fd5b506100df60025481565b6040519081526020016100ab565b3480156100f957600080fd5b506000546001600160a01b0316610097565b34801561011757600080fd5b5061007561012636600461045c565b6101cb565b34801561013757600080fd5b5061007561025a565b34801561014c57600080fd5b5061007561015b36600461045c565b61031d565b6000546001600160a01b031633146101bf5760405162461bcd60e51b815260206004820181905260248201527f4f776e61626c653a2063616c6c6572206973206e6f7420746865206f776e657260448201526064015b60405180910390fd5b6101c960006103ff565b565b6000546001600160a01b031633146102255760405162461bcd60e51b815260206004820181905260248201527f4f776e61626c653a2063616c6c6572206973206e6f7420746865206f776e657260448201526064016101b6565b6001600160a01b03167fffffffffffffffff0000000000000000000000000000000000000000000000004260c01b1617600255565b60025460c01c61026d8162278d0061048c565b67ffffffffffffffff1642116102eb5760405162461bcd60e51b815260206004820152603960248201527f4c696272617279496e746572666163653a20496e73756666696369656e74207460448201527f696d652073696e6365206368616e67652070726f706f73616c0000000000000060648201526084016101b6565b506002546001805473ffffffffffffffffffffffffffffffffffffffff19166001600160a01b03909216919091179055565b6000546001600160a01b031633146103775760405162461bcd60e51b815260206004820181905260248201527f4f776e61626c653a2063616c6c6572206973206e6f7420746865206f776e657260448201526064016101b6565b6001600160a01b0381166103f35760405162461bcd60e51b815260206004820152602660248201527f4f776e61626c653a206e6577206f776e657220697320746865207a65726f206160448201527f646472657373000000000000000000000000000000000000000000000000000060648201526084016101b6565b6103fc816103ff565b50565b600080546001600160a01b0383811673ffffffffffffffffffffffffffffffffffffffff19831681178455604051919092169283917f8be0079c531659141344cd1fd0a4f28419497f9722a3daafe3b4186f6b6457e09190a35050565b60006020828403121561046e57600080fd5b81356001600160a01b038116811461048557600080fd5b9392505050565b600067ffffffffffffffff8083168185168083038211156104d6577f4e487b7100000000000000000000000000000000000000000000000000000000600052601160045260246000fd5b0194935050505056fea2646970667358221220dc8851a90019e56bc32bbf1fe8ddffa715fb6625807065bacc6b62eb45f5846364736f6c63430008060033",
  "immutableReferences": {},
  "source": "// SPDX-License-Identifier: UNLICENSED\npragma solidity ^0.8.0;\n\nimport \"@openzeppelin/contracts/access/Ownable.sol\";\n\ncontract UpgradeableDelegate is Ownable {\n    address public ref = address(0);\n    bytes32 public refChange = 0;\n\n    function submitChange(address newRef) public onlyOwner {\n        // first 8 bytes are timestamp, 4 empty, last 20 are new ref\n        bytes8 t = bytes8(uint64(block.timestamp));\n        refChange = (bytes32(bytes20(newRef)) >> 96) | t;\n    }\n\n    function implementChange() public {\n        // read timestamp and new ref\n        uint64 t = uint64(bytes8(refChange));\n        require(\n            block.timestamp > t + 60 * 60 * 24 * 30,\n            \"LibraryInterface: Insufficient time since change proposal\"\n        );\n        ref = address(bytes20(refChange << 96));\n    }\n\n    fallback() external payable {\n        // do things\n    }\n\n    receive() external payable {\n        // do same things?\n    }\n}\n",
  "sourcePath": "/home/runner/work/karmaToken/karmaToken/contracts/UpgradeableDelegate.sol",
  "compiler": {
    "name": "solc",
    "version": "0.8.6+commit.11564f7e.Linux.g++"
  },
  "schemaVersion": "3.4.7",
  "updatedAt": "2022-07-15T13:44:05.603Z",
  "devdoc": {
    "kind": "dev",
    "methods": {
      "owner()": {
        "details": "Returns the address of the current owner."
      },
      "renounceOwnership()": {
        "details": "Leaves the contract without owner. It will not be possible to call `onlyOwner` functions anymore. Can only be called by the current owner. NOTE: Renouncing ownership will leave the contract without an owner, thereby removing any functionality that is only available to the owner."
      },
      "transferOwnership(address)": {
        "details": "Transfers ownership of the contract to a new account (`newOwner`). Can only be called by the current owner."
      }
    },
    "version": 1
  },
  "userdoc": {
    "kind": "user",
    "methods": {},
    "version": 1
  }
}